:100000000C94E2020C940A030C940A030C940A0365
:100010000C940A030C940A030C940A030C940A032C
:100020000C940A030C940A030C940A030C940A031C
:100030000C940A030C940A030C940A030C940A030C
:100040000C94A30B0C940A030C94D2030C94AC03F1
:100050000C940A030C940A030C940A030C940A03EC
:100060000C940A030C940A030000000024002700EB
:100070002A00010204081020408001020408102018
:1000800001020408102000000000250028002B00B9
:10009000040404040404040402020202020203032E
:1000A0000303030300000000003E5B4F5B3E3E6B1A
:1000B0004F6B3E1C3E7C3E1C183C7E3C181C577D02
:1000C000571C1C5E7F5E1C00183C1800FFE7C3E74E
:1000D000FF0018241800FFE7DBE7FF30483A060E60
:1000E0002629792926407F050507407F05253F5AA7
:1000F0003CE73C5A7F3E1C1C08081C1C3E7F142217
:100100007F22145F5F005F5F06097F017F006689C1
:10011000956A606060606094A2FFA29408047E0407
:100120000810207E201008082A1C08081C2A08082D
:100130001E101010100C1E0C1E0C30383E383006ED
:100140000E3E0E06000000000000005F00000007E9
:10015000000700147F147F14242A7F2A1223130817
:10016000646236495620500008070300001C2241F3
:10017000000041221C002A1C7F1C2A08083E080897
:100180000080703000080808080800006060002047
:10019000100804023E5149453E00427F400072492A
:1001A0004949462141494D331814127F10274545CE
:1001B00045393C4A494931412111090736494949E4
:1001C00036464949291E0000140000004034000052
:1001D00000081422411414141414004122140802BB
:1001E000015909063E415D594E7C1211127C7F492E
:1001F0004949363E414141227F4141413E7F494983
:1002000049417F090909013E414151737F080808AE
:100210007F00417F41002040413F017F081422417F
:100220007F404040407F021C027F7F0408107F3ED9
:100230004141413E7F090909063E4151215E7F0946
:10024000192946264949493203017F01033F4040AD
:10025000403F1F2040201F3F4038403F6314081498
:100260006303047804036159494D43007F414141D0
:100270000204081020004141417F040201020440B1
:1002800040404040000307080020545478407F2835
:100290004444383844444428384444287F3854542B
:1002A000541800087E090218A4A49C787F0804044E
:1002B0007800447D40002040403D007F10284400ED
:1002C00000417F40007C047804787C08040478387E
:1002D00044444438FC1824241818242418FC7C08AE
:1002E000040408485454542404043F44243C40402B
:1002F000207C1C2040201C3C4030403C44281028DE
:10030000444C9090907C4464544C44000836410026
:100310000000770000004136080002010204023CA0
:100320002623263C1EA1A161123A4040207A38546F
:1003300054555921555579412254547842215554E8
:10034000784020545579400C1E527212395555553B
:1003500059395454545939555454580000457C4126
:100360000002457D420001457C407D1211127DF066
:10037000282528F07C545545002054547C547C0A90
:10038000097F4932494949323A4444443A324A4859
:1003900048303A4141217A3A42402078009DA0A05D
:1003A0007D3D4242423D3D4040403D3C24FF2424AF
:1003B000487E4943662B2FFC2F2BFF0929F620C0CE
:1003C000887E090320545479410000447D4130481F
:1003D000484A32384040227A007A0A0A727D0D1962
:1003E000317D2629292F28262929292630484D40C4
:1003F00020380808080808080808382F10C8ACBAC0
:100400002F102834FA00007B000008142A1422223E
:10041000142A14085500550055AA55AA55AAFF5587
:10042000FF55FF000000FF00101010FF001414140F
:10043000FF001010FF00FF1010F010F0141414FC57
:10044000001414F700FF0000FF00FF1414F404FC74
:10045000141417101F10101F101F1414141F001055
:100460001010F0000000001F101010101F101010CE
:1004700010F010000000FF101010101010101010DD
:10048000FF10000000FF140000FF00FF00001F101D
:10049000170000FC04F414141710171414F404F4D7
:1004A0000000FF00F714141414141414F700F714C8
:1004B0001414171410101F101F141414F414101017
:1004C000F010F000001F101F0000001F14000000BB
:1004D000FC140000F010F01010FF10FF141414FFB3
:1004E000141010101F00000000F010FFFFFFFFFFAE
:1004F000F0F0F0F0F0FFFFFF0000000000FFFF0F42
:100500000F0F0F0F3844443844FC4A4A4A347E02E5
:10051000020606027E027E02635549416338444466
:100520003C04407E201E2006027E020299A5E7A51B
:10053000991C2A492A1C4C7201724C304A4D4D308C
:100540003048784830BC625A463D3E494949007EB1
:100550000101017E2A2A2A2A2A44445F4444405148
:100560004A444040444A51400000FF0103E080FFFC
:10057000000008086B6B083612362436060F090F88
:1005800006000018180000001010003040FF0101A4
:10059000001F01011E00191D1712003C3C3C3C00CD
:1005A00000000000000000002300260029000000D9
:1005B0000008000201000003040700000000000022
:1005C0000000CF1311241FBECFEFD8E0DEBFCDBF98
:1005D00013E0A0E0B1E0EAE6FAE202C005900D9275
:1005E000A037B107D9F727E0A0E7B3E001C01D921B
:1005F000AE37B207E1F712E0C2EED2E004C02197B5
:10060000FE010E942815C13ED107C9F70E94420E83
:100610000C9433150C940000CF92DF92EF92FF926E
:100620000F931F93CF93DF936C017A018B01C0E08E
:10063000D0E0CE15DF0589F0D8016D918D01D6018E
:10064000ED91FC910190F081E02DC6010995892B77
:1006500011F47E0102C02196ECCFC701DF91CF914A
:100660001F910F91FF90EF90DF90CF9008950E941F
:100670002E158CEB96E00E94350421E0892B09F4BD
:1006800020E0822F0895EF92FF920F931F93CF9354
:10069000DF93EC0181E0888F9B8D8C8D981305C0D2
:1006A000E889F989808185FD24C0F62E0B8D10E044
:1006B0000F5F1F4F0F731127E02E8C8DE8120CC0B7
:1006C0000FB607FCFACFE889F989808185FFF5CF5D
:1006D000CE010E94B30AF1CF8B8DFE01E80FF11D10
:1006E000E35AFF4FF0820B8FEA89FB898081806299
:1006F00007C0EE89FF896083E889F9898081806479
:10070000808381E090E0DF91CF911F910F91FF9066
:10071000EF900895CF93DF93EC01888D8823C9F083
:10072000EA89FB89808185FD05C0A889B9898C91FA
:1007300086FD0FC00FB607FCF5CF808185FFF2CF95
:10074000A889B9898C9185FFEDCFCE010E94B30AAB
:10075000E7CFDF91CF9108951F920F920FB60F92BE
:1007600011242F933F934F935F936F937F938F93B6
:100770009F93AF93BF93EF93FF938CEB96E00E9410
:10078000B30AFF91EF91BF91AF919F918F917F91AC
:100790006F915F914F913F912F910F900FBE0F90EE
:1007A0001F9018951F920F920FB60F9211242F933E
:1007B0008F939F93EF93FF93E091CC06F091CD063A
:1007C0008081E091D206F091D30682FD12C0908123
:1007D0008091D5068F5F8F732091D606821751F0D6
:1007E000E091D506F0E0E454F94F958F8093D5065B
:1007F00001C08081FF91EF919F918F912F910F9078
:100800000FBE0F901F901895FC01538D448D252F1E
:1008100030E0842F90E0821B930B541710F0CF969A
:10082000089501970895FC01918D828D981761F0CC
:10083000828DDF01A80FB11D5D968C91928D9F5F17
:100840009F73928F90E008958FEF9FEF0895FC01C2
:10085000918D828D981731F0828DE80FF11D858D75
:1008600090E008958FEF9FEF0895FC01918D228D08
:10087000892F90E0805C9F4F821B91098F7399278D
:10088000089580E090E0892B29F00E9439038111BE
:100890000C9400000895833081F028F4813099F0A1
:1008A0008230A1F008958730A9F08830B9F0843003
:1008B000D1F4809180008F7D03C0809180008F777C
:1008C00080938000089584B58F7702C084B58F7DB2
:1008D00084BD08958091B0008F7703C08091B000EF
:1008E0008F7D8093B00008953FB7F8948091B8064B
:1008F0009091B906A091BA06B091BB0626B5A89B07
:1009000005C02F3F19F00196A11DB11D3FBFBA2FA1
:10091000A92F982F8827820F911DA11DB11DBC0101
:10092000CD0142E0660F771F881F991F4A95D1F7C6
:100930000895FC0177FD68C0808591856817790767
:100940000CF062C057FD60C0828593854817590737
:100950000CF05AC08589823059F08330B1F0813073
:10096000D1F48FE290E0861B970BBA01AC0113C063
:1009700083E590E0FC01E61BF70BBF018FE290E0FE
:10098000FC01E41BF50BAF0106C083E590E0841B7E
:10099000950BAB01BC0164357105B0F540335105D1
:1009A00098F5CA01E3E095958795EA95E1F74770D8
:1009B0005527232BA1F024E5289FF001299FF00D56
:1009C00011246E0F7F1FFB01E85FFE4F81E090E076
:1009D00001C0880F4A95EAF79081892B14C024E55D
:1009E000289FF001299FF00D11246E0F7F1FFB013E
:1009F000E85FFE4F81E090E001C0880F4A95EAF77A
:100A0000809590818923808308950895FC01637007
:100A1000658B8481958126813781613039F063301F
:100A200029F091878087338722870895318720872F
:100A30009387828708952F923F924F925F926F9291
:100A40007F928F929F92AF92BF92CF92DF92EF925E
:100A5000FF920F931F93CF93DF93CDB7DEB76C97C1
:100A60000FB6F894DEBF0FBECDBF9C8F8B8F5B019E
:100A70001A011F830E833701C982DC0158964D91FC
:100A80005C9159974115510509F0E5C018968D9173
:100A90009C911997681779070CF0CAC11A968D9125
:100AA0009C911B97281639060CF0C2C18C2C912CF6
:100AB000FB0136E0C39EE00DF11D1124FB87EA87A0
:100AC0001E161F060CF0B4C1C40133E0880F991F35
:100AD0003A95E1F79D878C87820D931D18161906AC
:100AE0000CF0A6C157968C91811103C0203B08F0F1
:100AF0002F5FAB8DBC8DED91FC9111970284F38536
:100B0000E02DCD012A8F09952A8DB5E02B9F90010C
:100B10001124F5013596FF87EE87BB82AA82250155
:100B2000A9014A195B09598B488BC10108969B8B17
:100B30008A8BE889F989E40DF51DEC55FF4F9491F6
:100B4000988761013D822C82A885A0FF13C0AB8DE0
:100B5000BC8DED91FC91B981B13031F40484F585FF
:100B6000E02D2E813F8116C00684F785E02DEE80B2
:100B7000FF801AC0EE81FF816E167F06F1F0AB8D0B
:100B8000BC8DED91FC91B981B13051F40484F585AF
:100B9000E02D9301A601B2018B8D9C8D09950DC0AE
:100BA0000684F785E02D7301840194014C815D81F9
:100BB0006A817B818B8D9C8D0995E885E695E88718
:100BC000FFEFCF1ADF0A2C813D81280D391D3D83AF
:100BD0002C834A895B89C416D50609F0B5CF5FEF2F
:100BE000451A550A8A819B81880D991D9B838A83AA
:100BF000AE85BF854A165B0609F09BCFEE81FF816B
:100C00006E167F0609F4F2C0EB8DFC8DA081B181D8
:100C1000F981F13079F4B5016B5F7F4F5096ED911A
:100C2000FC915197830128E030E0A1018B8D9C8DD0
:100C30000995DCC06A857B85681979091E96ED9156
:100C4000FC911F9773010C851D859401A1018B8D6B
:100C50009C8D0995CBC0FA01349694913297659199
:100C60007491291BCB01B7E02B9F800D911D11249E
:100C7000FA01259134913B8B2A8BFC0145915491CB
:100C80005B834A83FC013296C490319654915E870F
:100C9000329614913196D4908981823058F0612E29
:100CA000012E000C7708AD2D0D2C000CBB0BB98765
:100CB000A88704C019861886612C712CAB8DBC8D59
:100CC000ED91FC9111970284F385E02DCD010995FA
:100CD000B9818B2E912C689CC001699C900D789CE9
:100CE000900D1124FC01EA0DFB1DFD87EC871C8291
:100CF000712C612CE12F110FFF0B95012E0F3F1F5F
:100D00003B872A87AC0CB11CA5014E0F5F1F5F8B80
:100D10004E8BC1018D0D911DD7FC9A95998F888FAF
:100D20004E85641608F062C0862D90E0488559858E
:100D3000480F591F489D9001499D300D589D300D19
:100D40001124D901A20DB31DB98BA88BAA84BB8431
:100D50004C845D84DC80BA85DB1AE88DF98DE80F60
:100D6000F91FFD8BEC8B8D2D8A0D2E893F89A216E4
:100D7000B306B9F1877061F48A819B810196EA8993
:100D8000FB89AA81BB81EA0FFB1F74909B838A8336
:100D900077FE20C0AB8DBC8DED91FC91B981B13057
:100DA00061F40484F585E02D2E813F814C895D89B5
:100DB000B5018B8D9C8D09950DC00684F785E02DBE
:100DC000EE80FF808401940148895989B2018B8D9E
:100DD0009C8D0995770CEFEFAE1ABE0A480C591C92
:100DE000C2CF3C813C0D3C8363949ACFAB8DBC8DCC
:100DF000ED91FC9111970688F789E02DCD016C9655
:100E00000FB6F894DEBF0FBECDBFDF91CF911F911B
:100E10000F91FF90EF90DF90CF90BF90AF909F9099
:100E20008F907F906F905F904F903F902F9009949C
:100E30006C960FB6F894DEBF0FBECDBFDF91CF9199
:100E40001F910F91FF90EF90DF90CF90BF90AF90E8
:100E50009F908F907F906F905F904F903F902F90DA
:100E60000895AF92BF92CF92EF92FF920F931F938C
:100E7000CF93DF93EC01262F888D998D009709F091
:100E800040C06A3059F41D861C862C898E859F854A
:100E900038E0239F800D911D112441C06D3009F46D
:100EA000AAC08E898823C1F03C898C859D8546E047
:100EB000349F800D911D1124488559854817590785
:100EC0005CF41D861C868E859F8548E0349F800DCE
:100ED000911D11249F878E87EA88FB8808891989CC
:100EE0004E855F856C857D85CC88CE010E941B0573
:100EF0002C898C859D8536E0239F800D911D1124C2
:100F000042C06A3079F41D861C862C89FC01369615
:100F1000E4918E859F852E9F800D911D11249F87C2
:100F20008E8769C06D3009F466C0FC013496349137
:100F3000631708F460C03196E491E61708F45BC0CB
:100F4000FC013296A590B490462F50E0431B510906
:100F500037E0349FB001359F700D1124A60EB71EE7
:100F6000F501329634913196E491332311F0E11179
:100F70000DC0F5013496E4912C898C859D85E29F06
:100F8000800D911D11249D878C8735C0F501359604
:100F900044915E89552311F16C89E32FF0E0E40F51
:100FA000F11D47FDFA956E9FD0016F9FB00D112482
:100FB0004C855D854A0F5B1FE885F985E417F507C9
:100FC0006CF41D861C86FC013696E4918E859F8507
:100FD0006E9F800D911D11249F878E87EA88FB8864
:100FE000088919894E855F856C857D85CC88CE0101
:100FF0000E941B05BECF81E090E0DF91CF911F9151
:101000000F91FF90EF90CF90BF90AF9008956F92A7
:101010007F928F929F92AF92BF92CF92DF92EF9288
:10102000FF920F931F93CF93DF93EC014B015A0173
:1010300069013801E881F9810284F385E02D099581
:10104000E881F9810288F389E02D87019601A501E5
:10105000B401CE010995E881F981A501460D571D1E
:10106000415051090288F389E02D9601B401CE0167
:101070000995E881F9810088F189E02D9301A501A6
:10108000B401CE010995E881F981C80CD91CB601DB
:10109000615071090088F189E02D9301A501CE010D
:1010A0000995E881F9810688F789E02DCE01DF9165
:1010B000CF911F910F91FF90EF90DF90CF90BF9055
:1010C000AF909F908F907F906F900994CF92DF9216
:1010D000EF92FF920F931F93CF93DF9300D000D036
:1010E00000D0CDB7DEB76C01DC01ED91FC91621749
:1010F000730789F4041715072CF4942F852FA80182
:10110000092F182F041B150B98012F5F3F4F048CDC
:10111000F58DE02D12C04017510709F52617370746
:101120002CF4962F872FB901292F382F261B370B28
:101130002F5F3F4F068CF78DE02D8701C601099583
:1011400026960FB6F894DEBF0FBECDBFDF91CF91CC
:101150001F910F91FF90EF90DF90CF900895028440
:10116000F385E02D2D833E834B835C8369837A83F3
:101170000995D601ED91FC910488F589E02D2D812A
:101180003E814B815C8169817A81C6010995D601D6
:10119000ED91FC910688F789E02DC60126960FB6E1
:1011A000F894DEBF0FBECDBFDF91CF911F910F919D
:1011B000FF90EF90DF90CF900994EF92FF920F9302
:1011C0001F93DC01ED91FC9111971A960D911C91E2
:1011D0001B9718962D913C91199700A0F1A1E02D35
:1011E0007B0140E050E060E070E009951F910F91B5
:1011F000FF90EF9008954F925F926F927F928F923F
:101200009F92AF92BF92CF92DF92EF92FF920F9395
:101210001F93CF93DF9300D0CDB7DEB76C015A0197
:1012200039014801DC01ED91FC910284F385E02D48
:1012300069837A8309956981462E7A81572E640CD9
:10124000751CD601ED91FC91461457046CF400888E
:10125000F189E02D87019401A501B201C60109952C
:10126000BFEF4B1A5B0AEDCF0688F789E02DC60168
:101270000F900F90DF91CF911F910F91FF90EF9002
:10128000DF90CF90BF90AF909F908F907F906F90A6
:101290005F904F900994AF92BF92CF92DF92EF92FE
:1012A000FF920F931F93CF93DF9300D000D0CDB761
:1012B000DEB75C016901DC01ED91FC910284F385EC
:1012C000E02D4B835C8369837A830995D501ED9189
:1012D000FC9169817A819B012C0D3D1D21503109C2
:1012E0000488F589E02D78014B815C818A01C50174
:1012F0000995D501ED91FC910688F789E02DC5018E
:101300000F900F900F900F90DF91CF911F910F9141
:10131000FF90EF90DF90CF90BF90AF900994AF9285
:10132000BF92CF92DF92EF92FF920F931F93CF93D2
:10133000DF9300D000D0CDB7DEB75C016901DC01DE
:10134000ED91FC910284F385E02D4B835C836983EE
:101350007A830995D501ED91FC914B815C81C40E96
:10136000D51EB1E0CB1AD1080488F589E02D7801AB
:10137000860169817A819B01C5010995D501ED91AD
:10138000FC910688F789E02DC5010F900F900F9012
:101390000F90DF91CF911F910F91FF90EF90DF9011
:1013A000CF90BF90AF9009940895EF92FF920F9362
:1013B0001F93DC01ED91FC9100A0F1A1E02D0995B6
:1013C0001F910F91FF90EF9008950F931F93DC01F1
:1013D000ED91FC91068CF78DE02D09951F910F91F1
:1013E00008950F931F93DC01ED91FC91048CF58D12
:1013F000E02D09951F910F910895DC01ED91FC916D
:101400000084F185E02D099408952F923F924F9228
:101410005F926F927F928F929F92AF92BF92CF9284
:10142000DF92EF92FF920F931F93CF93DF9300D041
:101430001F92CDB7DEB74C017B836A836A015901E5
:1014400017019801241B350B37FF03C031952195F7
:101450003109C5014A815B81841B950B97FF03C04D
:1014600091958195910951E059838217930714F062
:1014700019820BC09A2D8B2D5801092F182F9A8194
:101480008B81DB82CA82C92ED82E8A819B81A816C5
:10149000B9065CF49C2D8D2D6801092F182F9A81B7
:1014A0008B81BB82AA82A92EB82E2501AA81BB817D
:1014B0004A1A5B0A38016C187D0877FE03C07194E4
:1014C00061947108720157FE03C0BFEFEB1AFB0A6B
:1014D000F594E794C016D1061CF00FEF1FEF1FC064
:1014E00001E010E01CC0D401ED91FC91B9810484AD
:1014F000F585E02D9101BB23C1F04A815B81B601E6
:10150000C4010995E618F708F7FE04C0C00ED11E05
:10151000E40CF51CEA81FB813196FB83EA834A8166
:101520005B81A416B506FCF604C0A6016A817B8126
:10153000E7CF0F900F900F90DF91CF911F910F91F8
:10154000FF90EF90DF90CF90BF90AF909F908F90E3
:101550007F906F905F904F903F902F9008950895E7
:1015600080E090E00895FC01848DDF01A80FB11D9B
:10157000A35ABF4F2C91848D90E001968F739927C9
:10158000848FA689B7892C93A089B1898C918064B6
:101590008C93938D848D981306C00288F389E02D77
:1015A00080818F7D80830895CF93DF93282F30E053
:1015B000F901E255FA4F8491F901EE58FF4FD491A9
:1015C000F901E057FF4FC491CC2391F081110E94A3
:1015D0004B04EC2FF0E0EE0FFF1FEC55FA4FA591F6
:1015E000B491EC91ED2381E090E021F480E002C021
:1015F00080E090E0DF91CF9108951F93CF93DF9328
:10160000282F30E0F901E255FA4F8491F901EE58A4
:10161000FF4FD491F901E057FF4FC491CC23C9F09B
:10162000162F81110E944B04EC2FF0E0EE0FFF1FEC
:10163000EA57FF4FA591B4918FB7F894111105C0E7
:101640009C91ED2FE095E92302C0EC91ED2BEC93FA
:101650008FBFDF91CF911F910895CF93DF9390E0DB
:10166000FC01EE58FF4F2491FC01E057FF4F84919D
:10167000882361F190E0880F991FFC01E859FF4F22
:10168000C591D491FC01EA57FF4FA591B491611126
:1016900009C09FB7F8948881209582238883EC91B4
:1016A0002E230BC0623061F49FB7F8943881822FEB
:1016B000809583238883EC912E2B2C939FBF06C0AB
:1016C0008FB7F894E8812E2B28838FBFDF91CF91BD
:1016D00008958F929F92AF92BF92CF92DF92EF9236
:1016E000FF926B017C010E9474044B015C01C114E8
:1016F000D104E104F104F1F00E947404DC01CB0197
:1017000088199909AA09BB09883E9340A105B1052A
:1017100070F321E0C21AD108E108F10888EE880EC2
:1017200083E0981EA11CB11CC114D104E104F10492
:1017300019F7DDCFFF90EF90DF90CF90BF90AF9083
:101740009F908F9008951F920F920FB60F921124C1
:101750002F933F938F939F93AF93BF938091700389
:1017600090917103A0917203B09173033091B70609
:1017700023E0230F2D3720F40196A11DB11D05C0D4
:1017800026E8230F0296A11DB11D2093B706809372
:10179000700390937103A0937203B09373038091CD
:1017A000B8069091B906A091BA06B091BB06019611
:1017B000A11DB11D8093B8069093B906A093BA06F7
:1017C000B093BB06BF91AF919F918F913F912F91A5
:1017D0000F900FBE0F901F9018958F929F92AF920F
:1017E000BF92CF92DF92EF92FF92CF93DF9300D020
:1017F00000D0CDB7DEB79C014A015B0184EF91E0D8
:10180000B9010E9400156B01770FEE08FF08A701D0
:101810009601220F331F441F551FC501B4010E94BA
:101820009D14812C912C540182169306A406B506B2
:10183000F4F461E082E029833A834B835C830E9465
:10184000FD0AC701B6010E94690B60E082E00E94B8
:10185000FD0AC701B6010E94690B8FEF881A980A2A
:10186000A80AB80A5C814B813A812981DDCF62E008
:1018700070E080E090E00F900F900F900F90DF915C
:10188000CF91FF90EF90DF90CF90BF90AF909F905F
:101890008F900C94690BEF92FF920F931F934091DE
:1018A0007403509175036091760370917703EE2471
:1018B000E394F12C03E010E023E030E089E597E0C9
:1018C0000E94FB0810927B0310927A0380917A03A6
:1018D00090917B03209178033091790382179307CD
:1018E000D4F4880F991FFC01E458FC4F608171818A
:1018F000FC01E45FFA4F41E050E0808191810E9459
:10190000250D80917A0390917B03019690937B0340
:1019100080937A03DBCF1F910F91FF90EF900C948F
:10192000E60C909173079F3F21F4909174079F3FBD
:1019300059F128E030E040E8E0917A07F0917B0728
:10194000508190917D07909595239083E091780741
:10195000F091790790917C07542F582319F050810A
:10196000952B03C05081909595239083E0917A0741
:10197000F0917B07508190917D07952B9083469540
:1019800021503109C9F608958EBD00000DB407FE3F
:10199000FDCF8EB50895CF93C82F60E08091750775
:1019A0000E94FD0A8091770718161CF460E00E94DF
:1019B000FD0A8C2F0E94910C80917707181624F451
:1019C00061E0CF910C94FD0ACF910895EF92FF92C0
:1019D0000F931F93CF9388E0E82E81E0F82EC0E0AC
:1019E0008C2F80640E94CB0C80E80E94CB0C61E0BD
:1019F000809175070E94FD0A8091770718161CF4E4
:101A000060E00E94FD0A00E010E0F701E00FF11F26
:101A100080810E94910C0F5F1F4F04351105A9F7BB
:101A20008091770718161CF461E00E94FD0ACF5FD1
:101A300084E5E80EF11CC63099F680E4CF911F9141
:101A40000F91FF90EF900C94CB0C6F927F928F923E
:101A50009F92AF92BF92CF92DF92EF92FF920F933D
:101A60001F93CF93DF93EC018B013A016B018FEF52
:101A7000C81AD80A9A01A601BE0189E597E00E941A
:101A8000FD09780181E0E81AF1089301A701BE0180
:101A900089E597E00E94FD094E018FEF881A980AA8
:101AA0009301A801B40189E597E00E94FD095E0158
:101AB00081E0A81AB1089301A801B50189E597E072
:101AC0000E94FD099301A801B40189E597E00E94F5
:101AD000FD099301A801B50189E597E00E94FD0980
:101AE0009301A801B40189E597E00E94FD099301E3
:101AF000A801B50189E597E00E94FD099301A601BF
:101B0000BE0189E597E00E94FD099301A601BE018F
:101B100089E597E00E94FD099301A701BE0189E5CF
:101B200097E00E94FD099301A701BE0189E597E0B6
:101B3000DF91CF911F910F91FF90EF90DF90CF90A9
:101B4000BF90AF909F908F907F906F900C94FD0905
:101B500088EF91E0E8E0F1E0DF019C011D92215067
:101B60003040E1F7E9E5F7E015861486178616861A
:101B70000895009769F0FC0101900020E9F7319782
:101B8000AF01481B590BBC0189E597E00C940C038D
:101B900080E090E008958F929F92AF92BF920F9352
:101BA0001F93CF93DF93CDB7DEB7A1970FB6F8940D
:101BB000DEBF0FBECDBF19A2423008F44AE08E014D
:101BC0000F5D1F4F842E912CA12CB12CA5019401E7
:101BD0000E94CF14E62FB901CA0101501109EA3061
:101BE00014F4E05D01C0E95CD801EC93232B242BB5
:101BF000252B61F7C8010E94B90DA1960FB6F89484
:101C0000DEBF0FBECDBFDF91CF911F910F91BF906F
:101C1000AF909F908F900895CF92DF92EF92FF92B6
:101C2000CF93DF936C01990FEE08FF08F7FE1FC0FA
:101C3000E0915907F0915A070190F081E02D6DE293
:101C400089E597E00995EC0166277727CB016C19A8
:101C50007D098E099F094AE00E94CB0D8C0F9D1FC4
:101C6000DF91CF91FF90EF90DF90CF9008954AE001
:101C7000C701B601DF91CF91FF90EF90DF90CF9039
:101C80000C94CB0D789484B5826084BD84B581605A
:101C900084BD85B5826085BD85B5816085BD809137
:101CA0006E00816080936E001092810080918100AF
:101CB00082608093810080918100816080938100A7
:101CC000809180008160809380008091B100846069
:101CD0008093B1008091B00081608093B0008091CA
:101CE0007A00846080937A0080917A008260809389
:101CF0007A0080917A00816080937A0080917A00E6
:101D0000806880937A001092C100E091CC06F09137
:101D1000CD0682E08083E091C806F091C90610826A
:101D2000E091CA06F091CB068FEC80831092D40626
:101D3000E091D006F091D10686E08083E091CE0656
:101D4000F091CF06808180618083E091CE06F09192
:101D5000CF06808188608083E091CE06F091CF0627
:101D6000808180688083E091CE06F091CF068081EB
:101D70008F7D8083809173078F3F29F49091740742
:101D80009F3F09F4CCC461E00E942D0B61E080917B
:101D900074070E942D0B80917407082E000C990B7C
:101DA000FC01E057FF4FE491F0E0EE0FFF1FEA5710
:101DB000FF4F2591349130937B0720937A07FC01E4
:101DC000EE58FF4FE491E0937D0780917307082E52
:101DD000000C990BFC01E057FF4FE491F0E0EE0F8F
:101DE000FF1FEA57FF4F25913491309379072093D5
:101DF0007807FC01EE58FF4FE491E0937C0761E027
:101E0000809175070E942D0B8091760718161CF49F
:101E100061E00E942D0B8091770718161CF461E099
:101E20000E942D0B80917607181674F460E00E94D2
:101E3000FD0A64EF71E080E090E00E94690B61E0D0
:101E4000809176070E94FD0A81E20E94CB0C84E11A
:101E50000E94CB0C88EA0E94CB0C80E20E94CB0C43
:101E60008CE00E94CB0C0E94E60C0E94A80D60E062
:101E700088E00E942D0B60E08BE00E942D0B60E05B
:101E80008CE00E942D0B60E08AE00E942D0B60E048
:101E900089E00E942D0B61E082E00E942D0B60E042
:101EA00088E00E94FD0A60E08BE00E94FD0A60E08D
:101EB0008CE00E94FD0A60E08AE00E94FD0A60E07A
:101EC00089E00E94FD0A81E20E94CB0C89E90E9410
:101ED000CB0C80E20E94CB0C88E090E090937903D9
:101EE00080937803809161079091620797FD019636
:101EF00095958795909377038093760380916307F8
:101F00009091640797FD0196959587959093750339
:101F10008093740382E080936D0781E090E090935A
:101F20006C0780936B0790936A0780936907CAE0F8
:101F3000D0E0D0936607C09365078FE090E0909360
:101F400068078093670782E493E00E94B90DD093FD
:101F50006607C093650788E290E0909368078093D6
:101F600067078AE493E00E94B90D0E94E60C60EADC
:101F70007FE080E090E00E94690B0E94A80D6091D4
:101F800078037091790320E030E080E090E040E059
:101F900050E0AAE0B0E0FC013397641775078CF0BD
:101FA000E901C45FDA4F499699838883E901C458EF
:101FB000DC4FB983A8834F5F5F4F2E5F3F4FCF0148
:101FC000EACF10927B0310927A0380917A0390916A
:101FD0007B03209178033091790382179307D4F41F
:101FE000880F991FFC01E458FC4F60817181FC014E
:101FF000E45FFA4F41E050E0808191810E94250D1D
:1020000080917A0390917B03019690937B03809358
:102010007A03DBCF0E94E60C81E08093AA06C1E040
:10202000D0E057E2252E312C412C512C68E1862E30
:1020300099249394A12CB12C88E00E94D40A3C01ED
:102040009093B6068093B5068AE00E94D40A8C016C
:102050009093B4068093B3068BE00E94D40A6C017F
:102060009093B2068093B1068CE00E94D40A7C0162
:102070009093B0068093AF0689E00E94D40A9093B3
:10208000AE068093AD062091AB063091AC06232BB3
:1020900009F0BDC0672889F42091AA0621110DC05E
:1020A00081E08093A9061092A8061092A70680915D
:1020B0000C0590910D05039712C0CD28E9F42091ED
:1020C000A906211119C081E08093AA061092A806E2
:1020D0001092A70680910C0590910D0503969093A0
:1020E00003018093020180917C0390917D03909382
:1020F0000101809300011EC0EF2809F52091A70679
:1021000021111DC081E08093A8061092A9061092AB
:10211000AA0680917C0390917D030397909301011F
:102120008093000180910C0590910D05909303011F
:1021300080930201D093AC06C093AB0668C0012B1C
:1021400089F42091A80621110DC081E08093A70693
:102150001092A9061092AA0680917C0390917D03AB
:102160000396DCCF892B09F052C00E94A80DD093B2
:102170006C07C0936B07D0936A07C093690785E02B
:1021800090E090937B0380937A0311E080917A032F
:1021900090917B0318161906C4F549E150E050935D
:1021A0006607409365078AE090E090936807809304
:1021B000670710936D078FE493E00E94B90D48E222
:1021C00050E050936607409365078EE190E090934E
:1021D00068078093670780917A0390917B030E9440
:1021E0000C0E0E94E60C68EE73E080E090E00E9426
:1021F000690B0E94A80D80917A0390917B0301974F
:1022000090937B0380937A03C1CF0E944B0C2FB72E
:10221000F8946091700370917103809172039091B2
:1022200073032FBF209104013091050140910601F5
:10223000509107010E94CF14672B682B692B09F07E
:102240006BC28091AB069091AC06892B09F04EC011
:102250002091AA0680910C0590910D05222379F01A
:102260009C012D5F3F4F3093030120930201209189
:102270007C0330917D033093010120930001209174
:10228000A906222379F09C012350310930930301E0
:102290002093020120917C0330917D033093010152
:1022A000209300012091A806222371F020917C0345
:1022B00030917D03235031093093010120930001B7
:1022C00090930301809302012091A706222371F0CD
:1022D00020917C0330917D032D5F3F4F30930101AE
:1022E0002093000190930301809302011092AC06A9
:1022F0001092AB06D0937B03C0937A03FF24F39430
:102300003CE0632E712C0FE010E048E0C42ED12C8D
:1023100040917A0350917B032091780330917903A7
:1023200080910C0590910D05421753070CF0B9C030
:10233000440F551FFA01E45FFA4F208131812817BD
:10234000390709F0A4C0FA01E458FC4F208131811B
:1023500080917C0390917D032817390709F097C07D
:1023600081E090E00E948714E82E8093A20680E02E
:1023700090E00E9487148093A1062E2D30E0322F2A
:102380002227A901480F511DCA015093A00640936E
:102390009F0640919D0660919E06242F362F82173E
:1023A000930790F43093A00620939F066093A206B3
:1023B0004093A10681E090E00E948F146091A106F5
:1023C00080E090E00E948F140E94A80DD0936C07CB
:1023D000C0936B07D0936A07C0936907F0926D07AB
:1023E00084E190E090936607809365077092680798
:1023F0006092670786E593E00E94B90D1093660727
:10240000009365074EE150E05093680740936707DB
:1024100080E693E00E94B90D80919D0690919E0602
:102420000E940C0E109366070093650788E290E007
:10243000909368078093670788E693E00E94B90D40
:1024400060919F067091A00680E090E04AE00E94B3
:10245000CB0D0E94E60C48E853E160E070E084E1B7
:1024600090E00E94ED0B0E94A80DD0927903C092DB
:10247000780310929E0610929D068092040190921D
:102480000501A0920601B09207010E944B0C8091B9
:102490007A0390917B03019690937B0380937A0358
:1024A00037CF60917603709177038617970789F08D
:1024B000AB014F5F5F4F8417950759F04F5F5F4F38
:1024C0008417950731F0435051098417950709F097
:1024D00074C080917C0390917D034091740350916E
:1024E00075038417950771F0FA0131968E179F07CF
:1024F00049F031968E179F0729F033978E179F0763
:1025000009F05BC080919D0690919E060196909384
:102510009E0680939D062F5F3F4F30937903209353
:1025200078038091040190910501A0910601B0917A
:1025300007018A359105A105B10558F04497A10915
:10254000B1098093040190930501A0930601B09313
:102550000701E12CF12C03E010E023E030E089E5F5
:1025600097E00E94FB080E94E60C42E350E060E026
:1025700070E083E290E00E94ED0B0E9479142FE45A
:1025800030E040E050E00E949D14DC01CB01019658
:10259000A11DB11D90937703809376030E94791457
:1025A000A20191010E949D14DC01CB010196A11DA5
:1025B000B11D9093750380937403809102019091F3
:1025C00003011816190634F08C5A9F4F909303019B
:1025D000809302018091020190910301843591055D
:1025E00034F0845591099093030180930201809106
:1025F000000190910101181619062CF0C0969093D5
:1026000001018093000180910001909101018033CC
:1026100091052CF0C09790930101809300014091A7
:102620007803509179037091A5066091A606F09108
:10263000A306E091A406E0900201F090030100914E
:1026400000011091010120E030E080E090E04817A7
:102650005907D4F0D901A45FBA4F7C9111966C91BF
:102660001197F901E458FC4FC080D180EC9211968B
:10267000FC920083118301962E5F3F4F8601F02F5D
:10268000E12FE72EF62EE3CF7093A5066093A60602
:10269000F093A306E093A406E0920201F0920301F6
:1026A000009300011093010190937B0380937A03C0
:1026B0004091740350917503609176037091770394
:1026C000EE24E394F12C03E010E023E030E089E510
:1026D00097E00E94FB0860917C0370917D0341E0CC
:1026E00050E080910C0590910D050E94250DE09120
:1026F0007803F0917903EE0FFF1FDF01A458BC4F60
:102700006D917C91E45FFA4F40E050E080819181CF
:102710000E94250D0E94E60C0E9441048DCCCFB78B
:10272000F89480919C06811127C0EAE9F0E0849139
:10273000ECE7F0E09491E82FF0E0EE0FFF1FE8598E
:10274000FF4FA591B491EC91E92321F461E08AE077
:102750000E94FD0A61E08AE00E942D0B8CB5806129
:102760008CBD8CB580648CBD61E08DE00E942D0B2A
:1027700061E08BE00E942D0B80919C068F5F80931F
:102780009C06CFBF8CB58C7F8CBD8DB58E7F8DBDEB
:102790008CB5837F8CBD8CB58F7D8CBD30CBECEB45
:1027A000F6E01382128288EE93E0A0E0B0E084832A
:1027B0009583A683B78388E093E09183808385EC3B
:1027C00090E09587848784EC90E09787868780ECFB
:1027D00090E0918B808B81EC90E0938B828B82ECEC
:1027E00090E0958B848B86EC90E0978B868B118E96
:1027F000128E138E148EE9E5F7E01382128224E51F
:1028000030E03583248380E390E0978386833187AB
:10281000208793878287158A1586148617861686E1
:1028200081E0848B2FEF3FEF338B228B318B208B1A
:10283000868B178A118E108E8AE193E091838083B4
:1028400086E0828F87E0838F85E0848F83E0858FA9
:1028500084E0868F08958F929F92AF92BF92CF921D
:10286000DF92EF92FF92CF93DF93EC016881798141
:102870008A819B81611571058105910521F464E2CE
:1028800079ED8BE597E02DE133EF41E050E00E94D8
:102890009D1449015A019B01AC01A7EAB1E40E94D1
:1028A000BC146B017C01ACEEB4EFA50194010E9455
:1028B000CA14DC01CB018C0D9D1DAE1DBF1DB7FFE1
:1028C00003C00197A109B04888839983AA83BB8379
:1028D000BC01CD019F77DF91CF91FF90EF90DF900A
:1028E000CF90BF90AF909F908F9008950E942B142F
:1028F000089580E093E00E942B14089560930003F4
:102900007093010380930203909303030895F99950
:10291000FECF92BD81BDF89A992780B50895262FE4
:10292000F999FECF1FBA92BD81BD20BD0FB6F894B4
:10293000FA9AF99A0FBE01960895052E97FB1EF498
:1029400000940E94B41457FD07D00E94CF1407FCD6
:1029500003D04EF40C94B4145095409530952195C5
:102960003F4F4F4F5F4F08959095809570956195BB
:102970007F4F8F4F9F4F08950E94F114A59F900D98
:10298000B49F900DA49F800D911D11240895B7FF51
:102990000C94BC140E94BC14821B930B0895A1E2FA
:1029A0001A2EAA1BBB1BFD010DC0AA1FBB1FEE1FC9
:1029B000FF1FA217B307E407F50720F0A21BB30B14
:1029C000E40BF50B661F771F881F991F1A9469F790
:1029D00060957095809590959B01AC01BD01CF01EC
:1029E0000895A29FB001B39FC001A39F700D811DE8
:1029F0001124911DB29F700D811D1124911D089508
:102A000097FB072E16F4009407D077FD09D00E949B
:102A1000141507FC05D03EF4909581959F4F0895BD
:102A2000709561957F4F0895AA1BBB1B51E107C0AC
:102A3000AA1FBB1FA617B70710F0A61BB70B881F4E
:102A4000991F5A95A9F780959095BC01CD010895DD
:102A5000EE0FFF1F0590F491E02D099481E090E0C6
:102A6000F8940C943315F894FFCF0A000A0018016B
:102A70000000000000000000000000000000000056
:102A80000000000000000000000000000000000046
:102A90000000000000000000C0E0F0F8FCFCFEFFB9
:102AA000FCE000000000000000000000000000004A
:102AB0000000000000000000000000000000000016
:102AC0000000000000000000000000000000000006
:102AD00000000000000000F8F8F8F8F8F8F8F8F83E
:102AE000F8F8F8F0F0E0E0C080C0FCFFFFFFFF7FE7
:102AF0003F7FFFFFFFFFFF0000000000000000001D
:102B000000000000000000000000000000000000C5
:102B100000000000000000000000000000000000B5
:102B20000000000000000000000000000F1F3F7FB9
:102B3000FFFFFFFFFFFFFFFFE7C7C7878F9F9FFFD5
:102B4000FFFFC1C0E0FCFFFFFFFFFFFCFCFCFCFE41
:102B5000FEFEFCFCF8F8F0E0C0C000000000000041
:102B60000000000000000000000000000000000065
:102B70000000000000000000000000000000000055
:102B800000000080C0E0F1FBFFFFFFFFFF7F1F0F91
:102B90000F87E7FFFFFF1F1F3FF9F8F8F8F8F8F875
:102BA000FDFFFFFFFFFFFFFFFFFF7F3F0F0701005C
:102BB0000000000000000000000000000000000015
:102BC0000000000000000000000000000000000005
:102BD0000000000000F0FEFFFFFFFFFFFFFFFFFF10
:102BE000FFFE7E3F3F0F1FFFFFFFFCF0E0F1FFFF06
:102BF000FFFFFFFCF00101010101010101000000E4
:102C000000000000000000000000000000000000C4
:102C100000000000000000000000000000000000B4
:102C2000000000000000000000030303030303038F
:102C3000030101010100000000000000030F1F3F1D
:102C40007F7FFFFFFFFF7F7F1F030000000000006A
:102C50000000000000000000000000000000000074
:102C60000000000000000000000001000000000063
:102C7000000043030C0304048A03350413042704EF
:102C80000000000031070C03B00AAF0A9904040ADF
:102C9000FD09D509F109E509050AD4090605050567
:102CA0008F094B09FB08DD0866080708726973681D
:102CB000616268006A6A6A6A00504155534544007F
:102CC00047616D65204F7665720053636F72653A98
:102CD0002000486967683A200000FFFFFFFFFFFF00
:102CE000FFFFFFFFFFFFFFFFFFFFFFFFFFFFFFFFF4
:102CF000FFFFFFFFFFFFFFFFFFFFFFFFFFFFFFFFE4
:102D0000653A2000486967683A200000FFFFFFFF2E
:102D1000FFFFFFFFFFFFFFFFFFFFFFFFFFFFFFFFC3
:102D2000FFFFFFFFFFFFFFFFFFFFFFFFFFFFFFFFB3
:102D3000FFFFFFFFFFFFFFFFFFFFFFFFFFFFFFFFA3
:102D4000FFFFFFFFFFFFFFFFFFFFFFFFFFFFFFFF93
:102D5000FFFFFFFFFFFFFFFFFFFFFFFFFFFFFFFF83
:102D6000FFFFFFFFFFFFFFFFFFFFFFFFFFFFFFFF73
:102D7000FFFFFFFFFFFFFFFFFFFFFFFFFFFFFFFF63
:102D80000E9470127C01892B09F444C08C819D81C2
:102D90000E945412B82EDB88CC888989580E9A89F3
:102DA0009C0D191B0C2D2D2D412F652DCE010E9440
:102DB0008B16882369F1EB0CF11C87E08D0DD82E62
:102DC000D694D694D694C10E4E018CE1880E911CF7
:102DD0006D2C712C1C15E1F0052D57018A2D8E19D3
:102DE0008D1590F4F50184916A817B810C8F1D8F84
:102DF0001F8E8E8F94014BE3CE010E941D16FFEFB4
:102E0000AF1ABF0A085FEACFE60CF71C1F5FE2CFDC
:102E1000888901C080E0DF91CF911F910F91FF90D1
:102E2000EF90DF90CF90BF90AF909F908F907F906A
:102E30006F905F900895CF92DF92EF92FF920F9381
:102E40001F93CF93DF931F92CDB7DEB76C01DC01E8
:102E5000DC961C91DC97DB960C917C01B4E0EB0EC8
:102E6000F11CDC015996ED91FC915A97C7016983D9
:102E70000995482F410F2981602FC7010E94AD1687
:102E8000F60123AD082E000C990B820F911D83AF24
:102E900081E090E00F90DF91CF911F910F91FF9013
:102EA000EF90DF90CF9008952F923F924F925F92D4
:102EB0006F927F928F929F92AF92BF92CF92DF924A
:102EC000EF92FF920F931F93CF93DF9300D0CDB774
:102ED000DEB78A8387E795E00E9454198EE1582E69
:102EE0008A81580E46E251E0652D0E94201986E73E
:102EF00090E00E9454199AE0A92EEA81AE0EE0916A
:102F0000CC01F091CD0187EB91E009959A81995E12
:102F1000B92EB81A28E2822E21E0922E442443943E
:102F2000F40161914F01662309F461C087EB91E0E0
:102F30000E9470127C01892B09F456C08091BB015C
:102F40009091BC010E945412782ED090CA01C0907A
:102F5000CB016090C90163946B0C1091C8011A0DEC
:102F60000D2D2C2D412F662D87EB91E00E948B16A5
:102F70008823B9F1E70CF11C07E00D0D06950695C5
:102F800006958FEF8C0D262C280E322C3C18602EC7
:102F9000712C231431F1512F67018C2D8E1980175C
:102FA000E0F4F60184916091B9017091BA01209228
:102FB000D3015093D4014092D6018093D50123EDE3
:102FC00031E04BE387EB91E059830E941D16FFEF40
:102FD000CF1ADF0A5981585FE0CFE60CF71C2A941C
:102FE000D8CF8091C70101C080E0A80E99CF87E7B4
:102FF00095E00E9454194AE251E0652D8A818B5C6C
:103000000E9420196A816D5D8A818E5F0E94E41999
:103010006A81605E8A81835D0F900F90DF91CF910E
:103020001F910F91FF90EF90DF90CF90BF90AF90E6
:103030009F908F907F906F905F904F903F902F90D8
:103040000C94A119CF92DF92EF92FF920F931F93EE
:10305000CF93DF936C017A018B01C0E0D0E0CE15F5
:10306000DF0589F0D8016D918D01D601ED91FC91BC
:103070000190F081E02DC6010995892B11F47E01A4
:1030800002C02196ECCFC701DF91CF911F910F9124
:10309000FF90EF90DF90CF9008953FB7F894809124
:1030A000F6019091F701A091F801B091F90126B5D0
:1030B000A89B05C02F3F19F00196A11DB11D3FBF70
:1030C000BA2FA92F982F8827820F911DA11DB11DFE
:1030D000BC01CD0143E0660F771F881F991F4A95F9
:1030E000D1F708950895DC011696ED91FC9117979C
:1030F00012968C91481B477081E090E001C0880FC8
:103100004A95EAF7E60FF11D3081222311F0832B57
:1031100002C08095832380830895EF92FF920F93DE
:103120001F93CF93DF93D82F062FC42F142FF82E81
:10313000F40EEE24EA948F2D811B1830A8F06091D4
:10314000B9017091BA018093D3010093D401109218
:10315000D601E092D50123ED31E04BE387EB91E01E
:103160000E941D161850E7CF8C2F887FD80F4C2F48
:10317000477019F197E049276091B9017091BA0140
:10318000D093D3010093D4011092D6014F5F4770C2
:103190008FEF90E001C0880F4A95EAF78093D50140
:1031A00023ED31E04BE387EB91E0DF91CF911F916D
:1031B0000F91FF90EF900C941D16DF91CF911F910E
:1031C0000F91FF90EF9008950F931F93CF93DF938C
:1031D000182F042FC62FD62FD20F402F6C2F812FE0
:1031E0000E948D18CF5FDC13F8CFDF91CF911F9134
:1031F0000F910895FF920F931F93CF93DF93C82FE2
:10320000D62F142FF22E022F242F462F682F87EB54
:1032100091E00E948B16882359F02F2D412F6D2F9E
:103220008C2FDF91CF911F910F91FF900C94E41898
:10323000DF91CF911F910F91FF9008950E94851CFF
:10324000CF92DF92FF920F931F93CF93DF9300D023
:10325000CDB7DEB7F82E062FE091CC01F091CD016D
:1032600087EB91E049835A830995080F4981C42E61
:103270005A81D52E10E0F60121916F01222349F0E9
:10328000402F6F2D87EB91E00E94AD16F80E180FBE
:10329000F2CF812F0F900F90DF91CF911F910F915F
:1032A000FF90DF90CF9008952091BB013091BC0139
:1032B0002817390709F444C09093BC018093BB01DF
:1032C000009709F437C02091CE01FC01211107C0FD
:1032D0003596E491E093CF01FC013C960FC021307C
:1032E00039F43F96E491E093CF01FC01709606C05B
:1032F0003D96E491E093CF01FC013E96849180934A
:10330000D0018091CF01082E000C990B2091D001A3
:10331000821B910927FD93952091D101203441F022
:10332000829FC001112426E0969587952A95E1F7A2
:103330008093D20187E492E19093CD018093CC01F8
:1033400008950F931F93CF93DF93D82FC62F0CE0D0
:1033500021E0462F682F87EB91E00E948B1688238F
:1033600071F16091B9017091BA01D093D301C0930A
:10337000D40111E01093D6018FEF8093D50123ED96
:1033800031E04BE387EB91E00E941D166091B9019B
:103390007091BA01D093D301C85FC093D401109348
:1033A000D60180EF8093D50123ED31E04BE387EB2D
:1033B00091E0DF91CF911F910F910C941D16DF9139
:1033C000CF911F910F9108950F93CF93DF93C82F43
:1033D000D62F01E02FE2462F682F87EB91E00E9465
:1033E0008B16882341F04FE26D2F8C2FDF91CF9108
:1033F0000F910C948D18DF91CF910F91089590E06B
:10340000FC01E95BF14E3491FC01ED5CF14E24913D
:10341000FC01E15EF14EE491EE2309F43BC033235D
:1034200039F1333091F038F43130A9F0323001F510
:1034300084B58F7D12C0373091F03830A1F0343030
:10344000B9F4809180008F7D03C0809180008F77D8
:10345000809380000DC084B58F7784BD09C08091B2
:10346000B0008F7703C08091B0008F7D8093B00053
:10347000F0E0EE0FFF1FEB5EF14EA591B4918FB718
:10348000F894EC91611103C020952E2301C02E2BDE
:103490002C938FBF08951F920F920FB60F92112495
:1034A0002F933F938F939F93AF93BF938091F2019C
:1034B0009091F301A091F401B091F5013091F101E7
:1034C00026E0230F2D3720F40296A11DB11D05C063
:1034D00029E8230F0396A11DB11D2093F1018093CC
:1034E000F2019093F301A093F401B093F501809160
:1034F000F6019091F701A091F801B091F9010196C0
:10350000A11DB11D8093F6019093F701A093F801DE
:10351000B093F901BF91AF919F918F913F912F91FE
:103520000F900FBE0F901F901895FB014181DC0199
:1035300012962C911297421768F013962C911397BC
:10354000241740F0608115962C91621718F424819D
:103550000C9473180895FC0180819281980F9283D6
:103560002181921760F494819F5F94839381890FE6
:10357000821710F08FEF820F838381E0089580E03F
:103580000895FC0112828081815083831482089502
:103590001092B6011092B50182E191E09093B401CE
:1035A0008093B3011092EE011092EF011092F0019E
:1035B0001092BC011092BB011092BE011092BD018D
:1035C0001092C00181E08093BF0182E28093C1012B
:1035D0001092C6011092C501EAEDF1E09FEF8EE076
:1035E0008E0F91938E13FDCF81E08093D70127E456
:1035F00032E13093CD012093CC018093CE01109223
:10360000CF011092D00180E48093D1011092D201B9
:1036100082E798E19093E9018093E80188E091E0E6
:103620009093BA018093B9018DE08093DE018BE025
:103630008093DF018AE08093DC0189E08093DB01E5
:1036400088E08093DA0187EB91E00E9421168EE1F9
:1036500091E09093B4018093B3010895789484B578
:10366000826084BD84B5816084BD85B5826085BD7E
:1036700085B5816085BD80916E00816080936E000C
:1036800010928100809181008260809381008091FE
:1036900081008160809381008091800081608093AF
:1036A00080008091B10084608093B1008091B0006F
:1036B00081608093B00080917A00846080937A006A
:1036C00080917A00826080937A0080917A008E7F68
:1036D00080937A0080917A00806880937A001092BB
:1036E000C10063E0962E00E010E0D1E08091F0018F
:1036F000811106C0D093F00187EB91E00E94211662
:10370000E090B901F090BA01E091E801F091E9018F
:1037100082E00995E091E801F091E90181E00995E5
:1037200020E030E044E1B70187EB91E00E941D16F4
:103730002AEE31E047E1B70187EB91E00E941D16C8
:10374000E091E801F091E90180E009958091C201E2
:10375000883209F043C0F090B701F294F69457E034
:10376000F522E090B801E694E694E6948F2C880C5C
:10377000880C880C612CC0E0712CC12CD12CC601A6
:10378000880F991F880F991F4C2E482A372C360C0A
:10379000512CA12CB12C950145E0220F331F4A95E5
:1037A000E1F724292093D7012E2D4F2D652D832D50
:1037B0000E94FA182FEFA21AB20A5E0C88E0A8162F
:1037C000B10449F72FEFC21AD20A7F0C88E0C8165D
:1037D000D104A9F6CF5F680CC43071F6D093D7013D
:1037E0008091C2018F71823058F082E00E9454179C
:1037F00082E08093D70181E00E9454179092D70114
:1038000080E00E9454178BE59EE10E94541980913C
:10381000B8018B3358F44CE251E069E085E30E9433
:1038200020194BE451E062E18DE404C04CE351E027
:1038300066E381E00E942019D093D701E091C50191
:10384000F091C601309719F087EB91E00995E0906F
:10385000B901F090BA01E091E801F091E90182E04C
:103860000995E091E801F091E90181E0099520E0F6
:1038700030E045E1B70187EB91E00E941D16C82FAB
:10388000882341F02AEE31E047E1B70187EB91E070
:103890000E941D16E091E801F091E90180E0099590
:1038A000C11154CF0E944D182B013C0188ECC82E49
:1038B000D12CE12CF12C0E944D18DC01CB01841994
:1038C0009509A609B709883E9340A105B10558F0AE
:1038D00021E0C21AD108E108F10888EE480E83E021
:1038E000581E611C711CC114D104E104F10419F7C4
:1038F0000115110509F4FACE0E940000F6CEEE0F74
:10390000FF1F0590F491E02D099481E090E0F89478
:103910000C948A1CF894FFCF083000000054560124
:103920003D1400018215000000001B1722183A14F4
:103930003914000000001B1722183A1439145500DE
:1039400038006700636F64652E676F6F676C652E64
:10395000636F6D00636F64652E676F6F676C652EB4
:10396000636F6D2F702F7538676C69620000FFFF01
:10397000FFFFFFFFFFFFFFFFFFFFFFFFFFFFFFFF57
:10398000223051F4F70109C0F70101C0F80120818C
:103990003181820F931F07C0F80120813181A90175
:1039A000481B590BCA019183808381E090E0DF912D
:1039B000CF911F910F91FF90EF90DF90CF90BF902C
:1039C000AF909F908F907F906F905F904F900895F1
:1039D0000F931F93CF93DF93EC018C010C5F1F4F6C
:1039E0008C818E7F8C831E861D8681E090E09DA356
:1039F0008CA3FE01E859FF4F118210823F9680830D
:103A0000ED5AFF4F1082319610823196108281EA72
:103A100096E19C878B878FEB9BE19A8789871E8A2B
:103A20001D8AC8010E94031AC8010E949E1BC8017A
:103A30000E948E1BFE01EF52FF4F118210823296C0
:103A40001182108232961082FF97CD55DF4F8FEF93
:103A50008193EC17FD07E1F7DF91CF911F910F9153
:103A60000895EF92FF920F931F93CF93DF93EC0192
:103A7000E42E8C010A561F4F662311F061E001C04D
:103A800060E0F80180810E94F818CB56DF4F61E0BA
:103A900088810E94F81860E088810E94F81888E008
:103AA000F82EE7FE02C061E001C060E0F80180810D
:103AB0000E94F81861E088810E94F81860E088810F
:103AC0000E94F818EE0CFA94F110EBCFDF91CF9131
:103AD0001F910F91FF90EF900895AF92BF92CF92F8
:103AE000DF92EF92FF920F931F93CF93DF931F927A
:103AF000CDB7DEB75C018A017901FB013A97EC3062
:103B0000F10508F0EAC0EC5CFF4F0C9464306C01E6
:103B100087ECC80ED11C93C06C01E7ECCE0ED11C13
:103B200077C06C01F7ECCF0ED11C63C0020F131FDE
:103B30006C0187ECC80ED11CA1C06C01E6E9CE0E69
:103B4000D11CF60180810E945A247501F5E9EF0E1F
:103B5000F11CF70180810E945A2485010C561F4FE9
:103B6000F80180818F3F11F00E945A24F2E9AF0ED4
:103B7000B11CF50180818F3F11F00E945A2461E051
:103B8000F60180810E94F81860E0F70180810E94B0
:103B9000F818F80180818F3F19F061E00E94F81851
:103BA000F50180818F3F09F498C061E013C0433074
:103BB000510508F492C0CA01880F991F0497019714
:103BC000F1F78BC0FC01EE56FF4F80818F3F09F467
:103BD00084C0602F0E94F81880C0FC01EC56FF4F93
:103BE000F4CFFC01E953FF4F608161700E94311DE9
:103BF00074C00115110509F470C0F601608161708F
:103C0000F7014081C5010E94311D01501109F1CF1A
:103C10000115110509F461C0F60160816170F701B9
:103C20004081C5010E94311DF60160816170F7017C
:103C30004181C5010E94311D01501109E9CF0115D3
:103C4000110509F44AC0F60160816170F7014081F5
:103C5000C5010E94311DF60160816170F70141814B
:103C6000C5010E94311DF60160816170F70142813A
:103C7000C5010E94311D01501109E1CFE016F10686
:103C800061F1F70141917F01F60160816170C50129
:103C90000E94311DF3CFFC01E953FF4F20812170B9
:103CA000FFEFEF1AFF0A01151105B9F0F70131977F
:103CB0008081882321F021E0813009F420E0F701A0
:103CC0004081622FC50129830E94311D01501109D5
:103CD000F2E0EF0EF11C2981E6CF81E090E00F9039
:103CE000DF91CF911F910F91FF90EF90DF90CF90D8
:103CF000BF90AF9008959A01DC015196ED91FC912F
:103D00005297AB0162E170E00994EF92FF920F933A
:103D10001F93CF93C42F8C010A531F4FAC014953FB
:103D20005F4F7A0161111BC0D8013C913C2329F0FF
:103D3000FA0130813C233C132EC0622F70E0DC017D
:103D40005196ED91FC91529720E030E040E050E038
:103D500009959C2F9095F7018081892317C0F80160
:103D600030813C2321F0DA013C913C23A1F4462F21
:103D700050E0622F70E0DC015196ED91FC9152977A
:103D800020E030E00995F70180818C2B8083D801F9
:103D90008C91C82BCC93CF911F910F91FF90EF90F6
:103DA00008952FE041E00C94851E6F927F928F92D0
:103DB0009F92AF92BF92CF92DF92EF92FF920F93BA
:103DC0001F93CF93DF938C01EB016C0188ECC80E3D
:103DD000D11C66246394FE016491E62EE2942FE0E8
:103DE000E222F62FFF707F2E8E2D90E0FC0131979E
:103DF000EF30F10508F0CCC0E05CFF4F0C9464306C
:103E00004E018FEF881A980AD6016C916695617001
:103E1000C8010E94D11EF12CA401B701C8010E9463
:103E2000D91BA72CB12C772069F08E0C9F1CF601B2
:103E300060816170C8010E94D11EA401B501C80152
:103E40000E94D91BFFEFEF1AFF0AEA0CFB1C12C0FD
:103E5000D6016C916170C8010E94D11EAE014F5F06
:103E60005F4FE72CF12CB701C8010E94D91BBFEFAF
:103E7000EB1AFB0ACE0DDF1DAECFF6016081669511
:103E800061706625C8010E94D11EE72CF12C7720B5
:103E900039F0AE014F5F5F4FB701C8010E94D91BD7
:103EA000FFEFEF1AFF0AE6CFFE013196E491672D8E
:103EB00070E0762F66276E0F711DC8010E94091CE5
:103EC0000CC0FE013196E491672D70E0762F6627D5
:103ED0006E0F711DC8010E94FE1B22967CCFFE0151
:103EE0003196E4903196F4902396D6016C916170EE
:103EF000C8010E94D11EF8014389548902C055951A
:103F000047957A94E2F74E21E42FEF294E2F50E0A7
:103F1000D8011BC0FE013196E4903196F4902396AF
:103F2000F60160816170C8010E94D11ED8015596CA
:103F30004D915C91569702C0559547957A94E2F75A
:103F40004E21E42FEF294E2F50E05196ED91FC9138
:103F5000529720E030E060E170E0C80109953BCF66
:103F6000872D86958695813059F030F0833071F435
:103F70006370F60160830AC061702DE044E003C005
:103F800061702EE042E0C8010E94851E219623CF79
:103F9000DF91CF911F910F91FF90EF90DF90CF9025
:103FA000BF90AF909F908F907F906F900895FC018D
:103FB00025893689E25AFF4F40815181241B350BF8
:103FC00037FD0AC0349681E090E04081518124178A
:103FD000350724F080E0089580E090E00895FC012A
:103FE00023893489E45AFF4F40815181241B350BCA
:103FF00037FD0AC0349681E090E04081518124175A
:10400000350724F080E0089580E090E00895EF9275
:10401000FF920F931F93CF93DF9300D000D0CDB7C3
:10402000DEB78C01FC01178E168EE48CF58CF1E066
:10403000EF16F10409F446C01CF4EF2861F0E7C064
:1040400052E0E516F10409F472C083E0E816F104C9
:1040500009F4A5C0DCC00E94D71F892B19F4E12CFC
:10406000F12CD8C0F801238934893C832B83828DBD
:10407000938D820F931F9A838983E45AFF4F408167
:104080005181349620813181240F351FBE016F5F2D
:104090007F4FCE0103960E941D1C892B01F32B81BB
:1040A0003C81F80183899489A901481B590B578FDA
:1040B000468F348B238B89819A81821B930B938F3C
:1040C000828FA5C00E94EF1F892B49F2F801258934
:1040D00036893C832B83828D938D820F931F9A8325
:1040E0008983E25AFF4F408151813496208131818A
:1040F000240F351FBE016F5F7F4FCE0103960E94D4
:104100001D1C892B09F4ABCF2B813C81F8018589DB
:104110009689A901481B590B578F468F368B258BE3
:1041200089819A81821B930B938F828F73C00E9427
:10413000D71F892B09F493CFF801838994890196BD
:104140009A838983228D338D821B930B9C838B836F
:10415000E45AFF4F40815181349620813181240FF0
:10416000351FBE016F5F7F4FCE0103960E941D1C5D
:10417000892B09F474CF89819A812B813C81AC0110
:10418000421B530BF801538F428F019723893489C7
:10419000281B390B378F268F948B838B38C0C8012F
:1041A0000E94EF1F892B09F45ACFF801858996895F
:1041B00001969A838983228D338D821B930B9C8376
:1041C0008B83E25AFF4F40815181349620813181A7
:1041D000240F351FBE016F5F7F4FCE0103960E94F3
:1041E0001D1C892B09F43BCF89819A812B813C814D
:1041F000AC01421B530BF801538F428F0197258965
:104200003689281B390B378F268F968B858BEE24AA
:10421000E394F12CC7010F900F900F900F90DF9156
:10422000CF911F910F91FF90EF900895FC0126818F
:104230008081280F20834485558582859385840F4E
:10424000951F9587848740855185841795073CF095
:104250003281230F2083841B950B958784870895D3
:104260001F93CF93DF93FC01162F6183C42FD0E0FF
:10427000C61BD109D583C4832150310931872087DA
:1042800081E090E093838283CE01B9010E94503097
:1042900077836683D7FF09C0D195C195D109D583AE
:1042A000C4838FEF9FEF9383828384819581B901CB
:1042B0000E9450309387828737FF02C02F5F3F4FA5
:1042C00035952795358724871083DF91CF911F91EE
:1042D00008958091000161E4869F602D11246F5E36
:1042E0006093000170E080E090E00895009769F02D
:1042F000FC0101900020E9F73197AF01481B590BF1
:10430000BC0186EE91E00C945E1480E090E008958C
:104310008F929F92BF92CF92DF92EF92FF920F9374
:104320001F93CF93DF936C017B010CEB12E0C9E18B
:10433000D2E0BC2E83E0B80E4E01DE011397FE01E1
:10434000399797014C916081C8010E9430212196D4
:10435000FE0137979701D4014C916081C8018A967C
:104360000E943021025F1F4FBC12E6CFC0E0D0E0B8
:1043700097012C1B3D0B121613060CF04DC08091BB
:10438000BC02809310028091CA0280931102809136
:10439000D802809312028091E602809313028091EA
:1043A000F40280931402809102038093150210920C
:1043B000FE011092FD01D0930002C093FF01D09244
:1043C0000502C09204021092070210920602E091C8
:1043D000EF01F091F0014DEF51E067E170E08AEEFE
:1043E00091E009958CEB92E00E9416218AEC92E014
:1043F0000E94162188ED92E00E94162186EE92E03E
:104400000E94162184EF92E00E94162182E093E040
:104410000E9416212196ACCFDF91CF911F910F9171
:10442000FF90EF90DF90CF90BF909F908F90089576
:10443000CF92DF92EF92FF920F931F93CF93DF9370
:104440007C018B016A01E9011C161D0624F580918F
:1044500010028093010280911102809302028091E8
:10446000120280930302F092FE01E092FD0110938C
:1044700000020093FF01D0920502C0920402109244
:104480000702109206028AEE91E00E943F1A2197DD
:104490000F5F1F4FD9CFDF91CF911F910F91FF90E9
:1044A000EF90DF90CF900895E6EEF1E022A5238F04
:1044B00023A5248F24A5258F908F878B728F618FE2
:1044C0000184F285E02D40E050E064E170E08AEE86
:1044D00091E00994CF92DF92EF92FF920F931F9396
:1044E000CF93DF93082F10E093E1899FE00111241F
:1044F000C455DE4F6EA184E0689FF0011124E4559D
:10450000FE4FE280F380C080D180ECA1FDA18CEA57
:1045100091E0099594E0899FF0011124E455FE4F44
:1045200022813381408151818EA3CA018C199D095A
:10453000A9014E195F095F8B4E8B3F8F2E8FFD8E29
:10454000EC8ED9A2C8A297FD08C021E030E03D8BD7
:104550002C8B1BA21AA27C010EC02FEF3FEF3D8BCC
:104560002C8BEE24FF24E81AF90A21E030E0241B0A
:10457000350B3BA32AA323E1209FF001219FF00DDF
:104580001124E455FE4F26893789B9010E94503025
:10459000718F608FC701B9010E945030938F828F55
:1045A000DF91CF911F910F91FF90EF90DF90CF900F
:1045B0000895EF92FF920F931F93CF93DF938C0197
:1045C00083E1689FF0011124E455FE4F66A17F014D
:1045D000A4E2EA0EF11CEF01A696D701ED91FC9141
:1045E0008CEA91E00995682FB4E08B9FF0011124CB
:1045F000E455FE4F828193818017910711F46883FF
:10460000ECCFDF91CF911F910F91FF90EF90089524
:10461000CF93DF9320914E0230914F022817390734
:1046200009F4A2C0EC0190934F0280934E02FC016A
:10463000849180935F023196E491E0936002FE01E1
:104640003296E491E0936102FE013396E491E093A7
:104650006202FE013496E491E0936302FE01359616
:10466000E491E0936402FE013696E491E0936502E2
:10467000FE013796E491E0936602FE013896E491DC
:10468000E0936702FE013996E491E0936802FE012F
:104690003A96E491E0936902FE013B96E491E0933F
:1046A0006A02FE013C96E491E0936B02FE013D96A6
:1046B000E491E0936C02FE013E96E491E0936D027A
:1046C000FE013F96E491E0936E02FE017096E49144
:1046D000E0936F0261E1CE010E94331A9093710260
:1046E0008093700263E1CE010E94331A90937302AB
:1046F0008093720280914E0290914F02892BA1F11A
:1047000080916C0280937A0240916D0240937B020B
:1047100090917902992341F1913069F490916E0260
:10472000891714F490937A0280916F028417E4F44D
:1047300080937B0219C03091690220916B02082E90
:10474000000C990B622F022E000C770B630F711D6A
:1047500037FD7A95861797071CF4320F30937A024B
:10476000241714F420937B02DF91CF9108958F9248
:104770009F92AF92BF92CF92DF92EF92FF920F93F0
:104780001F93CF93DF937C016B015A018901C6EE21
:10479000D1E08AA58B8F8BA58C8F8CA58D8FF88E01
:1047A000EF8A7A8F698F5F8F4E8F19A218A28AEED7
:1047B00091E00E943F1A8AA58B8F8BA58C8F8CA5C8
:1047C0008D8FF88EEF8ADA8EC98E1F8F0E8F882418
:1047D0008394912C99A288A28AEE91E00E943F1ABC
:1047E000C7018A0D9B1D2AA52B8F2BA52C8F2CA5CD
:1047F0002D8F0197988F8F8BDA8EC98E1F8F0E8F1A
:1048000099A288A28AEE91E00E943F1A0C0D1D1D0C
:104810008AA58B8F8BA58C8F8CA58D8FF88EEF8AB8
:10482000015011091A8F098FBF8EAE8E19A218A2DE
:104830008AEE91E0DF91CF911F910F91FF90EF9061
:10484000DF90CF90BF90AF909F908F900C943F1AC5
:10485000CF93DF93C6EED1E01AA61BA61CA68AEE64
:1048600091E00E94691B2F8138854D815E8160E057
:1048700070E080E090E00E9418228FEF8AA78BA75B
:104880008CA7DF91CF9108958091F3019091F4016D
:10489000009741F09093F0018093EF011092F401A2
:1048A0001092F3018AEE91E00E948E1B8AEE91E055
:1048B0000C94691B90E0FC01EE5AF74D2491FC0129
:1048C000E25CF74D8491882399F090E0880F991F5E
:1048D000FC01EC5CF74DA591B491FC01E65DF74D50
:1048E000859194918FB7F894EC91E22BEC938FBF64
:1048F0000895CF93DF93CDB7DEB72E970FB6F89418
:10490000DEBF0FBECDBF789484B5826084BD84B510
:10491000816084BD85B5826085BD85B5816085BDBA
:1049200080916E00816080936E0010928100809172
:1049300081008260809381008091810081608093FA
:104940008100809180008160809380008091B1001F
:1049500084608093B1008091B00081608093B0004A
:1049600080917A00846080937A0080917A008260DE
:1049700080937A0080917A008E7F80937A00809174
:104980007A00806880937A001092C10068EE73E02C
:1049900080E090E00E9444198091B5029091B602A7
:1049A0004091B3025091B4022091EA012E7F2093EE
:1049B000EA011092F4011092F30121E030E030930B
:1049C0000B0220930A0210924F0210924E02209383
:1049D0005D021092B0021092B1021092B2020097E2
:1049E00011F481EA96E19093F2018093F1015093E2
:1049F000F0014093EF018DE69DE19093FC018093DF
:104A0000FB018AEE91E00E94031A8AEE91E00E9477
:104A10009E1B8AEE91E00E948E1B81E080935D02D6
:104A20008FEB93E10E9408230E9428248091A20129
:104A30008370813099F078F08230E9F40E94442448
:104A40008091EF019091F0019093F4018093F30134
:104A50008CE295E11CC00E94442425C00E9444249D
:104A60008091EF019091F0019093F4018093F30114
:104A700085EB95E10CC00E9444248091EF01909158
:104A8000F0019093F4018093F3018EEA94E1909306
:104A9000F0018093EF018AEE91E00E948E1B8AEE76
:104AA00091E00E94691B8091A201843008F441C00A
:104AB0000E9428240E9469217B012FE1E222FF2429
:104AC0000E9469216F71772739E1E30EF11C8B0198
:104AD000075E1F4F0E9469219B01AC01A091EB0171
:104AE000B091EC01AE19BF090E946A30872E982E52
:104AF000A92EBB240E9469219B01AC01A091ED016C
:104B0000B091EE01A01BB10B0E946A30BB27A92F08
:104B1000982F872F9A8289829C838B83FE82ED82D5
:104B200018870F83BE016F5F7F4F8AEE91E00E946E
:104B3000601B8091A2018F5F8093A20110921002EE
:104B400088E28093110290E59093120290931302F1
:104B500010921402809315021FEF10931602109208
:104B60001702109318021092190210931A02109350
:104B70001B026091ED017091EE018091EB0190912B
:104B8000EC010E9488211093100288EA80931102A0
:104B9000109212021092BB0242E0E42EF12CF0922D
:104BA000B802E092B70282E190E09093BA0280935B
:104BB000B90285E291E00E947621F092B802E0927B
:104BC000B70286E290E09093BA028093B9028CE239
:104BD00091E00E94762160ED77E080E090E00E9415
:104BE00044198AEF8093100210921102109212025F
:104BF00010931302109314028EE1809315029CED22
:104C0000909316029BEE909317029AE090931802ED
:104C10009DEC9093190210921A0280931B026091EE
:104C2000ED017091EE018091EB019091EC010E94F9
:104C30008821E090EB01F090EC01F7FE03C08FEFCC
:104C4000E81AF80AF594E7940091ED011091EE014D
:104C500017FF02C00F5F1F4F1595079577247A94B1
:104C6000709210027092110270921202F2E0AF2E56
:104C7000B12CB092B802A092B70282E190E090937A
:104C8000BA028093B90289E391E00E9476211092E2
:104C90001002A6E66A2E60921102BCEC9B2E909246
:104CA0001202C7010F969093B8028093B702C80111
:104CB00005979093BA028093B9028FE391E00E9426
:104CC0007621670195E0C90ED11CD092B802C0923E
:104CD000B702C8014A969093BA028093B90284E45D
:104CE00091E00E947621C70188979093B802809343
:104CF000B702C80144969093BA028093B90289E43E
:104D000091E00E947621D092B802C092B702C80109
:104D100049979093BA028093B9028EE491E00E9481
:104D2000762110921002609211027092120210927B
:104D300013026092140290921502109216021092C1
:104D4000170289E9809318021801E1E02E1A310850
:104D50004701F2E08F0E911C109201026092020254
:104D6000709203029092FE018092FD013092000247
:104D70002092FF0184E1C82ED12CD0920502C0926E
:104D8000040210920702109206028AEE91E00E943D
:104D90003F1A809113028093010280911402809344
:104DA000020280911502809303029092FE0180928C
:104DB000FD01109300020093FF01D0920502C09202
:104DC000040210920702109206028AEE91E00E94FD
:104DD0003F1A28012FEF421A520A8091160280933F
:104DE0000102809117028093020280911802809341
:104DF00003029092FE018092FD01509200024092C7
:104E0000FF01D0920502C092040210920702109294
:104E100006028AEE91E00E943F1A380132E0630EEA
:104E2000711CA7014F5F5F4F8091100280930102B8
:104E300080911102809302028091120280930302FA
:104E40005093FE014093FD01709200026092FF01B9
:104E5000D0920502C092040288248394912C9092EF
:104E60000702809206028AEE91E04D875E870E94DB
:104E70003F1A809113028093010280911402809363
:104E800002028091150280930302F092FE01E092EB
:104E9000FD01709200026092FF01D0920502C09263
:104EA000040290920702809206028AEE91E00E942C
:104EB0003F1A970121503109809116028093010217
:104EC000809117028093020280911802809303025E
:104ED0003093FE012093FD01709200026092FF0169
:104EE000D0920502C09204029092070280920602BC
:104EF0008AEE91E02B873C870E943F1A470182E0AF
:104F0000881A910880911002809301028091110209
:104F10008093020280911202809303029092FE011C
:104F20008092FD01509200024092FF01D092050252
:104F3000C0920402B0920702A09206028AEE91E0AB
:104F40000E943F1A80911302809301028091140203
:104F50008093020280911502809303029092FE01D9
:104F60008092FD01109300020093FF01D092050290
:104F7000C0920402B0920702A09206028AEE91E06B
:104F80000E943F1A809116028093010280911702BD
:104F90008093020280911802809303029092FE0196
:104FA0008092FD01309200022092FF01D092050212
:104FB000C0920402B0920702A09206028AEE91E02B
:104FC0000E943F1A02501109809110028093010241
:104FD0008091110280930202809112028093030259
:104FE0002B853C853093FE012093FD011093000238
:104FF0000093FF01D0920502C092040223E0A22E8A
:10500000B12CB0920702A09206028AEE91E00E94B3
:105010003F1A8091130280930102809114028093C1
:1050200002028091150280930302F092FE01E09249
:10503000FD01109300020093FF01D0920502C0927F
:105040000402B0920702A09206028AEE91E00E944A
:105050003F1A80911602809301028091170280937B
:10506000020280911802809303024D855E85509361
:10507000FE014093FD01109300020093FF01D092C6
:105080000502C0920402B0920702A09206028AEEC4
:1050900091E00E943F1A60ED77E080E090E00E948E
:1050A00044198091EB019091EC018C0197FF02C0B3
:1050B0000F5F1F4F15950795109210021092110265
:1050C00026E920931202109213023CE3309314025B
:1050D00028E22093150230931602109217022093B3
:1050E000180228E72093190220931A0228EC209333
:1050F0001B026091ED017091EE010E9488218FEFFB
:1051000080931002809311028093120282E090E05B
:105110009093B8028093B70282E190E09093BA0234
:105120008093B9021092BB0283E591E00E94762140
:1051300060E070E080E090E00E94542260E070E067
:1051400081E090E00E9454226091ED017091EE01A7
:10515000615071098091EB019091EC0101970E94DF
:1051600054226091ED017091EE01615071098091BE
:10517000EB019091EC0102970E945422812C912C1A
:10518000E12CF12C77247A946DE0C62ED12CAA2440
:10519000A394B12CE016F1060CF058C0C401B8017C
:1051A0000E943C30262F2095CB0177FD01969595E6
:1051B00087958095709210028093110220931202BD
:1051C000709201028093020220930302F092FE018A
:1051D000E092FD01E8E1F0E0F0930002E093FF01CE
:1051E000E091EF01F091F00140E050E064E170E007
:1051F0008AEE91E0099580911002809301028091DE
:105200001102809302028091120280930302C7016F
:1052100007969093FE018093FD012AE130E03093E0
:1052200000022093FF01D0920502C0920402B092C6
:105230000702A09206028AEE91E00E943F1A3FEF19
:10524000E31AF30A8FEF880E911CA4CF60ED77E08C
:1052500080E090E00E944419109210021092110216
:10526000109212022091ED013091EE014091EB017C
:105270005091EC0160E070E080E090E00E94182224
:105280008FEF80931002809311028093120282E0CC
:1052900090E09093B8028093B70282E190E09093FF
:1052A000BA028093B9021092BB028CE591E00E9491
:1052B00076218FE78093100280931102809312026F
:1052C0002CE230E044E450E064E170E080E090E003
:1052D0000E94182210E032E0E32EF12C109310020D
:1052E000109311021093120228E030E044E050E0E5
:1052F00066E170E0C7010E9418221093100210921C
:1053000011021092120228E030E044E050E06EE119
:1053100070E0C7010E94182210921002109311022F
:105320001092120228E030E044E050E066E270E0C3
:10533000C7010E94182210921002109211021093BD
:10534000120228E030E044E050E06EE270E0C70175
:105350000E94182210931002812F809580931102D1
:105360001092120228E030E044E050E066E370E082
:10537000C7010E94182294E0E90EF11C1F5E103153
:1053800009F0ACCF60ED77E080E090E00E94441936
:105390001092100220E52093110294E190931202E2
:1053A0008CE3809313022093140290931502809350
:1053B000160288E7809317021092180210921902C1
:1053C0008CE880931A028EE180931B026091ED01BC
:1053D0007091EE018091EB019091EC010E94882187
:1053E0008FEF80931002809311028093120282E06B
:1053F00090E09093B8028093B70282E190E090939E
:10540000BA028093B90287E691E00E9476210E9459
:105410007E196B017C01E0EACE0EEFE0DE1EE11C9E
:10542000F11C0E947E196C157D058E059F0508F004
:10543000F6C00E946921162F0E946921062F0E9442
:105440006921862F8F778158809310020F71009306
:1054500011021F77105C109312020E9469219B01B8
:10546000AC01A091ED01B091EE0154970E946A3019
:10547000BB27A92F982F872F1C01F4E12F0E311C79
:105480000E9469219B01AC01A091EB01B091EC015C
:105490000E946A30872E982EA92EBB240E94692173
:1054A0009B01AC01A091ED01B091EE0154970E94D7
:1054B0006A30BB27A92F982F872F9C012C5E3F4F66
:1054C0003A8729870E9469219B01AC01A091EB01D9
:1054D000B091EC010E946A30472E582E692E772435
:1054E0000E9469219B01AC01A091ED01B091EE01F8
:1054F00054970E946A30BB27A92F982F872F8C01C1
:105500000C5E1F4F0E9469219B01AC01A091EB0131
:10551000B091EC010E946A30BB27A92F982F872FEA
:105520009093AD018093AC011093AF010093AE0155
:105530005092B1014092B00189859A859093B30150
:105540008093B2019092B5018092B4013092B7017C
:105550002092B60193E09093BC01E6E3F6E1F0936C
:10556000E401E093E3012DE236E13093D101209391
:10557000D0011092D201ECEAF1E0580190E081E014
:10558000833070F426813781021713070CF48901E8
:105590002A153B0514F4982F59018F5F3496F0CFEC
:1055A0009093D2010A191B091093BF010093BE0109
:1055B000012B09F436CF9093E50161E0C5010E940B
:1055C000D92260E0C5010E94D92231E03093BD01AB
:1055D000A091D20184E0A89FD0011124A455BE4F10
:1055E000E091E50194E0E99FF0011124E455FE4FBC
:1055F0002D913C91808191812817390719F01092E3
:10560000BD015DC48091BE019091BF01019790934F
:10561000BF018093BE01892B09F051C402CF1092C3
:10562000100288E28093110290E59093120296E9AD
:10563000909313021092140208EC009315029CE35D
:10564000909316021092170280931802109219027A
:1056500080EA80931A0280931B026091ED017091A1
:10566000EE018091EB019091EC010E9488211FEFE7
:105670001093100210931102109312021092BB02A9
:1056800042E0E42EF12CF092B802E092B70282E1FF
:1056900090E09093BA028093B90280E791E00E9473
:1056A000762181E080935D02109310020093110235
:1056B0008AEA809312028BEE9EE00E940823F09209
:1056C000B802E092B70283E290E09093BA0280932E
:1056D000B90286E791E00E9476218EE498E00E946C
:1056E0000823F092B802E092B70282E390E0909330
:1056F000BA028093B90286E791E00E9476218EE992
:1057000090E00E94082356E7E52E51E0F52E02E0D6
:1057100010E0F70161917F01662349F1E0915002A9
:10572000F09151028AEE91E06B8709951093550232
:10573000009354028D5B9F4F9093570280935602C3
:1057400010925E026B858AEE91E00E940B1A009720
:1057500049F0BC018AEE91E00E94B71A082E000CB5
:10576000990B02C080E090E0080F191FD2CF109271
:105770005D02FF24FA94F092100288EC80931102EB
:105780008AEA809312021092130284E68093140234
:1057900088E7809315028BEE9EE00E94082302E0CA
:1057A00010E01093B8020093B7028EE690E0909359
:1057B000BA028093B90286E791E00E9476218EE4D6
:1057C00098E00E9408231093B8020093B7028DE777
:1057D00090E09093BA028093B90286E791E00E942C
:1057E00076218EE990E00E9408231093B80200937E
:1057F000B7028EE890E09093BA028093B90286E7F0
:1058000091E00E94762181E080935D028FEB93E12D
:105810000E94082360ED77E080E090E00E94441948
:1058200080E58093100298E2909311021092120288
:105830008CE380931302109214029093150294E16A
:1058400090931602109217029093180280931902F7
:1058500010921A0210921B026091ED017091EE01FC
:105860008091EB019091EC010E948821F09210024E
:10587000F0921102F09212021093B8020093B70254
:1058800082E190E09093BA028093B9021092BB0239
:1058900082E891E00E9476210E947E196B017C01D2
:1058A000F0EACF0EFFE0DF1EE11CF11C00E010E08B
:1058B0000E947E196C157D058E059F0508F04DC070
:1058C0000E946921B62E0E946921A62E0E9469219C
:1058D0006F71609310028A2D8F7781588093110227
:1058E0008B2D8F77805C809312020E9469219B012F
:1058F000AC01A091EB01B091EC0198970E946A3045
:10590000872E982EA92EBB240E9469219B01AC01F1
:10591000A091ED01B091EE0156970E946A30BB272D
:10592000A92F982F872FBC016A5E7F4F9092B802F3
:105930008092B7027093BA026093B902C80195953C
:1059400087959595879583708093BB020F5F1F4F56
:1059500085E291E00E947621ABCF1092BB0280914C
:10596000A201843008F077C11092100241EDF42EAC
:10597000F09211028EE5809312021FEF1093130232
:1059800087EF8093140201E600931502F09216024D
:1059900087EC80931702109218020093190210935B
:1059A0001A0288EA80931B026091ED017091EE016A
:1059B0008091EB019091EC010E94882110931002DC
:1059C000109311021093120282E090E09093B802BB
:1059D0008093B70252E1A52EB12CB092BA02A092E8
:1059E000B9021092BB0287E891E00E947621F09202
:1059F00010021092110283E7809312028CE89CE15E
:105A00000E94082369E1E62EF12CF092B802E092A0
:105A1000B7027DE2C72ED12CD092BA02C092B90251
:105A20001092BB0281E991E00E9476217724739461
:105A30007092BB0281E991E00E947621E2E08E2E15
:105A40008092BB0281E991E00E947621F3E09F2ED3
:105A50009092BB0281E991E00E9476218AEE91E06A
:105A60000E94691B109310021093110210931202EE
:105A700026E130E041E150E06DE170E083E190E04B
:105A80000E94B72384E190E09A8389832EE130E07D
:105A90003C832B832FE030E03E832D8398878F83D8
:105AA000BE016F5F7F4F8AEE91E00E94601B1093F2
:105AB000100200931102A8EB6A2E60921202F0927B
:105AC000B802E092B702D092BA02C092B902109224
:105AD000BB0281E991E00E9476217092BB0281E9CC
