:020000040000FA
:10000000803102288731F52FFF3FFF3FFF3FFF3F41
:10001000FF3FFF3FFF3FFF3FFF3FFF3FFF3FFF3FF0
:10002000FF3FFF3FFF3FFF3FFF3FFF3FFF3FFF3FE0
:10003000FF3FFF3FFF3FFF3FFF3FFF3FFF3FFF3FD0
:10004000FF3FFF3FFF3FFF3FFF3FFF3FFF3FFF3FC0
:10052000FF3FFF3FFF3FFF3FFF3FFF3FFF3FF00029
:10053000700820008F000800640080010131890BE1
:100540009D2A0034013021009D000C309E000130B6
:100550009F00080084314C2482310C308231D32238
:1005600082310800333023009B001E151E139E1697
:100570001E129D171D131D160800F1002000901477
:100580007108823197228231200010154230890B88
:10059000C72A0032200090104230890BCD2A003249
:1005A000200090140800F20020009014720882319C
:1005B00097228231200010114230890BDD2A00324F
:1005C000200090100630F1003030890BE52AF10B45
:1005D000E52A00322000901408000C3021009E0013
:1005E000C7308C0007308D0001308E008F019001E4
:1005F0008231A222823188302000CC001330CD001D
:100600008431EA2482318231B22282318231AA22BB
:1006100082318631D8268231092B80310228F701B8
:10062000242B7308F5007208F4007708740784001F
:1006300075080318750A850000088231BD228331D0
:100640000130F4007408F7077308F5007208F4002D
:1006500077087407840075080318750A850012006E
:10066000031D332B342B112B08000030FB0000300E
:10067000FA000030F9000030F800701C402B412BCC
:10068000492B7408F8077508F93D7608FA3D770894
:10069000FB3D0130F435F50DF60DF70D890B4A2BB6
:1006A0000130F336F20CF10CF00C890B512B73086E
:1006B000720471047004031D5E2B5F2B3D2B7B08BD
:1006C000F3007A08F2007908F1007808F0000800D9
:1006D0007008710403196D2B6E2B972BF501F50A29
:1006E0007A2B0130F035F10D890B722B0130F400BB
:1006F0007408F507F11F7D2B7E2B712B7108730297
:10070000031D842B70087202031C872B882B8C2BF3
:100710007008F2027108F33B0130F136F00C890BDE
:100720008D2B0130F502031D962B972B7E2B730822
:10073000F1007208F00008002000C31BA02BA12BC1
:10074000B62B4308BF004208BE004408013EC50066
:100750004508C0008631042683312B302000C500B7
:1007600044088600870145088100D12B4209C50055
:100770004309C600C50A0319C60A4508BE00460853
:10078000BF004408013EC7004708C0008631042668
:1007900083312D302000C5004408860087014508BC
:1007A00081000800FB01FC01760877040319D92BAE
:1007B000DA2B092CFD01FD0AE62B0130F635F70D89
:1007C000890BDE2B0130FA007A08FD07F71FE92BB1
:1007D000EA2BDD2B0130FB35FC0D890BEB2B770869
:1007E0007902031DF52B76087802031CF82BF92BF0
:1007F000FE2B7608F8027708F93B7B140130F736B8
:10080000F60C890BFF2B0130FD02031D082C092C6F
:10081000EA2B7C08F7007B08F6000800F9001C2C86
:10082000013021009D00272C053021009D00272C40
:10083000093021009D00272C7908003A0319102C5B
:10084000013A0319142C033A0319182C272C0D30E4
:10085000890B282C000021009D149D18302C312C70
:100860002D2C1B08F2000630F236890B342C72084E
:10087000F300F4011C08F500F601F535F60DF53529
:10088000F60D73087504F70074087604F80077080D
:10089000F0007808F100080021008F01901010117D
:1008A0002000901010113430F300F230890B562CD8
:1008B000F30B562C2000901438308231D32284312F
:1008C0000D30F300FC30890B632CF30B632C3830B4
:1008D0008231D32284310330F3009830890B6E2C9F
:1008E000F30B6E2C38308231D322843108308231C0
:1008F000D32284310F308231D322843101308231CE
:10090000D322843138308231D32284318030823115
:10091000D32284310800F601F11F8F2C902C972CE4
:10092000F009F109F00A0319F10AF601F60AF31FBA
:100930009A2C9B2CA42CF209F309F20A0319F30A4E
:100940000130F4007408F606F701F801700871042C
:100950000319AB2CAC2CDB2CF501F50AB82C0130BB
:10096000F035F10D890BB02C0130F4007408F50757
:10097000F11FBB2CBC2CAF2C0130F735F80D890BC7
:10098000BD2C71087302031DC72C70087202031C72
:10099000CA2CCB2CD02C7008F2027108F33B7714D0
:1009A0000130F136F00C890BD12C0130F502031D1A
:1009B000DA2CDB2CBC2C76080319DF2CE02CE52C80
:1009C000F709F809F70A0319F80A7808F100770817
:1009D000F00008002500930120000E112500910170
:1009E00020001C114C08CE004D08CF00D001D101D1
:1009F0000230CE35CF0DD00DD10D890BF92C510819
:100A0000C1005008C0004F08BF004E08BE000030B3
:100A1000C5007A30C4001230C3000030C2008531F6
:100A20007425843120003F08D3003E08D2000130F5
:100A3000530200300319520203181F2D202D252DBB
:100A4000FC309C0552089B00582D5308CF005208DB
:100A5000CE00CF36CE0CCF36CE0C01304F02003058
:100A600003194E020318352D362D472D1C08FC396D
:100A700001389C005208023ECE000030533DCF00AA
:100A8000CF36CE0CCF36CE0C4E089B00582D5208D8
:100A9000083ECE000030533DCF000430CF36CE0CA0
:100AA000890B4E2D4E089B001C08FC3902389C0017
:100AB00087309C056430F0000030F1001B08CE0048
:100AC000CF01CE35CF0DCE35CF0D03304E04F20021
:100AD00000304F04F30084318B24843171082000EE
:100AE000B7007008B60008002000C701C11F792DAB
:100AF0007A2D872DBE09BF09C009C109BE0A031995
:100B0000BF0A0319C00A0319C10AC701C70AC51FD2
:100B10008A2D8B2D9A2DC209C309C409C509C20AA1
:100B20000319C30A0319C40A0319C50A0130FC00DA
:100B30007C08C7060030CB000030CA000030C90076
:100B40000030C800410840043F043E040319A92DA9
:100B5000AA2DEB2DC601C60AB82D0130BE35BF0D3A
:100B6000C00DC10D890BAE2D0130FC007C08C607FD
:100B7000C11FBB2DBC2DAD2D0130C835C90DCA0D0F
:100B8000CB0D890BBD2D41084502031DD12D400819
:100B90004402031DD12D3F084302031DD12D3E0801
:100BA0004202031CD42DD52DDE2D3E08C2023F0883
:100BB000C33B4008C43B4108C53B48140130C13623
:100BC000C00CBF0CBE0C890BDF2D0130C602031D0B
:100BD000EA2DEB2DBC2D47080319EF2DF02DFB2D31
:100BE000C809C909CA09CB09C80A0319C90A0319DE
:100BF000CA0A0319CB0A4B08C1004A08C0004908B9
:100C0000BF004808BE0008001030F6002730F7008B
:100C100020003F08F9003E08F8008331D2238631D6
:100C20007608303E2000C100400886008701410858
:100C30008100E830F6000330F7003F08F3003E087B
:100C4000F2001030F0002730F10083316823863144
:100C50007108F9007008F8008331D22386317608D4
:100C6000303E2000C100400A860087014108810013
:100C70006430F6000030F7003F08F3003E08F20051
:100C8000E830F0000330F1008331682386317108C9
:100C9000F9007008F8008331D22386317608303E9F
:100CA0002000C1004008023E860087014108810003
:100CB0000A30F6000030F7003F08F3003E08F2006B
:100CC0006430F0000030F100833168238631710810
:100CD000F9007008F8008331D22386317608303E5F
:100CE0002000C1004008033E8600870141088100C2
:100CF0000A30F0000030F1003F08F3003E08F20037
:100D00008331682386317008303E2000C1004008DE
:100D1000043E86008701410881004008053E8600A8
:100D20008701810140088600870130300106031DDC
:100D30009A2E9B2ED72E2030C100400886008701B6
:100D400041088100400A8600870130300106031DFA
:100D5000AA2EAB2ED72E2030C100400A8600870174
:100D6000410881004008023E8600870130300106BC
:100D7000031DBB2EBC2ED72E2030C1004008023EE2
:100D800086008701410881004008033E86008701F4
:100D900030300106031DCD2ECE2ED72E2030C100BF
:100DA0004008033E8600870141088100D72E0800D5
:100DB00080308231D3228631003084310E24863156
:100DC00071082000B5007008B4003508BF00340871
:100DD000BE003830CC004C08C00086310426863175
:100DE0003830F2000030F30083310F238631863033
:100DF0008231D32286310630F2008830F30083310D
:100E00000F23863100302000C1000030C0000330C5
:100E1000BF00FF30BE003408F0003508F100F201D9
:100E2000F3010030F7000030F6001330F500883091
:100E3000F40083313523863173082000C500720821
:100E4000C4007108C3007008C20085317425863162
:100E5000063020003E07CD00FA303F3DCE00FF3087
:100E6000403DCF00FF30413DD0000030C100003098
:100E7000C0000030BF001730BE005008C5004F084A
:100E8000C4004E08C3004D08C20085317425863168
:100E900020003F08B5003E08B4003508C300340800
:100EA000C2003830CC004C08C40083319C2386310A
:100EB0003830F2000030F30083310F2386310B30DD
:100EC000F2008830F30083310F238631C030823145
:100ED000D3228631013084310E24863171082000FE
:100EE000B5007008B4003508BF003408BE003830C3
:100EF000CC004C08C0008631042686313830F20020
:100F00000030F30083310F238631C6308231D32283
:100F100086310330F2008830F30083310F238631AD
:100F200000302000C1000030C0000330BF00FF309F
:100F3000BE003408F0003508F100F201F301003082
:100F4000F7000030F6001330F5008830F4008331EC
:100F50003523863173082000C5007208C40071086B
:100F6000C3007008C2008531742586310C30200022
:100F70003E07CD00FE303F3DCE00FF30403DCF006C
:100F8000FF30413DD0000030C1000030C0000030D3
:100F9000BF002830BE005008C5004F08C4004E08EE
:100FA000C3004D08C20085317425863120003F08FA
:100FB000B5003E08B4003508C3003408C20038301C
:100FC000CC004C08C40083319C2386313830F200B9
:100FD0000030F30083310F2386310930F20088306E
:100FE000F30083310F238631080020308400003065
:100FF00085001E3082319C22873120008231ED2A0B
:1010000001340234043448343D34003454343D3423
:1010100000342534003443340034FF3FFF3FFF3FAA
:10102000FF3FFF3FFF3FFF3FFF3FFF3FFF3FFF3FD0
:10103000FF3FFF3FFF3FFF3FFF3FFF3FFF3FFF3FC0
:10104000FF3FFF3FFF3FFF3FFF3FFF3FFF3FFF3FB0
:10105000FF3FFF3FFF3FFF3FFF3FFF3FFF3FFF3FA0
:020000040001F9
:04000E00E209FF1CE8
:10E00000FF00FF00FF00FF00FF00FF00FF00FF0018
:10E01000FF00FF00FF00FF00FF00FF00FF00FF0008
:10E02000FF00FF00FF00FF00FF00FF00FF00FF00F8
:10E03000FF00FF00FF00FF00FF00FF00FF00FF00E8
:10E04000FF00FF00FF00FF00FF00FF00FF00FF00D8
:10E05000FF00FF00FF00FF00FF00FF00FF00FF00C8
:10E06000FF00FF00FF00FF00FF00FF00FF00FF00B8
:10E07000FF00FF00FF00FF00FF00FF00FF00FF00A8
:10E08000FF00FF00FF00FF00FF00FF00FF00FF0098
:10E09000FF00FF00FF00FF00FF00FF00FF00FF0088
:10E0A000FF00FF00FF00FF00FF00FF00FF00FF0078
:10E0B000FF00FF00FF00FF00FF00FF00FF00FF0068
:10E0C000FF00FF00FF00FF00FF00FF00FF00FF0058
:10E0D000FF00FF00FF00FF00FF00FF00FF00FF0048
:10E0E000FF00FF00FF00FF00FF00FF00FF00FF0038
:10E0F000FF00FF00FF00FF00FF00FF00FF00FF0028
:10E10000FF00FF00FF00FF00FF00FF00FF00FF0017
:10E11000FF00FF00FF00FF00FF00FF00FF00FF0007
:10E12000FF00FF00FF00FF00FF00FF00FF00FF00F7
:10E13000FF00FF00FF00FF00FF00FF00FF00FF00E7
:10E14000FF00FF00FF00FF00FF00FF00FF00FF00D7
:10E15000FF00FF00FF00FF00FF00FF00FF00FF00C7
:10E16000FF00FF00FF00FF00FF00FF00FF00FF00B7
:10E17000FF00FF00FF00FF00FF00FF00FF00FF00A7
:10E18000FF00FF00FF00FF00FF00FF00FF00FF0097
:10E19000FF00FF00FF00FF00FF00FF00FF00FF0087
:10E1A000FF00FF00FF00FF00FF00FF00FF00FF0077
:10E1B000FF00FF00FF00FF00FF00FF00FF00FF0067
:10E1C000FF00FF00FF00FF00FF00FF00FF00FF0057
:10E1D000FF00FF00FF00FF00FF00FF00FF00FF0047
:10E1E000FF00FF00FF00FF00FF00FF00FF00FF0037
:10E1F000FF00FF00FF00FF00FF00FF00FF00FF0027
:00000001FF
