:020000040000FA
:100000000000C928FF3FFF3FBD00030EBE000408EB
:10001000C0000A08BF008A0183018C10B90B1B289D
:100020006430B90010100F08BA000E08BB008F0131
:100030008E0110143C141E08B5001F15BC143F0897
:100040008A00400884003E0E8300BD0E3D0E09006C
:100050001030B0002A08AE002B08AF00AA01AB0197
:10006000AC01AD010310AF0DAE0DAD0DAC0D280808
:100070002C02031D3D2829082D02031C46282908AF
:10008000AD02031CAC032808AC020314AB0DAA0D8F
:10009000B00B32280800B101B20134080310331844
:1000A000B107B10CB20CB318B107B10CB20C3319D3
:1000B000B107B10CB20CB319B107B10CB20C331AC1
:1000C000B107B10CB20CB31AB107B10CB20C331BAF
:1000D000B107B10CB20CB31BB107B10CB20C0800E4
:1000E000A100FA30A0006400A00B7328A10B7128B6
:1000F00008008800000089147D28891001307020D4
:100100000800A200A301A401A501A2080319080088
:10011000A30A23080A3A031D8F28A301A40A24086E
:100120000A3A031D9528A401A50AA20B88280800F5
:100130003C100910C730792009143A08AA003B087E
:10014000AB00A8010730A90028202B088120250832
:10015000303E79202408303E79202308303E792033
:100160000800BC100022B60081200910CB30792095
:1001700009142508303E79202408303E79202308D0
:10018000303E792036088316981CC42883129900C3
:100190000800850186018701880189018316FF30E7
:1001A0008500FF308600B9308700003088000430B9
:1001B0008900DB30810040308B0002308C0004303D
:1001C0009F002430980019309900F9309200831272
:1001D0009030980041309F008E018F0107309000D1
:1001E0004D3092009B010F309D0095010F3097001C
:1001F000031AF928203084008001840A0408803A18
:10020000031DFC2809103030792003307020303075
:100210007920303079203830792001307920013050
:1002200070200C3079200630792080307920091434
:10023000413079205130792055307920453079206E
:10024000433079202E3079202030792052307920A7
:100250005030792053307920203079205430792063
:10026000453079204D307920503079202E3079205A
:100270000910C130792009143030792030307920CC
:1002800030307920253079200910C73079200914C1
:100290003030792030307920303079200910CB305F
:1002A00079200914303079203030792030307920AD
:1002B000DF307920433079201F158B1764003C18FC
:1002C0009820BC18B120061C7029861C9829061D90
:1002D000BF29861DD829C830B7000130B8005E2973
:1002E000B70B5E29B80B5E294630B800643027068C
:1002F000031DA70A2708B3000A30B4004B20320EB2
:1003000030390F38B10CB20CB10C9700320C95009B
:10031000270881200910C130792009142508303EB2
:1003200079202408303E79202308303E79205E2948
:10033000B70B5E29B80B5E294630B800A708031D2D
:10034000A7032708B3000A30B4004B20320E30391F
:100350000F38B10CB20CB10C9700320C9500270885
:1003600081200910C130792009142508303E7920F8
:100370002408303E79202308303E79205E29B70BCF
:100380005E29B80B5E294630B80064302606031D8E
:10039000A60A2608B3000A30B4004B20320E3039CA
:1003A0000F38B10CB20CB10C9D00320C9B005E29D1
:1003B000B70B5E29B80B5E294630B800A608031DAE
:1003C000A6032608B3000A30B4004B20320E3039A1
:1003D0000F38B10CB20CB10C9D00320C9B005E29A1
:1003E000FF3FFF3FFF3FFF3FFF3FFF3FFF3FFF3F1D
:1003F000FF3FFF3FFF3FFF3FFF3FFF3FFF3FFF3F0D
:1004000002308A000730350703188A0A8200003458
:10041000003400340034003400340034003400343C
:10042000003400340034003400340A340034003422
:10043000003400340034003400340034003400341C
:100440000034003400340034003401340134023408
:1004500002340334033404340434053405340634DC
:1004600006340734073408340834093409340A34AC
:100470000A340B340B340C340C340D340D340E347C
:100480000E340F340F34103410341134113412344C
:10049000123413341334143414341534153416341C
:1004A00016341734173417341834183419341934EF
:1004B0001A341A341B341B341C341C341D341D34C0
:1004C0001E341E341F341F34203420342134213490
:1004D0002234223423342334243424342534253460
:1004E0002634263427342734283428342934293430
:1004F0002A342A342B342B342C342C342D342D3400
:100500002E342E342F342F343034303431343134CF
:10051000323432343334333434343434353435349F
:10052000363436343734373438343834393439346F
:100530003A343A343B343B343C343C343D343D343F
:100540003E343E343F343F3440344034413441340F
:1005500042344234433443344434443445344534DF
:1005600046344634473447344834483449344934AF
:100570004A344A344B344B344C344C344D344D347F
:100580004E344E344F344F3450345034513451344F
:10059000523452345334533454345434553455341F
:1005A00056345634573457345834583459345934EF
:1005B0005A345A345B345B345C345C345D345D34BF
:1005C0005E345E345F345F3460346034613461348F
:1005D000623462346334633464346434653465345F
:1005E0006634663467346734683468346834693430
:1005F00069346A346A346B346B346C346C346D3403
:100600006D346E346E346F346F3470347034FF3F39
:10061000FF3FFF3FFF3FFF3FFF3FFF3FFF3FFF3FEA
:10062000FF3FFF3FFF3FFF3FFF3FFF3FFF3FFF3FDA
:10063000FF3FFF3FFF3FFF3FFF3FFF3FFF3FFF3FCA
:10064000FF3FFF3FFF3FFF3FFF3FFF3FFF3FFF3FBA
:02400E00353F3C
:10420000FF00FF00FF00FF00FF00FF00FF00FF00B6
:10421000FF00FF00FF00FF00FF00FF00FF00FF00A6
:10422000FF00FF00FF00FF00FF00FF00FF00FF0096
:10423000FF00FF00FF00FF00FF00FF00FF00FF0086
:10424000FF00FF00FF00FF00FF00FF00FF00FF0076
:10425000FF00FF00FF00FF00FF00FF00FF00FF0066
:10426000FF00FF00FF00FF00FF00FF00FF00FF0056
:10427000FF00FF00FF00FF00FF00FF00FF00FF0046
:10428000FF00FF00FF00FF00FF00FF00FF00FF0036
:10429000FF00FF00FF00FF00FF00FF00FF00FF0026
:1042A000FF00FF00FF00FF00FF00FF00FF00FF0016
:1042B000FF00FF00FF00FF00FF00FF00FF00FF0006
:1042C000FF00FF00FF00FF00FF00FF00FF00FF00F6
:1042D000FF00FF00FF00FF00FF00FF00FF00FF00E6
:1042E000FF00FF00FF00FF00FF00FF00FF00FF00D6
:1042F000FF00FF00FF00FF00FF00FF00FF00FF00C6
:10430000FF00FF00FF00FF00FF00FF00FF00FF00B5
:10431000FF00FF00FF00FF00FF00FF00FF00FF00A5
:10432000FF00FF00FF00FF00FF00FF00FF00FF0095
:10433000FF00FF00FF00FF00FF00FF00FF00FF0085
:10434000FF00FF00FF00FF00FF00FF00FF00FF0075
:10435000FF00FF00FF00FF00FF00FF00FF00FF0065
:10436000FF00FF00FF00FF00FF00FF00FF00FF0055
:10437000FF00FF00FF00FF00FF00FF00FF00FF0045
:10438000FF00FF00FF00FF00FF00FF00FF00FF0035
:10439000FF00FF00FF00FF00FF00FF00FF00FF0025
:1043A000FF00FF00FF00FF00FF00FF00FF00FF0015
:1043B000FF00FF00FF00FF00FF00FF00FF00FF0005
:1043C000FF00FF00FF00FF00FF00FF00FF00FF00F5
:1043D000FF00FF00FF00FF00FF00FF00FF00FF00E5
:1043E000FF00FF00FF00FF00FF00FF00FF00FF00D5
:1043F000FF00FF00FF00FF00FF00FF00FF00FF00C5
:00000001FF
