:020000040000FA
:100000000A128A111228FF3FFE00030E8312031307
:10001000A4000408A5000A08A6007F08A7000A1289
:100020008A158C2C0A128A111528F801D101D201E7
:100030008313A0308400CD300A128A15EB2283018D
:100040000A128A112328FF308316031385008601C4
:1000500001308700880189010A128A1550260A1288
:100060008A110A128A15E3220A128A110A128A15C3
:1000700014230A128A110A128A15F3220A128A110B
:100080000630831603139F0085128312031385160F
:1000900001300A128A1565230A128A1180300A1269
:1000A0008A1565230A128A11F63083120313AF00F2
:1000B0008830B0000A128A15D4230A128A114030FF
:1000C0000A128A1565230A128A1111300A128A153A
:1000D00089230A128A1119300A128A1589230A12F1
:1000E0008A1115300A128A1589230A128A111330CF
:1000F0000A128A1589230A128A1113300A128A15E4
:1001000089230A128A1115300A128A1589230A12C4
:100110008A1119300A128A1589230A128A1111309C
:100120000A128A1589230A128A110E300A128A15B8
:1001300089230A128A1111300A128A1589230A1298
:100140008A110E300A128A1589230A128A11053083
:100150000A128A1589230A128A110E300A128A1588
:1001600089230A128A1114300A128A1589230A1265
:100170008A110A300A128A1589230A128A1111304B
:100180000A128A1589230A128A11C0300A128A15A6
:1001900065230A128A1183120313D0011030500212
:1001A0000318EE28500801390A128A1589230A1209
:1001B0008A11643083120313A8000030A9000A12C8
:1001C0008A15AD230A128A11013083120313C40069
:1001D0004408D00710305002031CD2288512013089
:1001E0000A128A1565230A128A1180300A128A15AA
:1001F00065230A128A11F63083120313AF00883088
:10020000B0000A128A15D4230A128A1120308312F0
:100210000313C4004408D00080305002031837296B
:1002200050080F39031D1A29C0300A128A15652398
:100230000A128A118312031350080A128A1589239D
:100240000A128A11323083120313A8000030A90069
:100250000A128A15AD230A128A1101308312031380
:10026000C4004408D00780305002031C10296430B9
:10027000A8000030A9000A128A15AD230A128A11BB
:1002800001300A128A1565230A128A1180300A1277
:100290008A1565230A128A11F63083120313AF0000
:1002A0008830B0000A128A15D4230A128A11C0308D
:1002B0000A128A1565230A128A1138308312031331
:1002C000AF008930B0000A128A15D4230A128A11AD
:1002D000F43083120313A8000130A9000A128A1512
:1002E000AD230A128A1101300A128A1565230A12F7
:1002F0008A1180300A128A1565230A128A11AF30DA
:1003000083120313AF008830B0000A128A15D42379
:100310000A128A11831203138617D0010430500287
:100320000318C6291030C400500A98290310C40DC0
:10033000FF3E031D962944088600CF0110304F026E
:100340000318BE294F080A128A15A5260A128A1117
:10035000831203138800C830A8000030A9000A12D5
:100360008A15AD230A128A11013083120313C400C7
:100370004408CF0710304F02031CA2290130C400EB
:100380004408D00704305002031C92298801013030
:100390000A128A1565230A128A1183300A128A15F5
:1003A00065230A128A11193083120313AF008930B2
:1003B000B0000A128A15D4230A128A118312031379
:1003C000CF0103304F0203180A2AD001D00A10309F
:1003D00050020318022A50088600C830A8000030D6
:1003E000A9000A128A15AD230A128A118312031377
:1003F0005008C4004407C5004508D0001030500222
:10040000031CEB290130C4004408CF0703304F021E
:10041000031CE5298601D001043050020318272A65
:100420000F30C40044088606C830A8000030A90078
:100430000A128A15AD230A128A110130831203139E
:10044000C4004408D00704305002031C102A0130B5
:100450000A128A1565230A128A1180300A128A1537
:1004600065230A128A11BE3083120313AF0088304D
:10047000B0000A128A15D4230A128A1183120313B8
:10048000CF010F30831203134F05C4000F30440611
:100490000319692A0F30831603138600831203138E
:1004A000061C4F14861CCF14061D4F15861DCF1534
:1004B000831603138601831203134F0886000A3044
:1004C000A8000030A9000A128A15AD230A128A1169
:1004D000412A860101300A128A1565230A128A11FF
:1004E00080300A128A1565230A128A11213083127C
:1004F0000313AF008830B0000A128A15D4230A1201
:100500008A11C0300A128A1565230A128A117330C3
:1005100083120313AF008830B0000A128A15D42367
:100520000A128A1103308316031386008312061CF5
:100530009B2A8618962A0618192B0A300A128A1541
:1005400006230A128A1183120313C4004408CF0041
:100550004F080A128A1589230A128A11A5308312BC
:100560000313C4004408A8000A300A128A11E527C0
:100570000A128A115A3083120313C4004408A800D7
:100580000A300A128A11E5270A128A110A300A1261
:100590008A1506230A128A1183120313C400440821
:1005A000D0004F08C4004408A8000A300A128A117B
:1005B000E5270A128A1101300A128A1565230A12E8
:1005C0008A1180300A128A1565230A128A11213095
:1005D00083120313AF008830B0000A128A15D423A7
:1005E0000A128A11C0300A128A1565230A128A116A
:1005F0005A30831203135006031D022B2E30AF0016
:100600008930072B0E3083120313AF008930B000FE
:100610000A128A15D4230A128A11E83083120313AE
:10062000A8000330A9000A128A15AD230A128A1104
:100630001D2B83120313861C192B831603138601AB
:1006400083120313860101300A128A1565230A12E8
:100650008A1180300A128A1565230A128A113230F3
:1006600083120313AF008830B0000A128A15D42316
:100670000A128A11C0300A128A1565230A128A11D9
:10068000733083120313AF008830B0000A128A154A
:10069000D4230A128A1103308316031386008312AF
:1006A000061C542B86184F2B0618E32B0A30AD007E
:1006B0000030AE000A128A15BA250A128A11831276
:1006C0000313C4004408CF004F080A128A15892377
:1006D0000A128A110A3083120313B3000030B400E7
:1006E000A530C4004408B5000A128A15FE260A1275
:1006F0008A110A3083120313B3000030B4005A3059
:10070000C4004408B5000A128A15FE260A128A118E
:100710000A3083120313AD000030AE000A128A15AE
:10072000BA250A128A1183120313C4004408D000A8
:100730000A30B3000030B4004F08C4004408B500CC
:100740000A128A15FE260A128A1101300A128A1527
:1007500065230A128A1180300A128A1565230A124B
:100760008A11323083120313AF008830B0000A12AE
:100770008A15D4230A128A11C0300A128A156523F9
:100780000A128A115A30831203135006031DCC2B10
:100790002E30AF008930D12B0E3083120313AF00FF
:1007A0008930B0000A128A15D4230A128A11E8305F
:1007B00083120313A8000330A9000A128A15AD237F
:1007C0000A128A11E72B83120313861CE32B83166C
:1007D0000313860183120313860101300A128A155E
:1007E00065230A128A1180300A128A1565230A12BB
:1007F0008A11CD3083120313AF008830B0000A1283
:100800008A15D4230A128A11C0300A128A15652368
:100810000A128A11733083120313AF008830B000BC
:100820000A128A15D4230A128A110330831603137D
:1008300086008312061C1E2C8618192C0618F22C12
:10084000831603138717071301300A128A156523CD
:100850000A128A1180300A128A1565230A128A1137
:10086000633083120313AF008830B0000A128A1578
:10087000D4230A128A11C4300A128A1565230A1277
:100880008A114C3083120313AF008930B0000A1272
:100890008A15D4230A128A11003083120313A90087
:1008A0008830AA000A128A15FE230A128A118312BE
:1008B0000313D0010430500203187A2C5008303E44
:1008C0000A128A15FC220A128A11E93083120313D4
:1008D000A9008830AA000A128A15FE230A128A117A
:1008E000013083120313C4004408D00704305002BF
:1008F000031C5E2CE830A8000330A9000A128A15F8
:10090000AD230A128A1101300A128A1565230A12D0
:100910008A1180300A128A1565230A128A1153300F
:1009200083120313AF008830B0000A128A15D42353
:100930000A128A11033083120313A9008930AA0016
:100940000A128A15FE230A128A1183120313D00198
:10095000203050020318E92C50080F39031DC12C18
:10096000C0300A128A1565230A128A112B308312AD
:100970000313A9008930AA000A128A15FE230A125D
:100980008A11D03083120313AE000730AF000A1271
:100990008A1528240A128A1183120313C4004408FA
:1009A000CF004F080A128A1589230A128A1183126E
:1009B00003134F080A128A15FC220A128A11013009
:1009C00083120313C4004408D00720305002031CD4
:1009D000AC2C6430A8000030A9000A128A15AD239F
:1009E0000A128A110230831603139F0001300A1283
:1009F0008A1565230A128A1180300A128A15652326
:100A00000A128A11433083120313AF008830B000FA
:100A10000A128A15D4230A128A1183120313D001F1
:100A2000C83050020318872DCC30B8000030B90010
:100A300001300A128A1501250A128A118312031342
:100A40002908B3002808B2000A30B4000030B5000D
:100A50000A128A1542230A128A11831203133308D9
:100A6000BB003208BA000A128A153D250A128A1103
:100A7000831203133808C4004408CF00C6300A129A
:100A80008A1565230A128A11831203134F08C400C2
:100A9000C5014408C0004508C1004930C6004608E9
:100AA000C2000A128A1558270A128A1183120313E8
:100AB0004C080A128A1589230A128A112C300A124C
:100AC0008A1589230A128A11831203134D080A1208
:100AD0008A1589230A128A1156300A128A15892327
:100AE0000A128A110A3083120313A8000030A900E9
:100AF0000A128A15AD230A128A11013083120313D8
:100B0000C4004408D007C8305002031C142D013023
:100B10000A128A1565230A128A1180300A128A1570
:100B200065230A128A11DB3083120313AF00883069
:100B3000B0000A128A15D4230A128A1183120313F1
:100B4000D0016430500203181F2E00300A128A159B
:100B500001250A128A11831203132908B3002808F9
:100B6000B2000A30B4000030B5000A128A154223E0
:100B70000A128A11831203133208C4003308C50015
:100B80000310C50CC40C0310C50CC40C0310C50C19
:100B9000C40C44086A3EC70045080318013EFF3EE6
:100BA000C800C5300A128A1565230A128A118312F9
:100BB00003134808C1004708C0004930C400440876
:100BC000C2000A128A1558270A128A1183120313C7
:100BD0004B080A128A1589230A128A1183120313F9
:100BE0004C080A128A1589230A128A112C300A121B
:100BF0008A1589230A128A11831203134D080A12D7
:100C00008A1589230A128A1143300A128A15892308
:100C10000A128A110A3083120313A8000030A900B7
:100C20000A128A15AD230A128A11013083120313A6
:100C3000C4004408D00764305002031CA52D0130C5
:100C40000A128A1565230A128A1180300A128A153F
:100C500065230A128A11823083120313AF00883091
:100C6000B0000A128A15D4230A128A1183120313C0
:100C70000715D001643050020318B82E00300A1254
:100C80008A1501250A128A11831203132908B30059
:100C90002808B2000A30B4000030B5000A128A15E4
:100CA00042230A128A11831203133208C400330844
:100CB000C5000310C50CC40C0310C50CC40C0310F4
:100CC000C50CC40C44086A3EC70045080318013E21
:100CD000FF3EC800C5300A128A1565230A128A1120
:100CE000831203134808C1004708C0004930C400FC
:100CF0004408C2000A128A1558270A128A11831260
:100D000003134B080A128A1589230A128A118312C7
:100D100003134C080A128A1589230A128A112C30EF
:100D20000A128A1589230A128A11831203134D08A5
:100D30000A128A1589230A128A1143300A128A1567
:100D400089230A128A110A3083120313A800003083
:100D5000A9000A128A15AD230A128A1101308312E2
:100D60000313C4004408D00764305002031C3E2E15
:100D7000071101300A128A1565230A128A11803080
:100D80000A128A1565230A128A11913083120313FD
:100D9000AF008830B0000A128A15D4230A128A11D3
:100DA00083160313811281110110811001158B1616
:100DB000831203139014901210120B11063081004D
:100DC0007D30C4004408F8008B178F018E01101489
:100DD0008714D001963050020318AF2F00300A124A
:100DE0008A1501250A128A11831203132908B300F8
:100DF0002808B2000A30B4000030B5000A128A1583
:100E000042230A128A11831203133208C4003308E2
:100E1000C5000310C50CC40C0310C50CC40C031092
:100E2000C50CC40C44086A3EC70045080318013EBF
:100E3000FF3EC800C2300A128A1565230A128A11C1
:100E4000831203134808C1004708C0004930C4009A
:100E50004408C2000A128A1558270A128A118312FE
:100E600003134B080A128A1589230A128A11831266
:100E700003134C080A128A1589230A128A112C308E
:100E80000A128A1589230A128A11831203134D0844
:100E90000A128A1589230A128A1143300A128A1506
:100EA00089230A128A11C8300A128A1565230A1288
:100EB0008A11831203135208C1005108C00049303F
:100EC000C4004408C2000A128A1558270A128A115F
:100ED000831203134A080A128A1589230A128A11F7
:100EE000831203134B080A128A1589230A128A11E6
:100EF000831203134C080A128A1589230A128A11D5
:100F0000831203134D080A128A1589230A128A11C3
:100F100052300A128A1589230A128A1150300A1295
:100F20008A1589230A128A1153300A128A158923D5
:100F30000A128A110A3083120313A8000030A90094
:100F40000A128A15AD230A128A1101308312031383
:100F5000C4004408D00796305002031CEE2E8B13B9
:100F6000871001300A128A1565230A128A1180300F
:100F70000A128A1565230A128A114230831203135A
:100F8000AF008930B0000A128A15D4230A128A11E0
:100F9000C0300A128A1565230A128A11A030831202
:100FA0000313AF008830B0000A128A15D4230A1246
:100FB0008A11243083120313A9008930AA000A126F
:100FC0008A15FE230A128A11E42F83120313A90043
:100FD0002908831203178D00831203132808831234
:100FE00003178C00831603170C1555308D00AA309B
:100FF0008D008C148C18FA2F0C110800FF3FFF3F56
:101000000D340A3420345034693463347334693411
:101010006D346C34613462340D340A342034543409
:101020006534733474346534203453346534723425
:10103000693461346C342034543458340D340A34F7
:101040000034543465347334743465342034453496
:101050004534503452344F344D34203449344E34B6
:101060005434003454346534733474346534203467
:1010700045344534503452344F344D3420344534A3
:101080005834543400342034543465347334743454
:1010900065342034413444344334203428345034CB
:1010A0003234293400345434653473347434653440
:1010B0002034533465347234693461346C342034F0
:1010C00052345834003454346534733474346534D1
:1010D0002034533465347234693461346C342034D0
:1010E0005434583400342034283473343D34533469
:1010F000313420346E343D34533432342934203486
:101100003F34003420342034203454346534733474
:1011100074346534203441345134553445344334C7
:10112000003420342034203454346534733474341F
:101130006534203452344534533446345234003408
:1011400020345034723465347334733469346F34FA
:101150006E346534203452345334543400342034E3
:10116000203420345434653473347434653420347A
:101170003734203453346534673400342034203419
:1011800054346534733474346534203443346834EF
:1011900061347634653473340034543465347334D4
:1011A00074346534203453346534723469346134B2
:1011B0006C343F34003420342034203454346534CB
:1011C0007334743465342034543445344D345034DD
:1011D00000342034503469346334733469346D34EA
:1011E0004C34613462340D340A34003420342034F9
:1011F00020345434653473347434653420344C34BE
:10120000433444340034203444346934673469341A
:101210007434653421340D340A34003420342034DD
:1012200020342034203420344534523452344F3466
:1012300000345434653473347434653420344C349D
:1012400045344434733400340D340A342034463485
:1012500049344D3421340D340A34003420342034E0
:10126000203420342034203420344F344B340034A4
:1012700020342034203420342034203420344F349F
:101280006B34003420342034203420342034203493
:10129000463469346D3400343934363430343034C3
:1012A000203438344E3431340034FF1B5F2983132B
:1012B0007F1883170008840A0319FF0A08007F08B3
:1012C0007F398A000408840A0319FF0A8200FF3F5D
:1012D000FF3FFF3FFF3FFF3FFF3FFF3FFF3FFF3F1E
:1012E000FF3FFF3FFF3FFF3FFF3FFF3FFF3FFF3F0E
:1012F000FF3FFF3FFF3FFF3FFF3FFF3FFF3FFF3FFE
:10130000FF3FFF3FFF3FFF3FFF3FFF3FFF3FFF3FED
:1015B0000000000000000000080083120313A800D0
:1015C00028088800080083160313071283120313E8
:1015D00087150716080064008001840A04060319B1
:1015E00000340406EC2A0230831603139F004130B6
:1015F000831203139F00080083120313A800280816
:1016000099008316031398180800012B8312031303
:10161000A8002808831203178D00831603170C14E3
:10162000831203170C080800673083160313990010
:1016300018139816181218158312031398171813F5
:101640001816080083120313871507160A128A1545
:10165000D8220A128A158312031307120A128A1556
:10166000D822080083120313871507120A128A155D
:10167000D8220A128A158312031307160A128A1532
:10168000D822080083120313B601B701321C4E2B77
:101690003408B6070318B70A3508B7070130031036
:1016A000B40DB50DFF3E031D4F2B01300310B30CDD
:1016B000B20CFF3E031D562B32083304031D462B8C
:1016C0003708B3003608B200080083120313AE00D7
:1016D00089142E080A128A15DD220A128A1583122D
:1016E000031309100330A8000030A9000A128A155C
:1016F000AD230A128A158312031389100330A80040
:101700000030A9000A128A15AD238312031389142D
:10171000080083120313AE0089142E080A128A15DA
:10172000DD220A128A158312031309140330A8005C
:101730000030A9000A128A15AD230A128A158312F5
:10174000031389100330A8000030A9000A128A157B
:10175000AD23831203138914080083120313AB0112
:10176000AC0129082C02031DB72B28082B020318F3
:101770000800AD01C8302D020318CD2B0000000079
:10178000000000000000013083120313AA002A08A1
:10179000AD07C8302D02031CBE2B0130AB07031868
:1017A000AC0A0030AC07B12B83120313B20132082C
:1017B0002F07840030080318300AFF000A128A1528
:1017C00055210A128A15003A0319080032082F071A
:1017D000840030080318300AFF000A128A155521C8
:1017E0000A128A150A128A1589230A128A150130EB
:1017F00083120313B1003108B207D72B83120313EE
:10180000AC012C08290784002A0803182A0AFF00C3
:101810000A128A1555210A128A15003A031908007E
:101820002C08290784002A0803182A0AFF000A1234
:101830008A1555210A128A150A128A15FC220A12E3
:101840008A15013083120313AB002B08AC07012C5F
:1018500083120313B001B1011819302C981C442CC9
:1018600018121816442C1430A8000030A9000A12CF
:101870008A15AD230A128A15143083120313B00798
:101880000318B10A0030B1072F083102031D4A2C9A
:101890002E083002031C502C2E082F04031D522C3E
:1018A0008C1E332C8C1E562C1A080800A5300800FC
:1018B00083120313280829040319872CAD01AD0AEC
:1018C000A91B6E2C01300310A80DA90DFF3E031DAE
:1018D000632C0130AC002C08AD07602C29082B02CA
:1018E000031D742C28082A02031C7C2C2808AA0239
:1018F0002908031CAB03AB0201300310A90CA80C90
:10190000FF3E031D7D2C0130AD02031D6E2C2B0804
:10191000A9002A08A80008000130F8027808031D71
:10192000B72C10100730F0000030F1000E08A000B6
:10193000A1010F08A200A3012208A300A201200810
:101940002204F20021082304F3000A128A15C52498
:101950000A128A15710883120313D2007008D1008D
:101960007D30A0002008F8008F018E0110140B11AB
:10197000063081002708FF0026088A002508840019
:10198000240E8300FE0E7E0E0900F501F60170089C
:1019900071040319FC2CF701F70AF11BDB2C013051
:1019A0000310F00DF10DFF3E031DD02C0130F400AB
:1019B0007408F707CD2C01300310F50DF60DFF3E2E
:1019C000031DDC2C71087302031DE82C70087202E1
:1019D000031CF12C7008F2027108031CF303F302DC
:1019E000751401300310F10CF00CFF3E031DF22CB6
:1019F0000130F702031DDB2C7608F1007508F000BA
:101A0000080083120313B1000C2D01300A2D093098
:101A10000A2D11309F00172D3108003A0319052DAA
:101A2000013A0319072D033A0319092D172D1F1524
:101A30001F19182D831603131E0883120313AA00FF
:101A400006300310AA0CFF3E031D212D2A08AB000F
:101A5000AC011E08AD00AE010310AD0DAE0D0310BC
:101A6000AD0DAE0D2B082D04AF002C082E04B000D8
:101A70002F08A8003008A900080083120313BD0135
:101A8000BE01380839040319762DBF01BF0AB91BFE
:101A9000552D01300310B80DB90DFF3E031D4A2D21
:101AA0000130BC003C08BF07472D01300310BD0DBD
:101AB000BE0DFF3E031D562D39083B02031D622D4E
:101AC00038083A02031C6B2D3808BA023908031C87
:101AD000BB03BB023D1401300310B90CB80CFF3E30
:101AE000031D6C2D0130BF02031D552D3E08B900AA
:101AF0003D08B800080083120313AA008711AB0148
:101B000008302B020318AA2D2A08A8002B03FF3A3D
:101B1000073E013E8D2D0310A80CFF3E031D8B2DAB
:101B200028080139A900A90E07082906EF39290656
:101B3000870087150A128A15D8220A128A1583127D
:101B4000031387110130A8002808AB0708302B02C7
:101B5000031C842D07160A128A15D8220A128A1528
:101B60008312031387150A128A15D82283120313CE
:101B700087110800831203132E080139AF002F08C4
:101B8000B2002D08AF002F08B1000A128A152223D7
:101B90000A128A158312031332080319D12DA230B9
:101BA000D22DA0300A128A157B250A128A158312BB
:101BB000031331080A128A157B250A128A150A12A4
:101BC0008A1522230A128A15831203133208031975
:101BD000EB2DA330EC2DA1300A128A157B250A12B9
:101BE0008A1501300A128A1503260A128A158312F1
:101BF0000313AF002F08B0000A128A153223831294
:101C000003133008080083120313AA00AB018711E5
:101C1000831603130716831203130716AC0108304B
:101C20002C020318352E87150A128A15D8220A129B
:101C30008A1583120313070E0139A8002C03FF3AFB
:101C4000073E013E252E0310A80DFF3E031D232E47
:101C50002808A9002908AB0487110130A80028082A
:101C6000AC0708302C02031C132E83160313071233
:101C7000831203132A0803193F2E0712402E07165A
:101C80000A128A15D8220A128A158312031387159D
:101C90000A128A15D8228312031387112B08080011
:101CA00083120313891009101430A8000030A90012
:101CB0000A128A15AD230A128A1583120313891496
:101CC00038300A128A1565230A128A1505308312E4
:101CD0000313A8000030A9000A128A15AD230A12C6
:101CE0008A1538300A128A1565230A128A150130BE
:101CF00083120313A8000030A9000A128A15AD232D
:101D00000A128A1538300A128A1565230A128A15B2
:101D100008300A128A1565230A128A150F300A1232
:101D20008A1565230A128A1501300A128A1565235D
:101D30000A128A1538300A128A1565230A128A1582
:101D400080300A128A156523080083120313A80045
:101D5000CB2E3F300800063008005B3008004F30C3
:101D60000800663008006D3008007D30080007303C
:101D700008007F3008006F300800773008007C30A2
:101D80000800583008005E300800793008007130D3
:101D90000800003008002808003A0319A92E013A6B
:101DA0000319AB2E033A0319AD2E013A0319AF2ED6
:101DB000073A0319B12E013A0319B32E033A031956
:101DC000B52E013A0319B72E0F3A0319B92E013A6D
:101DD0000319BB2E033A0319BD2E013A0319BF2E76
:101DE000073A0319C12E013A0319C32E033A031906
:101DF000C52E013A0319C72EC92E080083120313FA
:101E00003508B600B7013608BB003708BC003408F7
:101E10000139B6003608B8003308B6003608B900F4
:101E2000BA010A128A1522230A128A158312031391
:101E3000380803191D2FA2301E2FA0300A128A1550
:101E40007B250A128A158312031339080A128A1590
:101E50007B250A128A15831203133B080A128A157E
:101E60007B250A128A150A128A1532230A128A154C
:101E7000013083120313B6003608BA073408AE00E7
:101E80003308AD000A128A15BA250A128A15831280
:101E90000313B600B7013C083706031D512F3B085A
:101EA0003606031908000A303A0203180800112FF9
:101EB000103083120313B8002730B9004108BB006B
:101EC0004008BA000A128A153D250A128A158312A3
:101ED00003133808303EC3004208840043088313CC
:101EE0008000E830B8000330B9004108AB0040087A
:101EF000AA001030A8002730A9000A128A15582419
:101F00000A128A15831203132908BB002808BA0095
:101F10000A128A153D250A128A15831203133808FE
:101F2000303EC300420A84004308831380006430BB
:101F3000B8000030B9004108AB004008AA00E83002
:101F4000A8000330A9000A128A1558240A128A151B
:101F5000831203132908BB002808BA000A128A1545
:101F60003D250A128A15831203133808303EC30038
:101F70004208023E84004308831380000A30B80000
:101F80000030B9004108AB004008AA006430A80046
:101F90000030A9000A128A1558240A128A158312E1
:101FA00003132908BB002808BA000A128A153D2528
:101FB0000A128A15831203133808303EC300420800
:101FC000033E84004308831380000A30A8000030D9
:101FD000A9004108AB004008AA000A128A1558243B
:101FE000831203132808303EC3004208043E8400D5
:101FF0004308831380004208053E840080010800E6
:10200000FF3FFF3FFF3FFF3FFF3FFF3FFF3FFF3FE0
:10201000FF3FFF3FFF3FFF3FFF3FFF3FFF3FFF3FD0
:10202000FF3FFF3FFF3FFF3FFF3FFF3FFF3FFF3FC0
:10203000FF3FFF3FFF3FFF3FFF3FFF3FFF3FFF3FB0
:02400E00BAFFF7
:10420000FF00FF00FF00FF00FF00FF00FF00FF00B6
:10421000FF00FF00FF00FF00FF00FF00FF00FF00A6
:10422000FF00FF00FF00FF00FF00FF00FF00FF0096
:10423000FF00FF00FF00FF00FF00FF00FF00FF0086
:10424000FF00FF00FF00FF00FF00FF00FF00FF0076
:10425000FF00FF00FF00FF00FF00FF00FF00FF0066
:10426000FF00FF00FF00FF00FF00FF00FF00FF0056
:10427000FF00FF00FF00FF00FF00FF00FF00FF0046
:10428000FF00FF00FF00FF00FF00FF00FF00FF0036
:10429000FF00FF00FF00FF00FF00FF00FF00FF0026
:1042A000FF00FF00FF00FF00FF00FF00FF00FF0016
:1042B000FF00FF00FF00FF00FF00FF00FF00FF0006
:1042C000FF00FF00FF00FF00FF00FF00FF00FF00F6
:1042D000FF00FF00FF00FF00FF00FF00FF00FF00E6
:1042E000FF00FF00FF00FF00FF00FF00FF00FF00D6
:1042F000FF00FF00FF00FF00FF00FF00FF00FF00C6
:10430000FF00FF00FF00FF00FF00FF00FF00FF00B5
:10431000FF00FF00FF00FF00FF00FF00FF00FF00A5
:10432000FF00FF00FF00FF00FF00FF00FF00FF0095
:10433000FF00FF00FF00FF00FF00FF00FF00FF0085
:10434000FF00FF00FF00FF00FF00FF00FF00FF0075
:10435000FF00FF00FF00FF00FF00FF00FF00FF0065
:10436000FF00FF00FF00FF00FF00FF00FF00FF0055
:10437000FF00FF00FF00FF00FF00FF00FF00FF0045
:10438000FF00FF00FF00FF00FF00FF00FF00FF0035
:10439000FF00FF00FF00FF00FF00FF00FF00FF0025
:1043A000FF00FF00FF00FF00FF00FF00FF00FF0015
:1043B000FF00FF00FF00FF00FF00FF00FF00FF0005
:1043C000FF00FF00FF00FF00FF00FF00FF00FF00F5
:1043D000FF00FF00FF00FF00FF00FF00FF00FF00E5
:1043E000FF00FF00FF00FF00FF00FF00FF00FF00D5
:1043F000FF00FF00FF00FF00FF00FF00FF00FF00C5
:00000001FF
