:100000000C9451050C9479050C9479050C947905A0
:100010000C9479050C9479050C9479050C94790568
:100020000C9479050C9479050C9479050C94790558
:100030000C9479050C9479050C9479050C94790548
:100040000C9421130C9479050C9479050C94790582
:100050000C9479050C9479050C9479050C94790528
:100060000C946B130C94790505A84CCDB2D44EB901
:100070003836A9020C50B9918688083CA6AAAA2A4B
:10008000BE000000803F000103070F1F3F7F00807C
:10009000C0E0F0F8FCFE00000000003E5B4F5B3E5D
:1000A0003E6B4F6B3E1C3E7C3E1C183C7E3C181C3D
:1000B000577D571C1C5E7F5E1C00183C1800FFE734
:1000C000C3E7FF0018241800FFE7DBE7FF30483ADA
:1000D000060E2629792926407F050507407F05253C
:1000E0003F5A3CE73C5A7F3E1C1C08081C1C3E7FC4
:1000F00014227F22145F5F005F5F06097F017F008B
:100100006689956A606060606094A2FFA2940804AA
:100110007E040810207E201008082A1C08081C2ACB
:1001200008081E101010100C1E0C1E0C30383E3823
:1001300030060E3E0E06000000000000005F0000CA
:100140000007000700147F147F14242A7F2A12233B
:100150001308646236495620500008070300001C4B
:100160002241000041221C002A1C7F1C2A08083E54
:100170000808008070300008080808080000606067
:100180000020100804023E5149453E00427F4000D5
:1001900072494949462141494D331814127F1027AD
:1001A000454545393C4A49493141211109073649FC
:1001B000494936464949291E0000140000004034D0
:1001C00000000008142241141414141400412214D5
:1001D0000802015909063E415D594E7C1211127CFC
:1001E0007F494949363E414141227F4141413E7F5D
:1001F000494949417F090909013E414151737F083D
:1002000008087F00417F41002040413F017F0814E2
:1002100022417F404040407F021C027F7F04081043
:100220007F3E4141413E7F090909063E4151215E21
:100230007F09192946264949493203017F01033FB5
:100240004040403F1F2040201F3F4038403F631444
:1002500008146303047804036159494D43007F4146
:1002600041410204081020004141417F0402010283
:1002700004404040404000030708002054547840A8
:100280007F284444383844444428384444287F383C
:100290005454541800087E090218A4A49C787F08BE
:1002A00004047800447D40002040403D007F102839
:1002B000440000417F40007C047804787C080404FA
:1002C000783844444438FC1824241818242418FC92
:1002D0007C08040408485454542404043F44243C37
:1002E0004040207C1C2040201C3C4030403C4428A6
:1002F0001028444C9090907C4464544C4400083640
:1003000041000000770000004136080002010204AD
:10031000023C2623263C1EA1A161123A4040207ACD
:100320003854545559215555794122545478422115
:100330005554784020545579400C1E52721239554C
:100340005555593954545459395554545800004549
:100350007C410002457D420001457C407D12111226
:100360007DF0282528F07C545545002054547C54B9
:100370007C0A097F4932494949323A4444443A3275
:100380004A4848303A4141217A3A42402078009D1B
:10039000A0A07D3D4242423D3D4040403D3C24FFC7
:1003A0002424487E4943662B2FFC2F2BFF0929F676
:1003B00020C0887E090320545479410000447D41C7
:1003C0003048484A32384040227A007A0A0A727D20
:1003D0000D19317D2629292F28262929292630483B
:1003E0004D4020380808080808080808382F10C8A9
:1003F000ACBA2F102834FA00007B000008142A142D
:100400002222142A14085500550055AA55AA55AAA7
:10041000FF55FF55FF000000FF00101010FF0014F3
:100420001414FF001010FF00FF1010F010F014144F
:1004300014FC001414F700FF0000FF00FF1414F474
:1004400004FC141417101F10101F101F1414141F75
:1004500000101010F0000000001F101010101F10EE
:10046000101010F010000000FF10101010101010ED
:100470001010FF10000000FF140000FF00FF00003C
:100480001F10170000FC04F414141710171414F4B0
:1004900004F40000FF00F714141414141414F700EB
:1004A000F7141414171410101F101F141414F4143C
:1004B0001010F010F000001F101F0000001F1400AB
:1004C0000000FC140000F010F01010FF10FF1414D6
:1004D00014FF141010101F00000000F010FFFFFFA9
:1004E000FFFFF0F0F0F0F0FFFFFF0000000000FF62
:1004F000FF0F0F0F0F0F3844443844FC4A4A4A3468
:100500007E02020606027E027E026355494163387E
:1005100044443C04407E201E2006027E020299A52F
:10052000E7A5991C2A492A1C4C7201724C304A4D8D
:100530004D303048784830BC625A463D3E494949C2
:10054000007E0101017E2A2A2A2A2A44445F44446B
:1005500040514A444040444A51400000FF0103E0FA
:1005600080FF000008086B6B083612362436060F31
:10057000090F06000018180000001010003040FF9E
:100580000101001F01011E00191D1712003C3C3C17
:100590003C00000000000000000800020100000311
:1005A00004070000000000000000DB40A4A62EAFFE
:1005B0002000A1C8D300408DAED580A80000600007
:1005C00000000000000000000000000000E000004B
:1005D000000000000000000000000001E00000003A
:1005E0000000000000000000000001F0000000001A
:1005F00000000000000000000003F0000000000008
:10060000000000000000000007F0000000000000F3
:100610000000000000000007F800000000000000DB
:100620000000000000000FF800000003C0007E0082
:100630000001E0007F0FF800000003C000FE000092
:1006400001E000FFEFF800000003C000FE00000121
:10065000E000FFFFF800000003C000F00000000F02
:10066000007FFE7FC0000003C000F00000000F000C
:100670003FFE7FF83FF1FBCFFCFEF3BC3DEFE01FF8
:10068000FE7FFF7FFBFFDFFEFEFFBC3DEFE01FC6EE
:10069000FFFF7FFBFFDFFEFEFFBC3DEFE00FE3C788
:1006A000FE787BC3DE1EF0FFBC3DEF0007FF87FC3A
:1006B000787BC3DE1EF0F83C3DEF0001FFFFF00049
:1006C0007BC3C01EF0F03C3DEF0001F37FE03FFB39
:1006D000C3CFFEF0F03C3DEF0003E33F807FFBC360
:1006E000DFFEF0F03C3DEF0007E73C00787BC3DE27
:1006F0001EF0F03C3DEF0007FFBE00787BC3DE1E1E
:10070000F0F03C3DEF0007FFFE00787BC3DE1EF0FB
:10071000F03C3DEF000FFFFE007FFBFFDFFEF0F03F
:100720003FFDEFE00FFFFF007FFBFFDFFEF0F03F3C
:10073000FDEFE00FF9FF003E79F9CF9EF0F01F3D8D
:10074000E7E01FF1FF0000000000000000000000D3
:10075000001F80FF007FFFFFFFFFFFFFFFFFFFE0A5
:100760001C007F007FFFFFFFFEB46D888D18E00046
:10077000001F007FFFFFFFFE95AD7DB577E0000015
:100780000F007FFFFFFFFEA5AD9D8D19E000000665
:10079000007FFFFFFFFEB5ADEDB57EE0000000007D
:1007A0000001800000000000000000000380000045
:1007B0000000000000000007C00000000000000072
:1007C000000007C00000000000000000000FC00093
:1007D00000000000000000001FE00000000000001A
:1007E0000000001FE00000000000000000003FE0EB
:1007F0000000000000000000003FF00000000000CA
:10080000000000007FF0000000000000001FF87FE3
:10081000F0000000000000003FFE7FF0000000003C
:100820000000003FFF7FF0000000000000001FFFFD
:10083000FBE0000000000000000FFFF9FFC0000017
:10084000000000000FFFF9FFF800000000000007A3
:10085000FFF1FFFF00000000000003FC73FFFF80BA
:10086000000000000001FE3FFFFF800000000000CC
:1008700000FF1E0FFF000000000000007FFE1FFCB5
:10088000000000000000003FFFFFF8000000000033
:1008900000000FDFFFE0000000000000001F19FF54
:1008A000C0000000000000003F3CFF00000000000E
:1008B0000000007E7CF800000000000000007FFEC9
:1008C0007C0000000000000000FFFFFC00000000B2
:1008D00000000000FFFFFE0000000000000000FF1D
:1008E000FFFE0000000000000001FFEFFE0000001E
:1008F0000000000001FFCFFE000000000000000328
:10090000FF07FE0000000000000003FC07FE0000DF
:10091000000000000003F003FE00000000000000E3
:10092000018000FE000000000000000000007E00CA
:100930000000000000000000003E00000000000079
:10094000000000000C000000000000078000FC0018
:100950000003C0000000078001FC000003C000008D
:1009600000078001FC000003C0000000078001E0D8
:100970000000001E000000078001E00000001E00D3
:100980007FE3F79FF9FDE7787BDFC0FFF7FFBFFD4F
:10099000FDFF787BDFC0FFF7FFBFFDFDFF787BDF4A
:1009A000C0F0F787BC3DE1FF787BDE00F0F787BC45
:1009B0003DE1F0787BDE0000F787803DE1E0787B69
:1009C000DE007FF7879FFDE1E0787BDE00FFF787A1
:1009D000BFFDE1E0787BDE00F0F787BC3DE1E07829
:1009E0007BDE00F0F787BC3DE1E0787BDE00F0F7CE
:1009F00087BC3DE1E0787BDE00FFF7FFBFFDE1E073
:100A00007FFBDFC0FFF7FFBFFDE1E07FFBDFC07CC6
:100A1000F3F39F3DE1E03E7BCFC00000000000000B
:100A20000000000000FFFFFFFFFFFFFFFFFFFFC010
:100A3000FFFFFFFFFD68DB111A31C0FFFFFFFFFD65
:100A40002B5AFB6AEFC0FFFFFFFFFD4B5B3B1A33E6
:100A5000C0FFFFFFFFFD6B5BDB6AFDC02200FF21D3
:100A60000000000000250028002B000000000024EA
:100A70000027002A000404040404040404020202FF
:100A800002020203030303030301020408102040CF
:100A900080010204081020010204081020008A14BA
:100AA000841F11241FBECFEFD8E0DEBFCDBF11E001
:100AB000A0E0B1E0E0E5F8E402C005900D92A036B8
:100AC000B107D9F724E0A0E6B1E001C01D92A23041
:100AD000B207E1F715E0C0E5D5E004C02197FE01BB
:100AE0000E94E422CF34D107C9F70E94E6140C9487
:100AF0001B240C9400000895089590E0FC01E75732
:100B0000F54F24918B58954FFC018491882399F0DF
:100B100090E0880F991FFC01E559F54FA591B4911C
:100B2000FC01EF59F54F859194918FB7F894EC91B2
:100B3000E22BEC938FBF089508959091610380910B
:100B400060032FEF3FEF981748F4E92FF0E0E45CE3
:100B5000FC4F208130E09F5F90936103C9010895AD
:100B600090916103809160032FEF3FEF981748F455
:100B7000E92FF0E0E45CFC4F208130E09F5F909330
:100B80006103C9010895AF92BF92CF92DF92EF92B5
:100B9000FF920F931F93CF93DF936C017B018B0127
:100BA000040F151FEB015E01AE18BF08C017D10777
:100BB00059F06991D601ED91FC910190F081E02D01
:100BC000C6010995892B79F7C501DF91CF911F9156
:100BD0000F91FF90EF90DF90CF90BF90AF9008956E
:100BE00090E0FC01EA56FA4F2491FC01E757F54FDB
:100BF0003491FC01EB58F54FE491EE23C9F0222328
:100C000039F0233001F1A8F4213019F1223029F113
:100C1000F0E0EE0FFF1FEF59F54FA591B4918FB79C
:100C2000F894EC91611126C030953E233C938FBF20
:100C300008952730A9F02830C9F0243049F7809171
:100C400080008F7D03C0809180008F77809380002B
:100C5000DFCF84B58F7784BDDBCF84B58F7DFBCFAD
:100C60008091B0008F778093B000D2CF8091B00098
:100C70008F7DF9CF3E2BDACF3FB7F8948091A90151
:100C80009091AA01A091AB01B091AC0126B5A89BAF
:100C900005C02F3F19F00196A11DB11D3FBFBA2F0E
:100CA000A92F982F8827BC01CD01620F711D811DCE
:100CB000911D42E0660F771F881F991F4A95D1F753
:100CC00008958F929F92AF92BF92CF92DF92EF9250
:100CD000FF924B015C010E943C066B017C010E946B
:100CE0003C066C197D098E099F09683E7340810599
:100CF0009105A8F321E0821A9108A108B10888EEB5
:100D0000C80E83E0D81EE11CF11C81149104A104DB
:100D1000B10429F7FF90EF90DF90CF90BF90AF9094
:100D20009F908F90089520918101260F3327331FC4
:100D300021323105ECF420918803FC0190E080E041
:100D4000243069F082E00895A09181012191AC01E5
:100D50004F595E4FA40FB52FB11D2C9301968617E6
:100D600098F380918101680F6093810180E008957C
:100D700081E008951092880381E0809387031092A8
:100D8000620361E082E10E94F00561E083E10E947C
:100D9000F005E9EBF0E080818E7F808380818D7F9C
:100DA000808388E48093B80085E48093BC00089534
:100DB000109261031092600310928F031092B1039E
:100DC0000E94BA068BE795E090935F0380935E03E1
:100DD0008CE795E090935D0380935C030895CF9337
:100DE000DF9391E0909360018823B9F0C091B8003F
:100DF000D091BA008091BC008A7B8093BC0060E0F7
:100E000082E10E94F00560E083E10E94F0050E940B
:100E1000BA06D093BA00C093B800DF91CF9108957D
:100E20008F929F92AF92BF92CF92DF92EF92FF92FA
:100E30000F931F93CF93DF93D091B103D13208F07A
:100E4000D7C0182FC091B0030E943C066B017C01F3
:100E50008091880381116BC082E080938803109396
:100E600087038FEF8093860310928503D0938403CA
:100E7000A0E9B3E0E4E6F3E080E0D81391C010927B
:100E8000630380916303CC0FC82BC09363038091ED
:100E90006203813009F088C0109262030E943C0610
:100EA0006B017C01809163038093BB0080918A0376
:100EB00090918B03A0918C03B0918D03892B8A2B89
:100EC0008B2BA1F00E943C0600918A0310918B03AA
:100ED00020918C0330918D036C197D098E099F0937
:100EE000061717072807390708F442C08091BC008D
:100EF00083FDD8CF85EC8093BC000E943C066B013B
:100F00007C0180918803823009F450C0809186036F
:100F10008F3F09F46FC080918603803209F46CC062
:100F200080918603803309F469C084E026C08091F3
:100F30008A0390918B03A0918C03B0918D03892B30
:100F40008A2B8B2B09F484CF0E943C0680908A0365
:100F500090908B03A0908C03B0908D036C197D0949
:100F60008E099F0986169706A806B90608F070CF65
:100F7000809189030E94EF0685E010928F03109202
:100F8000B10310928E03DF91CF911F910F91FF90CB
:100F9000EF90DF90CF90BF90AF909F908F9008958B
:100FA0009D9191938F5F69CF85EEA5CF80918A0344
:100FB00090918B03A0918C03B0918D03892B8A2B88
:100FC0008B2B09F49ECF0E943C0600918A0310915E
:100FD0008B0320918C0330918D036C197D098E0950
:100FE0009F09061717072807390708F08ACFC0CFCF
:100FF00081E0C3CF80E0C1CF82E0BFCF83E0BDCF2F
:10100000E091610380916003E81730F4F0E0E45C64
:10101000FC4F808190E008958FEF9FEF08958091BD
:10102000600390916103891B990B0895CF92DF9221
:10103000EF92FF920F931F93CF93DF937C01CB012D
:101040008A0120918E03222389F0EB016B01C40EEB
:10105000D51ECC15DD0569F06991D701ED91FC91A4
:101060000190F081E02DC7010995F3CF642F0E9414
:101070009306C801DF91CF911F910F91FF90EF90E0
:10108000DF90CF900895CF93DF931F92CDB7DEB757
:10109000698320918E032223F9F02091B10320323D
:1010A00058F021E030E0FC013383228390E080E0BF
:1010B0000F90DF91CF91089580918F03E82FF0E09A
:1010C000E057FC4F998190838F5F80938F038093CB
:1010D000B10381E090E0ECCF61E0CE0101960E9487
:1010E0009306F7CF81E00C9410070895FC0163701C
:1010F000668B8481958126813781613039F0633038
:1011000029F0918780873387228708953187208748
:101110009387828708952F923F924F925F926F92AA
:101120007F928F929F92AF92BF92CF92DF92EF9277
:10113000FF920F931F93CF93DF93CDB7DEB76A97DC
:101140000FB6F894DEBF0FBECDBF9A8F898F7A831A
:1011500069834A01D22E18870F833701BC2CDC012A
:1011600059962D913C915A972115310509F015C1D9
:1011700018968D919C911997681779070CF0D7C133
:101180001A968D919C91481759070CF0D0C14C2CA0
:10119000512CB6E0CB9E600D711D11247C876B87AE
:1011A000161617060CF0C3C1EA2DF0E0FA87E9879E
:1011B00093E0EE0FFF1F9A95E1F7F88BEF87CF01D1
:1011C000840F951F181619060CF0B1C1A98DBA8DA0
:1011D00058968C91811104C0BFEABD1508F4D394D0
:1011E000A98DBA8DED91FC9111970284F385E02DC4
:1011F000CD010995B5E0DB9EC0011124E981FA819A
:10120000FC83EB83312C212C9C012A563F4F388FD5
:101210002F8B4A2D50E05E8B4D8BEF89F88DE20DC0
:10122000F31D44919E828D82D12CC12C69817A81DB
:10123000620D731D7A8B698B842F90E09C8B8B8B56
:10124000E98DFA8DA081B18140FF82C0F1E0BF122B
:101250006FC0AF126DC01C96ED91FC912F81388547
:10126000A4014C0D5D1D69897A89898D9A8D099536
:10127000EB89FC89F595E7954E2F5FEFC51AD50AE6
:101280006D817E818D899E89680F791F7E836D8334
:1012900098E0C916D10481F6AFEF2A1A3A0AEB8119
:1012A000FC81E40DF51DFC83EB83F5E02F16310482
:1012B00009F0B3CF2F81388526153705B9F0A98DF0
:1012C000BA8DED91FC91B1E0BB1257C0AB1255C085
:1012D00069817A816B5F7F4F0088F189E02D8301FE
:1012E00028E030E0A401898D9A8D0995A98DBA8DE9
:1012F000ED91FC9111970688F789E02DCD016A9652
:101300000FB6F894DEBF0FBECDBFDF91CF911F9116
:101310000F91FF90EF90DF90CF90BF90AF909F9094
:101320008F907F906F905F904F903F902F90099497
:101330001E96ED91FC91EF80F88409851A85920143
:101340004D815E816B817C81898D9A8D099590CFCD
:101350002F8138852615370509F48ACF31E0B3127D
:1013600007C0A31205C01C96ED91FC91930178CFA4
:101370001E96ED91FC917301E0CF6B857C8564191D
:1013800075090684F785E02D73010F851889920190
:10139000A401898D9A8D0995A9CFF901349694916C
:1013A000329745915491D91AB7E0DB9E400D511DFB
:1013B0001124F901259134913C8B2B8BFA01259056
:1013C0003490FA013296749031963491398B32967A
:1013D00064903196449041E04C1518F04A1508F09D
:1013E0007FC0662D062C000C770B7C836B83842DCD
:1013F000042C000C990B9E838D83A98DBA8DED91E1
:10140000FC9111970284F385E02DCD010995512CB3
:10141000D12CC12CEA2DF0E0FA87E9872B2D30E0A2
:101420003C872B87A401440D511D47FC5A95588FCA
:101430004F8B69817A81660D711D67FC7A957E8775
:101440006D877989C71608F051CF2C2D30E04D817A
:101450005E81420F531FA985BA854A9FC0014B9FE9
:10146000900D5A9F900D1124FC01E80DF91DF88B89
:10147000EF87852D612C4F89588D420F531F5E8B4E
:101480004D8B671408F050C044244394480E877075
:1014900041F4C1010196EB89FC89E20DF31DD49062
:1014A0001C01D7FE19C0A98DBA8DED91FC91662D56
:1014B00070E0B1E0BB1219C0AB1217C02D853E859C
:1014C000620F731F0484F585E02D2F8138854D89C7
:1014D0005E89898D9A8D0995DD0C6394842DD1CF19
:1014E0001E821D821C821B8288CF4B815C81640F0F
:1014F000751FAB85BC856A9FC0016B9F900D7A9F5D
:10150000900D112469817A81680F791F0684F7850F
:10151000E02DEF80F88409851A859D014F85588953
:10152000898D9A8D0995D8CF570CC3948ACF6A9626
:101530000FB6F894DEBF0FBECDBFDF91CF911F91E4
:101540000F91FF90EF90DF90CF90BF90AF909F9062
:101550008F907F906F905F904F903F902F90089565
:101560008F929F92AF92CF92EF92FF920F931F9321
:10157000CF93DF93EC01262F898D9A8D009709F088
:1015800051C06A30D1F41D861C868D8948E0849F45
:10159000900111248E859F85820F931F9F878E87D0
:1015A00081E090E0DF91CF911F910F91FF90EF903C
:1015B000CF90AF909F908F9008956D3089F3CC8835
:1015C000AD888F898823C1F08C859D8536E0C39EC8
:1015D000800D911D1124488559854817590764F4D9
:1015E0004E855F851D861C8638E0A39EC0011124B0
:1015F000840F951F9F878E87EA88FB880889198941
:101600004E855F856C857D85CE010E948B082C8977
:101610008C859D8546E0249F800D911D11249D871A
:101620008C87BECF6A3069F41D861C86FC01389613
:10163000E4912D898E859F85E29F800D911D112457
:10164000ADCF6D3009F4ACCFFC0134963491631703
:1016500008F4A6CF3296E491E61708F4A1CFFC0176
:10166000329685909490462F431B342F47E0349F49
:10167000800C911C1124F401329634913196E4913E
:101680003323A9F1EE2399F1CC88F4013596E49146
:10169000AD884F89442301F10E2E000CFF0BE30FA0
:1016A000F11DCE9EA001CF9E500D11246C857D852D
:1016B000460F571F68857985641775076CF44E854A
:1016C0005F851D861C86FC013896E491AE9E400D18
:1016D000511D11245F874E87EA88FB880889198984
:1016E0004E855F856C857D85CE010E948B08F40157
:1016F0003496E4912C898C859D85E29F800D911D07
:1017000011248DCF6F927F928F929F92AF92BF9252
:10171000CF92DF92EF92FF920F931F93CF93DF93BD
:10172000EC016B015A0139014801E881F981028419
:10173000F385E02D0995E881F9810288F389E02D90
:1017400087019301A501B601CE010995A501480DB8
:10175000591D41505109E881F9810288F389E02D32
:101760009301B601CE010995E881F9810088F189DC
:10177000E02D9401A501B601CE010995C60CD71C38
:10178000B60161507109E881F9810088F189E02D85
:101790009401A501CE010995E881F9810688F789B0
:1017A000E02DCE01DF91CF911F910F91FF90EF902F
:1017B000DF90CF90BF90AF909F908F907F906F9071
:1017C00009946F927F928F929F92AF92BF92CF9225
:1017D000DF92EF92FF920F931F93CF93DF935C0101
:1017E000EB016A01490138018701DC01ED91FC91AF
:1017F0006217730719F5641675062CF0962D872D60
:101800003A01C92ED82E9601261937092F5F3F4F6E
:10181000048CF58DE02DA301BE01C5010995DF9172
:10182000CF911F910F91FF90EF90DF90CF90BF90DD
:10183000AF909F908F907F906F90089546155705B9
:1018400091F42617370724F0892D4B01C22FD82F8A
:101850009E01281939092F5F3F4F068CF78DE02D27
:10186000A601B401DACF0284F385E02D0995D501F4
:10187000ED91FC910488F589E02D83019401A60186
:10188000BE01C5010995D501ED91FC910688F78946
:10189000E02DC501DF91CF911F910F91FF90EF9047
:1018A000DF90CF90BF90AF909F908F907F906F9080
:1018B0000994EF92FF920F931F93DC011A960D91FA
:1018C0001C911B9718962D913C911997ED91FC91C5
:1018D00000A0F1A1E02D7B0150E040E070E060E06D
:1018E00009951F910F91FF90EF9008954F925F928D
:1018F0006F927F928F929F92AF92BF92CF92DF9220
:10190000EF92FF920F931F93CF93DF936C012B0104
:101910005A0139014801DC01ED91FC910284F38503
:10192000E02D0995E201640C751CD601ED91FC9146
:10193000C615D7055CF40088F189E02D8701940174
:10194000A501BE01C60109952196EFCF0688F7894A
:10195000E02DC601DF91CF911F910F91FF90EF9085
:10196000DF90CF90BF90AF909F908F907F906F90BF
:101970005F904F9009948F929F92AF92BF92CF92B7
:10198000DF92EF92FF920F931F93CF93DF93EC01BF
:101990005B014A016901E881F9810284F385E02D48
:1019A000099595012C0D3D1D21503109E881F981E2
:1019B0000488F589E02D78018401A401B501CE01E8
:1019C0000995E881F9810688F789E02DCE01DF913C
:1019D000CF911F910F91FF90EF90DF90CF90BF902C
:1019E000AF909F908F9009948F929F92AF92BF92E9
:1019F000CF92DF92EF92FF920F931F93CF93DF93DB
:101A0000EC015B014A0169017801E881F9810284F6
:101A1000F385E02D0995C80CD91C860101501109E8
:101A2000E881F9810488F589E02D9501A401B501CB
:101A3000CE010995E881F9810688F789E02DCE016C
:101A4000DF91CF911F910F91FF90EF90DF90CF909A
:101A5000BF90AF909F908F900994EF92FF920F9359
:101A60001F93DC01ED91FC9100A0F1A1E02D0995FF
:101A70001F910F91FF90EF9008950F931F93DC013A
:101A8000ED91FC91068CF78DE02D09951F910F913A
:101A900008950F931F93DC01ED91FC91048CF58D5B
:101AA000E02D09951F910F910895DC01ED91FC91B6
:101AB0000084F185E02D09943F924F925F926F92DE
:101AC0007F928F929F92AF92BF92CF92DF92EF92CE
:101AD000FF920F931F93CF93DF935C017B014A0129
:101AE0006901390187E0680E711C93E07594679471
:101AF0009A95E1F72B01400E511E10E000E0312CC9
:101B0000D0E0C0E0CE0187709927330C892B59F4BF
:101B1000FE0183E0F595E7958A95E1F7E00FF11F67
:101B2000E80DF91D349037FE0AC021E030E0A7012E
:101B3000B5016C0F7D1F8EEB93E00E94550D219631
:101B4000CC16DD06F9F68FEFE81AF80A060D171D18
:101B5000E414F504A9F6DF91CF911F910F91FF9046
:101B6000EF90DF90CF90BF90AF909F908F907F903D
:101B70006F905F904F903F9008952F923F924F92B9
:101B80005F926F927F928F929F92AF92BF92CF920D
:101B9000DF92EF92FF920F931F93CF93DF9300D0CA
:101BA00000D000D0CDB7DEB73C016A013E832D8363
:101BB000FC82EB825801A41AB50AB7FE03C0B194A7
:101BC000A194B1088D809E80861A970A97FE03C063
:101BD0009194819491088A149B045CF0902F812F3A
:101BE0000D811E819D838E839C2D8D2D6B01692F10
:101BF000782F0C151D055CF09D818E817E836D8391
:101C0000692F782F902F812F8601C92ED82E16018B
:101C1000201A310A2B012D813E81421A530A57FEA8
:101C200003C0519441945108710137FE03C03FEF46
:101C3000E31AF30AF594E7948D819E81861797073E
:101C40005CF5A1E0B0E0BA83A983C016D1064CF1DF
:101C5000D301ED91FC910484F585E02D2B813C812D
:101C6000A8016D817E818A149B041CF04D815E81E8
:101C7000B801C3010995E418F508F7FE0AC02D81E3
:101C80003E8189819A81280F391F3E832D83E20C82
:101C9000F31C0F5F1F4FD9CF2FEF3FEF3A832983FC
:101CA000D4CF26960FB6F894DEBF0FBECDBFDF911E
:101CB000CF911F910F91FF90EF90DF90CF90BF9049
:101CC000AF909F908F907F906F905F904F903F90DC
:101CD0002F900895EF92FF920F931F93CF93DF936E
:101CE000EC01EC80FD806E157F050CF070C057FF95
:101CF00004C0240F351F50E040E08E819F81FA011F
:101D0000E20FF31F8E179F071CF49C01241B350B59
:101D1000121613060CF05BC0922F842F86958695C1
:101D200086958E9DD0018F9DB00D11246A0F7B1F6B
:101D3000AF8DB8A1A60FB71F477049F188E0841B8B
:101D4000482F682F70E0FB01E257FF4FE4912817FE
:101D500008F063C0621B71092FEF30E002C03595B7
:101D600027956A95E2F7E2230130110539F0B0F1C9
:101D70000230110561F58C91E82702C08C91E82BA7
:101D8000EC93941720F12C813D81A20FB31FE92F12
:101D9000E41BE83078F00230110521F58E2F9C917C
:101DA00090959C932C813D81A20FB31F8850883061
:101DB000B0F7E770EE2359F0F0E0EA57FF4FE491F7
:101DC00001301105F9F010F10230110519F1DF9120
:101DD000CF911F910F91FF90EF900895E0958C9116
:101DE000E823CECF81E00115110509F480E081954B
:101DF0009E2F8C932C813D81A20FB31F9850983059
:101E0000C0F7D7CF8C91E82BEC93E1CFE0958C9184
:101E1000E823FACF8C91E827F7CF0130110509F4B8
:101E2000ADCFE0F20230110509F4A5CFAE0DBF1D14
:101E3000AECF0F931F93CF93DF9377FF04C0260F8E
:101E4000371F70E060E0DC011496CD91DC91FB015E
:101E5000E20FF31FCE17DF071CF49E01261B370B82
:101E6000121613064CF5FA0157FD3796A3E0F595C7
:101E7000E795AA95E1F7EC9FD001ED9FB00DFC9F8F
:101E8000B00D11246A0F7B1FDC015F96ED91FC9170
:101E9000E60FF71F4770552781E090E001C0880FDB
:101EA0004A95EAF7482F0130110559F0A8F02E0F96
:101EB0003F1F02301105E1F0DF91CF911F910F918B
:101EC00008952E0F3F1FE217F307B1F38191DF0151
:101ED0001197842B8C93F7CF80952E0F3F1FE2171D
:101EE000F30751F39191DF01119798239C93F7CF5A
:101EF000E217F30709F38191DF01119784278C938F
:101F0000F7CF0F931F93FA01DC0156964C91569729
:101F10004230E9F04330A1F1413061F514964D9122
:101F20005C91DA01AE1BBF0BFD01E21BF30B77FDE9
:101F30000BC0DC0116964D915C916417750724F473
:101F4000AB01BF010E94190F1F910F9108951496C4
:101F50004D915C91DA01A61BB70BBD01615071096F
:101F6000DC0116964D915C91DA01AE1BBF0BFD01B1
:101F7000E21BF30B77FDE8CFAF010E946A0EE4CFBE
:101F800016964D915C91DA01A61BB70BBD0161500D
:101F90007109CDCF0F931F93FA01DC0156964C9136
:101FA00056974230A9F0433091F1413019F514961B
:101FB0004D915C91DA01AE1BBF0BFD013197F7FD2E
:101FC00004C0AB01BF010E946A0E1F910F910895DA
:101FD00014964D915C91DA01A61BB70BBD01DC0193
:101FE00016964D915C91DA01AE1BBF0BFD01319746
:101FF000621B730BF7FDE9CFDC0116964D915C91E6
:10200000E417F50714F7AF010E94190FDECF1696FB
:102010004D915C91DA01A61BB70BBD01621B730BDE
:10202000CECFFC0177FD64C0808591856817790764
:102030000CF05EC057FD5CC0828593854817590738
:102040000CF056C086898230B1F0833029F181309E
:1020500041F484819581841B950BAB01BC016150D7
:1020600071092130310509F108F443C022303105EE
:1020700009F463C0089584819581DC01A61BB70B28
:10208000BD016150710986819781DC01A41BB50BEC
:10209000AD0141505109E5CF86819781861B970B91
:1020A000BA01AC0141505109DCCFCA0157FD079676
:1020B000A3E095958795AA95E1F7A481B5818A9FBC
:1020C00090018B9F300D9A9F300D1124620F731F6A
:1020D000078CF0A1E02DE60FF71F4770552721E090
:1020E00030E001C0220F4A95EAF78081822B80837D
:1020F0000895CA0157FD079633E0959587953A955F
:10210000E1F7A481B5818A9F90018B9F300D9A9F42
:10211000300D1124620F731F078CF0A1E02DE60F24
:10212000F71F4770552781E090E001C0880F4A955E
:10213000EAF7809590818923DACFCA0157FD079687
:1021400023E0959587952A95E1F7A481B5818A9F2B
:1021500090018B9F300D9A9F300D1124620F731FD9
:10216000078CF0A1E02DE60FF71F4770552721E0FF
:1021700030E001C0220F4A95EAF780818227B7CF6D
:1021800008958EBD00000DB407FEFDCF8EB50895F5
:10219000FF920F931F93CF93DF93F82ED92FC62F63
:1021A0008091DB039091DC03009709F452C02091E9
:1021B000DF0331E030938E032093B00310928F033E
:1021C0001092B103DC01ED91FC910190F081E02DC2
:1021D00060E009950F2D1D2FD1E0FF24F394C1502D
:1021E0008091DB039091DC03CF3F61F1D032C8F0E6
:1021F0000E9472088091DB039091DC032091DF0341
:10220000F0928E032093B00310928F031092B103CB
:10221000DC01ED91FC910190F081E02D60E00995E9
:10222000D1E08091DB039091DC03F8016491DC0143
:10223000ED91FC910190F081E02D0995DF5F0F5F3A
:102240001F4FCDCFDF91CF911F910F91FF900C9435
:102250007208E091EB03F091EC0390818091F1031F
:102260008095892380830F2D1D2FC15008F438C01D
:10227000F80184912091D9033091DA03232B29F0BE
:102280000E94C1100F5F1F4FF0CF28E030E040E800
:10229000E091E703F091E8039091EF03582F542366
:1022A000D9F05081952B9083E091E903F091EA03F6
:1022B00090815091F003952B9083E091E903F09188
:1022C000EA0350819091F003909595239083469571
:1022D00021503109E9F6D6CF508190959523E3CF6F
:1022E000DF91CF911F910F91FF9008951F93CF938E
:1022F000DF93EC018D8D9E8D009721F1162F29A182
:1023000031E030938E032093B00310928F0310922C
:10231000B103DC01ED91FC910190F081E02D60E0D2
:1023200009958D8D9E8DDC01ED91FC910190F081E0
:10233000E02D612F09958D8D9E8DDF91CF911F919D
:102340000C947208ADA5BEA59C918BA9809589239C
:102350008C938B8D9C8D892B31F0862FDF91CF91C3
:102360001F910C94C11028E030E080E8A9A5BAA51F
:1023700099A9462F4823C1F04C91942B9C93ABA56F
:10238000BCA59C914AA9942B9C93ABA5BCA54C9150
:102390009AA9909594239C9386952150310931F701
:1023A000DF91CF911F9108954C9190959423E6CFA2
:1023B0008CBD9DBD08951F93CF93DF93EC01162F25
:1023C0008D8D9E8D892BB1F12DA93EA94FA958ADB8
:1023D00060E074E284EF90E00E94BD1F205131095B
:1023E0004109510956954795379527952093B8008F
:1023F00066EA111167EACE010E9476118D8D9E8DDD
:10240000892B41F129AD3AAD4BAD5CAD60E074E292
:1024100084EF90E00E94BD1F20513109410951090C
:1024200056954795379527952093B800DF91CF9122
:102430001F9108958B8D9C8D892B21F08EAD9FADC2
:102440000E94D811EFA5F8A990818CA980958923C5
:102450008083CECFEFA5F8A980819CA9892B8083AA
:10246000E5CF089590E080E008952091C403309175
:10247000C503C901079697FD079623E095958795B3
:102480002A95E1F72091C2033091C303829FA001F6
:10249000839F500D929F500D112470E060E0809159
:1024A000DD039091DE030C941424FC0101900020C4
:1024B000E9F73197AF01481B590BBC018EEB93E054
:1024C0000C94C3058F929F92AF92BF92CF92DF92EE
:1024D000EF92FF920F931F93CF93DF93CDB7DEB7A9
:1024E000A1970FB6F894DEBF0FBECDBF6C01990F58
:1024F000EE08FF08F7FE47C06DE28EEB93E00E9406
:10250000B00A8C0122273327A9012C193D094E0955
:102510005F0919A2CE0181967C019AE0892E912C47
:10252000A12CB12CCA01B901A50194010E94BD1FC3
:10253000605DF70162937F01211531054105510569
:1025400089F790E080E0309719F0CF010E94551292
:10255000080F191F84E491E00E945512800F911F0B
:10256000A1960FB6F894DEBF0FBECDBFDF91CF911D
:102570001F910F91FF90EF90DF90CF90BF90AF90A1
:102580009F908F900895A701960119A28E010F5D6B
:102590001F4F8AE0C82ED12CE12CF12CCA01B901C1
:1025A000A70196010E94BD1F605DF80162938F0133
:1025B000211531054105510589F7309729F0CF01E3
:1025C0000E9455128C01C6CF10E000E0C3CF0E94DC
:1025D0000F2485ED8093BC0080918A0390918B033A
:1025E000A0918C03B0918D030796A11DB11D23E02E
:1025F000B695A795979587952A95D1F72091BC0018
:1026000024FD03C010928803089540918A035091DD
:102610008B0360918C0370918D03452B462B472BC8
:1026200069F30097A105B10541F025E32A95F1F77B
:1026300000000197A109B109E1CF809189030C94B1
:10264000EF061F920F920FB60F9211242F933F9314
:102650008F939F93AF93BF938091A5019091A60113
:10266000A091A701B091A8013091A40123E0230F0C
:102670002D3758F50196A11DB11D2093A40180931B
:10268000A5019093A601A093A701B093A801809102
:10269000A9019091AA01A091AB01B091AC01019662
:1026A000A11DB11D8093A9019093AA01A093AB0134
:1026B000B093AC01BF91AF919F918F913F912F91BA
:1026C0000F900FBE0F901F90189526E8230F0296CB
:1026D000A11DB11DD2CF1F920F920FB60F921124E0
:1026E0002F933F934F935F936F937F938F939F931A
:1026F000AF93BF93EF93FF938091B900887F8036AB
:1027000009F44AC0F0F5883209F4A7C018F5803101
:1027100009F49BC0B8F4882309F4F9C0883009F49F
:1027200094C0FF91EF91BF91AF919F918F917F9155
:102730006F915F914F913F912F910F900FBE0F902E
:102740001F901895883109F488C0803251F7809322
:10275000860314C0803409F49DC040F48033B9F37B
:102760008833F9F68093860385ECB0C0803509F490
:1027700085C0883509F496C0883499F60E94E9121C
:10278000D0CF883909F48CC038F5883729F050F457
:10279000883611F0803729F683E080938803109201
:1027A000A30157C0883809F47BC0803919F08038FC
:1027B00009F0B7CF8091A301803208F071C0E09199
:1027C000A30181E08E0F8093A3018091BB00F0E014
:1027D000ED57FE4F80833DC0803B39F0E0F4803AF6
:1027E00009F479C0883A09F09CCF84E0809388038B
:1027F0001092820110928101E0915E03F0915F03DB
:1028000009958091810181110FC081E08093810140
:102810001092610109C0803C09F4A6CF883C09F4FC
:10282000A3CF883B09F07DCFE091820181E08E0F3C
:1028300080938201F0E0EF59FE4F80818093BB00CE
:10284000909182018091810129C0809163038093DE
:10285000BB0085EC8093BC0064CF90918503809190
:102860008403981758F5E091850381E08E0F8093DB
:102870008503F0E0EC59FC4F8081E9CFE0918503BE
:1028800081E08E0F809385038091BB00F0E0EC59CE
:10289000FC4F808390918503809184039817C8F240
:1028A00085E8D8CFE091850381E08E0F8093850382
:1028B0008091BB00F0E0EC59FC4F8083809187034E
:1028C00081115CCF81E08093620384EA8093BC0035
:1028D0001092880326CF85EC8093BC001092880369
:1028E0008091A301803230F4E091A301F0E0ED5734
:1028F000FE4F10826091A30170E0E0915C03F091C3
:102900005D0383E891E009951092A3010ACF10922C
:10291000860334CFA2EBB3E013961C921E9212975B
:1029200048EE53E060E070E014964D935D936D9334
:102930007C9317978AE091E011969C938E93EEEB2F
:10294000F3E01382128220E830E03583248380E4B0
:1029500090E0978386833187208793878287168AC2
:10296000158614861786168681E0858B848B2FEF5B
:102970003FEF338B228B318B208B878B108E128E07
:10298000118E8CE191E091838083148E138EB68F2B
:10299000A58F10A2178E8FEF84A385A386A387A38C
:1029A00084E080A780E89AE1A6E0B0E085AB96AB32
:1029B000A7ABB0AF80EA96E8A1E0B0E081AF92AFFC
:1029C000A3AFB4AF80E586AF17AE0895CF93DF9382
:1029D000CDB7DEB7CA54D1090FB6F894DEBF0FBE2B
:1029E000CDBF789484B5826084BD84B5816084BD98
:1029F00085B5826085BD85B5816085BD80916E009D
:102A0000816080936E0010928100809181008260CD
:102A1000809381008091810081608093810080910A
:102A200080008160809380008091B10084608093F9
:102A3000B1008091B00081608093B00080917A00F5
:102A4000846080937A0080917A00826080937A001B
:102A500080917A00816080937A0080917A0080680A
:102A600080937A001092C1000E94D8068091DD0305
:102A70009091DE03892B11F10E9435122091C4033D
:102A80003091C5038091C2039091C3032132310577
:102A90000CF040C2B9016052710977FF02C06F5F4C
:102AA0007F4F759567958357910997FD019600E2D1
:102AB00010E023E730E04CEB55E03FC22091C40327
:102AC0003091C503C901079697FD0796B3E0959528
:102AD0008795BA95E1F72091C2033091C303AC0109
:102AE000429FC001439F900D529F900D11240E9460
:102AF000EA229093DE038093DD03892B09F0BCCF9B
:102B00000E9435120E94D80680EE9EE2A5E6B2E44D
:102B10008093AE019093AF01A093B001B093B10147
:102B20008AE590E09093B5018093B40180E290E053
:102B30009093B3018093B2018EEE92E09093B7012F
:102B40008093B6018EEC9FEF9093E3018093E201B6
:102B50009093E5018093E40122E330E03093E701B4
:102B60002093E6013093E9012093E8019093EB0173
:102B70008093EA013093ED012093EC013093EF0153
:102B80002093EE019093F1018093F0013093F301D3
:102B90002093F2013093F5012093F4013093F70173
:102BA0002093F6013093F9012093F8013093FB0153
:102BB0002093FA013093FD012093FC013093FF0133
:102BC0002093FE0190930102809300023093030250
:102BD000209302023093050220930402909307028F
:102BE00080930602309309022093080230930B026F
:102BF00020930A0290930D0280930C0290930F028F
:102C000080930E02309311022093100290931302CE
:102C100080931202909315028093140290931702EE
:102C200080931602309319022093180290931B028E
:102C300080931A0290931D0280931C0230931F020E
:102C400020931E02909321028093200290932302EE
:102C5000809322023093250220932402309327028E
:102C600020932602909329028093280230932B020E
:102C700020932A0230932D0220932C0290932F024E
:102C800080932E029093310280933002309333026E
:102C9000209332029093350280933402909337024E
:102CA00080933602309339022093380290933B028E
:102CB00080933A0290933D0280933C0290933F02AE
:102CC00080933E029093410280934002909343028E
:102CD00080934202909345028093440230934702CE
:102CE00020934602909349028093480290934B02AE
:102CF00080934A0290934D0280934C0230934F028E
:102D000020934E02909351028093500230935302CD
:102D1000209352023093550220935402909357020D
:102D200080935602909359028093580290935B02CD
:102D300080935A0230935D0220935C0230935F02CD
:102D400020935E029093610280936002309363024D
:102D5000209362029093650280936402309367022D
:102D600020936602309369022093680230936B02CD
:102D700020936A0230936D0220936C0230936F02AD
:102D800020936E0290937102809370028CE090E029
:102D900090933303809332039093E1018093E00199
:102DA00081E080938E0388E68093B00310928F03B6
:102DB0001092B1036BE682EB93E00E94430860E05F
:102DC00082EB93E00E94430881E00E9410073324C5
:102DD000339422242A948091DB039091DC03892B85
:102DE00009F47FC22091F3033091F4034091F5037D
:102DF0005091F60360E074E284EF90E00E94BD1F02
:102E00002051310941095109569547953795279524
:102E10002093B80065E08CE59AE00E94C8106091AC
:102E2000C20361508EEB93E00E9476112091C4039F
:102E30003091C503C901079697FD079623E0959544
:102E400087952A95E1F72091C2033091C303829FB1
:102E50008001839F100D929F100D11242091DD039E
:102E60003091DE033A8329838091DB039091DC0368
:102E7000020F131F009709F435C62091DF0330922B
:102E80008E032093B00310928F031092B103DC01E4
:102E9000ED91FC910190F081E02D60E40995FF2413
:102EA000F3948091DB039091DC03E981FA81E017D0
:102EB000F10709F42DC2FFE1FF15D0F40E9472085A
:102EC0008091DB039091DC032091DF0330928E032D
:102ED0002093B00310928F031092B103DC01ED91A7
:102EE000FC910190F081E02D60E40995FF24F394BA
:102EF0008091DB039091DC03E981FA816191FA838F
:102F0000E983DC01ED91FC910190F081E02D0995C0
:102F1000F394C7CFB9016054710977FF02C06F5FA6
:102F20007F4F759567958255910997FD019600E44D
:102F300010E022E530E04CE957E0959587950E9436
:102F40005C0D82E08093E0038091DB039091DC03D1
:102F5000892B09F4CBC08CE38093DF030E94D80651
:102F60008091E60387FD1DC00E947D0561E0809190
:102F7000E6030E94F00561E070E080E090E00E94CE
:102F8000610660E08091E6030E94F0056AE070E06F
:102F900080E090E00E94610661E08091E6030E947B
:102FA000F0058091DB039091DC03892B09F458C173
:102FB0002091F3033091F4034091F5035091F6030F
:102FC00060E074E284EF90E00E94BD1F205131095F
:102FD0004109510956954795379527952093B80093
:102FE00064E088EB95E00E94C8106091C4036150D2
:102FF0008EEB93E00E94761164E084EB95E00E94F2
:10300000C8108091E00360E1813009F064E18EEB4B
:1030100093E00E94761164E080EB95E00E94C81076
:103020008FE88093FB038091C2039091C3038038A3
:10303000910509F02EC18091C4039091C50380349D
:10304000910509F03BC18091E003813009F01FC177
:103050008FE98093FB0392E199836AED8EEB93E015
:103060000E94761169818EEB93E00E94761161E8EF
:103070008EEB93E00E9476116091FB038EEB93E060
:103080000E94761169ED8EEB93E00E94761180919B
:10309000E00362E2813009F061EF8EEB93E00E9481
:1030A000761166E08AEA95E00E94C8108091DB0301
:1030B0009091DC03892B09F40AC12091F703309128
:1030C000F8034091F9035091FA0360E074E284EF51
:1030D00090E00E94BD1F20513109410951095695C8
:1030E0004795379527952093B8000ACD8091E40342
:1030F0000E947D058091E5030E947D058091E40397
:10310000082E000C990BFC01EB58F54FE491F0E010
:10311000EE0FFF1FEF59F54F259134913093EC03DB
:103120002093EB03FC01E757F54FE491E093F103A3
:103130008091E503082E000C990BFC01EB58F54F2C
:10314000E491F0E0EE0FFF1FEF59F54FA591B49118
:10315000B093EE03A093ED03FC01E757F54FE49124
:10316000E093F2038C91E82BEC938091D90390913A
:10317000DA03892B09F433C05FB75983F89480913F
:10318000AD01811124C0EFE7FAE08491E3E9FAE0B0
:103190009491E82FF0E0EE0FFF1FE559F54FA59150
:1031A000B491EC91E92321F461E08AE00E94F005FA
:1031B0008AE00E947D058CB580618CBD8CB58064F1
:1031C0008CBD8DE00E947D058BE00E947D05809185
:1031D000AD018F5F8093AD0189818FBFC1CE80919A
:1031E000E2030E947D058091E3030E947D058091AA
:1031F000E203082E000C990BFC01EB58F54FE4910B
:10320000F0E0EE0FFF1FEF59F54F25913491309309
:10321000E8032093E703FC01E757F54FE491E093BF
:10322000EF038091E303082E000C990BFC01EB588F
:10323000F54FE491F0E0EE0FFF1FEF59F54FA59128
:10324000B491B093EA03A093E903FC01E757F54F6B
:10325000E491E093F0038C91E095E823EC9380CE29
:103260008091D9039091DA03892B31F08091FC038E
:103270009091FD030E94D811E091ED03F091EE03CF
:1032800090818091F203809589238083A9CE8FEC71
:10329000E0CE80369105A9F48091C4039091C503D6
:1032A000409791F48091E003813031F480E1809384
:1032B000FB03A2E0A983D1CE8FEAF9CFB2E0B983B4
:1032C000CCCEE2E0E983C9CEF2E0F983C6CEE0914C
:1032D000ED03F091EE0380819091F203892B8083BE
:1032E0000FCC8091D9039091DA03892B31F0809132
:1032F000FC039091FD030E94D811E091ED03F09141
:10330000EE0390818091F20380958923808382CDA2
:103310000E9472088091DB039091DC03892B09F4F1
:1033200027C42091F7033091F8034091F90350919D
:10333000FA0360E074E284EF90E00E94BD1F205128
:10334000310941095109569547953795279520939D
:10335000B8000E94351220913A0330913B03032EAE
:10336000000C440B550B28593D4B4F4F5F4FA4E6C3
:10337000B0E00E94B21F20ED34E840E050E00E942F
:10338000931F2253310941095109009136031091CD
:103390003703020F131F2091380330913903032E96
:1033A000000C440B550B28593D4B4F4F5F4FA4E683
:1033B000B0E00E94B21F20ED34E840E050E00E94EF
:1033C000931FDA01C901C297A109B1092091340301
:1033D00030913503820F931F68E671E00E94BC2292
:1033E0009E838D839093350380933403C80168E6F0
:1033F00071E00E94BC229093370380933603C09003
:10340000AE01D090AF01E090B001F090B101BC01ED
:10341000990F880B990B0E940F21A70196010E941A
:10342000652069837A838B839C832D813E81B901DA
:10343000330F880B990B0E940F21A70196010E9460
:1034400065202B013C010E946B226B017C0169818C
:103450007A818B819C810E946B224B015C01C301AC
:10346000B2010E9460206F87788B898B9A8B69816B
:103470007A818B819C810E9460206B8B7C8B8D8BF1
:103480009E8B8F859889A989BA898093D80190935A
:10349000D901A093DA01B093DB011092D40110920C
:1034A000D5011092D6011092D701A701960150586C
:1034B000298F3A8F4B8F5C8F2093D0013093D101AD
:1034C0004093D2015093D301A5019401C701B601E5
:1034D0000E94FE216D8F7E8F8F8F98A36093CC0109
:1034E0007093CD018093CE019093CF018B899C89FD
:1034F000AD89BE898093C8019093C901A093CA0188
:10350000B093CB012F85388949895A89C501B40107
:103510000E94FE2169A37AA38BA39CA36093C4019C
:103520007093C5018093C6019093C7012B893C8994
:103530004D895E89C701B6010E94FE216DA37EA35D
:103540008FA398A76093C0017093C1018093C201BB
:103550009093C301A5019401505829A73AA74BA7FE
:103560005CA72093BC013093BD014093BE015093F2
:10357000BF012B893C894D895E896F85788989894E
:103580009A890E94FE216DA77EA78FA798AB6093B2
:10359000B8017093B9018093BA019093BB0142E7DF
:1035A00052E05E874D8782ED92E09A838983A2EE96
:1035B000B1E02B96BFAFAEAF2B979AAB89AB8A0128
:1035C000188E1F8A80913203909133032F89388D92
:1035D000281739070CF0D9C288E0F801A9A9BAA9BF
:1035E00001900D928A95E1F72B96AEADBFAD2B976A
:1035F00016960D90BC91A02D2996BFAFAEAF29971E
:103600002B96EEADFFAD2B970084F185E02D27962C
:10361000FFAFEEAF27972B96AEADBFAD2B971A96A7
:103620000D90BC91A02D2196BFAFAEAF21972B96E8
:10363000EEADFFAD2B9760817181072E000C880BDA
:10364000990B0E940F214B015C012B96AEADBFADD3
:103650002B9712966D917C91072E000C880B990B7D
:103660000E940F216D837E838F8398872B96EEAD0A
:10367000FFAD2B9764817581072E000C880B990B89
:103680000E940F216B017C012091B6013091B7019E
:103690003CAB2BABA50194016DA17EA18FA198A598
:1036A0000E94FE212B013C012D813E814F815885D6
:1036B00069A57AA58BA59CA50E94FE219B01AC0162
:1036C000C301B2010E94EF1F2B013C01A70196012B
:1036D0006DA57EA58FA598A90E94FE219B01AC0136
:1036E000C301B2010E94EF1F0E94D7204BA95CA921
:1036F000641B750B072E000C880B990B0E940F2181
:1037000069877A878B879C8720E030E040EA50EC1D
:103710000E945B2087FF36C2A50194016F857889DE
:1037200089899A890E94FE212B013C0120E030E02A
:10373000A9016D817E818F8198850E94FE219B0168
:10374000AC01C301B2010E94EF1F2B013C01A70194
:103750009601698D7A8D8B8D9C8D0E94FE219B0137
:10376000AC01C301B2010E94EF1F0E94D720072EB7
:10377000000C880B990B0E940F2129853A854B85F7
:103780005C850E94652020E030E040E853E40E9420
:10379000FE212B013C016091B4017091B501072E0F
:1037A000000C880B990B0E940F219B01AC01C301F7
:1037B000B2010E94EF1F0E94D72023967FAF6EAF09
:1037C0002397A50194016D8D7E8D8F8D98A10E9408
:1037D000FE214B015C012D813E814F8158856B8913
:1037E0007C898D899E890E94FE219B01AC01C501C7
:1037F000B4010E94EF1F4B015C01A701960169A172
:103800007AA18BA19CA10E94FE219B01AC01C50164
:10381000B4010E94EF1F0E94D720072E000C880BD6
:10382000990B0E940F2129853A854B855C850E9462
:10383000652020E030E040E853E40E94FE216B0167
:103840007C016091B2017091B301072E000C880BCE
:10385000990B0E940F219B01AC01C701B6010E9488
:10386000EF1F0E94D72025967FAF6EAF259781E08E
:1038700090E09EAB8DAB2996AEADBFAD2997BD0153
:10388000BB0F880B990B0E940F214B015C012796FF
:10389000EEADFFAD2797BF01FF0F880B990B0E947C
:1038A0000F216D837E838F83988721962EAD3FAD48
:1038B0002197B901330F880B990B0E940F216B01DF
:1038C0007C01A50194016DA17EA18FA198A50E9404
:1038D000FE212B013C012D813E814F81588569A538
:1038E0007AA58BA59CA50E94FE219B01AC01C3017A
:1038F000B2010E94EF1F2B013C01A70196016DA5AB
:103900007EA58FA598A90E94FE219B01AC01C30151
:10391000B2010E94EF1F0E94D7204BA95CA9641B33
:10392000750B072E000C880B990B0E940F216987DD
:103930007A878B879C8720E030E040EA50EC0E9439
:103940005B2087FFB9C0A50194016F8578898989BB
:103950009A890E94FE212B013C0120E030E0A90160
:103960006D817E818F8198850E94FE219B01AC0133
:10397000C301B2010E94EF1F2B013C01A701960178
:10398000698D7A8D8B8D9C8D0E94FE219B01AC01EF
:10399000C301B2010E94EF1F0E94D720072E000C26
:1039A000880B990B0E940F2129853A854B855C85F0
:1039B0000E94652020E030E040E853E40E94FE21B0
:1039C0002B013C016091B4017091B501072E000CF0
:1039D000880B990B0E940F219B01AC01C301B2011E
:1039E0000E94EF1F0E94D7202B01A50194016D8D2D
:1039F0007E8D8F8D98A10E94FE214B015C012D814F
:103A00003E814F8158856B897C898D899E890E9472
:103A1000FE219B01AC01C501B4010E94EF1F4B01C7
:103A20005C01A701960169A17AA18BA19CA10E94CA
:103A3000FE219B01AC01C501B4010E94EF1F0E9451
:103A4000D720072E000C880B990B0E940F21298587
:103A50003A854B855C850E94652020E030E040E897
:103A600053E40E94FE216B017C016091B2017091D0
:103A7000B301072E000C880B990B0E940F219B01AC
:103A8000AC01C701B6010E94EF1F0E94D720ADA96B
:103A9000BEA9119789F423962EAD3FAD2397F80167
:103AA0003183208325964EAD5FAD259753834283A6
:103AB00055824482778366838F89988D0196988F8B
:103AC0008F8B085F1F4FA9A9BAA91896BAABA9ABEB
:103AD0002B96EEADFFAD2B973C962B96FFAFEEAF3E
:103AE0002B9770CDE091EB03F091EC0380819091E6
:103AF000F103892B8083E981FA81E017F10709F44A
:103B000009CC8191FA83E9832091D9033091DA03BA
:103B1000232B19F00E94C110EECF28E030E090E88E
:103B2000E091E703F091E8034091EF03592F582308
:103B3000D9F05081452B4083E091E903F091EA03ED
:103B400040815091F003452B4083E091E903F091CF
:103B5000EA0350814091F0034095452340839695B8
:103B600021503109E9F6C7CF508140954523E3CF75
:103B7000E091ED03F091EE0380819091F203892BA7
:103B80008083E7CB1EAA1DAA76CE1E821D8280915D
:103B9000E0019091E1012D813E812817390714F54C
:103BA000A981BA8116960D911C91179714962D91A3
:103BB0003C91159712964D915C9113976D917C9164
:103BC000F12CE12C8EEB93E00E94E10BED81FE8164
:103BD0003196FE83ED8329813A81285F3F4F3A83F6
:103BE0002983D5CF1A8219828091320390913303B1
:103BF00049815A81481759071CF5AD85BE8516962F
:103C00000D911C91179714962D913C911597129632
:103C10004D915C9113976D917C91EE24E394F12C7E
:103C20008EEB93E00E94E10BE981FA813196FA83F1
:103C3000E9832D853E85285F3F4F3E872D87D4CF72
:103C40009093E1018093E00130928E0338E6309347
:103C5000B00310928F031092B1036BE382EB93E0F9
:103C60000E94430881E00E9410070E943C066B01FD
:103C70007C0180918803811163C030928803309267
:103C8000870320928603109285038DE0809384033E
:103C90003092630380916303806D8093630380910E
:103CA0006203813009F00AC1109262030E943C064F
:103CB0006B017C01809163038093BB0080918A0338
:103CC00090918B03A0918C03B0918D03892B8A2B4B
:103CD0008B2BA1F00E943C0600918A0310918B036C
:103CE00020918C0330918D036C197D098E099F09F9
:103CF000061717072807390708F443C08091BC004E
:103D000083FDD8CF85EC8093BC000E943C066B01FC
:103D10007C0180918803813009F4D2C080918503B1
:103D20008E3008F0EFC080918503A4E6B3E0ECE3A9
:103D3000F3E090E0981751F12D9121939F5FFACF16
:103D400080918A0390918B03A0918C03B0918D0395
:103D5000892B8A2B8B2B09F48CCF0E943C06009177
:103D60008A0310918B0320918C0330918D036C1981
:103D70007D098E099F09061717072807390708F0DC
:103D800078CF809189030E94EF0680E01092610352
:103D9000809360030E94B00589830E94B005498129
:103DA00048AF1FAAAFA9B8AD8A2B9B2B90933B03BA
:103DB00080933A030E94B00589830E94B005B981BF
:103DC000BAAF19AEE9ADFAAD8E2B9F2B90933903A4
:103DD000809338030E94B0050E94B0050E94B00590
:103DE0000E94B0050E94B00589830E94B005F98148
:103DF000FCAF1BAE2BAD3CAD822B932B9093DF0120
:103E00008093DE010E94B00589830E94B00539814C
:103E10003EAF1DAE4DAD5EAD842B952B9093DD0175
:103E20008093DC010E94B0050E94B0053092D2035D
:103E30003092D30381E090E09093D1038093D0033C
:103E40009093CF038093CE031092CB031092CA03BA
:103E50001092CD031092CC0387E491E00E9455129A
:103E600080913A0390913B030E9462128DE491E0AD
:103E70000E94551280913803909139030E9462127A
:103E800083E591E00E9455128091DE019091DF015F
:103E90000E94621289E591E00E9455128091DC0136
:103EA0009091DD010E946212A0E0B0E0AB2B11F412
:103EB0000C94EB160E9400000C94E71685EE23CFBD
:103EC00080918A0390918B03A0918C03B0918D0314
:103ED000892B8A2B8B2B09F41CCF0E943C06009166
:103EE0008A0310918B0320918C0330918D036C1900
:103EF0007D098E099F09061717072807390708F05B
:103F000008CF3FCF8EE011CF8CE191E09093BF03BB
:103F10008093BE038091DD039091DE03009711F042
:103F20000C9486230895052E97FB1EF400940E949E
:103F3000AA1F57FD07D00E94BD1F07FC03D04EF4F7
:103F40000C94AA1F50954095309521953F4F4F4FA7
:103F50005F4F089590958095709561957F4F8F4F35
:103F60009F4F08950E94DF1FA59F900DB49F900D55
:103F7000A49F800D911D11240895A1E21A2EAA1B61
:103F8000BB1BFD010DC0AA1FBB1FEE1FFF1FA21709
:103F9000B307E407F50720F0A21BB30BE40BF50B06
:103FA000661F771F881F991F1A9469F7609570958F
:103FB000809590959B01AC01BD01CF010895A29F12
:103FC000B001B39FC001A39F700D811D1124911DED
:103FD000B29F700D811D1124911D08955058BB276B
:103FE000AA270E9406200C94B0210E94772138F065
:103FF0000E947E2120F039F49F3F19F426F40C949E
:1040000074210EF4E095E7FB0C946E21E92F0E94D9
:10401000D52158F3BA17620773078407950720F074
:1040200079F4A6F50C94F7210EF4E0950B2EBA2F37
:10403000A02D0B01B90190010C01CA01A0011124AE
:10404000FF27591B99F0593F50F4503E68F11A165A
:10405000F040A22F232F342F4427585FF3CF4695EB
:1040600037952795A795F0405395C9F77EF41F160D
:10407000BA0B620B730B840BBAF09150A1F0FF0FD7
:10408000BB1F661F771F881FC2F70EC0BA0F621FC3
:10409000731F841F48F4879577956795B795F795B3
:1040A0009E3F08F0B0CF9395880F08F09927EE0F48
:1040B0009795879508950E944A2108F481E0089514
:1040C0000E948721E3950C94C1210E9479200C94D1
:1040D000B0210E947E2158F00E94772140F029F4FF
:1040E0005F3F29F00C946E2151110C94F8210C942F
:1040F00074210E94D52168F39923B1F3552391F3DC
:10410000951B550BBB27AA2762177307840738F046
:104110009F5F5F4F220F331F441FAA1FA9F335D0A3
:104120000E2E3AF0E0E832D091505040E695001C57
:10413000CAF72BD0FE2F29D0660F771F881FBB1F11
:10414000261737074807AB07B0E809F0BB0B802DEF
:10415000BF01FF2793585F4F3AF09E3F510578F01B
:104160000C946E210C94F8215F3FE4F3983ED4F355
:10417000869577956795B795F7959F5FC9F7880FEF
:10418000911D9695879597F90895E1E0660F771F41
:10419000881FBB1F621773078407BA0720F0621BD2
:1041A000730B840BBA0BEE1F88F7E09508950E94FD
:1041B000DE206894B1110C94F82108950E94DD214D
:1041C00088F09F5798F0B92F9927B751B0F0E1F0D8
:1041D000660F771F881F991F1AF0BA95C9F714C088
:1041E000B13091F00E94F721B1E008950C94F721CD
:1041F000672F782F8827B85F39F0B93FCCF38695C1
:1042000077956795B395D9F73EF49095809570951D
:1042100061957F4F8F4F9F4F0895E89409C097FB9A
:104220003EF490958095709561957F4F8F4F9F4F8D
:104230009923A9F0F92F96E9BB279395F6958795D1
:1042400077956795B795F111F8CFFAF4BB0F11F494
:1042500060FF1BC06F5F7F4F8F4F9F4F16C088233B
:1042600011F096E911C0772321F09EE8872F762F71
:1042700005C0662371F096E8862F70E060E02AF0B2
:104280009A95660F771F881FDAF7880F969587959E
:1042900097F90895990F0008550FAA0BE0E8FEEF73
:1042A00016161706E807F907C0F012161306E407FA
:1042B000F50798F0621B730B840B950B39F40A26F3
:1042C00061F0232B242B252B21F408950A2609F4D1
:1042D000A140A6958FEF811D811D089597F99F67D5
:1042E00080E870E060E008959FEF80EC089500247E
:1042F0000A941616170618060906089500240A944B
:10430000121613061406050608950C9474210E94D3
:10431000DD21D8F3E894E0E0BB279F57F0F02AEDC9
:104320003FE049EC06C0EE0FBB0F661F771F881FEA
:1043300028F0B23A62077307840728F0B25A620B7A
:10434000730B840BE3959A9572F7803830F49A9545
:10435000BB0F661F771F881FD2F790480C947522F9
:10436000092E0394000C11F4882352F0BB0F40F483
:10437000BF2B11F460FF04C06F5F7F4F8F4F9F4FC3
:104380000895EF93E0FF07C0A2EA2AED3FE049EC71
:104390005FEB0E9406200E94B0210F90039401FC65
:1043A0009058E8E6F0E00C94812257FD9058440FB5
:1043B000551F59F05F3F71F04795880F97FB991F84
:1043C00061F09F3F79F08795089512161306140641
:1043D000551FF2CF4695F1DF08C0161617061806CE
:1043E000991FF1CF86957105610508940895E894A9
:1043F000BB2766277727CB0197F908950E941122E2
:104400000C94B0210E94772138F00E947E2120F088
:10441000952311F00C946E210C94742111240C94AA
:10442000F8210E94D52170F3959FC1F3950F50E0BC
:10443000551F629FF001729FBB27F00DB11D639F56
:10444000AA27F00DB11DAA1F649F6627B00DA11DFC
:10445000661F829F2227B00DA11D621F739FB00DA2
:10446000A11D621F839FA00D611D221F749F332712
:10447000A00D611D231F849F600D211D822F762FAB
:104480006A2F11249F5750409AF0F1F088234AF088
:10449000EE0FFF1FBB1F661F771F881F91505040F4
:1044A000A9F79E3F510580F00C946E210C94F821E1
:1044B0005F3FE4F3983ED4F3869577956795B7957B
:1044C000F795E7959F5FC1F7FE2B880F911D969595
:1044D000879597F908959F930E9487210F9007FC75
:1044E000EE5F0C94C1219F3F31F0915020F48795ED
:1044F00077956795B795880F911D9695879597F94C
:1045000008959F938F937F936F93FF93EF939B01F6
:10451000AC010E94FE21EF91FF910E9495222F9104
:104520003F914F915F910C94FE21DF93CF931F93A6
:104530000F93FF92EF92DF927B018C01689406C08B
:10454000DA2EEF010E941122FE01E894A591259137
:10455000359145915591A6F3EF010E940620FE0189
:104560009701A801DA9469F7DF90EF90FF900F911F
:104570001F91CF91DF91089597FB072E16F40094B9
:1045800007D077FD09D00E94D02207FC05D03EF469
:10459000909581959F4F0895709561957F4F0895EF
:1045A000AA1BBB1B51E107C0AA1FBB1FA617B70759
:1045B00010F0A61BB70B881F991F5A95A9F7809575
:1045C0009095BC01CD010895EE0FFF1F0590F49169
:1045D000E02D09940F931F93CF93DF9382309105C1
:1045E00010F482E090E0E0910004F091010430E0EA
:1045F00020E0B0E0A0E0309799F42115310509F4EE
:104600004AC0281B390B24303105D8F58A819B819B
:104610006115710589F1FB0193838283FE0111C04D
:10462000408151810281138148175907E0F04817F2
:10463000590799F4109761F012960C9312971396FC
:104640001C933296CF01DF91CF911F910F91089566
:104650000093000410930104F4CF2115310551F0AB
:104660004217530738F0A901DB019A01BD01DF01B0
:10467000F801C1CFEF01F9CF9093010480930004BA
:10468000CDCFFE01E20FF31F8193919322503109A8
:1046900039832883D7CF2091FE033091FF03232B4A
:1046A00041F420910201309103013093FF032093E4
:1046B000FE0320910001309101012115310541F4E3
:1046C0002DB73EB74091040150910501241B350BD5
:1046D000E091FE03F091FF03E217F307A0F42E1B15
:1046E0003F0B2817390778F0AC014E5F5F4F241756
:1046F000350748F04E0F5F1F5093FF034093FE03B2
:10470000819391939FCFF0E0E0E09CCFCF93DF9334
:104710000097E9F0FC01329713821282A091000405
:10472000B0910104ED0130E020E01097A1F4208168
:104730003181820F931F2091FE033091FF032817D0
:10474000390709F061C0F093FF03E093FE03DF91A6
:10475000CF910895EA01CE17DF07E8F54A815B8122
:104760009E0141155105B1F7E901FB83EA834991A7
:104770005991C40FD51FEC17FD0761F48081918119
:104780000296840F951FE901998388838281938122
:104790009B838A83F0E0E0E012968D919C911397C1
:1047A0000097B9F52D913C911197CD010296820F9A
:1047B000931F2091FE033091FF032817390739F624
:1047C000309751F51092010410920004B093FF034A
:1047D000A093FE03BCCFD383C28340815181840F59
:1047E000951FC817D90761F44E5F5F4F8881998183
:1047F000480F591F518340838A819B819383828311
:104800002115310509F0B0CFF0930104E0930004C5
:104810009ECFFD01DC01C0CF13821282D7CF81E091
:1048200090E0F8940C941B24DC0101C06D9341507E
:104830005040E0F7089515E0C0E5D5E004C0FE0162
:104840000E94E4222196C135D107C9F7F894FFCF21
:104850000000020480000000000043081608321225
:104860009C050F089D05000800000000B00AC30564
:104870003212311211109C05550D2D0D490D3D0DB3
:10488000BD0D9C057608DB11810FCA0F760C590C03
:10489000E10B820B0D0A004163583A200041635935
:1048A0003A20004779583A20004779593A200000C9
:1048B000FFFFFFFFFFFFFFFFFFFFFFFFFFFFFFFF08
:1048C000FFFFFFFFFFFFFFFFFFFFFFFFFFFFFFFFF8
:1048D000FFFFFFFFFFFFFFFFFFFFFFFFFFFFFFFFE8
:1048E000FFFFFFFFFFFFFFFFFFFFFFFFFFFFFFFFD8
:02000004008179
:00000001FF
