:020000040000FA
:100000000A128A11F52F00308A000408840A820738
:10001000003420344D346934633472346F346434C2
:1000200069346734693473346F346634743420341B
:10003000003420342034573465346C3463346F34E6
:100040006D346534203420340034203449346E3427
:100050006934743420344F346B34203400343F34EA
:100060003F343F340034573445344434003454343E
:1000700055344534003446345234493400344D3418
:100080004F344E340034533455344E3400345334EA
:1000900041345434003454344834553400344134F9
:1000A0004D34003450344D34003448340034FF3F74
:1000B000FF3FFF3FFF3FFF3FFF3FFF3FFF3FFF3F50
:1000C000FF3FFF3FFF3FFF3FFF3FFF3FFF3FFF3F40
:1000D000FF3FFF3FFF3FFF3FFF3FFF3FFF3FFF3F30
:1000E000FF3FFF3FFF3FFF3FFF3FFF3FFF3FFF3F20
:1004B000FF3F83160313911483128C1D602A612A57
:1004C0005C2A8C11080083160313111483128C1DEF
:1004D0006A2A6B2A662A8C110800831603131115E9
:1004E00083128C1D742A752A702A8C1108008316B9
:1004F0000313911583128C1D7E2A7F2A7A2A8C1170
:1005000013080800831603139112111683128C1D11
:100510008A2A8B2A862A8C110800831603139116C7
:10052000111683128C1D952A962A912A8C11080087
:10053000F100831203130911710888000A128A114D
:10054000BD220A128A110800F10083120313091553
:10055000710888000A128A11BD220A128A11080045
:100560008316031307168715133093008030940009
:100570002830831203139400080083120313891494
:100580008530F000F00BC22A8312031389108530E6
:10059000F000F00BC92A080001300A128A119822D3
:1005A0000A128A110830F300C930F200F20BD62A81
:1005B000F30BD62ADB2A0800F0007008831203131D
:1005C00093008C1DE42AE52AE12A8C11831603137B
:1005D000111BEB2AEC2AEE2A0310EF2A0314080061
:1005E000F300F201731CF52AF62AFA2A7008F100CA
:1005F0007108F2070310F00D0310F30C7308031DCC
:10060000022B032BF22A72080800F300172B730841
:1006100084000A128A1103200A128A110A128A110E
:10062000A4220A128A110130F2007208F30773083B
:1006300084000A128A1103200A128A11003A031D4B
:10064000222B232B072B0800F20080307202031CA0
:100650002A2B2B2B312BA9307202031C302B312B70
:100660003D2BC0307202031C362B372B432BE93055
:10067000720203183C2B3D2B432B72080A128A117D
:1006800098220A128A110800831203138910091193
:100690008801831603138801891009111A30F500A7
:1006A000F830F400F40B522BF50B522B00003830CD
:1006B0000A128A1198220A128A110C300A128A111F
:1006C00098220A128A1106300A128A1198220A12F6
:1006D0008A110A128A11CC220A128A110800F60124
:1006E000F31F732B742B7B2BF209F309F20A031906
:1006F000F30AF601F60AF11F7E2B7F2B842BF009FB
:10070000F109F00A0319F10A700871040319892B21
:100710008A2BB92BF501F50A982B01300310F00D47
:10072000F10DFF3E031D8E2B0130F4007408F50718
:10073000F11F9B2B9C2B8D2B71087302031DA22B89
:1007400070087202031CA52BA62BAC2B7008F202BA
:100750007108031CF303F30201300310F10CF00CD9
:10076000FF3E031DAD2B0130F502031DB82BB92B45
:100770009C2B76080319BD2BBE2BC32BF209F30962
:10078000F20A0319F30A7308F1007208F000080076
:10079000F6000A128A1163220A128A11D0300A1254
:1007A0008A11DC220A128A110318D72BD82BC92BE5
:1007B00076080A128A11DC220A128A110A128A1198
:1007C00059220A128A11D1300A128A11DC220A1225
:1007D0008A110A128A1177220A128A11F40071080A
:1007E00084007408831380000130F7000030F800A3
:1007F000122C0A128A1182220A128A110A128A11F2
:1008000077220A128A11F40077087107F50075083B
:1008100084007408831380000130F7070318F80A76
:100820000030F80773087802031D182C720877024D
:10083000031C1B2C1C2CF92B0A128A118D220A1264
:100840008A110A128A116D220A128A110800F60111
:10085000F11F2B2C2C2C332CF009F109F00A031971
:10086000F10AF601F60AF31F362C372C402CF20958
:10087000F309F20A0319F30A0130F4007408F606CA
:10088000F701F801700871040319472C482C7F2CDC
:10089000F501F50A562C01300310F00DF10DFF3E65
:1008A000031D4C2C0130F4007408F507F11F592C7E
:1008B0005A2C4B2C01300310F70DF80DFF3E031D91
:1008C0005B2C71087302031D672C70087202031CF5
:1008D0006A2C6B2C722C7008F2027108031CF30353
:1008E000F302771401300310F10CF00CFF3E031DEE
:1008F000732C0130F502031D7E2C7F2C5A2C7608B8
:100900000319832C842C892CF709F809F70A031999
:10091000F80A7808F1007708F00008000A128A1136
:1009200044230A128A111D300A128A1105230A1261
:100930008A110A128A11B0220A128A110A128A1125
:10094000CC220A128A1180300A128A1124230A1238
:100950008A1111300A128A1105230A128A11C03035
:100960000A128A1124230A128A1101300A128A11EA
:1009700005230A128A11063083120313A6001330CE
:10098000A500AD30A400A40BC32CA50BC32CA60B53
:10099000C32C0A128A11CC220A128A110A128A1155
:1009A00064250A128A110A128A1105260A128A116E
:1009B0000A128A11F5240A128A110A128A11DF26F4
:1009C0000A128A11033083120313A6000830A5000F
:1009D0007630A400A40BEA2CA50BEA2CA60BEA2C7B
:1009E0000000CE2C0A128A1100282030F900790864
:1009F000F1000430F2000030F30003300A128A11D3
:100A0000C8230A128A11831203132108F9007908F6
:100A1000FD000F307D05F9000A30FA007A08F00079
:100A20007D08FB0004300310FB0CFF3E031D132D5B
:100A30007B080A128A11F0220A128A117907FC0037
:100A40007C0883120313A1002208F9007908FD0035
:100A50000F307D05F9000A30FA007A08F0007D08B1
:100A6000FB0004300310FB0CFF3E031D322D7B08FE
:100A70000A128A11F0220A128A117907FC007C08F6
:100A800083120313A2002308F9007908FD000F3038
:100A90007D05F9000A30FA007A08F0007D08FB00B5
:100AA00004300310FB0CFF3E031D512D7B080A127E
:100AB0008A11F0220A128A117907FC007C0883123D
:100AC0000313A300203008002030F9007908F1005A
:100AD0000330F2000030F30000300A128A11C823FC
:100AE0000A128A11831203132008F9007908FD0005
:100AF0000F307D05F9000A30FA007A08F0007D0811
:100B0000FB0004300310FB0CFF3E031D822D7B080D
:100B100007390A128A11F0220A128A117907FC0099
:100B20007C0883120313A0002108F9007908FD0056
:100B30000F307D05F9000A30FA007A08F0007D08D0
:100B4000FB0004300310FB0CFF3E031DA22D7B08AD
:100B50000A128A11F0220A128A117907FC007C0815
:100B600083120313A100221FB62DB72DE02DA21E64
:100B7000BA2DBB2DBE2DA301A30ABF2DA3012208B0
:100B8000F9007908FD000F307D05F9000A30FA0000
:100B90007A08F0007D08FB0004300310FB0CFF3ED8
:100BA000031DCD2D7B0801390A128A11F0220A1289
:100BB0008A117907FC007C0883120313A200032E1C
:100BC0002208F9007908FD000F307D05F9000A3090
:100BD000FA007A08F0007D08FB0004300310FB0CDB
:100BE000FF3E031DEE2D7B080A128A11F0220A1225
:100BF0008A117907FC007C0883120313A2000230DB
:100C0000F9007908A30020300800FB0080300A12A8
:100C10008A1198220A128A110A30F0000030F1007D
:100C20007B08023E840083130008F900FA0179086A
:100C3000F2007A08F3000A128A1127240A128A1194
:100C40007008303E0A128A11A4220A128A110A3050
:100C5000F0000030F1007B08023E8400831300089E
:100C6000F900FA017908F2007A08F3000A128A11F1
:100C70006F230A128A117008303E0A128A11A422C8
:100C80000A128A113A300A128A11A4220A128A110F
:100C90000A30F0000030F1007B0A84008313000862
:100CA000F900FA017908F2007A08F3000A128A11B1
:100CB00027240A128A117008303E0A128A11A422CF
:100CC0000A128A110A30F0000030F1007B0A840019
:100CD00083130008F900FA017908F2007A08F3009A
:100CE0000A128A116F230A128A117008303E0A1202
:100CF0008A11A4220A128A113A300A128A11A422F5
:100D00000A128A110A30F0000030F1007B088400DA
:100D100083130008F900FA017908F2007A08F30059
:100D20000A128A1127240A128A117008303E0A1208
:100D30008A11A4220A128A110A30F0000030F10050
:100D40007B08840083130008F900FA017908F20097
:100D50007A08F3000A128A116F230A128A117008A6
:100D6000303E0A128A11A4220A128A1120300A1275
:100D70008A11A4220A128A11D22E47300A128A112D
:100D800005230A128A11DE2E4A300A128A1105231F
:100D90000A128A11DE2E4D300A128A1105230A1218
:100DA0008A11DE2E7B08033E840083130008003A7C
:100DB0000319BD2E013A0319C42ECB2E0800FB00E7
:100DC000C0300A128A1198220A128A110A30F000E1
:100DD0000030F1007B0A840083130008F900FA0157
:100DE0007908F2007A08F3000A128A1127240A12FD
:100DF0008A117008303E0A128A11A4220A128A113E
:100E00000A30F0000030F1007B0A840083130008F0
:100E1000F900FA017908F2007A08F3000A128A113F
:100E20006F230A128A117008303E0A128A11A42216
:100E30000A128A112F300A128A11A4220A128A1168
:100E40000A30F0000030F1007B08023E840083137A
:100E50000008F900FA017908F2007A08F3000A1292
:100E60008A1127240A128A117008303E0A128A1148
:100E7000A4220A128A110A30F0000030F1007B0827
:100E8000023E840083130008F900FA017908F20099
:100E90007A08F3000A128A116F230A128A11700865
:100EA000303E0A128A11A4220A128A112F300A1225
:100EB0008A11A4220A128A110A30F0000030F100CF
:100EC0007B08033E840083130008F900FA017908C7
:100ED000F2007A08F3000A128A1127240A128A11F2
:100EE0007008303E0A128A11A4220A128A110A30AE
:100EF000F0000030F1007B08033E840083130008FB
:100F0000F900FA017908F2007A08F3000A128A114E
:100F10006F230A128A117008303E0A128A11A42225
:100F20000A128A1120300A128A11A4220A128A1186
:100F3000D12F37300A128A1105230A128A11F42F91
:100F40002F300A128A1105230A128A11F42F2B302E
:100F50000A128A1105230A128A11F42F43300A1249
:100F60008A1105230A128A11F42F33300A128A11CA
:100F700005230A128A11F42F3F300A128A11052321
:100F80000A128A11F42F3B300A128A1105230A1221
:100F90008A11F42F27300A128A1105230A128A11A6
:100FA000F42F7B088400831300080739F900FA0145
:100FB0007A08003A0319DD2FCA2F7908003A03197D
:100FC000C32F013A0319992F033A0319A02F013AAD
:100FD0000319A72F073A0319AE2F013A0319B52FAA
:100FE000033A0319BC2FCA2F0800FD018312031313
:100FF000A001A101A201A30183010A128A118E2C72
:10100000FF3FFF3FFF3FFF3FFF3FFF3FFF3FFF3FF0
:10101000FF3FFF3FFF3FFF3FFF3FFF3FFF3FFF3FE0
:10102000FF3FFF3FFF3FFF3FFF3FFF3FFF3FFF3FD0
:10103000FF3FFF3FFF3FFF3FFF3FFF3FFF3FFF3FC0
:02400E007A3FF7
:10420000FF00FF00FF00FF00FF00FF00FF00FF00B6
:10421000FF00FF00FF00FF00FF00FF00FF00FF00A6
:10422000FF00FF00FF00FF00FF00FF00FF00FF0096
:10423000FF00FF00FF00FF00FF00FF00FF00FF0086
:10424000FF00FF00FF00FF00FF00FF00FF00FF0076
:10425000FF00FF00FF00FF00FF00FF00FF00FF0066
:10426000FF00FF00FF00FF00FF00FF00FF00FF0056
:10427000FF00FF00FF00FF00FF00FF00FF00FF0046
:10428000FF00FF00FF00FF00FF00FF00FF00FF0036
:10429000FF00FF00FF00FF00FF00FF00FF00FF0026
:1042A000FF00FF00FF00FF00FF00FF00FF00FF0016
:1042B000FF00FF00FF00FF00FF00FF00FF00FF0006
:1042C000FF00FF00FF00FF00FF00FF00FF00FF00F6
:1042D000FF00FF00FF00FF00FF00FF00FF00FF00E6
:1042E000FF00FF00FF00FF00FF00FF00FF00FF00D6
:1042F000FF00FF00FF00FF00FF00FF00FF00FF00C6
:10430000FF00FF00FF00FF00FF00FF00FF00FF00B5
:10431000FF00FF00FF00FF00FF00FF00FF00FF00A5
:10432000FF00FF00FF00FF00FF00FF00FF00FF0095
:10433000FF00FF00FF00FF00FF00FF00FF00FF0085
:10434000FF00FF00FF00FF00FF00FF00FF00FF0075
:10435000FF00FF00FF00FF00FF00FF00FF00FF0065
:10436000FF00FF00FF00FF00FF00FF00FF00FF0055
:10437000FF00FF00FF00FF00FF00FF00FF00FF0045
:10438000FF00FF00FF00FF00FF00FF00FF00FF0035
:10439000FF00FF00FF00FF00FF00FF00FF00FF0025
:1043A000FF00FF00FF00FF00FF00FF00FF00FF0015
:1043B000FF00FF00FF00FF00FF00FF00FF00FF0005
:1043C000FF00FF00FF00FF00FF00FF00FF00FF00F5
:1043D000FF00FF00FF00FF00FF00FF00FF00FF00E5
:1043E000FF00FF00FF00FF00FF00FF00FF00FF00D5
:1043F000FF00FF00FF00FF00FF00FF00FF00FF00C5
:00000001FF
