:0400000014EF00F009
:0600080047825FED11F0DC
:100018004780E0CF0AF000F00AC0E0FF47901000E8
:1000280024EF12F0070E936E010EE6EC11F0800E2D
:10003800E6EC11F0790E0E6EFF0E0F6E88EC0FF0E5
:10004800790E0C6EFF0E0D6E47EC0FF0E20E0C6E83
:10005800FF0E0D6E47EC0FF0C00EE6EC11F01A0E15
:100068000E6EFE0E0F6E88EC0FF01A0E0C6EFE0E62
:100078000D6E47EC0FF0E20E0C6EFF0E0D6E47ECA6
:100088000FF0070E836E81B04CEF00F04EEF00F0DA
:1000980047EF00F0CA0EE6EC11F0CF0E0E6EFF0E21
:1000A8000F6E88EC0FF0CF0E0C6EFF0E0D6E47EC46
:1000B8000FF0E20E0C6EFF0E0D6E47EC0FF0060E01
:1000C800146E130E136EAE0EE82EFED7132EFCD749
:1000D800142EFAD7C00EE6EC11F0290E0E6EFE0EA5
:1000E8000F6E88EC0FF0290E0C6EFE0E0D6E47ECAD
:1000F8000FF0E20E0C6EFF0E0D6E47EC0FF0070EC0
:10010800836E81B28AEF00F08CEF00F085EF00F08B
:10011800CA0EE6EC11F0CF0E0E6EFF0E0F6E88ECD5
:100128000FF0CF0E0C6EFF0E0D6E47EC0FF0E20EC7
:100138000C6EFF0E0D6E47EC0FF0060E146E130ECC
:10014800136EAE0EE82EFED7132EFCD7142EFAD758
:10015800C00EE6EC11F0380E0E6EFE0E0F6E88EC37
:100168000FF0380E0C6EFE0E0D6E47EC0FF0E20E1F
:100178000C6EFF0E0D6E47EC0FF0070E836E81B408
:10018800C8EF00F0CAEF00F0C3EF00F0CA0EE6ECCB
:1001980011F0CF0E0E6EFF0E0F6E88EC0FF0CF0E23
:1001A8000C6EFF0E0D6E47EC0FF0E20E0C6EFF0E9C
:1001B8000D6E47EC0FF0060E146E130E136EAE0E96
:1001C800E82EFED7132EFCD7142EFAD7C00EE6EC75
:1001D80011F0470E0E6EFE0E0F6E88EC0FF0470EF4
:1001E8000C6EFE0E0D6E47EC0FF0E20E0C6EFF0E5D
:1001F8000D6E47EC0FF00B0E836E81B006EF01F029
:1002080008EF01F001EF01F0CA0EE6EC11F0CF0E95
:100218000E6EFF0E0F6E88EC0FF0CF0E0C6EFF0EF9
:100228000D6E47EC0FF0E20E0C6EFF0E0D6E47ECF4
:100238000FF0060E146E130E136EAE0EE82EFED7D8
:10024800132EFCD7142EFAD7C00EE6EC11F0560E7A
:100258000E6EFE0E0F6E88EC0FF0560E0C6EFE0E34
:100268000D6E47EC0FF0E20E0C6EFF0E0D6E47ECB4
:100278000FF00B0E836E81B244EF01F046EF01F0F0
:100288003FEF01F0CA0EE6EC11F0CF0E0E6EFF0E36
:100298000F6E88EC0FF0CF0E0C6EFF0E0D6E47EC54
:1002A8000FF0E20E0C6EFF0E0D6E47EC0FF0060E0F
:1002B800146E130E136EAE0EE82EFED7132EFCD757
:1002C800142EFAD7C00EE6EC11F0650E0E6EFE0E77
:1002D8000F6E88EC0FF0650E0C6EFE0E0D6E47EC7F
:1002E8000FF0E20E0C6EFF0E0D6E47EC0FF00B0ECA
:1002F800836E81B482EF01F084EF01F07DEF01F0AD
:10030800CA0EE6EC11F0CF0E0E6EFF0E0F6E88ECE3
:100318000FF0CF0E0C6EFF0E0D6E47EC0FF0E20ED5
:100328000C6EFF0E0D6E47EC0FF0060E146E130EDA
:10033800136EAE0EE82EFED7132EFCD7142EFAD766
:10034800C00EE6EC11F0740E0E6EFE0E0F6E88EC09
:100358000FF0740E0C6EFE0E0D6E47EC0FF0E20EF1
:100368000C6EFF0E0D6E47EC0FF00D0E836E81B014
:10037800C0EF01F0C2EF01F0BBEF01F0CA0EE6ECEE
:1003880011F0CF0E0E6EFF0E0F6E88EC0FF0CF0E31
:100398000C6EFF0E0D6E47EC0FF0E20E0C6EFF0EAA
:1003A8000D6E47EC0FF0060E146E130E136EAE0EA4
:1003B800E82EFED7132EFCD7142EFAD7C00EE6EC83
:1003C80011F0830E0E6EFE0E0F6E88EC0FF0830E8A
:1003D8000C6EFE0E0D6E47EC0FF0E20E0C6EFF0E6B
:1003E8000D6E47EC0FF00D0E836E81B2FEEF01F03B
:1003F80000EF02F0F9EF01F0CA0EE6EC11F0CF0EB3
:100408000E6EFF0E0F6E88EC0FF0CF0E0C6EFF0E07
:100418000D6E47EC0FF0E20E0C6EFF0E0D6E47EC02
:100428000FF0060E146E130E136EAE0EE82EFED7E6
:10043800132EFCD7142EFAD7C00EE6EC11F0920E4C
:100448000E6EFE0E0F6E88EC0FF0920E0C6EFE0E06
:100458000D6E47EC0FF0E20E0C6EFF0E0D6E47ECC2
:100468000FF00D0E836E81B43CEF02F03EEF02F008
:1004780037EF02F0CA0EE6EC11F0CF0E0E6EFF0E4B
:100488000F6E88EC0FF0CF0E0C6EFF0E0D6E47EC62
:100498000FF0E20E0C6EFF0E0D6E47EC0FF0060E1D
:1004A800146E130E136EAE0EE82EFED7132EFCD765
:1004B800142EFAD7C00EE6EC11F0A10E0E6EFE0E49
:1004C8000F6E88EC0FF0A10E0C6EFE0E0D6E47EC51
:1004D8000FF0E20E0C6EFF0E0D6E47EC0FF00E0ED5
:1004E800836E81B07AEF02F07CEF02F075EF02F0D4
:1004F800CA0EE6EC11F0CF0E0E6EFF0E0F6E88ECF2
:100508000FF0CF0E0C6EFF0E0D6E47EC0FF0E20EE3
:100518000C6EFF0E0D6E47EC0FF0060E146E130EE8
:10052800136EAE0EE82EFED7132EFCD7142EFAD774
:10053800C00EE6EC11F00B0E0E6EFE0E0F6E88EC80
:100548000FF00B0E0C6EFE0E0D6E47EC0FF0E20E68
:100558000C6EFF0E0D6E47EC0FF00E0E836E81B21F
:10056800B8EF02F0BAEF02F0B3EF02F0CA0EE6EC11
:1005780011F0CF0E0E6EFF0E0F6E88EC0FF0CF0E3F
:100588000C6EFF0E0D6E47EC0FF0E20E0C6EFF0EB8
:100598000D6E47EC0FF0060E146E130E136EAE0EB2
:1005A800E82EFED7132EFCD7142EFAD7C00EE6EC91
:1005B80011F0B00E0E6EFE0E0F6E88EC0FF0B00E3E
:1005C8000C6EFE0E0D6E47EC0FF0E20E0C6EFF0E79
:1005D8000D6E47EC0FF00E0E836E81B4F6EF02F04D
:1005E800F8EF02F0F1EF02F0CA0EE6EC11F0CF0ED0
:1005F8000E6EFF0E0F6E88EC0FF0CF0E0C6EFF0E16
:100608000D6E47EC0FF0E20E0C6EFF0E0D6E47EC10
:100618000FF0060E146E130E136EAE0EE82EFED7F4
:10062800132EFCD7142EFAD71200030E936E010E68
:10063800E6EC11F0800EE6EC11F04D0E0E6EFD0E9C
:100648000F6E88EC0FF04D0E0C6EFD0E0D6E47EC24
:100658000FF0E20E0C6EFF0E0D6E47EC0FF0C00EA1
:10066800E6EC11F09E0E0E6EFF0E0F6E88EC0FF08A
:100678009E0E0C6EFF0E0D6E47EC0FF0E20E0C6E28
:10068800FF0E0D6E47EC0FF081B24DEF03F04FEF08
:1006980003F048EF03F0010EE6EC11F0800EE6ECF3
:1006A80011F05F0E0E6EFF0E0F6E88EC0FF05F0EEE
:1006B8000C6EFF0E0D6E47EC0FF0E20E0C6EFF0E87
:1006C8000D6E47EC0FF0070E926E5AEC12F0000E0A
:1006D8002D6E020E09EC11F00BC012F00CC013F0D5
:1006E800000E156E0A0E146E11EC12F0D89013302D
:1006F800236E12302B6E23C02CF0C50EE6EC11F0E1
:100708002BC01FF02CC020F0250E216E000E226E8B
:100718009AEC0BF02750CFEC11F02850CFEC11F0E9
:100728002C0ECFEC11F02950CFEC11F0430ECFEC8A
:1007380011F0340E236EF20EE82EFED7232EFCD7CE
:100748002D2A630E2D64ABEF03F0ADEF03F06DEFD0
:1007580003F0010EE6EC11F0800EE6EC11F00A0E43
:100768000E6EFF0E0F6E88EC0FF00A0E0C6EFF0E69
:100778000D6E47EC0FF0E20E0C6EFF0E0D6E47EC9F
:100788000FF0828A000E2D6E020E09EC11F00BC0DC
:1007980012F00CC013F0000E156E0A0E146E11EC58
:1007A80012F0D8901330236E12302B6E23C02CF029
:1007B800C50EE6EC11F02BC01FF02CC020F0250E62
:1007C800216E000E226E9AEC0BF02750CFEC11F040
:1007D8002850CFEC11F02C0ECFEC11F02950CFECB3
:1007E80011F0430ECFEC11F0820E236EDE0EE82ED0
:1007F800FED7232EFCD72D2AC70E2D6406EF04F052
:1008080008EF04F0C8EF03F0829A9480010EE6EC3A
:1008180011F0800EE6EC11F0FB0E0E6EFE0E0F6E60
:1008280088EC0FF0FB0E0C6EFE0E0D6E47EC0FF011
:10083800E20E0C6EFF0E0D6E47EC0FF0D59AD596B2
:10084800D58CD590D592D584D58EF28ACD82CD9A85
:10085800CD98F294000ED76E060ED66E7D0E326ECF
:10086800F28E000ECF6E000ECE6ECD808284000E0A
:100878002D6E020E09EC11F00BC012F00CC013F033
:10088800000E156E0A0E146E11EC12F0D89013308B
:10089800236E12302B6E23C02CF0C20EE6EC11F042
:1008A8002BC01FF02CC020F0250E216E000E226EEA
:1008B8009AEC0BF02750CFEC11F02850CFEC11F048
:1008C8002C0ECFEC11F02950CFEC11F0430ECFECE9
:1008D80011F0C80EE6EC11F030C01FF031C020F066
:1008E800250E216E000E226E9AEC0BF02650CFECEE
:1008F80011F02750CFEC11F02850CFEC11F029500F
:10090800CFEC11F0520ECFEC11F0500ECFEC11F0ED
:10091800530ECFEC11F01A0E236EF80EE82EFED708
:10092800232EFCD700D02D2A950E2D649EEF04F0BF
:10093800A0EF04F03DEF04F0F29E82940F0EC16E1A
:100948001200010EE6EC11F0800EE6EC11F0190E23
:100958000E6EFF0E0F6E88EC0FF0190E0C6EFF0E68
:100968000D6E47EC0FF0E20E0C6EFF0E0D6E47ECAD
:100978000FF00F0EC16E3F0E936EC00EE6EC11F035
:10098800B10E0E6EFD0E0F6E88EC0FF0B10E0C6EF0
:10099800FD0E0D6E47EC0FF0E20E0C6EFF0E0D6EA5
:1009A80047EC0FF081B0DBEF04F0DDEF04F0D6EF99
:1009B80004F0C60EE6EC11F0CF0E0E6EFF0E0F6EB1
:1009C80088EC0FF0CF0E0C6EFF0E0D6E47EC0FF09B
:1009D800E20E0C6EFF0E0D6E47EC0FF0060E146E55
:1009E800130E136EAE0EE82EFED7132EFCD7142E60
:1009F800FAD7C00EE6EC11F0C00E0E6EFD0E0F6EAB
:100A080088EC0FF0C00E0C6EFD0E0D6E47EC0FF06B
:100A1800E20E0C6EFF0E0D6E47EC0FF081B217EF71
:100A280005F019EF05F012EF05F0C60EE6EC11F02F
:100A3800CF0E0E6EFF0E0F6E88EC0FF0CF0E0C6E01
:100A4800FF0E0D6E47EC0FF0E20E0C6EFF0E0D6EF2
:100A580047EC0FF0060E146E130E136EAE0EE82E52
:100A6800FED7132EFCD7142EFAD7C00EE6EC11F0E1
:100A7800CF0E0E6EFD0E0F6E88EC0FF0CF0E0C6EC3
:100A8800FD0E0D6E47EC0FF0E20E0C6EFF0E0D6EB4
:100A980047EC0FF081B453EF05F055EF05F04EEF3A
:100AA80005F0C60EE6EC11F0CF0E0E6EFF0E0F6EBF
:100AB80088EC0FF0CF0E0C6EFF0E0D6E47EC0FF0AA
:100AC800E20E0C6EFF0E0D6E47EC0FF0060E146E64
:100AD800130E136EAE0EE82EFED7132EFCD7142E6F
:100AE800FAD7C00EE6EC11F0DE0E0E6EFD0E0F6E9C
:100AF80088EC0FF0DE0E0C6EFD0E0D6E47EC0FF05D
:100B0800E20E0C6EFF0E0D6E47EC0FF081B68FEF04
:100B180005F091EF05F08AEF05F0C60EE6EC11F04E
:100B2800CF0E0E6EFF0E0F6E88EC0FF0CF0E0C6E10
:100B3800FF0E0D6E47EC0FF0E20E0C6EFF0E0D6E01
:100B480047EC0FF0060E146E130E136EAE0EE82E61
:100B5800FED7132EFCD7142EFAD7C00EE6EC11F0F0
:100B6800ED0E0E6EFD0E0F6E88EC0FF0ED0E0C6E96
:100B7800FD0E0D6E47EC0FF0E20E0C6EFF0E0D6EC3
:100B880047EC0FF081B8CBEF05F0CDEF05F0C6EFDD
:100B980005F0C60EE6EC11F0CF0E0E6EFF0E0F6ECE
:100BA80088EC0FF0CF0E0C6EFF0E0D6E47EC0FF0B9
:100BB800E20E0C6EFF0E0D6E47EC0FF0060E146E73
:100BC800130E136EAE0EE82EFED7132EFCD7142E7E
:100BD800FAD7C00EE6EC11F0FC0E0E6EFD0E0F6E8D
:100BE80088EC0FF0FC0E0C6EFD0E0D6E47EC0FF04E
:100BF800E20E0C6EFF0E0D6E47EC0FF081BA07EF98
:100C080006F009EF06F002EF06F0C60EE6EC11F06A
:100C1800CF0E0E6EFF0E0F6E88EC0FF0CF0E0C6E1F
:100C2800FF0E0D6E47EC0FF0E20E0C6EFF0E0D6E10
:100C380047EC0FF0060E146E130E136EAE0EE82E70
:100C4800FED7132EFCD7142EFAD7000E816E0B0E8A
:100C5800C16E1200010EE6EC11F0800EE6EC11F008
:100C6800860E0E6EFF0E0F6E88EC0FF0860E0C6E61
:100C7800FF0E0D6E47EC0FF0E20E0C6EFF0E0D6EC0
:100C880047EC0FF0000E156E020E146E040E136E74
:100C9800BA0EE82EFED7132EFCD7142EFAD700D0A2
:100CA800180EE6EC11F0152A090E15645EEF06F031
:100CB80060EF06F048EF06F0000E156E020E146E97
:100CC800040E136EBA0EE82EFED7132EFCD7142E80
:100CD800FAD700D01C0EE6EC11F0152A090E15649F
:100CE80078EF06F07AEF06F062EF06F00F0EE6EC0A
:100CF80011F0000E156E020E146E040E136EBA0E6D
:100D0800E82EFED7132EFCD7142EFAD700D0100EDB
:100D1800E6EC11F0152A090E156495EF06F097EF29
:100D280006F07FEF06F0000E156E020E146E040E2C
:100D3800136EBA0EE82EFED7132EFCD7142EFAD750
:100D480000D0140EE6EC11F0152A090E1564AFEF69
:100D580006F0B1EF06F099EF06F00C0EE6EC11F094
:100D6800400EE6EC11F0110ECFEC11F0190ECFEC9D
:100D780011F0150ECFEC11F0130ECFEC11F0130E8D
:100D8800CFEC11F0150ECFEC11F0190ECFEC11F0DD
:100D9800110ECFEC11F00E0ECFEC11F0110ECFECBE
:100DA80011F00E0ECFEC11F0050ECFEC11F00E0E77
:100DB800CFEC11F0140ECFEC11F00A0ECFEC11F0BD
:100DC800110ECFEC11F0C00EE6EC11F0000E156E0E
:100DD8001550010BCFEC11F0020E146E040E136EB9
:100DE800BA0EE82EFED7132EFCD7142EFAD700D051
:100DF800152A0F0E156403EF07F005EF07F0ECEF67
:100E080006F0010EE6EC11F0800EE6EC11F0860E0D
:100E18000E6EFF0E0F6E88EC0FF0860E0C6EFF0E36
:100E28000D6E47EC0FF0E20E0C6EFF0E0D6E47ECE8
:100E38000FF0200E156E15C013F00F0E1316D8A460
:100E480028EF07F02AEF07F02DEF07F0C00EE6ECC9
:100E580011F01550CFEC11F0820E136EDE0EE82E55
:100E6800FED7132EFCD7152A200E15603EEF07F08B
:100E780040EF07F01FEF07F0020E146E040E136E1A
:100E8800BA0EE82EFED7132EFCD7142EFAD700D0B0
:100E9800010EE6EC11F0800EE6EC11F0860E0E6EF7
:100EA800FF0E0F6E88EC0FF0860E0C6EFF0E0D6EA7
:100EB80047EC0FF0E20E0C6EFF0E0D6E47EC0FF0D4
:100EC800C00EE6EC11F0C80E0E6EFF0E0F6E88EC29
:100ED8000FF0C80E0C6EFF0E0D6E47EC0FF0E20E11
:100EE8000C6EFF0E0D6E47EC0FF0060E146E130E0F
:100EF800136EAE0EE82EFED7132EFCD7142EFAD79B
:100F08001200C30E926E010E936E010E946E000EC7
:100F1800956E000E966EF19ED8EC10F00C0EE6EC75
:100F280011F077EC12F05AEC12F00F0EC16E070EAA
:100F3800B46E000E806E8282829A829C948E949CFB
:100F480050EC12F0030E936E010EE6EC11F0800ED9
:100F5800E6EC11F0810E0E6EFD0E0F6E88EC0FF0B0
:100F6800810E0C6EFD0E0D6E47EC0FF0E20E0C6E4E
:100F7800FF0E0D6E47EC0FF0C00EE6EC11F09E0E62
:100F88000E6EFF0E0F6E88EC0FF09E0E0C6EFF0EAD
:100F98000D6E47EC0FF0E20E0C6EFF0E0D6E47EC77
:100FA8000FF081B2DAEF07F0DCEF07F0D5EF07F0CA
:100FB800020E2F6E040E2E6EBA0EE82EFED72E2EBF
:100FC800FCD72F2EFAD700D081A2EDEF07F0EFEF74
:100FD80007F0E8EF07F0020E2F6E040E2E6EBA0E21
:100FE800E82EFED72E2EFCD72F2EFAD700D0030ED0
:100FF800936E010EE6EC11F0800EE6EC11F0700E27
:101008000E6EFD0E0F6E88EC0FF0700E0C6EFD0E5E
:101018000D6E47EC0FF0E20E0C6EFF0E0D6E47ECF6
:101028000FF0C00EE6EC11F09E0E0E6EFF0E0F6E66
:1010380088EC0FF09E0E0C6EFF0E0D6E47EC0FF055
:10104800E20E0C6EFF0E0D6E47EC0FF081B22FEF23
:1010580008F031EF08F02AEF08F02EEC06F086ECE5
:1010680011F01EEC0CF055EC0EF0A5EC04F07CEC45
:1010780008F0E1EC0AF0F2EC0DF019EC03F087EC63
:101088000DF016EC00F022EC0AF052EC09F0010E1B
:10109800E6EC11F0800EE6EC11F0BE0E0E6EFF0EBF
:1010A8000F6E88EC0FF0BE0E0C6EFF0E0D6E47EC47
:1010B8000FF0E20E0C6EFF0E0D6E47EC0FF0C00E37
:1010C800E6EC11F06C0E0E6EFF0E0F6E88EC0FF052
:1010D8006C0E0C6EFF0E0D6E47EC0FF0E20E0C6EF0
:1010E800FF0E0D6E47EC0FF078EF08F014EF00F0EC
:1010F800010EE6EC11F0800EE6EC11F0EC0E0E6E2F
:10110800FE0E0F6E88EC0FF0EC0E0C6EFE0E0D6EE0
:1011180047EC0FF0E20E0C6EFF0E0D6E47EC0FF071
:10112800C00EE6EC11F05F0E0E6EFD0E0F6E88EC31
:101138000FF05F0E0C6EFD0E0D6E47EC0FF0E20E19
:101148000C6EFF0E0D6E47EC0FF0030E936E81A030
:10115800B0EF08F0B2EF08F0B9EF08F081B2B7EFDE
:1011680008F0B9EF08F0ABEF08F081B0BEEF08F077
:10117800C0EF08F051EF09F0C40EE6EC11F0E50EEF
:101188000E6EFF0E0F6E88EC0FF0E50E0C6EFF0E64
:101198000D6E47EC0FF0E20E0C6EFF0E0D6E47EC75
:1011A8000FF02D0E0C6EFD0E0D6E47EC0FF0000EBD
:1011B800166E1650300F31EC12F0520E0C6EFF0EF8
:1011C8000D6E47EC0FF0162A030E1664EEEF08F0CA
:1011D800F0EF08F0DDEF08F00B0E146E260E136E1C
:1011E8005E0EE82EFED7132EFCD7142EFAD7010E6A
:1011F800E6EC11F0800EE6EC11F0DD0E0E6EFE0E40
:101208000F6E88EC0FF0DD0E0C6EFE0E0D6E47ECC7
:101218000FF0E20E0C6EFF0E0D6E47EC0FF0DC0EB9
:101228000C6EFF0E0D6E47EC0FF0000E166E16C01A
:1012380013F00F0E1316D8A424EF09F026EF09F0C7
:101248002FEF09F0C00EE6EC11F0E20E0C6EFF0E67
:101258000D6E47EC0FF0070E0C6ED00E0B6EB8EC4F
:101268000EF0156E1550CFEC11F0155031EC12F050
:10127800162A1F0E166443EF09F045EF09F01BEF1D
:1012880009F0020E146E040E136EBA0EE82EFED785
:10129800132EFCD7142EFAD700D01200010EE6EC5C
:1012A80011F0800EE6EC11F0A10E0E6EFD0E0F6E21
:1012B80088EC0FF0A10E0C6EFD0E0D6E47EC0FF0D2
:1012C800E20E0C6EFF0E0D6E47EC0FF0C00EE6EC52
:1012D80011F05F0E0E6EFD0E0F6E88EC0FF05F0EB4
:1012E8000C6EFD0E0D6E47EC0FF0E20E0C6EFF0E4D
:1012F8000D6E47EC0FF0030E936E81A086EF09F098
:1013080088EF09F08FEF09F081B28DEF09F08FEFC8
:1013180009F081EF09F081B094EF09F096EF09F038
:1013280016EF0AF0000E116E0A0E106E3AEC10F06D
:10133800186E1850CFEC11F0000E106E0A0E0F6EDA
:10134800A50E116E37EC11F0000E106E0A0E0F6E1E
:101358005A0E116E37EC11F0000E116E0A0E106E57
:101368003AEC10F0176E000E106E0A0E0F6E18C0D1
:1013780011F037EC11F0010EE6EC11F0800EE6ECFE
:1013880011F0A10E0E6EFD0E0F6E88EC0FF0A10E7F
:101398000C6EFD0E0D6E47EC0FF0E20E0C6EFF0E9C
:1013A8000D6E47EC0FF0C00EE6EC11F05A0E171850
:1013B800D8A4E1EF09F0E3EF09F0F7EF09F0B40E74
:1013C8000E6EFF0E0F6E88EC0FF0B40E0C6EFF0E53
:1013D8000D6E47EC0FF0E20E0C6EFF0E0D6E47EC33
:1013E8000FF009EF0AF0A90E0E6EFF0E0F6E88ECD3
:1013F8000FF0A90E0C6EFF0E0D6E47EC0FF0E20E0B
:101408000C6EFF0E0D6E47EC0FF00B0E166E260ECF
:10141800156E5E0EE82EFED7152EFCD7162EFAD7BF
:101428001DEF0AF081A21BEF0AF01DEF0AF016EF7C
:101438000AF0000E936E000E816E1200030E936E7A
:10144800010EE6EC11F0800EE6EC11F0910E0E6E36
:10145800FD0E0F6E88EC0FF0910E0C6EFD0E0D6EEA
:1014680047EC0FF0E20E0C6EFF0E0D6E47EC0FF01E
:10147800C00EE6EC11F05F0E0E6EFD0E0F6E88ECDE
:101488000FF05F0E0C6EFD0E0D6E47EC0FF0E20EC6
:101498000C6EFF0E0D6E47EC0FF0030E936E81A0DD
:1014A80058EF0AF05AEF0AF061EF0AF081B25FEFE5
:1014B8000AF061EF0AF053EF0AF081B066EF0AF024
:1014C80068EF0AF0D9EF0AF00A0E67EC12F0166E10
:1014D8001650CFEC11F0A50E0B6E0A0EFDEC11F0B4
:1014E8005A0E0B6E0A0EFDEC11F00A0E67EC12F0A4
:1014F800156E16C00BF00A0EFDEC11F0010EE6ECAD
:1015080011F0800EE6EC11F0910E0E6EFD0E0F6ECE
:1015180088EC0FF0910E0C6EFD0E0D6E47EC0FF07F
:10152800E20E0C6EFF0E0D6E47EC0FF0C00EE6ECEF
:1015380011F05A0E1518D8A4A4EF0AF0A6EF0AF075
:10154800BAEF0AF0B40E0E6EFF0E0F6E88EC0FF0B5
:10155800B40E0C6EFF0E0D6E47EC0FF0E20E0C6E23
:10156800FF0E0D6E47EC0FF0CCEF0AF0A90E0E6ED1
:10157800FF0E0F6E88EC0FF0A90E0C6EFF0E0D6EAD
:1015880047EC0FF0E20E0C6EFF0E0D6E47EC0FF0FD
:101598000B0E146E260E136E5E0EE82EFED7132E5B
:1015A800FCD7142EFAD7E0EF0AF081A2DEEF0AF09A
:1015B800E0EF0AF0D9EF0AF01200010EE6EC11F0A4
:1015C800800EE6EC11F0BF0E0E6EFE0E0F6E88EC6C
:1015D8000FF0BF0E0C6EFE0E0D6E47EC0FF0E20E14
:1015E8000C6EFF0E0D6E47EC0FF0000E2B6E000E0A
:1015F80009EC11F00BC012F00CC013F0000E156EC0
:101608000A0E146E11EC12F012C018F013C019F083
:10161800000E1B6ECC0E1A6EC6EC0FF018502A6E18
:10162800C60EE6EC11F02AC01FF0206A240E216EC7
:10163800000E226E9AEC0BF02750CFEC11F02C0E16
:10164800CFEC11F02850CFEC11F0560ECFEC11F082
:101658001A0E236EF80EE82EFED7232EFCD700D0E4
:101668002B2AC70E2B643BEF0BF03DEF0BF0FBEF83
:101678000AF0010EE6EC11F0800EE6EC11F0CE0E49
:101688000E6EFE0E0F6E88EC0FF0CE0E0C6EFE0E78
:101698000D6E47EC0FF0E20E0C6EFF0E0D6E47EC70
:1016A8000FF0000E2B6E010E09EC11F00BC012F0BA
:1016B8000CC013F0000E156E0A0E146E11EC12F029
:1016C80012C018F013C019F0000E1B6ECC0E1A6E63
:1016D800C6EC0FF018502A6EC60EE6EC11F02AC0C0
:1016E8001FF0206A240E216E000E226E9AEC0BF079
:1016F8002750CFEC11F02C0ECFEC11F02850CFEC86
:1017080011F0560ECFEC11F01A0E236EF80EE82EDB
:10171800FED7232EFCD700D02B2AC70E2B6497EFB9
:101728000BF099EF0BF057EF0BF012001FC018F0F9
:1017380020C019F0270E1B6E100E1A6EC6EC0FF0A3
:101748001850300F21C0D9FF22C0DAFFDF6E20EE1B
:1017580001F02150D9262250DA22270E0E6E100EE3
:101768000D6E1FC00BF020C00CF0A6EC10F00BC0E3
:1017780018F00CC019F0030E1B6EE80E1A6EC6ECBA
:101788000FF01850300FDF6E20EE02F02150D926EE
:101798002250DA22030E0E6EE80E0D6E1FC00BF0FB
:1017A80020C00CF0A6EC10F00BC018F00CC019F01B
:1017B800000E1B6E640E1A6EC6EC0FF01850300F38
:1017C800DF6E20EE03F02150D9262250DA22000ED7
:1017D8000E6E640E0D6E1FC00BF020C00CF0A6EC50
:1017E80010F00BC018F00CC019F0000E1B6E0A0E9A
:1017F8001A6EC6EC0FF01850300FDF6E20EE04F0B2
:101808002150D9262250DA221FC00BF020C00CF03C
:10181800000E0E6E0A0E0D6EA6EC10F00B50300F77
:10182800DF6E20EE05F02150D9262250DA22000E74
:10183800DF6E1200010EE6EC11F0800EE6EC11F0FE
:10184800440E0E6EFF0E0F6E88EC0FF0440E0C6EF9
:10185800FF0E0D6E47EC0FF0E20E0C6EFF0E0D6ED4
:1018680047EC0FF00F0EC16E000E156E50EF0CF026
:10187800200E806E67EF0CF0100E806E67EF0CF094
:10188800080E806E67EF0CF0040E806E67EF0CF0A8
:101898003C0E806E67EF0CF01550000AD8B43CEF90
:1018A8000CF0010AD8B440EF0CF0030AD8B444EFA6
:1018B8000CF0010AD8B448EF0CF0070AD8B44CEF82
:1018C8000CF067EF0CF0000E166E1650A1EC0CF041
:1018D800836E030E146E080E136E770EE82EFED775
:1018E800132EFCD7142EFAD700F0162A0F0E166402
:1018F80080EF0CF082EF0CF069EF0CF0152A040E63
:10190800156489EF0CF08BEF0CF050EF0CF0080E1B
:10191800A1EC0CF0836E0B0E146E260E136E5E0E89
:10192800E82EFED7132EFCD7142EFAD7000E806EA1
:101938000B0EC16E000E836E12000B6ED7EF0CF00B
:101948003F0E1AEF0DF0060E1AEF0DF05B0E1AEFB0
:101958000DF04F0E1AEF0DF0660E1AEF0DF06D0E2A
:101968001AEF0DF07D0E1AEF0DF0070E1AEF0DF0BD
:101978007F0E1AEF0DF06F0E1AEF0DF0770E1AEFBB
:101988000DF07C0E1AEF0DF0580E1AEF0DF05E0EEA
:101998001AEF0DF0790E1AEF0DF0710E1AEF0DF027
:1019A800000E1AEF0DF00B50000AD8B4A4EF0CF09B
:1019B800010AD8B4A7EF0CF0030AD8B4AAEF0CF0C8
:1019C800010AD8B4ADEF0CF0070AD8B4B0EF0CF0A8
:1019D800010AD8B4B3EF0CF0030AD8B4B6EF0CF090
:1019E800010AD8B4B9EF0CF00F0AD8B4BCEF0CF068
:1019F800010AD8B4BFEF0CF0030AD8B4C2EF0CF058
:101A0800010AD8B4C5EF0CF0070AD8B4C8EF0CF037
:101A1800010AD8B4CBEF0CF0030AD8B4CEEF0CF01F
:101A2800010AD8B4D1EF0CF0D4EF0CF0120046EC58
:101A380012F0D00E70EC10F0000E70EC10F046ECC6
:101A480012F0D10E70EC10F0010E00EC0FF07F0BCD
:101A5800106E3A0E386E105061EC12F0396E10505C
:101A68006DEC12F03A6E000E3B6E010E00EC0FF0BA
:101A78007F0B106E3A0E356E105061EC12F0366E18
:101A880010506DEC12F0376E010E00EC0FF03F0BAA
:101A9800106E105061EC12F0336E10506DEC12F0B5
:101AA800346E010E00EC0FF0010E00EC0FF03F0B4E
:101AB800106E105061EC12F03D6E10506DEC12F08B
:101AC8003E6E010E00EC0FF01F0B106E2F0E3F6ED6
:101AD800105061EC12F0406E10506DEC12F0416E37
:101AE800000E00EC0FF0106E2F0E426E105061ECDD
:101AF80012F0436E10506DEC12F0446E000E456EFD
:101B08003CEC12F01200010EE6EC11F0800EE6EC4F
:101B180011F0EE0E0E6EFF0E0F6E88EC0FF0EE0E4B
:101B28000C6EFF0E0D6E47EC0FF0E20E0C6EFF0E02
:101B38000D6E47EC0FF0ACEC11F01BEC0DF0C00E85
:101B4800E6EC11F03D0E0E6E000E0F6E88EC0FF0F5
:101B58003D0E0C6E000E0D6E47EC0FF0E20E0C6E93
:101B6800FF0E0D6E47EC0FF0150E146E4B0E136E34
:101B7800BE0EE82EFED7132EFCD7142EFAD700D0AF
:101B8800000E156E1BEC0DF0C00EE6EC11F0330ED6
:101B98000E6E000E0F6E88EC0FF0330E0C6E000EFA
:101BA8000D6E47EC0FF0E20E0C6EFF0E0D6E47EC5B
:101BB8000FF00B0E146E260E136E5E0EE82EFED777
:101BC800132EFCD7142EFAD7152A090E1564EFEF39
:101BD8000DF0F1EF0DF0C6EF0DF012009490969015
:101BE800010EE6EC11F0800EE6EC11F0280E0E6EF8
:101BF800FF0E0F6E88EC0FF0280E0C6EFF0E0D6EA8
:101C080047EC0FF0E20E0C6EFF0E0D6E47EC0FF076
:101C1800000E156E8270060E146E130E136EAE0E45
:101C2800E82EFED7132EFCD7142EFAD7152A040E49
:101C3800156421EF0EF023EF0EF00EEF0EF08290F8
:101C4800010EE6EC11F0800EE6EC11F0360E0E6E89
:101C5800FF0E0F6E88EC0FF0360E0C6EFF0E0D6E39
:101C680047EC0FF0E20E0C6EFF0E0D6E47EC0FF016
:101C7800000E156E8470060E146E130E136EAE0EE3
:101C8800E82EFED7132EFCD7142EFAD7152A040EE9
:101C9800156451EF0EF053EF0EF03EEF0EF0849006
:101CA8001200000E936E010EE6EC11F0830EE6ECC6
:101CB80011F0D20E0E6EFF0E0F6E88EC0FF0D20EE2
:101CC8000C6EFF0E0D6E47EC0FF0E20E0C6EFF0E61
:101CD8000D6E47EC0FF0000E156E010E166E16C055
:101CE80081FF16C083FF030E146E080E136E770E65
:101CF800E82EFED7132EFCD7142EFAD700F0165074
:101D0800020DF3CF16F01650D8A48DEF0EF08FEF1A
:101D18000EF073EF0EF0152A020E156496EF0EF012
:101D280098EF0EF071EF0EF0000E816E000E836ECC
:101D3800000E166EFF0E811AFF0E831A030E146E24
:101D4800080E136E770EE82EFED7132EFCD7142E2E
:101D5800FAD700F0162A030E1664B5EF0EF0B7EFA7
:101D68000EF09EEF0EF01200000E0F6E000E0E6EBB
:101D7800ABB4C1EF0EF0C3EF0EF0CAEF0EF0ABA29A
:101D8800C8EF0EF0CAEF0EF0D9EF0EF0AB98AB88A3
:101D9800D9EF0EF0340E0D6EF20EE82EFED70D2E92
:101DA800FCD7140E0E26000E0F220B500E5C0C50A2
:101DB8000F58D8A0E2EF0EF0E4EF0EF0EDEF0EF0C2
:101DC8000B500C10D8A4EBEF0EF0EDEF0EF0F4EF83
:101DD8000EF09EAAF2EF0EF0F4EF0EF0CEEF0EF03A
:101DE8009EAAF9EF0EF0FBEF0EF0FEEF0EF0AE50EC
:101DF800FFEF0EF0A50E12000D6E000E0E6E82960D
:101E080072EC12F094888288000E0F6E828672EC53
:101E180012F00F5007080B6E82B815EF0FF019EF8C
:101E28000FF00C6A0C2A1AEF0FF00C6A0B2A1FEF3E
:101E38000FF0D8900C360B2E1DEF0FF00C500E1231
:101E4800829672EC12F00F2A070E0F642EEF0FF035
:101E580030EF0FF00AEF0FF094980D50D8B437EF29
:101E68000FF039EF0FF03CEF0FF082983DEF0FF0D5
:101E7800828872EC12F0828672EC12F0829672EC12
:101E880012F00E501200000E116E000E106E68EF68
:101E98000FF010500C240E6E11500D200F6E0EC056
:101EA800F6FF0FC0F7FF000EF86E0F0EF76403D0B1
:101EB8000800F55005D0F6CFE9FFF7CFEAFFEF505D
:101EC80031EC12F0104A112A10500C240E6E1150E9
:101ED8000D200F6E0EC0F6FF0FC0F7FF000EF86E54
:101EE8000F0EF76403D00800F55005D0F6CFE9FFD0
:101EF800F7CFEAFFEF500009D8A485EF0FF087EF7E
:101F08000FF04DEF0FF01200000E126EA6EF0FF05B
:101F180012500E24106E000E0F20116E10C0F6FF26
:101F280011C0F7FF000EF86E0F0EF76403D008001B
:101F3800F55005D0F6CFE9FFF7CFEAFFEF50CFEC29
:101F480011F0122A12500E24106E000E0F20116E7E
:101F580010C0F6FF11C0F7FF000EF86E0F0EF76401
:101F680003D00800F55005D0F6CFE9FFF7CFEAFF18
:101F7800EF500009D8A4C3EF0FF0C5EF0FF08CEFB6
:101F88000FF01200000E1D6E000E1C6E1A501B1072
:101F9800D8B4D1EF0FF0D3EF0FF0FBEF0FF0010E35
:101FA8001E6EDBEF0FF0D8901A361B361E2A1BAEBA
:101FB800E0EF0FF0E2EF0FF0D7EF0FF0D8901C36FC
:101FC8001D361A50185C1B501958D8A0EEEF0FF0A8
:101FD800F0EF0FF0F5EF0FF01A50185E1B50195A7A
:101FE8001C80D8901B321A321E2EE2EF0FF01CC054
:101FF80018F01DC019F01200000E066E000E056ED6
:1020080003500410D8B40BEF10F00DEF10F035EFBB
:1020180010F0010E076E15EF10F0D8900336043655
:10202800072A04AE1AEF10F01CEF10F011EF10F0B1
:10203800D890053606360350015C04500258D8A0E3
:1020480028EF10F02AEF10F02FEF10F00350015E88
:102058000450025A0580D89004320332072E1CEF30
:1020680010F005C001F006C002F012001150010B7B
:10207800146E10C013F046EC12F01450D8B447EFA9
:1020880010F049EF10F04EEF10F0A20E70EC10F0C7
:1020980051EF10F0A00E70EC10F0135070EC10F02F
:1020A8003CEC12F046EC12F01450D8B45EEF10F08D
:1020B80060EF10F065EF10F0A30E70EC10F068EF11
:1020C80010F0A10E70EC10F0000E00EC0FF0126E84
:1020D8003CEC12F0125012000D6E829672EC12F067
:1020E800000E0E6E0E5007080B6E0DC00CF00B2A7A
:1020F80080EF10F0D8900C320B2E7EEF10F0010E0E
:102108000C160C3A82500C18EF0B0C18826E828653
:1021180072EC12F0829672EC12F00E2A070E0E6420
:1021280098EF10F09AEF10F076EF10F0948872ECB8
:1021380012F0828672EC12F082969498828872EC81
:1021480012F012000D500E10D8B4ADEF10F0AFEF32
:1021580010F0D3EF10F0010E0F6EB7EF10F0D8901B
:102168000D360E360F2A0EAEBCEF10F0BEEF10F093
:10217800B3EF10F00D500B5C0E500C58D8A0C7EF01
:1021880010F0C9EF10F0CDEF10F00D500B5E0E50AF
:102198000C5AD8900E320D320F2EBEEF10F00BC035
:1021A8000BF00CC00CF0120084928494340E0E6E66
:1021B800F20EE82EFED70E2EFCD78482380EE6ECFF
:1021C80011F00D0E0E6EFC0EE82EFED70E2EFCD76B
:1021D800380EE6EC11F0030E0E6E980EE82EFED7C0
:1021E8000E2EFCD7380EE6EC11F0080EE6EC11F0D6
:1021F8000F0EE6EC11F0010EE6EC11F0380EE6ECED
:1022080011F0800EE6EC11F01200116E11C00DF005
:102218000D460D46C2500D18C30B0D18C26E0D0E9B
:10222800E82EFED700F0C282C2B21DEF11F01FEFF8
:1022380011F018EF11F0C3CF0DF0060E0E6ED89006
:102248000D320E2E23EF11F00D50C4CF0FF0106A8F
:10225800D8900F361036D8900F3610360F100B6EF8
:1022680010500C6E12001050010B136E0FC014F0BA
:1022780046EC12F01350D8B444EF11F046EF11F0C9
:102288004BEF11F0A20E70EC10F04EEF11F0A00E13
:1022980070EC10F0145070EC10F0115070EC10F05D
:1022A8003CEC12F01A0E126EF80EE82EFED7122E23
:1022B800FCD700D01200060032063250D8A467EFCF
:1022C80011F069EF11F07FEF11F0CF50086ECE508A
:1022D800016E08C002F0000E046E070E036E00ECDB
:1022E80010F001C030F002C031F07D0E326E000EE9
:1022F800CF6E000ECE6EF294000ED76E060ED66E1E
:1023080047921100010EE6EC11F0800EE6EC11F098
:10231800F70E0E6EFF0E0F6E88EC0FF0F70E0C6EB8
:10232800FF0E0D6E47EC0FF0E20E0C6EFF0E0D6EF9
:1023380047EC0FF08292060E146E130E136EAE0E5B
:10234800E82EFED7132EFCD7142EFAD7828212005D
:1023580046EC12F0D00E70EC10F0000E70EC10F09D
:10236800340E70EC10F0460E70EC10F0550E70EC58
:1023780010F0060E70EC10F0210E70EC10F0020E4A
:1023880070EC10F0250E70EC10F0000E70EC10F0F0
:102398003CEC12F012000D6E84820D507CEC12F0B1
:1023A8008484080E0C6ECA0EE82EFED70C2EFCD7BD
:1023B8008492080E0C6ECA0EE82EFED70C2EFCD79F
:1023C800848212000D6E84820D507CEC12F084948D
:1023D800080E0C6ECA0EE82EFED70C2EFCD784927F
:1023E800080E0C6ECA0EE82EFED70C2EFCD784827F
:1023F80012000C6E0CC0A9FF0BC0A8FFA684550ED6
:10240800A76EAA0EA76EA682A6B20DEF12F00FEF66
:1024180012F008EF12F0A694120012501402F3CF33
:1024280016F0F4CF17F012501502F3501726135078
:102438001402F350172616C012F017C013F012003A
:1024480000EE30F0170EEE6AE806FDE1479047927D
:10245800000EF86E000185EF07F00B6E0BC0ADFFA4
:10246800ACA239EF12F03BEF12F034EF12F0120089
:1024780072EC12F08298828672EC12F0828872EC0A
:1024880012F0120072EC12F08288828672EC12F05E
:10249800829872EC12F01200330EAF6EAC84AC9CD2
:1024A800AC8AAC98AB8EAB9CAB881200010EC26EA6
:1024B8000B0EC16E010EC06E12000B6E0B380F0BA7
:1024C8000F0B300F12000B6E0BC0A9FFA680A8508F
:1024D80012000B6E0B500F0B300F12000D0EE82E72
:1024E800FED700F012009496949882868288120093
:0824F8000B6E0BC083FF120004
:10FD280000080402010D0A2050696373696D6C6153
:10FD3800620D0A20546573742053657269616C20E2
:10FD480054580D0A005475726E204F66662052454D
:10FD58004C3120444950002028593D524230204E11
:10FD68003D52423129203F005475726E204F66661D
:10FD78002052544320444950005475726E204F6EEF
:10FD880020616C6C204449500054657374204545CB
:10FD980050524F4D20494E540054657374204545C8
:10FDA80050524F4D204558540020524230202020B8
:10FDB80020202020202020002052423120202020F6
:10FDC80020202020202000205242322020202020E5
:10FDD80020202020200020524233202020202020D4
:10FDE80020202020002052423420202020202020C3
:10FDF80020202000205242352020202020202020B2
:10FE080020200050726573732E203020202020207F
:10FE1800200050726573732E20312020202020206E
:10FE28000050726573732E2032202020202020007D
:10FE380050726573732E203320202020202000501C
:10FE4800726573732E2034202020202020005072E9
:10FE58006573732E203520202020202000507265E5
:10FE680073732E20362020202020200050726573C6
:10FE7800732E2037202020202020005072657373B5
:10FE88002E20382020202020200050726573732EE9
:10FE980020392020202020200050726573732E20E6
:10FEA8003C2020202020200050726573732E203EB5
:10FEB80020202020202000205465737420414443D2
:10FEC8002028503129002054657374204144432070
:10FED8002850322900546573742053657269616C27
:10FEE80020525800546573742053657269616C2000
:10FEF8005458002020205465737420436F6F6C653C
:10FF080072002020205465737420486561746572FE
:10FF180000202054657374205377697463687300F4
:10FF2800546573742052656C6179312031005465D1
:10FF380073742052656C617932203200202020547D
:10FF480065737420372053656700205069637369AF
:10FF58006D4C61620D0A0020202054657374205492
:10FF6800454D5000205072657353205245534554F7
:10FF78000054657374204B657974706164002020A7
:10FF88002054657374204C43440054657374204BAB
:10FF980065797061640050726573732E2052423126
:10FFA800002020202020204552524F0020202020D1
:10FFB8002020204F4B00202020202020456E640068
:10FFC800202020202020204F6B0054657374204C83
:10FFD800454473002054797065210D0A0039363084
:10FFE8003020384E31005465737420525443002039
:08FFF800202042656570000045
:020000040020DA
:08000000FFFFFFFFFFFFFFFF00
:020000040030CA
:0E000000FF02181EFF8180FF0FC00FE00F40AF
:0200000400F00A
:1000000000112233445566778899AABBCCDDEEFFF8
:00000001FF
