:020000040000FA
:1000000000F056EF00F0FFFF5982FFFFFACF4BF0F0
:10001000FBCF4CF071EF06F05980FFFFD8CF31F0E5
:10002000E8CF32F0E0CF33F0FACF34F0FBCF35F049
:10003000E9CF36F0EACF37F0E1CF38F0E2CF39F050
:10004000D9CF3AF0DACF3BF0F3CF3CF0F4CF3DF02C
:10005000F6CF3EF0F7CF3FF0F8FFFFF0F5CF41F0DD
:1000600000F041C0F5FF40C0F8FF3FC0F7FF3EC0C1
:10007000F6FF3DC0F4FF3CC0F3FF3BC0DAFF3AC0DF
:10008000D9FF39C0E2FF38C0E1FF37C0EAFF36C010
:10009000E9FF35C0FBFF34C0FAFF33C0E0FF32C0D8
:1000A000E8FF31C0D8FF59901000FFFFF6EF09F0CC
:1000B000FFFF9268000E936E010E946E000E956E17
:1000C000000E966E75EC08F04AEC0AF003EC0AF0AC
:1000D00043EC0AF0060EC16E929A808A010EC9ECBA
:1000E00009F0800EC9EC09F09F0E0001866F7F0EAB
:1000F0000001876F3FEC08F0400EC9EC09F0110ECB
:10010000AEEC09F0190EAEEC09F0150EAEEC09F0EC
:10011000130EAEEC09F0130EAEEC09F0150EAEECBA
:1001200009F0190EAEEC09F0110EAEEC09F00E0E4E
:10013000AEEC09F0110EAEEC09F00E0EAEEC09F0CB
:10014000050EAEEC09F00E0EAEEC09F0140EAEEC9E
:1001500009F00A0EAEEC09F0110EAEEC09F0C00E7B
:10016000C9EC09F0000E0001A36F0F0E0001A3659A
:1001700001D00FD00001A351010BAEEC09F0000E2D
:100180000001816F640E806F6BEC09F00001A32BFE
:10019000ECD7809A010EC9EC09F0800EC9EC09F089
:1001A0009F0E0001866F7F0E0001876F3FEC08F005
:1001B000200E0001A36F7F0E0001A36501D018D0AF
:1001C000A3C098F00F0E00019817D8A403D0C00E5A
:1001D000C9EC09F00001A351AEEC09F0000E0001DA
:1001E000816F320E806F6BEC09F00001A32BE3D717
:1001F000000E0001816F640E806F6BEC09F0010E40
:10020000C9EC09F0800EC9EC09F09F0E0001866F61
:100210007F0E0001876F3FEC08F0C00EC9EC09F0BB
:10022000E10E0001866F7F0E0001876F3FEC08F042
:10023000010E0001816FF40E806F6BEC09F0010E6E
:10024000C9EC09F0800EC9EC09F0580E0001866F68
:100250007F0E0001876F3FEC08F0818E000E0001D9
:10026000A36F030E0001A36501D02BD0A3C098F0AB
:10027000100E0001996F0001982B03D00001D89057
:1002800099370001982FFAD700019951816E000E1D
:100290000001A26F0F0E0001A26501D00FD0000176
:1002A000A25116EC06F0836E000E0001816FC80E9D
:1002B000806F6BEC09F00001A22BECD70001A32B9F
:1002C000D0D7000E836E010EC9EC09F0830EC9EC85
:1002D00009F0C20E0001866F7F0E0001876F3FECB0
:1002E00008F0000E0001A26F020E0001A26501D00D
:1002F0001AD0010E0001A36F0F0E0001A36501D0FB
:100300000FD0A3C081FF000E0001816FC80E806F67
:100310006BEC09F00001A351020DF3CFA3F0ECD771
:100320000001A22BE1D7000E816E000E0001A36F29
:10033000030E0001A36501D00CD00F0E811A000E30
:100340000001816FC80E806F6BEC09F00001A32BD8
:10035000EFD7010EC9EC09F0800EC9EC09F0670E69
:100360000001866F7F0E0001876F3FEC08F0000EE2
:100370000001A26F1DD00F0E936E81B002D000015C
:10038000A28181B202D00001A28381B402D0000117
:10039000A28581B602D00001A287000E936EA2C092
:1003A00081FF000E0001816F0A0E806F6BEC09F077
:1003B0000001A2510F0B0F0AD8A4DDD7000E816EE9
:1003C000010EC9EC09F0800EC9EC09F0CA0E00015B
:1003D000866F7E0E0001876F3FEC08F0C00EC9ECFF
:1003E00009F01C0E0001866F7F0E0001876F3FEC45
:1003F00008F0030E936E81B081A201D0FCD781B0CA
:100400004ED00A0E2CEC0AF00001A26F0001A2519E
:10041000AEEC09F0A50E0001806F0A0EE4EC09F0C5
:100420005A0E0001806F0A0EE4EC09F00A0E2CEC63
:100430000AF00001A36FA2C080F00A0EE4EC09F0FC
:10044000010EC9EC09F0800EC9EC09F0CA0E0001DA
:10045000866F7E0E0001876F3FEC08F0C00EC9EC7E
:1004600009F05A0E0001A319D8A409D0D70E000133
:10047000866F7F0E0001876F3FEC08F008D0B70E43
:100480000001866F7F0E0001876F3FEC08F0030EBE
:100490000001816FE80E806F6BEC09F002D081A241
:1004A000FED7000E936E000E816E010EC9EC09F0AE
:1004B000800EC9EC09F0DB0E0001866F7E0E000194
:1004C000876F3FEC08F0C00EC9EC09F01C0E00016C
:1004D000866F7F0E0001876F3FEC08F0030E936E6E
:1004E00081B081A201D0FCD781B062D0000E0001A2
:1004F000866F0A0E856FDBEC08F00001A26F000129
:10050000A251AEEC09F0000E00018B6F0A0E8A6F4B
:10051000A50E00018C6F12EC07F0000E00018B6F2E
:100520000A0E8A6F5A0E00018C6F12EC07F0000E53
:100530000001866F0A0E856FDBEC08F00001A36FE7
:10054000000E00018B6F0A0E8A6FA2C08CF012ECB5
:1005500007F0010EC9EC09F0800EC9EC09F0DB0EC2
:100560000001866F7E0E0001876F3FEC08F0C00E21
:10057000C9EC09F05A0E0001A319D8A409D0D70E6E
:100580000001866F7F0E0001876F3FEC08F008D0F6
:10059000B70E0001866F7F0E0001876F3FEC08F0F9
:1005A000030E0001816FE80E806F6BEC09F002D042
:1005B00081A2FED7000E936E000E816E010EC9EC73
:1005C00009F0800EC9EC09F0760E0001866F7F0EEF
:1005D0000001876F3FEC08F0C00EC9EC09F01C0E5B
:1005E0000001866F7F0E0001876F3FEC08F0030E5D
:1005F000936E81B081A201D0FCD781B08DD0948E52
:10060000949C010EC9EC09F0800EC9EC09F00C0EA7
:100610000001866F7F0E0001876F3FEC08F0C40E6B
:10062000C9EC09F0F50E0001866F7F0E0001876F9F
:100630003FEC08F0A90E0001816F7E0E0001826F71
:1006400009EC08F0000E0001A36F030E0001A36582
:1006500001D010D00001A351300F23EC0AF0920E0C
:100660000001816F7F0E0001826F09EC08F000012C
:10067000A32BEBD7030E0001816FE80E806F6BECAC
:1006800009F0010EC9EC09F0800EC9EC09F0FC0E6E
:100690000001866F7E0E0001876F3FEC08F0AC0E04
:1006A0000001816F7F0E0001826F09EC08F0000EDF
:1006B0000001A36F1F0E0001A36501D026D0A3C0C7
:1006C00098F00F0E00019817D8A40BD0C00EC9ECFB
:1006D00009F0D40E0001816F7F0E0001826F09ECDA
:1006E00008F0070E0001866FD00E856F0EEC09F042
:1006F0000001A26F0001A251AEEC09F00001A2516D
:1007000023EC0AF00001A32BD5D7000E0001816F66
:10071000640E806F6BEC09F0020EC16E010EC9EC25
:1007200009F0800EC9EC09F0EC0E0001866F7E0E18
:100730000001876F3FEC08F0000E0001A36FC70EA9
:100740000001A36501D044D0010E93EC07F080C0F6
:1007500087F081C088F0000E00018A6F0A0E896F51
:1007600091EC09F087C08DF088C08EF0000E00017A
:10077000906FCC0E8F6F55EC07F000018D5100018A
:10078000A26FC60EC9EC09F0A2C094F00001956BEF
:100790009C0E0001966F000E0001976F7EEC05F035
:1007A00000019F51AEEC09F02C0EAEEC09F00001F7
:1007B000A051AEEC09F0560EAEEC09F0000E0001AF
:1007C000816F0A0E806F6BEC09F00001A32BB7D785
:1007D000010EC9EC09F0800EC9EC09F0840E00018D
:1007E000866F7F0E0001876F3FEC08F0000E00015E
:1007F000A36F630E0001A36501D04FD0000E93ECF0
:1008000007F080C087F081C088F0000E00018A6F79
:100810000A0E896F91EC09F00001D8908833873374
:100820000001D890883387330001D890883387330C
:100830006A0E0001872500019A6FFF0E00018821D2
:1008400000019B6FC50EC9EC09F09AC094F09BC0E3
:1008500095F09C0E0001966F000E0001976F7EECE4
:1008600005F000019E51AEEC09F000019F51AEEC85
:1008700009F02C0EAEEC09F00001A051AEEC09F02D
:10088000430EAEEC09F0000E0001816F0A0E806F7E
:100890006BEC09F00001A32BACD7010EC9EC09F0F9
:1008A000800EC9EC09F02B0E0001866F7F0E00014F
:1008B000876F3FEC08F08284000E0001A36F630E87
:1008C0000001A36501D04FD0000E93EC07F080C06B
:1008D00087F081C088F0000E00018A6F0A0E896FD0
:1008E00091EC09F00001D890883387330001D8904B
:1008F000883387330001D890883387336A0E00012C
:10090000872500019A6FFF0E0001882100019B6F6F
:10091000C50EC9EC09F09AC094F09BC095F09C0EEE
:100920000001966F000E0001976F7EEC05F000014C
:100930009E51AEEC09F000019F51AEEC09F02C0E77
:10094000AEEC09F00001A051AEEC09F0430EAEECA4
:1009500009F0000E0001816F0A0E806F6BEC09F048
:100960000001A32BACD78294010EC9EC09F0800ED4
:10097000C9EC09F03A0E0001866F7F0E0001876F07
:100980003FEC08F0D59AD596D58CD590D592D584E4
:10099000D58EF28ACD82CD9ACD98F294000ED76E84
:1009A000060ED66E7D0E306EF28E000ECF6E000EED
:1009B000CE6ECD808282000E0001A36F950E0001E5
:1009C000A36501D077D0000E93EC07F080C087F0CC
:1009D00081C088F0000E00018A6F0A0E896F91ECC9
:1009E00009F00001D890883387330001D89088330C
:1009F00087330001D890883387336A0E000187253A
:100A000000019A6FFF0E0001882100019B6FC20E4A
:100A1000C9EC09F09AC094F09BC095F09C0E0001BF
:100A2000966F000E0001976F7EEC05F000019E515D
:100A3000AEEC09F000019F51AEEC09F02C0EAEECCB
:100A400009F00001A051AEEC09F0430EAEEC09F044
:100A5000C80EC9EC09F02EC094F02FC095F09C0E82
:100A60000001966F000E0001976F7EEC05F000010B
:100A70009D51AEEC09F000019E51AEEC09F0000171
:100A80009F51AEEC09F00001A051AEEC09F0520EFE
:100A9000AEEC09F0500EAEEC09F0530EAEEC09F0DE
:100AA000000E0001816F0A0E806F6BEC09F00001EF
:100AB000A32B84D7F29E8292010EC9EC09F0800E1E
:100AC000C9EC09F0EB0E0001866F7F0E0001876F05
:100AD0003FEC08F0C00EC9EC09F0490E0001866F2A
:100AE0007F0E0001876F3FEC08F0CD0E0001816F93
:100AF0007F0E0001826F09EC08F0FFD7FFFF94C062
:100B00008DF095C08EF0270E0001906F100E8F6F44
:100B100055EC07F000018D51300F96C0D9FF97C0FA
:100B2000DAFFDF6E000120EE01F09651D9269751D1
:100B3000DA22270E0001836F100E826F94C080F0BE
:100B400095C081F0A8EC08F080C08DF081C08EF0D7
:100B5000030E0001906FE80E8F6F55EC07F0000157
:100B60008D51300FDF6E000120EE02F09651D92634
:100B70009751DA22030E0001836FE80E826F94C052
:100B800080F095C081F0A8EC08F080C08DF081C0A5
:100B90008EF0000E0001906F640E8F6F55EC07F021
:100BA00000018D51300FDF6E000120EE03F09651F1
:100BB000D9269751DA22000E0001836F640E826FEE
:100BC00094C080F095C081F0A8EC08F080C08DF052
:100BD00081C08EF0000E0001906F0A0E8F6F55ECF1
:100BE00007F000018D51300FDF6E000120EE04F0A0
:100BF0009651D9269751DA2294C080F095C081F0A1
:100C0000000E0001836F0A0E826FA8EC08F000014D
:100C10008051300FDF6E000120EE05F09651D9268D
:100C20009751DA22000EDF6E1200FFFFFFFF000176
:100C3000806F22D03F0E53D0060E51D05B0E4FD0A6
:100C40004F0E4DD0660E4BD06D0E49D07D0E47D065
:100C5000070E45D07F0E43D06F0E41D0770E3FD0A8
:100C60007C0E3DD0580E3BD05E0E39D0790E37D079
:100C7000710E35D0000E33D000018051000AD8B477
:100C8000D9D7010AD8B4D8D7030AD8B4D7D7010A1C
:100C9000D8B4D6D7070AD8B4D5D7010AD8B4D4D790
:100CA000030AD8B4D3D7010AD8B4D2D70F0AD8B41C
:100CB000D1D7010AD8B4D0D7030AD8B4CFD7010A04
:100CC000D8B4CED7070AD8B4CDD7010AD8B4CCD778
:100CD000030AD8B4CBD7010AD8B4CAD7CBD71200ED
:100CE000FFFFFFFFE9CF4DF0EACF4EF0E1CF4FF02D
:100CF000E2CF50F0D9CF51F0DACF52F0F3CF53F02A
:100D0000F4CF54F0F6CF55F0F7CF56F0F8CF57F0B8
:100D1000F5CF58F030063050D8A418D0CD90CF5031
:100D2000496ECE50426E49C043F0000E456E070E2C
:100D3000446E40EC09F042C02EF043C02FF07D0E0F
:100D4000306E000ECF6E000ECE6ECD80F294000E8F
:100D5000D76E060ED66E58C0F5FF57C0F8FF56C0C6
:100D6000F7FF55C0F6FF54C0F4FF53C0F3FF52C065
:100D7000DAFF51C0D9FF50C0E2FF4FC0E1FF4EC0C3
:100D8000EAFF4DC0E9FF4CC0FBFF4BC0FAFF599290
:100D90001100FFFFFFFF0001826F000E0001836F53
:100DA000829694888288000E0001846F070E0001ED
:100DB000846501D024D082863CEC0AF00001845185
:100DC00000080001806F070E0001802782A804D070
:100DD0000001816B812B02D00001816B0001802B0F
:100DE00003D00001D89081370001802FFAD700018D
:100DF00081510001831382960001842BD7D79498E8
:100E0000000182510001D8B402D0829801D08288BA
:100E10003CEC0AF082863CEC0AF082960001835199
:100E20001200FFFFFFFF8CC092F00001936B0001E6
:100E30008B51010B00018F6F8AC090F0000E0001F2
:100E4000916F19EC0AF000018F510001D8B404D061
:100E5000A20ECFEC07F003D0A00ECFEC07F00001FC
:100E60009051CFEC07F000019251CFEC07F00FEC5E
:100E70000AF00001912B8AC085F08BC086F0DBEC74
:100E800008F000018D6F8E6B0001925100018D19E9
:100E900006E10001935100018E19D8B404D0090E67
:100EA00000019165CED71200FFFFFFFF000E000189
:100EB000936F000E926F00018F5100019011D8B412
:100EC0002CD0010E0001916F06D00001D8908F3711
:100ED00090370001912B000190AFF7D70001D89017
:100EE0009237933700018F5100018D5D00019051C1
:100EF00000018E59D8A00AD000018F5100018D5FEA
:100F00000001905100018E5B000192810001D89098
:100F100090338F330001912FE1D792C08DF093C0B1
:100F20008EF01200FFFFFFFF0001866F07D0010E59
:100F300003D0090E01D0110EC26E0BD000018651F4
:100F4000000AD8B4F4D7010AD8B4F3D7030AD8B446
:100F5000F2D7C284C2B4FED7C3CF82F0060E00011E
:100F6000836F0001D89082330001832FFAD70001EC
:100F70008251C4CF84F00001856B0001D890843782
:100F800085370001D890843785370001841100012E
:100F9000806F000185510001816F1200FFFFFFFF8C
:100FA0000001826F8296000E0001836F070E000120
:100FB000836501D025D00001835100080001806FB6
:100FC000070E0001802782C081F00001802B03D032
:100FD0000001D89081330001802FFAD7010E000163
:100FE00081170001813B825000018119EF0B8119AB
:100FF000826E82863CEC0AF082960001832BD6D763
:1010000082883CEC0AF082863CEC0AF08296120060
:10101000FFFFFFFF000E0001856F18D00001855112
:10102000010D81C083F082C084F0F350000183275A
:10103000F4500001842383C0F6FF84C0F7FF08004A
:10104000FFFFF55023EC0AF00001852B00018551CC
:10105000010D81C083F082C084F0F350000183272A
:10106000F4500001842383C0F6FF84C0F7FF08001A
:10107000FFFFF5500009D8B41200D0D7FFFFFFFFE3
:10108000000E00018A6F18D000018A51010D86C040
:1010900088F087C089F0F35000018827F4500001E0
:1010A000892388C0F6FF89C0F7FF0800FFFFF550CD
:1010B000AEEC09F000018A2B00018A51010D86C0B7
:1010C00088F087C089F0F35000018827F4500001B0
:1010D000892388C0F6FF89C0F7FF0800FFFFF5509D
:1010E0000009D8B41200D0D7FFFFFFFF849284908C
:1010F000000E0001816F140E806F6BEC09F084828A
:10110000380EC9EC09F0000E0001816F050E806FEA
:101110006BEC09F0380EC9EC09F0000E0001816F8C
:10112000010E806F6BEC09F0380EC9EC09F0080E67
:10113000C9EC09F00F0EC9EC09F0010EC9EC09F079
:10114000380EC9EC09F0800EC9EC09F01200FFFF5F
:10115000FFFF0001825100018311D8B426D0010E97
:101160000001846F06D00001D890823783370001D8
:10117000842B000183AFF7D7000182510001805D0D
:101180000001835100018159D8A008D0000182518B
:101190000001805F000183510001815B0001D89054
:1011A000833382330001842FE7D780C080F081C071
:1011B00081F01200FFFFFFFF00018651010B0001CB
:1011C000896F85C088F019EC0AF00001895100018F
:1011D000D8B404D0A20ECFEC07F003D0A00ECFEC11
:1011E00007F000018851CFEC07F019EC0AF000017C
:1011F00089510001D8B404D0A30ECFEC07F003D07E
:10120000A10ECFEC07F0010ECAEC06F00001876FCB
:101210000FEC0AF0000187511200FFFFFFFF000EE4
:101220000001886F000E876FABB402D0ABA20FD065
:10123000AB98AB880CD0000E0001816F140E806F4C
:101240006BEC09F0140E00018727000E88230001C3
:1012500085510001875D0001865100018859D8A0A1
:1012600006D00001855100018611D8A402D09EAAA3
:10127000E2D79EAA02D0AE5001D0A50E1200FFFF09
:10128000FFFF000E476E000E466E44504510D8B466
:101290001CD0010E486E04D0D89044364536482AFA
:1012A00045AEFAD7D890463647364450425C455052
:1012B0004358D8A005D04450425E4550435A46801A
:1012C000D89045324432482EEDD746C042F047C050
:1012D00043F01200FFFFFFFF000E0001836F000EBE
:1012E000826F13D0000E0001846FC70E0001846569
:1012F00001D008D000F000F000F000F000F0000194
:10130000842BF3D70001824B832B00018051000115
:10131000825D0001815100018359D8B01200E2D7EB
:10132000FFFFFFFF0001875100018903F3CF8BF01E
:10133000F4CF8CF00001875100018A03F3500001C3
:101340008C270001885100018903F35000018C278C
:101350008BC087F08CC088F01200FFFFFFFF0001F8
:10136000856F84820001855135EC0AF08480000E7F
:101370000001816F030E806F6BEC09F08492000E08
:101380000001816F030E806F6BEC09F08482120004
:10139000FFFFFFFF0001856F84820001855135EC5E
:1013A0000AF08490000E0001816F030E806F6BECD9
:1013B00009F08492000E0001816F030E806F6BECC8
:1013C00009F084821200FFFFFFFF0001816F81C0DE
:1013D000A9FF80C0A8FFA684550EA76EAA0EA76E0F
:1013E000A682A6B2FED7A6941200FFFF00EE01F07F
:1013F000300EEE6AE806FDE159905992000EF86E43
:10140000000158EF00F0FFFF670EAF6EAC9CAC8A96
:10141000AC98AC84AB8EAB9CAB881200FFFFFFFF97
:10142000828682983CEC0AF082883CEC0AF012003A
:10143000FFFFFFFF828682883CEC0AF082983CEC3A
:101440000AF01200FFFFFFFF0001806F80C0ADFFB8
:10145000ACB21200FDD7FFFFFFFF0001806F80C01C
:10146000A9FFA680A8501200FFFFFFFF0001806FB8
:1014700080C083FF1200FFFFFFFF00F000F000F0CC
:1014800000F01200FFFFFFFF020EC16E410EC26EA0
:101490001200FFFFFFFF9498828682881200FFFFF0
:1014A000FFFFFFFFFFFFFFFFFFFFFFFFFFFFFFFF4C
:1014B000FFFFFFFFFFFFFFFFFFFFFFFFFFFFFFFF3C
:1014C000FFFFFFFFFFFFFFFFFFFFFFFFFFFFFFFF2C
:1014D000FFFFFFFFFFFFFFFFFFFFFFFFFFFFFFFF1C
:107EA000FFFFFFFFFFFFFFFF000D0A205069637314
:107EB000696D6C61620D0A205465737465205365A9
:107EC0007269616C2054580D0A0054657374652002
:107ED000454550524F4D20494E54005465737465CA
:107EE00020454550524F4D2045585400205465734D
:107EF000746520414443202850322900546573742E
:107F0000652053657269616C205258005465737422
:107F1000652053657269616C205458002028733DB8
:107F20005331206E3D533229203F002020205465DC
:107F300073746520415155454300202020546573DA
:107F40007465205245534652002050726573736920
:107F50006F6E652052535400202020546573746561
:107F600020372053656700202054657374652043D3
:107F70006861766573005465737465205365726932
:107F8000616C3F0020202054657374652054454D7A
:107F900050002050696373696D4C61620D0A0020C6
:107FA00020205465737465204C4344002044696765
:107FB000697465210D0A002020202020204552529E
:107FC0004F005465737465204C454473000D0A20BE
:107FD00046494D210D0A00202020202020204F4B13
:107FE00000202020202020204F6B00202020202057
:107FF0002046696D003936303020384E310000009F
:020000040020DA
:10000000FFFFFFFFFFFFFFFFFFFFFFFFFFFFFFFF00
:020000040030CA
:0E000000FF2E0C00FF0181FF0FC00FE00F402C
:0200000400F00A
:10000000FFFFFFFFFFFFFFFFFFFFFFFFFFFFFFFF00
:10001000FFFFFFFFFFFFFFFFFFFFFFFFFFFFFFFFF0
:10002000FFFFFFFFFFFFFFFFFFFFFFFFFFFFFFFFE0
:10003000FFFFFFFFFFFFFFFFFFFFFFFFFFFFFFFFD0
:10004000FFFFFFFFFFFFFFFFFFFFFFFFFFFFFFFFC0
:10005000FFFFFFFFFFFFFFFFFFFFFFFFFFFFFFFFB0
:10006000FFFFFFFFFFFFFFFFFFFFFFFFFFFFFFFFA0
:10007000FFFFFFFFFFFFFFFFFFFFFFFFFFFFFFFF90
:10008000FFFFFFFFFFFFFFFFFFFFFFFFFFFFFFFF80
:10009000FFFFFFFFFFFFFFFFFFFFFFFFFFFFFFFF70
:1000A000FFFFFFFFFFFFFFFFFFFFFFFFFFFFFFFF60
:1000B000FFFFFFFFFFFFFFFFFFFFFFFFFFFFFFFF50
:1000C000FFFFFFFFFFFFFFFFFFFFFFFFFFFFFFFF40
:1000D000FFFFFFFFFFFFFFFFFFFFFFFFFFFFFFFF30
:1000E000FFFFFFFFFFFFFFFFFFFFFFFFFFFFFFFF20
:1000F000FFFFFFFFFFFFFFFFFFFFFFFFFFFFFFFF10
:00000001FF
