:100000000C9462000C948A000C948A000C948A0070
:100010000C948A000C948A000C948A000C948A0038
:100020000C948A000C948A000C948A000C948A0028
:100030000C948A000C948A000C948A000C948A0018
:100040000C946F050C948A000C94DF050C94B90590
:100050000C948A000C948A000C948A000C948A00F8
:100060000C948A000C948A000000000023002600F3
:10007000290000000000240027002A0000000000E2
:10008000250028002B0004040404040404040202D4
:100090000202020203030303030301020408102007
:1000A0004080010204081020010204081020000012
:1000B0000008000201000003040700000000000027
:1000C0000000110611241FBECFEFD8E0DEBFCDBF68
:1000D00027E0A8E7B3E001C01D92A037B207E1F71F
:1000E00013E0A0E0B1E0EEE8F9E102C005900D9266
:1000F000A837B107D9F710E0C2E6D0E004C02197D5
:10010000FE010E94CA09C136D107C9F70E945B06E9
:100110000C94C50C0C940000833081F028F48130DD
:1001200099F08230A1F008958730A9F08830B9F0B5
:100130008430D1F4809180008F7D03C08091800055
:100140008F7780938000089584B58F7702C084B53F
:100150008F7D84BD08958091B0008F7703C080911A
:10016000B0008F7D8093B00008951F93CF93DF93ED
:10017000282F30E0F901E255FF4F8491F901E6564E
:10018000FF4FD491F901EA57FF4FC491CC23C1F03E
:10019000162F81110E948C00EC2FF0E0EE0FFF1F54
:1001A000E458FF4FA591B4919FB7F894111104C082
:1001B0008C91D095D82302C0EC91DE2BDC939FBFAD
:1001C000DF91CF911F910895CF93DF9390E0FC01D1
:1001D000E656FF4F2491FC01EA57FF4F8491882394
:1001E00061F190E0880F991FFC01EE58FF4FC59117
:1001F000D491FC01E458FF4FA591B491611109C05D
:100200009FB7F8948881209582238883EC912E23D0
:100210000BC0623061F49FB7F8948881322F30951B
:1002200083238883EC912E2B2C939FBF06C08FB71E
:10023000F894E8812E2B28838FBFDF91CF9108950A
:100240008E3008F08E508770806480937C0080919F
:100250007A00806480937A0080917A0086FDFCCFDA
:10026000809178002091790090E0922B08953FB71B
:10027000F8948091F6039091F703A091F803B09160
:10028000F90326B5A89B05C02F3F19F00196A11DC3
:10029000B11D3FBFBA2FA92F982F8827820F911D1C
:1002A000A11DB11DBC01CD0142E0660F771F881F63
:1002B000991F4A95D1F708958F929F92AF92BF925E
:1002C000CF92DF92EF92FF926B017C010E94370187
:1002D0004B015C01C114D104E104F104F1F00E946E
:1002E0003701DC01CB0188199909AA09BB09883EAD
:1002F0009340A105B10570F321E0C21AD108E108CD
:10030000F10888EE880E83E0981EA11CB11CC11470
:10031000D104E104F10419F7DDCFFF90EF90DF90F5
:10032000CF90BF90AF909F908F900895CF92DF9223
:10033000EF92FF920F931F93CF93DF936C017A019B
:100340008B01C0E0D0E0CE15DF0581F0D8016D91C2
:100350008D01D601ED91FC910190F081E02DC60157
:100360000995892B11F02196EECF7E01C701DF910F
:10037000CF911F910F91FF90EF90DF90CF90089554
:10038000FC01538D448D252F30E0842F90E0821B9B
:10039000930B541710F0CF96089501970895FC0120
:1003A000918D828D981761F0828DDF01A80FB11DAC
:1003B0005D968C91928D9F5F9F73928F90E00895D0
:1003C0008FEF9FEF08950F931F93CF93DF9306EC6A
:1003D00014E0C0E0D0E02FB7F8948091FA03909138
:1003E000FB03A091FC03B091FD032FBF8093C306D4
:1003F0009093C406A093C506B093C6068BEB96E017
:100400000E94CF0197FF25C02FB7F8948091FA037F
:100410009091FB03A091FC03B091FD032FBF40918D
:10042000C3065091C4066091C5067091C606841B30
:10043000950BA60BB70B4091BF065091C00660917B
:10044000C1067091C20684179507A607B707B0F2D8
:1004500009C0F80181938F012196C43FF1E0DF07C5
:1004600009F0B9CFCE01DF91CF911F910F9108957F
:10047000FC01918D828D981731F0828DE80FF11D6E
:10048000858D90E008958FEF9FEF0895FC01918D89
:10049000228D892F90E0805C9F4F821B91098F7382
:1004A000992708958BEB96E00E94460221E0892B64
:1004B00009F420E0822F0895FC01848DDF01A80F4C
:1004C000B11DA35ABF4F2C91848D90E001968F737C
:1004D0009927848FA689B7892C93A089B1898C919B
:1004E000837080648C93938D848D981306C00288EA
:1004F000F389E02D80818F7D80830895EF92FF92B4
:100500000F931F93CF93DF93EC0181E0888F9B8D36
:100510008C8D981305C0E889F989808185FD26C0F6
:10052000F62E0B8D10E00F5F1F4F0F731127E02E7B
:100530008C8DE8120CC00FB607FCFACFE889F98958
:10054000808185FFF5CFCE010E945C02F1CF8B8DBB
:10055000FE01E80FF11DE35AFF4FF0829FB7F894B8
:100560000B8FEA89FB89808180620AC09FB7F8946B
:10057000EE89FF896083E889F989808183708064CE
:1005800080839FBF81E090E0DF91CF911F910F9119
:10059000FF90EF900895CF93DF93EC01888D88232F
:1005A000C9F0EA89FB89808185FD05C0A889B989E0
:1005B0008C9186FD0FC00FB607FCF5CF808185FFBB
:1005C000F2CFA889B9898C9185FFEDCFCE010E9429
:1005D0005C02E7CFDF91CF91089580E090E0892B16
:1005E00029F00E94520281110C9400000895CF93CB
:1005F000DF93EC0160E08E810E94B50061E08E81A6
:100600000E94B50060E08E810E94B5008BE891E009
:100610000197F1F7DF91CF910895CF92DF92EF929A
:10062000FF920F931F93CF93DF936C017C0187E0C0
:10063000E80EF11CC0E0D0E0062F10E0B8010C2E4F
:1006400002C0759567950A94E2F76170F701819190
:100650007F010E94B5002196C430D10579F7C6010B
:10066000DF91CF911F910F91FF90EF90DF90CF908E
:100670000C94F702CF92DF92EF92FF920F931F93A9
:10068000CF93DF93EC01F62E642F8C810E94B5008E
:100690008D818F3F19F060E00E94B5008F850F2D8E
:1006A00010E084FF25C06E0187E0C80ED11CE12C4C
:1006B000F12CB8010E2C02C0759567950A94E2F7EB
:1006C0006170F60181916F010E94B500FFEFEF1A92
:1006D000FF0A88E0E816F10461F7CE01DF91CF91BF
:1006E0001F910F91FF90EF90DF90CF900C94F70245
:1006F000B80184E0759567958A95E1F7CE010E946F
:100700000D036F2DCE01DF91CF911F910F91FF90BF
:10071000EF90DF90CF900C940D0340E0682F88E5B8
:1007200097E00C943A0381E00E948D038BE39FE1F4
:100730000197F1F70895CF93DF93823028F09091DD
:10074000670798609093670780936B0710926C0718
:1007500080E480936D0780E180936E0780E580934D
:100760006F0761E080915C070E94E40080915D0763
:100770008F3F19F061E00E94E40061E080915E0724
:100780000E94E400C8E5D7E09E01285537408091DB
:10079000670784FD03C084E090E002C088E090E039
:1007A0002196281739072CF461E08E810E94E4001D
:1007B000EBCF8BE39DE00197F1F760E080915C0760
:1007C0000E94B50060E080915E070E94B5008091B4
:1007D0005D078F3F19F060E00E94B50080916707C8
:1007E00084FD20C063E088E597E00E940D03CBE420
:1007F000D6E4CE010197F1F763E088E597E00E9427
:100800000D032197F1F763E088E597E00E940D035F
:1008100083E592E00197F1F762E088E597E00E94B6
:100820000D0315C080620E948D038BE496E401974E
:10083000F1F78091670780620E948D0383E592E063
:100840000197F1F78091670780620E948D03809184
:10085000670780620E948D0384E0809368078CE0C4
:100860000E948D030E94930382E08093690786E0D3
:10087000DF91CF910C948D03843008F083E0909148
:100880006B07891710F08FEF890FE82FF0E0E85A17
:10089000F84F848980680C948D0341E00E943A03EC
:1008A00081E090E00895089580E090E0089510922E
:1008B000BA06E6ECF4E001900020E9F731979F01D9
:1008C000265C3440281B390B621773070CF49B011C
:1008D000FC01EA53FB4FA90141505109CF01865C4D
:1008E00094408417950734F4DF01A20FB31F8C9155
:1008F0008193F4CF08956115710579F0FB010190A2
:100900000020E9F73197AF01461B570BDC01ED9151
:10091000FC910280F381E02D099480E090E008953D
:10092000AF92BF92CF92DF92EF92FF920F931F93FD
:10093000CF93DF9360E472E086EC94E00E94F809C4
:10094000009779F0865C94406DE070E001970E941A
:100950005704F0CF865C94406CE070E001970E94F1
:1009600057046BE472E086EC94E00E94F80900976B
:1009700089F782E3D82E27C0F50110820E946D0905
:100980007C01F501C082BE01685F7F4F600F711F5F
:10099000F8012581022E000C330B20533109D29E21
:1009A000C001D39E900D112442E350E082509C4F31
:1009B0000E94E9092A96BE016E0D7F1DC801865C62
:1009C00094400E94570465E572E086EC94E00E9432
:1009D000F8098C01009771F007969C01C0E0D0E007
:1009E00059012F5F3F4FF501C080FAE3CF1621F286
:1009F0002196F6CFDF91CF911F910F91FF90EF904D
:100A0000DF90CF90BF90AF900895CF92DF92EF929A
:100A1000FF920F931F93CF93DF936C010E94930378
:100A200080E00E943C0486ECE82E84E0F82EF7017A
:100A300061917F01611107C06BE572E088E597E085
:100A40000E947B04FFCF8F01065C1440E80188E51B
:100A500097E00E944D04F70180818D3039F481E0E8
:100A60000E943C04F801EA53FB4F05C0F701818165
:100A70008A30E9F6F4CFCE0101962191222311F0BC
:100A8000EC01F9CFFC01EA53FB4F1082FE01EC535D
:100A9000FB4F219782918D3091F4CA53DB4FBE01F9
:100AA00088E597E00E947B04B601CE010E94E00930
:100AB00021E030E0892B39F020E030E004C0818172
:100AC0008A3039F7EACFC901DF91CF911F910F9199
:100AD000FF90EF90DF90CF9008950E94D0091F9271
:100AE0000F920FB60F9211242F933F938F939F93E2
:100AF000AF93BF938091FA039091FB03A091FC0305
:100B0000B091FD033091F50323E0230F2D3720F43E
:100B10000196A11DB11D05C026E8230F0296A11D57
:100B2000B11D2093F5038093FA039093FB03A093E8
:100B3000FC03B093FD038091F6039091F703A0911D
:100B4000F803B091F9030196A11DB11D8093F6033E
:100B50009093F703A093F803B093F903BF91AF917B
:100B60009F918F913F912F910F900FBE0F901F90EB
:100B700018951F920F920FB60F9211242F933F9347
:100B80004F935F936F937F938F939F93AF93BF9395
:100B9000EF93FF938BEB96E00E945C02FF91EF9145
:100BA000BF91AF919F918F917F916F915F914F9185
:100BB0003F912F910F900FBE0F901F9018951F928D
:100BC0000F920FB60F9211242F938F939F93EF9351
:100BD000FF93E091CB06F091CC068081E091D106A5
:100BE000F091D20682FD12C090818091D4068F5F71
:100BF0008F732091D506821751F0E091D406F0E072
:100C0000E554F94F958F8093D40601C08081FF9100
:100C1000EF919F918F912F910F900FBE0F901F908A
:100C20001895EBEBF6E01382128288EE93E0A0E0D9
:100C3000B0E084839583A683B78386E292E09183B4
:100C4000808385EC90E09587848784EC90E097879B
:100C5000868780EC90E0918B808B81EC90E0938B89
:100C6000828B82EC90E0958B848B86EC90E0978B66
:100C7000868B118E128E138E148EE8E5F7E01382A8
:100C8000128288E392E0918380838CE084838FEFEB
:100C900085838BE0868385E0878384E0808783E09B
:100CA000818782E0828713861486158616861786CA
:100CB00081E00C949B03789484B5826084BD84B5F4
:100CC000816084BD85B5826085BD85B5816085BD47
:100CD00080916E00816080936E00109281008091FF
:100CE0008100826080938100809181008160809387
:100CF0008100809180008160809380008091B100AC
:100D000084608093B1008091B00081608093B000D6
:100D100080917A00846080937A0080917A0082606A
:100D200080937A0080917A00816080937A0080912C
:100D30007A00806880937A001092C100E091CB061F
:100D4000F091CC0682E08083E091C706F091C8065E
:100D50001082E091C906F091CA068FEC8083109250
:100D6000D306E091CF06F091D00686E08083E09133
:100D7000CD06F091CE06808180618083E091CD0622
:100D8000F091CE06808188608083E091CD06F0915D
:100D9000CE06808180688083E091CD06F091CE06FA
:100DA00080818F7D808382E00E949B0380E00E948F
:100DB0003C0467E672E088E597E00E947B0481E0EE
:100DC0000E943C0467E772E088E597E00E947B049C
:100DD00060E086E00E94E400C4EBD0E000EA10E0AE
:100DE000ECE8EE2EE0E0FE2EFE018491F801C490C6
:100DF000F701D490DD2071F081110E948C00ED2D5F
:100E0000F0E0EE0FFF1FE859FF4FA591B4918C91D0
:100E10008C2139F461E070E080E090E00E945C0198
:100E2000E3CF69EF72E08BEB96E00E947B0480EDEC
:100E3000C82E87E0D82EE12CF12CC092BF06D092AC
:100E4000C006E092C106F092C2060E94E3018A53F6
:100E50009B4FFC01108287EE92E00E94050568EE30
:100E600073E080E090E00E945C016EEF72E08BEB3B
:100E700096E00E947B04C092BF06D092C006E0922A
:100E8000C106F092C2060E94E3018A539B4FFC0107
:100E9000108287E093E00E94050568EE73E080E031
:100EA00090E00E945C016FE073E08BEB96E00E94A3
:100EB0007B04C092BF06D092C006E092C106F092B9
:100EC000C2060E94E3018A539B4FFC01108287EE09
:100ED00092E00E94050568EE73E080E090E00E94D9
:100EE0005C016DE173E08BEB96E00E947B04C092A5
:100EF000BF06D092C006E092C106F092C2060E94E0
:100F0000E3018A539B4FFC01108287EE92E00E941E
:100F1000050568EE73E080E090E00E945C016DE200
:100F200073E08BEB96E00E947B0480E49FE1A0E0FD
:100F3000B0E08093BF069093C006A093C106B09323
:100F4000C2060E94E3018A539B4FFC01108287EE88
:100F500092E00E94050568EE73E080E090E00E9458
:100F60005C0169E473E08BEB96E00E947B04C09225
:100F7000BF06D092C006E092C106F092C2060E945F
:100F8000E3018A539B4FFC01108287EE92E00E949E
:100F9000050568EE73E080E090E00E945C0181E06E
:100FA0000E943C041092EE046FED74E088E597E037
:100FB0000E947B0468EE73E080E090E00E945C0198
:100FC00064E573E08BEB96E00E947B04C092BF0661
:100FD000D092C006E092C106F092C2060E94E301E0
:100FE0008A539B4FFC01108287EE92E00E94050518
:100FF00068EE73E080E090E00E945C0162E673E0DE
:101000008BEB96E00E947B04C092BF06D092C00694
:10101000E092C106F092C2060E94E3018A539B4F00
:10102000FC01108287EE92E00E940505892B89F170
:101030000E94930366E872E088E597E00E947B04D3
:1010400081E00E943C0461E972E088E597E00E943B
:101050007B0468EE73E080E090E00E945C0128EC85
:10106000822E912CA12CB12C35EB432E32E0532E45
:101070000CE813E04CEB642E42E0742EC8E7D3E09A
:1010800056ECE52E52E0F52E6CEDC62E62E0D62E23
:1010900018C00E9493036FE972E088E597E00E9410
:1010A0007B04FFCF1092F4031092F30392E3392EE6
:1010B0002091F3033091F40324303105ACF00E9409
:1010C000ED028092BF069092C006A092C106B09237
:1010D000C2060E94E301FC01EA53FB4F1082892BF8
:1010E00009F30E949004DECF329EC001339E900D22
:1010F0001124FC01E250FC4F4081442309F4E3C079
:10110000205D2093F20310826BEA72E081509C4FC5
:101110000E94F809009751F0FC0185818E3411F48A
:1011200061E001C060E08DE00E94B50081E00E94B6
:101130003C0460EB72E088E597E00E947B046091DC
:10114000F20388E597E00E944D048091F0039091AE
:10115000F10301969093F1038093F0039F938F9393
:101160005F924F921F930F930E94120A8EE00E948B
:1011700020019F938F937F926F92DF93CF930E9472
:10118000120A68E773E08CE893E00E94D5098FE0CB
:101190000E9420019F938F93FF92EF92DF93CF9352
:1011A0000E94120A68E773E08CE893E00E94D50978
:1011B00060ED72E08BEB96E00E947B046091F2039D
:1011C0008BEB96E00E947E02F80101900020E9F787
:1011D000CF018D5692409F938F93DF92CF92DF93F2
:1011E000CF930E94120A68E773E08BEB96E00E94AF
:1011F0007B048092BF069092C006A092C106B09276
:10120000C2060E94E3018A539B4FFC0110820E9498
:1012100090046FE871E08BEB96E00E947B046CE831
:1012200073E08BEB96E00E947B0460E071E08BEB57
:1012300096E00E947B048092BF069092C006A09226
:10124000C106B092C2060E94E3018A539B4FFC0183
:1012500010820E94900482EE92E00E94050568ECE4
:1012600070E080E090E00E945C016CEE72E08BEB3D
:1012700096E00E947B046091F2038BEB96E00E9463
:101280007E0266E473E08BEB96E00E947B04809222
:10129000BF069092C006A092C106B092C2060E94FC
:1012A000E3018A539B4FFC01108287EE92E00E947B
:1012B00005051092C6048DB79EB748960FB6F894F0
:1012C0009EBF0FBE8DBF8091F3039091F4030196F2
:1012D0009093F4038093F303EBCEFC0188279927C6
:1012E000E89421912032E9F3293010F02E30C8F330
:1012F0002B3241F02D3239F4689404C00E948B09DE
:10130000820F911D219120532A30C0F31EF4909535
:1013100081959F4F08957AE0979F902D879F802D0C
:10132000910D112408952F923F924F925F926F92E8
:101330007F928F929F92AF92BF92CF92DF92EF9265
:10134000FF920F931F93CF93DF93CDB7DEB7CA1BE6
:10135000DB0B0FB6F894DEBF0FBECDBF09942A8811
:10136000398848885F846E847D848C849B84AA84B9
:10137000B984C884DF80EE80FD800C811B81AA8146
:10138000B981CE0FD11D0FB6F894DEBF0FBECDBF11
:10139000ED010895EE0FFF1F0590F491E02D0994E3
:1013A00081E090E0F8940C94C50CFB01DC010D90F9
:1013B0000020E9F7119701900D920020E1F70895C0
:1013C000FB01DC018D91019080190110D9F3990B7B
:1013D0000895FB01DC014150504048F001900D920E
:1013E0000020C9F701C01D9241505040E0F7089518
:1013F000FB0151915523A9F0BF01DC014D91451727
:101400004111E1F759F4CD010190002049F04D91CF
:1014100040154111C9F3FB014111EFCF81E090E08C
:1014200001970895AEE0B0E0E8E1FAE00C94A1097C
:101430000D891E8986E08C831A8309838FEF9FE7CD
:101440009E838D83AE01475E5F4F6F89788DCE019D
:1014500001960E94340AEF81F885E00FF11F108297
:101460002E96E4E00C94BD09ABE0B0E0EAE3FAE0CC
:101470000C9493096C017B018A01FC01178216828E
:10148000838181FFCCC1CE0101963C01F60193819D
:10149000F70193FD859193FF81917F01882309F4E2
:1014A000BAC1853239F493FD859193FF81917F0113
:1014B000853229F4B60190E00E942B0CE7CF912CE5
:1014C000212C312CFFE1F315D8F08B3279F038F470
:1014D000803279F08332A1F4232D20611DC08D323A
:1014E00061F0803369F4232D216016C0832D826062
:1014F000382EE32DE4603E2E2AC0F32DF8601DC087
:1015000037FC2DC020ED280F2A3040F08E32B9F480
:1015100036FC81C1232D2064322E19C036FE06C050
:101520008AE0989E200D1124922E11C0EAE02E9E92
:10153000200D1124222EF32DF0623F2E08C08C3690
:1015400021F4832D8068382E02C0883641F4F701DB
:1015500093FD859193FF81917F018111B3CF982FE6
:101560009F7D9554933028F40C5F1F4F9FE3998320
:101570000DC0833631F0833771F0833509F059C0DF
:1015800021C0F801808189830E5F1F4F88248394D6
:10159000912C530113C02801F2E04F0E511CF801A9
:1015A000A080B18036FE03C0692D70E002C06FEFED
:1015B0007FEFC5010E94200C4C018201F32DFF77C3
:1015C0003F2E16C0280122E0420E511CF801A080D7
:1015D000B18036FE03C0692D70E002C06FEF7FEF6F
:1015E000C5010E94150C4C01F32DF0683F2E8201BD
:1015F00033FC1BC0822D90E088169906B0F4B6012A
:1016000080E290E00E942B0C2A94F4CFF50137FC85
:10161000859137FE81915F01B60190E00E942B0C0D
:1016200021102A9421E0821A91088114910471F703
:10163000E8C0843611F0893641F5F80137FE07C05D
:1016400060817181828193810C5F1F4F08C060812E
:101650007181072E000C880B990B0E5F1F4FF32D25
:10166000FF763F2E97FF09C0909580957095619504
:101670007F4F8F4F9F4FF0683F2E2AE030E0A3014D
:101680000E94670C882E861845C0853731F4232DBB
:101690002F7EB22E2AE030E025C0932D997FB92EFF
:1016A0008F36C1F018F4883579F0B5C0803719F05D
:1016B000883721F0B0C0E92FE061BE2EB4FE0DC026
:1016C000FB2DF460BF2E09C034FE0AC0292F26600E
:1016D000B22E06C028E030E005C020E130E002C0B4
:1016E00020E132E0F801B7FE07C06081718182819C
:1016F00093810C5F1F4F06C06081718180E090E094
:101700000E5F1F4FA3010E94670C882E8618FB2DC9
:10171000FF773F2E36FE0DC0232D2E7FA22E89147B
:1017200058F434FE0BC032FC09C0832D8E7EA82EE7
:1017300005C0B82CA32C03C0B82C01C0B92CA4FE42
:101740000FC0FE01E80DF11D8081803321F49A2D38
:10175000997EA92E09C0A2FE06C0B394B39404C01A
:101760008A2D867809F0B394A3FC11C0A0FE06C0B0
:10177000B21488F4280C922C9B180EC0B21460F49A
:10178000B60180E290E00E942B0CB394F7CFB21424
:1017900018F42B1802C0982C212CA4FE10C0B601FE
:1017A00080E390E00E942B0CA2FE17C0A1FC03C0B6
:1017B00088E790E002C088E590E0B6010CC08A2D71
:1017C000867859F0A1FE02C08BE201C080E2A7FC3E
:1017D0008DE2B60190E00E942B0C891438F4B6011A
:1017E00080E390E00E942B0C9A94F7CF8A94F30147
:1017F000E80DF11D8081B60190E00E942B0C811054
:10180000F5CF222009F442CEB60180E290E00E949A
:101810002B0C2A94F6CFF6018681978102C08FEFB8
:101820009FEF2B96E2E10C94AF09FC01059061500B
:1018300070400110D8F7809590958E0F9F1F0895E6
:10184000FC016150704001900110D8F7809590958F
:101850008E0F9F1F08950F931F93CF93DF93FB016C
:10186000238121FD03C08FEF9FEF2CC022FF16C004
:1018700046815781248135814217530744F4A08162
:10188000B1819D012F5F3F4F318320838C9326814F
:1018900037812F5F3F4F3783268314C08B01EC01C4
:1018A000FB010084F185E02D0995892BE1F6D80133
:1018B00016968D919C911797019617969C938E93EF
:1018C0001697CE01DF91CF911F910F910895FA01E4
:1018D000AA27283051F1203181F1E8946F936E7F6F
:1018E0006E5F7F4F8F4F9F4FAF4FB1E03ED0B4E060
:1018F0003CD0670F781F891F9A1FA11D680F791FA1
:101900008A1F911DA11D6A0F711D811D911DA11DB1
:1019100020D009F468943F912AE0269F11243019C1
:10192000305D3193DEF6CF010895462F4770405D5C
:101930004193B3E00FD0C9F7F6CF462F4F70405D0B
:101940004A3318F0495D31FD4052419302D0A9F766
:10195000EACFB4E0A6959795879577956795BA9560
:10196000C9F700976105710508959B01AC010A2E26
:1019700006945795479537952795BA95C9F7620FFD
:10198000731F841F951FA01D0895F894FFCF3C6618
:101990006F726D20616374696F6E3D746573742E30
:1019A000706870206D6574686F643D6765743E3C57
:1019B00062723E3C62723E5031333A3C696E7075E1
:1019C00074206E616D653D50313320747970653DD2
:1019D0007375626D69742076616C75653D4F4E3E1E
:1019E0003C696E707574206E616D653D50313320B9
:1019F000747970653D7375626D69742076616C757C
:101A0000653D4F46463E3C2F666F726D3E3C2F62F1
:101A10006F64793E3C2F68746D6C3E0A00485454E4
:101A2000502F312E3120323030204F4B200D0A43C1
:101A30006F6E74656E742D547970653A2074657894
:101A4000742F68746D6C0D0A436F6E6E65637469F4
:101A50006F6E3A20636C6F73650D0A52656672652E
:101A600073683A2032300D0A0D0A3C21444F43542A
:101A70005950452048544D4C3E3C68746D6C3E3C7A
:101A8000626F64793E0A3C68313E5465737420414C
:101A9000524455494E4F3C2F68313E0A3C62723EDB
:101AA000416363657373206E756D626572203D00DE
:101AB000000000007E029601C001CB024602CF0169
:101AC0003802000000004D049601540453042C43D6
:101AD0004F4E4E4543540D0A002C434C4F53454442
:101AE0000D0A002B4950442C004E4F2052455350B4
:101AF0004F4E534500436F6E6E656374206573707F
:101B00006D73696D0020616E64207072657373205F
:101B10005044360020536572766572204F6B00206A
:101B20006F6E20706F7274203230303000536572E7
:101B3000766572204552524F005031333D00526558
:101B4000633A0025693C62723E003C62723E41305D
:101B50003D2569003C62723E41313D25690041549A
:101B60002B43495053454E443D002C25690D0A0036
:101B700053454E44204F4B0D0A0041542B434950CE
:101B8000434C4F53453D0041540D0A0041542B52E4
:101B900053540D0A0072656164790D0A0041542B9B
:101BA00043574D4F44453D310D0A0041542B435797
:101BB000444843503D312C310D0A0041542B4357CA
:101BC0004A41503D227265646531222C2231323304
:101BD000343536220D0A0041542B43494653520DE9
:101BE0000A0041542B4349504D55583D310D0A00D0
:101BF00041542B4349505345525645523D312C32A6
:101C00003030300D0A00FFFFFFFFFFFFFFFFFFFF37
:101C1000FFFFFFFFFFFFFFFFFFFFFFFFFFFFFFFFD4
:101C2000FFFFFFFFFFFFFFFFFFFFFFFFFFFFFFFFC4
:101C3000FFFFFFFFFFFFFFFFFFFFFFFFFFFFFFFFB4
:101C4000FFFFFFFFFFFFFFFFFFFFFFFFFFFFFFFFA4
:101C5000FFFFFFFFFFFFFFFFFFFFFFFFFFFFFFFF94
:101C6000FFFFFFFFFFFFFFFFFFFFFFFFFFFFFFFF84
:101C7000FFFFFFFFFFFFFFFFFFFFFFFFFFFFFFFF74
:101C800041542B43574D4F44453D310D0A004154BB
:101C90002B4357444843503D312C310D0A004154E9
:101CA0002B43574A41503D227265646531222C22F4
:101CB000313233343536220D0A0041542B43494624
:101CC00053520D0A0041542B4349504D55583D3154
:101CD0000D0A0041542B4349505345525645523D3D
:101CE000312C323030300D0A0000FFFFFFFFFFFFC4
:101CF000FFFFFFFFFFFFFFFFFFFFFFFFFFFFFFFFF4
:101D000028244646442646442628E40C4B490BED3D
:101D100024284644264644264644262824480EA61F
:101D20000E65E5312533161FFB510D96CD1DCDCD2A
:101D3000AC9312199412199C99183D992D99079AF0
:101D40008799A91DB91C99191C91929B91929B5935
:101D5000367537568F1F022629121FF9018B4F291E
:101D60002867266726674627861B9F4C51504CCD17
:101D70001C4D558DADAAA2B93A1019339AC7170058
:101D8000270B061F538474148F9F012816081FB455
:101D9000A486A686A6A6A4F69F894D8D4D8D8D4955
:101DA000002915081F34C4568D4D8D894DED5F49AE
:101DB0002D9A1A9A92022A130A1F9504A524941C9C
:101DC0000451890889C8E37F072B120F9FF7F19907
:101DD000B40E0F6A0E0AA5758FEF002C0D079FF346
:101DE000F1CBA1558AE441002D0B081FF4F1EAE282
:101DF0003D9E032E0B079FF3F1CBA1F5E8002F12B8
:101E0000081FD4B4125325A695982A315562EA3199
:101E1000302A0D9FF621CC0E82486886668646C61B
:101E200026C626C626C626C626C626C626C6468672
:101E300066866648880EC2EC7109310F0D9FF681E7
:101E40004627C99EEEFF3D2E0132200D9FF621CA86
:101E50000E846648A646C626C646272709D9D51148
:101E6000B21C3DA838A8C7190033230D9FF621CA1C
:101E70000E8466568D4C8D4C8D4ECE159ECE8E4E5C
:101E80008C4D4C91CCD01C4CD9E3120034200D9FCA
:101E9000F6A12619B693189B18139992199A19123C
:101EA0009A199A39A838281CDD1E870035200D9F05
:101EB000D60F660E6646373D883A109A219D1D5D05
:101EC0003136314541437320668F4B0036260D9FD6
:101ED000F641CA0E6468564D8C4D8CAEA03A9829D6
:101EE0006134323631363136323443427410668FC3
:101EF0004B00371B0D9FB60F2A0E2A29974E8E4E88
:101F00008E4E8E4E528E4E528ECEE31A0038270DD4
:101F10009FF641E80EA24686D60CCD0CCD0C2D19AD
:101F2000333B085A3236313631363136323473303B
:101F3000658F4B0039270D9FF621AC0E8448188D14
:101F40008C4D8C4D8C4D8C4D109190941C10558C5B
:101F5000AE981A21A93910ABC729003A0E079FF392
:101F6000D10DADC7C1D07A74003B10079FF3D10DDE
:101F7000ADC7C1D02A45F220003C120F9FF7F1E90E
:101F8000686187B4D4C51DCFE313003D130E1FF75E
:101F9000F187074307F330074307F3F877003E1054
:101FA0000E1FF7F174B6C7A474BD9CC747003F1954
:101FB0000F9FB7EC0EC4488888560D0DD1CE92D233
:101FC0002EDE1EF1F678064044181FFC911C481FB7
:101FD0009896D59152110F115588CC0C1D888CD034
:101FE0006C323334333223B464D1CC9221A1999131
:101FF000994523338B664626A8480EEA662A26E9C9
:10200000C1E8C1AA860FCA0FE2D1004128121FF908
:10201000C8A98D6D4764474647268706870687E629
:10202000C6363BA83A381A1C1A9C191D191D199D51
:10203000C71700422E121F590EE80EACC6A806871D
:10204000068706870687E6A60ECA0EAC06872667B1
:102050002667266726670669C68A0EAC0EE8F11564
:1020600000432B121FD92E0FC86A8AE8682647C87A
:10207000E701E601E601E601E601E601E60128677F
:102080002667E8886ACA0E28EFF11500442E139FD0
:10209000590E080FCCC6AA068926872669466746C8
:1020A0006746674667466746674667266926870626
:1020B00089C6AA0ECC0EE8F12D004519101F580E46
:1020C0008A0E8AA6F7FA80EA806A7A5F1FD81CD83F
:1020D000E3190046150F9F570E6A0E6A86F7F880BF
:1020E000E88068787F8FA7004730139FD94E0FE8AC
:1020F0006AAAE8882667E801E621E621E621C60EFD
:1021000042C60E426647664748672669E88A6AAE55
:102110000E26E64EE6F119004830139F5926872611
:10212000872687268726872687268726870E0E827C
:102130000E0E8226872687268726872687268726CD
:1021400087268726E7F11D00490B079F5386F6FF78
:10215000DFA3034A180E1F3767F7BF999A999A9918
:102160009A991A9A213A10BBC739004B2A121F5963
:10217000E688C6A8A6C886E86608472827486F1FCD
:10218000845250CE4C0E0D0ED14DCD8D2DA39A9B69
:102190009AA3C727004C0F0F9F5786F7FFC7073535
:1021A00007F578014D3E179F5BA687688968892AE5
:1021B0008B2A8BEC8C26E4248626A6268646A4440D
:1021C00086466646864666468666D40CCD4CCC0C62
:1021D000CD4CCC0C0D152D2A5AB5686AD1D47AFC99
:1021E00018004E32139F59268708870887EA86EA27
:1021F00086CC8626A68626A6864686D62C9A59B4EE
:1022000064684A64686A6268CC68AE68AE68906860
:10221000721EDF014F2C139FD94E0FE86AAAE8887F
:1022200026672849664766476647664766476647A2
:10223000664728692687E8A86AEA0E48EFF12D006C
:10224000501F119F580EC80E8CE68606670667065B
:10225000670667E6860E8C0EAAC6F7F7F80E0051E1
:1022600031139FD94E0FE86AAAE888266728496685
:1022700047664766476647664766476647C8426897
:10228000A62686A8AC8AE80E2A2FE641E2F10800CD
:10229000522E119F580EC80E8CE6860667066706FA
:1022A000670667E6860E8C0EAAC688E6860667066F
:1022B00067066706670667066706E7F11600532399
:1022C000119FD82C0FC6688AC886E686C6C9AB0F90
:1022D00082AFCBC96706670667E6685A1D10DEE362
:1022E00003540E0F9F177E2036BCFFBFC733005527
:1022F0002D139F5926872687268726872687268798
:102300002687268726872687268726872687268765
:10231000E8A8E6C66AEA0E48EFF12D005626121F1D
:10232000394647464708690687C8A8C63623A21B10
:102330001A1C1A24A11C191D191D9935B626678F60
:10234000EF00573D179F3BC6968C2D195B32B66642
:10235000A86851D12209A1351333533213336223B4
:102360001323632332226313331373123313821242
:102370003313825585559573A373A373F3F80358EC
:1023800029121F3946470869C8A8C6E68626474667
:102390000F62ADC9A96D0F42472687E688C8560D62
:1023A000CE10928CCEE30B00591F119F38264708A0
:1023B00067E686C8A69611CDCD0CCE4C4E8C4ECC81
:1023C00016578FEF7B7C025A1B101F380E4E0E8E55
:1023D0006939A6654CCB9896789896F8E0E4E01EAB
:1023E000CF005B0E081F346A6AA6F6FFBFAA290158
:1023F0005C14081F14C4D489A913D34E4C9D983A79
:1024000031F568015D0D081F546AAAF6FF7FD302FB
:10241000005E180E1FB766472B250427C666A66602
:1024200086A666A6E6F1FF09005F0B0E1FF7F1FF17
:102430007F78F001600A081F34C6B6C77F0B6121A0
:102440000E1FF7716E77103543B476D0EA40A8645A
:102450008668666A668886A4E880A8641EB70062FB
:10246000240F9F5786F7A2EC60AA848868D9CCD83D
:10247000CCD8CCD8CCD8CCD80CD15009D1C1D444EC
:102480003D1E0163190D9FF6716976104442333485
:1024900032BAB7433324440761F6380464250F9FEA
:1024A0005787775631753044523444333633363398
:1024B0003633363336333634C4A4EA60AC621E4F4A
:1024C00000651F0E1FF7F180F0208A8468CDD8C800
:1024D000D8C841C941C9ECF0D40CA303B97A9C0314
:1024E0006611099F94888AC6169D1C8DED7F8F0DFD
:1024F00000672B0F9FF7F1A862EA6088A4688866DE
:102500006C666C666C666C666C666C688849D5C176
:1025100058C5F0CCD80CD1D4C19C150068240F9FAD
:102520005786F782EE608A666AD1D4D0D4D0D4D0F0
:10253000D4D0D4D0D4D0D4D0D4D0D4D0D43C9E0015
:10254000690E079F5386D6C30CEDFF3D3A006A0F14
:10255000079F5386D6C30CEDFF4F4A68006B1F0ED2
:102560001F5766F7680DD108D504D99DE1DD04D960
:10257000C8D808D50CD1463453F3B8056C0B079F67
:102580005386F6FFDFA3036D18159FFAF1930992A6
:10259000B28303299212A2FDFFFFFF7BFC04006EB1
:1025A000240F9FF7F164A2EC608A666AD1D4D0D47C
:1025B000D0D4D0D4D0D4D0D4D0D4D0D4D0D4D0D4FB
:1025C0003C9E006F210E1FF7F180F0208A8468CDB9
:1025D000D8C8D8C8D8C8D8C8D8C8D8CCD01009D579
:1025E00041203D1E70250F9FF7F164A2EC60AA8484
:1025F0008868D9CCD8CCD8CCD8CCD8CCD80CD150B1
:1026000009D1C1D444D9F04E0171240F9FF7F1A82C
:1026100062EA6088A46888666C666C666C666C6644
:102620006C666C688849D5C158C5F09E0072100A66
:102630001FF5B19B98794336B77F8F2900731F0D23
:102640009FF67168761044423334336A7810684AD2
:102650003235323542437320758F43007411099F20
:1026600094C7363A391ADB3FABA2C7020075250F73
:102670009FF7F1646A686A686A686A686A686A6883
:102680006A686A686A686A68886AA4CA626E641E50
:102690004F00761B0E1FF7713B363236323633B49D
:1026A000572363236323738696A4ECF100772D13DD
:1026B0009FF9F1D52AAB15525322333523333533E5
:1026C0002A64844426468426B692909110AB29ABA6
:1026D000A99B1A9C1A9C9AC79700781E0D9FF671A9
:1026E00036354243B36A62ECAE72B2B06E628A8231
:1026F000686686C9D43CCE0079220F9FF7F1626EDE
:10270000646E666C86686A688A846C646E64D0D213
:10271000B49478EDF0EC682921007A190D9FF671D8
:1027200076407240B992907292907225E501C9018B
:102730003DCE007B100A1FB5C6D6ED67EB06D7ED80
:10274000874B007C0B079F73A4F4FFFF13007D10E1
:102750000A1F5506D7ED87EBC6D6ED67AB007E1294
:102760000E1FF7F1EF68662E66266E66E8F10F0120
:102770000000F4113600102AA0FF006183102BB076
:10278000FF006183102C7000F410281010F500F485
:10279000113680102AA0FF00A0FF00102BB0FF0010
:1027A0006183102C7000F4113640102AA0FF0061E4
:1027B00083102BB0FF006183102C7000F4113600E1
:1027C000102AA0FF00A0FF00102BB0FF00618310B3
:1027D0002C7000F4113600102AA0FF006183102B2A
:1027E000B0FF006183102C7000FDF1F58005F080D2
:1027F00005F18032F4100180C71011101310201061
:102800002911253F113A05113600122A007F122B9B
:10281000007F102CF50000000008000201000003FA
:102820000407000000000000000000000000250078
:1028300028002B0000000000240027002A000404C8
:102840000404040404040202020202020303030358
:102850000303010204081020408001020408102034
:10286000010204081020CA3011241FBECFEFD8E0A7
:10287000DEBFCDBF11E0A0E0B1E0E0EEF2E602C0C5
:1028800005900D92A23AB107D9F723E0A2EAB1E090
:1028900001C01D92AF31B207E1F714E1C4E3D4E106
:1028A00004C02197FE010E944131C333D107C9F70B
:1028B0000E943A250C946E310C940000CF92DF9266
:1028C000EF92FF920F931F93CF93DF936C017A01E6
:1028D0008B01C0E0D0E0CE15DF0589F0D8016D9105
:1028E0008D01D601ED91FC910190F081E02DC601A2
:1028F0000995892B11F47E0102C02196ECCFC70106
:10290000DF91CF911F910F91FF90EF90DF90CF90CB
:1029100008953FB7F8948091A8019091A901A091E2
:10292000AA01B091AB0126B5A89B05C02F3F19F0B5
:102930000196A11DB11D3FBFBA2FA92F982F88273F
:10294000820F911DA11DB11DBC01CD0143E0660F99
:10295000771F881F991F4A95D1F708950F931F93EA
:10296000CF93DF93DC01EA011996ED91FC911A9760
:10297000663171055CF4643171055CF56C3071058C
:1029800049F06F30710509F44FC047C067317105D8
:1029900001F143C04C815D819A0121503109888148
:1029A0009981280F391F398328831D968D919C9119
:1029B0001E970A811B81821B930B01979B838A833D
:1029C000198308838E819F819D838C835F834E83CF
:1029D00024C05C962D913C915D972D5F3F4F2370F5
:1029E00033275D963C932E935C971D962D913C91D9
:1029F0001E9755968D919C91569753964D915C914B
:102A00005497241B350B2150310956963C932E9335
:102A1000559754969C938E935397AE01CD01DF91B9
:102A2000CF911F910F9109948A01EC01AC01455F90
:102A30005F4F6FE070E009958B859C85F80193836B
:102A400082838D859E859183808381E090E0DF91F4
:102A5000CF911F910F910895EF92FF920F931F93C3
:102A6000CF93DF93DC01EA011996ED91FC911A975F
:102A7000663171055CF4643171054CF56C3071059B
:102A800049F06F30710509F456C04CC067317105CB
:102A9000F1F048C04C815D81288139811D968D916E
:102AA0009C911E97EE80FF800A811B818E199F09E1
:102AB000801B910B9B838A831B968D919C911C9705
:102AC000841B950B821B930B998388832BC05C9688
:102AD0008D919C915D970296837099275D969C934A
:102AE0008E935C971D962D913C911E9755968D91D6
:102AF0009C915697281B390B2150310956963C93CF
:102B00002E9355971B962D913C911C9753968D9122
:102B10009C915497281B390B2150310954963C93B2
:102B20002E935397AE01CD01DF91CF911F910F915D
:102B3000FF90EF9009948A01EC01AC01455F5F4F73
:102B40006FE070E009958B859C85AD85BE85F801A9
:102B500080839183A283B38381E090E0DF91CF9162
:102B60001F910F91FF90EF9008950F931F93CF93B4
:102B7000DF93DC01EA011996ED91FC911A97663119
:102B800071055CF4643171052CF56C30710549F008
:102B90006F30710509F449C041C067317105D1F04A
:102BA0003DC02E813F81488159810A811B811B963E
:102BB0008D919C911C97801B910B821B930B998389
:102BC00088835B834A838C819D813D832C839F8393
:102BD0008E8324C05C962D913C915D972F5F3F4F73
:102BE000237033275D963C932E935C9753968D917B
:102BF0009C9154971B962D913C911C9755964D9105
:102C00005C915697241B350B2150310954963C9307
:102C10002E93539756969C938E935597AE01CD0164
:102C2000DF91CF911F910F9109948A01EC01AC01C2
:102C3000455F5F4F6FE070E009958B859C85F801DB
:102C4000938382838D859E859183808381E090E04C
:102C5000DF91CF911F910F9108956150FC01808900
:102C6000681710F06FEF680F862F08956F5FFC01F3
:102C70008089681708F060E0862F089580E090E072
:102C80000895213069F038F0223079F4861B9109DB
:102C900067FD93950895860F911D67FD9A95089598
:102CA000841B910947FD93950895840F911D47FD5D
:102CB0009A950895213069F038F0223079F4841B18
:102CC000910947FD93950895840F911D47FD9A95AD
:102CD0000895860F911D67FD9A950895861B9109A9
:102CE00067FD93950895DC011A964C911A97ED9122
:102CF000FC911197249130E0042E02C03595279560
:102D00000A94E2F7862F840F883010F4E22F0EC069
:102D100031961196FC93EE939491E92F98E0941BD1
:102D200001C0EE0F9A95EAF7E22B88501A968C9321
:102D300081E090E001C0880F6A95EAF781508E2308
:102D4000089581E090E008950E9469316F927F922A
:102D50008F929F92AF92BF92CF92DF92EF92FF92AB
:102D60000F931F93CF93DF9300D01F92CDB7DEB7A1
:102D70006731710509F0F8C08C013C0189E2680EE9
:102D8000711C7801A2E3EA0EF11C6801BCE5CB0ED0
:102D9000D11C57019E2C8F2CF30141913F01D8018A
:102DA0005A962D913C915B9734976081C5010E94A2
:102DB000F121BEE0AB0EB11CAC14BD0469F7C80133
:102DC0000E94C820892B09F4CFC0F801A68CB78CCB
:102DD0007A2CD70116964C911697749E402D11248B
:102DE0004C931896ED91FC9119971A968D919C91A0
:102DF0001B97A89EB001A99E700DB89E700D11245E
:102E0000CF01F7FD01969C0135952795260F371FB9
:102E1000D70112968D919C91139797FD06C0C90119
:102E2000BF010E940B31460F05C0C901BF010E94BE
:102E30000B31461BD7014C93C901BF010E940B31D6
:102E4000F7019587848790818181890F8083FEE0D7
:102E5000EF0EF11CEC14FD0409F0BBCFD8015C9619
:102E60008D919C915D978130910531F46CEB77E207
:102E7000C8010E94961F19C08230910509F059C0FF
:102E8000D8015396ED90FC90549783E890E08E190A
:102E90009F0954969C938E93539766EA77E2C801F4
:102EA0000E94961FF801F48AE38AA12CB12C7801C4
:102EB000F0E4EF0EF11C68018EE4C80ED11CF8019D
:102EC000828D938DA816B9066CF5D7012C91922F9F
:102ED000929596959770F80182A9887F892B8983AE
:102EE000F8E02F9F90011124207ED6018C918695C9
:102EF00086958695282B2A83AE014F5F5F4F61E050
:102F000070E0C8010E943C1F892D982D0E94D72196
:102F1000C7010E94D721C6010E94D721BFEFAB1A7B
:102F2000BB0ACDCF2EE042E061E0C8010E94461FFF
:102F30001BC0892B19F463ED77E29ACFD80155961F
:102F4000ED90FC90569783E890E08E199F09569675
:102F50009C938E9355976FE877E2C8010E94961F65
:102F6000F801F68AE58AA1CF81E090E00F900F90FA
:102F70000F90DF91CF911F910F91FF90EF90DF9015
:102F8000CF90BF90AF909F908F907F906F9008955B
:102F9000EF92FF920F931F93CF93DF9300D000D057
:102FA000CDB7DEB76F30710509F454C08C016031C4
:102FB000710564F46A30710591F06B30710509F0A8
:102FC000DCC068E877E20E94961FE4C064317105B6
:102FD00009F44BC06531710509F476C0CEC08CEDA3
:102FE00095E09A83898380E496E09C838B837801C3
:102FF00027ECE20EF11CD7018C9183FF0DC0D801A4
:103000005196ED91FC91529720E030E040E050E085
:103010006BE070E0C8010995F7018081877F8083AC
:10302000F801EA53FF4F1082D8015196ED91FC91BF
:1030300052979E012F5F3F4F40E050E06AE070E002
:10304000C8010995009709F4A7C0F70120812860FD
:103050002083A2C084E890E0DA0111969C938E93BD
:1030600013969C938E93129795C00E94B020892B43
:1030700009F490C0C8010E949820892B09F48AC0E5
:1030800062E777E2C8010E94961FD80158968C919A
:103090005897282F22952695277057969C91987FB0
:1030A000922B9983B8E08B9FC0011124807EF80198
:1030B000918D969596959695892B8A83AE014F5F53
:1030C0005F4F61E070E05DC00E94C820892B09F469
:1030D00061C0F801848D958D8130910541F0823079
:1030E000910559F0892BD1F463ED77E202C06CEBC6
:1030F00077E2C8010E94961F21C0E388F48883E824
:1031000090E08E199F09948B838B66EA77E2C80161
:103110000E94961FF801F48AE38A10C0E588F688B9
:1031200083E890E08E199F09968B858B6FE877E294
:10313000C8010E94961FF801F68AE58AD8015896C0
:103140008C915897282F22952695277057969C91F9
:10315000987F922B9983B8E08B9FC0011124807EC9
:10316000F801918D969596959695892B8A83628D17
:10317000738DAE014F5F5F4F04C0C8010E94BF1B3B
:103180000BC0C8010E943C1F2EE042E061E0C80174
:103190000E94461F81E090E00F900F900F900F90DB
:1031A000DF91CF911F910F91FF90EF900895CF93F2
:1031B000DF936A30710531F06B30710591F46BE08B
:1031C00070E00FC0EC016AE070E00E94C817009741
:1031D00061F069EE77E2CE010E94961F81E090E0F7
:1031E00004C0DF91CF910C94C817DF91CF9108955F
:1031F00090E0FC01EA5EF74D3491FC01EE5AF74D88
:103200002491FC01E25CF74DE491EE2309F43BC00C
:10321000332339F1333091F038F43130A9F03230C2
:1032200001F584B58F7D12C0373091F03830A1F0B0
:103230003430B9F4809180008F7D03C0809180008C
:103240008F77809380000DC084B58F7784BD09C0CF
:103250008091B0008F7703C08091B0008F7D809304
:10326000B000F0E0EE0FFF1FE65DF74DA591B491C1
:103270008FB7F894EC91611103C020952E2301C003
:103280002E2B2C938FBF08958F929F92AF92BF9257
:10329000CF92DF92EF92FF926B017C010E94891422
:1032A0004B015C01C114D104E104F104F1F00E946E
:1032B0008914DC01CB0188199909AA09BB09883E48
:1032C0009340A105B10570F321E0C21AD108E108CD
:1032D000F10888EE880E83E0981EA11CB11CC11471
:1032E000D104E104F10419F7DDCFFF90EF90DF90F6
:1032F000CF90BF90AF909F908F9008952FB7F89484
:103300006091A4017091A5018091A6019091A701FF
:103310002FBF08951F920F920FB60F9211242F9373
:103320003F938F939F93AF93BF938091A40190910C
:10333000A501A091A601B091A7013091A30126E0BB
:10334000230F2D3720F40296A11DB11D05C029E8D9
:10335000230F0396A11DB11D2093A3018093A40107
:103360009093A501A093A601B093A7018091A80115
:103370009091A901A091AA01B091AB010196A11D64
:10338000B11D8093A8019093A901A093AA01B093C5
:10339000AB01BF91AF919F918F913F912F910F9072
:1033A0000FBE0F901F901895FC01208531858285F6
:1033B0009385281739072CF5448555858481958197
:1033C000480F591F55874487668577858681978181
:1033D000860F971F978786871816190664F46081F1
:1033E0007181460F571F5587448742815381841B43
:1033F000950B978786872F5F3F4F3187208781E026
:10340000089580E00895FC01EA59FF4F8EE396E1AC
:10341000918380830895FC01EC59FF4F2081318115
:103420002B5E3F4F613610F0B49605C0613438F022
:10343000FC01EA57FF4F80819181280F391FC90194
:103440000196FC014491442349F0F9014491461747
:1034500041F0FC018491280F311DF1CF80E090E014
:103460000895C9010895FC01E60FF11D849190E0D3
:10347000982F88273196E4918E0F911D0895AC0105
:103480004D5E5F4FDC011596ED91FC91169765E15D
:1034900070E009945F926F927F928F929F92AF92A9
:1034A000BF92CF92DF92EF92FF920F931F93CF9331
:1034B000DF93EC01D62EA42E8C0108591F4FF80182
:1034C000E680B780F801C084CE185C2CDC1408F4C8
:1034D0005D2CF80184809580F4842F2D4B2D6E2D6A
:1034E000828193810E9441163C012F2D4B2D6E2D20
:1034F000C4010E945A16AA2031F02EA12F8B2FA1B1
:10350000288F28A509C0F8012385211115C029A5F8
:103510002F8B2AA5288F2BA5298F7C8A6B8A9E8BBF
:103520008D8B852D90E09B8F8A8F2F2D30E03D8FE6
:103530002C8FCE010E943F1ADC1420F0DC18B394CB
:10354000E12CC0CF6D2D6E0DF8016683B782DF913F
:10355000CF911F910F91FF90EF90DF90CF90BF9090
:10356000AF909F908F907F906F905F9008958F9213
:103570009F92AF92BF92CF92DF92EF92FF920F9302
:103580001F93CF93DF938C01EC01C859DF4F1A864C
:103590006E5F7F4F79836883FC01E758FF4F60813E
:1035A000CE010E9473168887F801E658FF4F6081AC
:1035B000CE010E947316A82E8987F801E558FF4FA7
:1035C000F0806F2DCE010E9473169FEF9F0DEE24A9
:1035D000E394F12C970101C0220F9A95EAF7982EF7
:1035E000921AF801E458FF4FD0806D2DCE010E9451
:1035F0007316DA94970102C0220F331FDA94E2F7B0
:1036000069018A2C880EF801E358FF4FB0806B2DBA
:10361000CE010E947316BA9401C0EE0CBA94EAF778
:103620008E19E82E88851816ECF5FC84C8182F2D05
:103630004C2D692D8A819B810E9441169B838A8330
:103640002F2D4C2D692D8C819D810E945A169D83B2
:103650008C831E821F82680137E7C30ED11C48018C
:1036600088E7880E911CF6016081CE010E947316D6
:10367000B82EF4016081CE010E947316F82E40E04E
:103680006B2DC8010E944A1A41E06F2DC8010E94AB
:103690004A1A61E0CE010E9473168111F0CF8F812A
:1036A0008A150CF38E2DDF91CF911F910F91FF9012
:1036B000EF90DF90CF90BF90AF909F908F90089544
:1036C000AB01DC011596ED91FC9116976CE070E072
:1036D0000994CF93DF93CDB7DEB728970FB6F89450
:1036E000DEBF0FBECDBFFC01418152816381748179
:1036F0004D835E836F8378871A8219821C821B82B6
:10370000BE016F5F7F4F0E94601B28960FB6F89432
:10371000DEBF0FBECDBFDF91CF910895CF93DF9372
:10372000EC01AC014F5F5F4FED81FE816FE070E017
:103730000995CE01DF91CF910C94691BCF93DF9354
:10374000EC01888180FF0BC0ED81FE8140E050E0FC
:103750006BE070E0CE01099588818E7F8883ED81D2
:10376000FE8140E050E06AE070E0CE0109950097EC
:1037700019F0288121602883DF91CF9108956C3062
:10378000710559F06731710589F4DC011796ED91E7
:10379000FC91189767E170E00994DC01A45ABF4FCF
:1037A00088E0FA0101900D928A95E1F781E090E0BE
:1037B0000895EF92FF920F931F93CF93DF937C01B5
:1037C000EA018A01060F171FC017D10781F0FE0119
:1037D000449150E0D7015196ED91FC91529720E031
:1037E00030E060E170E0C70109952196EDCFDF91EF
:1037F000CF911F910F91FF90EF900895AB01DC01E5
:103800005196ED91FC91529720E030E06CE070E031
:1038100009940F931F93CF93DF938C01EB012097B3
:1038200039F068EE73E0C8010E94FE1B2197F7CFC4
:10383000DF91CF911F910F910895CF93DF93EC010A
:10384000A881B981EB01E881F981A217B30784F45B
:103850004E175F076CF4A417B5071CF4DC014D93F9
:103860005C932E173F073CF4EB013983288303C098
:1038700080E090E002C081E090E0DF91CF91089578
:103880001092BA0187E08093AF0180E88093B00185
:10389000E1EBF1E089E08E0F11928E13FDCF0895D8
:1038A0008091BA01882329F0E1EBF1E089E08E0FE5
:1038B00005C08091AF018730B9F7089591919EBD01
:1038C00000000DB407FEFDCF9EB58E13F7CF0C940C
:1038D000401CCF93DF939091BA01882349F0E92FE0
:1038E000F0E0EF54FE4F20818091B001822B808365
:1038F0008091AF01882349F081508093AF0180917E
:10390000B00190E09595879507C087E08093AF015F
:103910009F5F9093BA0180E88093B001E091BA0173
:10392000AE2FB0E070E04091AF01842F90E0AF5433
:10393000BE4F27E030E0281B390BEB0102C0D595C4
:10394000C7952A95E2F79E013C91232B2C93EF5FBC
:10395000E093BA01473031F4E93078F0DF91CF914C
:103960000C94501CF0E0EF54FE4F019601C0660F1E
:103970008A95EAF78081682B6083DF91CF91089563
:10398000089580E090E008954F925F926F927F9249
:103990008F929F92AF92BF92CF92DF92EF92FF925F
:1039A0000F931F93CF93DF933C01462E4C0145EDBF
:1039B000840E911CF40150808C010D521F4FF801B0
:1039C000C080D1807C01F1EDEF0EF11CF701A080E9
:1039D000B180EC012496F1E05F16F1F05F1688F0FB
:1039E00042E0541621F153E055122BC0FC01E65978
:1039F000FF4F0190F081E02DCE010995A80EB91E70
:103A000020C0FC01E659FF4F0190F081E02DCE016E
:103A10000995C80ED91E15C0FC01E659FF4F01904B
:103A2000F081E02DCE010995A81AB90A0AC0FC015F
:103A3000E659FF4F0190F081E02DCE010995C81A9B
:103A4000D90AF301E259FF4FB182A0823296D182A6
:103A5000C08238965082642DCE010E940B1A0097C6
:103A600041F0BC01CE010E94B71A082E000C990B40
:103A700002C080E090E0F4012081213039F020F094
:103A8000223051F4F70109C0F70101C0F80120818B
:103A90003181820F931F07C0F80120813181A90174
:103AA000481B590BCA019183808381E090E0DF912C
:103AB000CF911F910F91FF90EF90DF90CF90BF902B
:103AC000AF909F908F907F906F905F904F900895F0
:103AD0000F931F93CF93DF93EC018C010C5F1F4F6B
:103AE0008C818E7F8C831E861D8681E090E09DA355
:103AF0008CA3FE01E859FF4F118210823F9680830C
:103B0000ED5AFF4F1082319610823196108281EA71
:103B100096E19C878B878FEB9BE19A8789871E8A2A
:103B20001D8AC8010E94031AC8010E949E1BC80179
:103B30000E948E1BFE01EF52FF4F118210823296BF
:103B40001182108232961082FF97CD55DF4F8FEF92
:103B50008193EC17FD07E1F7DF91CF911F910F9152
:103B60000895CF92DF92EF92FF920F931F93CF931E
:103B7000DF931F92CDB7DEB76C017A018901FB019B
:103B80003A97EC30F10508F06BC1EC5CFF4F0C94F8
:103B9000413187ECC80ED11C1AC1E7ECCE0ED11C06
:103BA00000C1F7ECCF0ED11CEDC0E20EF31E87EC86
:103BB000C80ED11C29C10E94401C7601E4E9EE0E1A
:103BC000F11CF70180818F3F11F00E941B25F2E963
:103BD000CF0ED11CF60180818F3F11F00E941B2572
:103BE000F70180818F3F19F061E00E94F818F6011B
:103BF00080818F3F19F061E00E94F818FFB6F894B9
:103C00008091AE01811124C0E8E4F8E28491ECE5F2
:103C1000F8E29491E82FF0E0EE0FFF1FEC5CF74D17
:103C2000A591B491EC91E92321F461E08AE00E942E
:103C3000F8188AE00E941B258CB580618CBD8CB57C
:103C400080648CBD8DE00E941B258BE00E941B25AB
:103C50008091AE018F5F8093AE01FFBEF80120819D
:103C6000318140E050E060E07AEC8AE99BE30E9419
:103C70001F3190E0C12C79E0D72E7DE3E72EF12CA7
:103C80002C153D054E055F0540F4F694E794D79456
:103C9000C7949F5F9630A1F797E081E08927982F1E
:103CA000906A969581702091AD01222379F02FB70B
:103CB000F8943091AD01313039F43DB33093AC011B
:103CC0003DB33DBB2FBF02C02093AC019CBD8DBD59
:103CD000C7C08091AD01882361F09FB7F89420910F
:103CE000AD018091AC01213019F48DBB9FBF01C0A3
:103CF0008FBF9FB7F8948091AE01882319F081504F
:103D00008093AE018091AE01811105C08CB58F7B8F
:103D10008CBD1092AD019FBFA3C00E94501CF3E068
:103D2000EF16F10408F49CC0C701880F991F04978F
:103D30000197F1F795C0FC01EE56FF4F80818F3F50
:103D400009F48EC0642F0E94F8188AC0452B11F028
:103D50000E94501CF601EC56FF4F80818F3F19F0F6
:103D60006E2D0E94F818EF2809F07AC00E94401CBE
:103D700077C0FC01E953FF4F8081642F81700E945E
:103D8000691C6EC0E114F10409F46AC0F601808177
:103D9000F801608181700E94691CF1E0EF1AF1085E
:103DA000F1CFE114F10409F45BC0F6018081F80160
:103DB000608181700E94691CF6018081F801618137
:103DC00081700E94691CF1E0EF1AF108EACFE1145A
:103DD000F10409F445C0F6018081F8016081817029
:103DE0000E94691CF6018081F801618181700E9446
:103DF000691CF6018081F801628181700E94691C52
:103E0000F1E0EF1AF108E3CF0E151F0549F1F801B3
:103E100061918F01F601808181700E94691CF4CF4D
:103E2000FC01E953FF4F908191700F5F1F4FE11428
:103E3000F104B1F0F80131978081882321F091E0FD
:103E4000813009F490E0F8016081892F99830E9404
:103E5000691CF1E0EF1AF1080E5F1F4F9981E7CF5F
:103E600081E090E00F90DF91CF911F910F91FF9033
:103E7000EF90DF90CF9008959A01DC015196ED917B
:103E8000FC915297AB0162E170E00994EF92FF92CE
:103E90000F931F93CF93C42F8C010A531F4FAC0174
:103EA00049535F4F7A0161111BC0D8013C913C23FB
:103EB00029F0FA0130813C233C132EC0622F70E0C0
:103EC000DC015196ED91FC91529720E030E040E00A
:103ED00050E009959C2F9095F7018081892317C0A8
:103EE000F80130813C2321F0DA013C913C23A1F41C
:103EF000462F50E0622F70E0DC015196ED91FC916D
:103F0000529720E030E00995F70180818C2B808367
:103F1000D8018C91C82BCC93CF911F910F91FF901A
:103F2000EF9008952FE041E00C94461F6F927F922E
:103F30008F929F92AF92BF92CF92DF92EF92FF92B9
:103F40000F931F93CF93DF938C01EB016C0188ECEF
:103F5000C80ED11C66246394FE016491E62EE2949F
:103F60002FE0E222F62FFF707F2E8E2D90E0FC01D5
:103F70003197EF30F10508F0CCC0E05CFF4F0C94B6
:103F800041314E018FEF881A980AD6016C916695DF
:103F90006170C8010E94921FF12CA401B701C801F1
:103FA0000E94D91BA72CB12C772069F08E0C9F1C86
:103FB000F60160816170C8010E94921FA401B501E1
:103FC000C8010E94D91BFFEFEF1AFF0AEA0CFB1C85
:103FD00012C0D6016C916170C8010E94921FAE019F
:103FE0004F5F5F4FE72CF12CB701C8010E94D91B2E
:103FF000BFEFEB1AFB0ACE0DDF1DAECFF6016081DD
:10400000669561706625C8010E94921FE72CF12C0D
:10401000772039F0AE014F5F5F4FB701C8010E94B2
:10402000D91BFFEFEF1AFF0AE6CFFE013196E491AC
:10403000672D70E0762F66276E0F711DC8010E94F4
:10404000091C0CC0FE013196E491672D70E0762FBB
:1040500066276E0F711DC8010E94FE1B22967CCF41
:10406000FE013196E4903196F4902396D6016C913E
:104070006170C8010E94921FF8014389548902C0EF
:10408000559547957A94E2F74E21E42FEF294E2F6C
:1040900050E0D8011BC0FE013196E4903196F490B7
:1040A0002396F60160816170C8010E94921FD801B9
:1040B00055964D915C91569702C0559547957A94C7
:1040C000E2F74E21E42FEF294E2F50E05196ED916B
:1040D000FC91529720E030E060E170E0C801099562
:1040E0003BCF872D86958695813059F030F083300F
:1040F00071F46370F60160830AC061702DE044E0E2
:1041000003C061702EE042E0C8010E94461F219664
:1041100023CFDF91CF911F910F91FF90EF90DF9010
:10412000CF90BF90AF909F908F907F906F900895A9
:10413000FC0125893689E25AFF4F40815181241BB9
:10414000350B37FD0AC0349681E090E04081518103
:104150002417350724F080E0089580E090E008956A
:10416000FC0123893489E45AFF4F40815181241B8B
:10417000350B37FD0AC0349681E090E040815181D3
:104180002417350724F080E0089580E090E008953A
:10419000EF92FF920F931F93CF93DF9300D000D045
:1041A000CDB7DEB78C01FC01178E168EE48CF58C32
:1041B000F1E0EF16F10409F446C01CF4EF2861F0B9
:1041C000E7C052E0E516F10409F472C083E0E81696
:1041D000F10409F4A5C0DCC00E949820892B19F4D1
:1041E000E12CF12CD8C0F801238934893C832B833E
:1041F000828D938D820F931F9A838983E45AFF4F98
:1042000040815181349620813181240F351FBE01B8
:104210006F5F7F4FCE0103960E941D1C892B01F317
:104220002B813C81F80183899489A901481B590B92
:10423000578F468F348B238B89819A81821B930BF6
:10424000938F828FA5C00E94B020892B49F2F8017C
:10425000258936893C832B83828D938D820F931F12
:104260009A838983E25AFF4F40815181349620819D
:104270003181240F351FBE016F5F7F4FCE01039642
:104280000E941D1C892B09F4ABCF2B813C81F801C6
:1042900085899689A901481B590B578F468F368B04
:1042A000258B89819A81821B930B938F828F73C098
:1042B0000E949820892B09F493CFF801838994896F
:1042C00001969A838983228D338D821B930B9C8365
:1042D0008B83E45AFF4F4081518134962081318194
:1042E000240F351FBE016F5F7F4FCE0103960E94E2
:1042F0001D1C892B09F474CF89819A812B813C8103
:10430000AC01421B530BF801538F428F0197238955
:104310003489281B390B378F268F948B838B38C0B9
:10432000C8010E94B020892B09F45ACFF801858971
:10433000968901969A838983228D338D821B930BF4
:104340009C838B83E25AFF4F4081518134962081B8
:104350003181240F351FBE016F5F7F4FCE01039661
:104360000E941D1C892B09F43BCF89819A812B81E6
:104370003C81AC01421B530BF801538F428F0197D4
:1043800025893689281B390B378F268F968B858B8D
:10439000EE24E394F12CC7010F900F900F900F9033
:1043A000DF91CF911F910F91FF90EF900895FC0145
:1043B00026818081280F20834485558582859385B9
:1043C000840F951F958784874085518584179507AD
:1043D0003CF03281230F2083841B950B95878487C3
:1043E00008951F93CF93DF93FC01162F6183C42F91
:1043F000D0E0C61BD109D583C48321503109318750
:10440000208781E090E093838283CE01B9010E94EE
:104410000B3177836683D7FF09C0D195C195D10948
:10442000D583C4838FEF9FEF9383828384819581AB
:10443000B9010E940B319387828737FF02C02F5F3B
:104440003F4F35952795358724871083DF91CF918E
:104450001F9108958091000161E4869F602D1124D1
:104460006F5E6093000170E080E090E00895009737
:1044700069F0FC0101900020E9F73197AF01481B7A
:10448000590BBC0185EF91E00C945E1480E090E044
:1044900008958F929F92BF92CF92DF92EF92FF92F8
:1044A0000F931F93CF93DF936C017B010BEC12E012
:1044B000C8E2D2E0BC2E83E0B80E4E01DE011397B5
:1044C000FE01399797014C916081C8010E94F1214A
:1044D0002196FE0137979701D4014C916081C80164
:1044E0008A960E94F121025F1F4FBC12E6CFC0E006
:1044F000D0E097012C1B3D0B121613060CF04DC09B
:104500008091CB0280931F028091D9028093200278
:104510008091E702809321028091F502809322022C
:1045200080910303809323028091110380932402DE
:1045300010920D0210920C02D0930F02C0930E0243
:10454000D0921402C0921302109216021092150219
:10455000E091FE01F091FF014CE052E067E170E074
:1045600089EF91E009958BEC92E00E94D72189EDCB
:1045700092E00E94D72187EE92E00E94D72185EF3A
:1045800092E00E94D72183E093E00E94D72181E14D
:1045900093E00E94D7212196ACCFDF91CF911F915C
:1045A0000F91FF90EF90DF90CF90BF909F908F90F2
:1045B0000895CF92DF92EF92FF920F931F93CF93C4
:1045C000DF937C018B016A01E9011C161D0624F5AD
:1045D00080911F028093100280912002809311022B
:1045E0008091210280931202F0920D02E0920C025F
:1045F00010930F0200930E02D0921402C092130285
:10460000109216021092150289EF91E00E943F1A53
:1046100021970F5F1F4FD9CFDF91CF911F910F913E
:10462000FF90EF90DF90CF900895E5EFF1E022A5A5
:10463000238F23A5248F24A5258F908F878B728F9E
:10464000618F0184F285E02D40E050E064E170E08C
:1046500089EF91E00994CF92DF92EF92FF920F934E
:104660001F93CF93DF93082F10E093E1899FE00120
:104670001124C554DE4F6EA184E0689FF00111241F
:10468000E554FE4FE280F380C080D180ECA1FDA113
:104690008BEB91E0099594E0899FF0011124E5549A
:1046A000FE4F22813381408151818EA3CA018C1932
:1046B0009D09A9014E195F095F8B4E8B3F8F2E8F8D
:1046C000FD8EEC8ED9A2C8A297FD08C021E030E093
:1046D0003D8B2C8B1BA21AA27C010EC02FEF3FEF4B
:1046E0003D8B2C8BEE24FF24E81AF90A21E030E000
:1046F000241B350B3BA32AA323E1209FF001219F1C
:10470000F00D1124E554FE4F26893789B9010E9426
:104710000B31718F608FC701B9010E940B31938FEC
:10472000828FDF91CF911F910F91FF90EF90DF90DB
:10473000CF900895EF92FF920F931F93CF93DF9343
:104740008C0183E1689FF0011124E554FE4F66A1BE
:104750007F01A4E2EA0EF11CEF01A696D701ED91CC
:10476000FC918BEB91E00995682FB4E08B9FF001F1
:104770001124E554FE4F828193818017910711F433
:104780006883ECCFDF91CF911F910F91FF90EF9055
:104790000895CF93DF9320915D0230915E02281738
:1047A000390709F4A2C0EC0190935E0280935D0288
:1047B000FC01849180936E023196E491E0936F0244
:1047C000FE013296E491E0937002FE013396E4918B
:1047D000E0937102FE013496E491E0937202FE01CF
:1047E0003596E491E0937302FE013696E491E093EE
:1047F0007402FE013796E491E0937502FE0138964B
:10480000E491E0937602FE013996E491E093770219
:10481000FE013A96E491E0937802FE013B96E49122
:10482000E0937902FE013C96E491E0937A02FE0166
:104830003D96E491E0937B02FE013E96E491E09385
:104840007C02FE013F96E491E0937D02FE017096AA
:10485000E491E0937E0261E1CE010E94331A9093CD
:10486000800280937F0263E1CE010E94331A90930D
:1048700082028093810280915D0290915E02892B79
:10488000A1F180917B028093890240917C02409348
:104890008A0290918802992341F1913069F49091B4
:1048A0007D02891714F49093890280917E02841707
:1048B000E4F480938A0219C03091780220917A0240
:1048C000082E000C990B622F022E000C770B630F41
:1048D000711D37FD7A95861797071CF4320F3093B8
:1048E0008902241714F420938A02DF91CF9108954E
:1048F0008F929F92AF92BF92CF92DF92EF92FF92F0
:104900000F931F93CF93DF937C016B015A018901B1
:10491000C5EFD1E08AA58B8F8BA58C8F8CA58D8F51
:10492000F88EEF8A7A8F698F5F8F4E8F19A218A247
:1049300089EF91E00E943F1A8AA58B8F8BA58C8FFF
:104940008CA58D8FF88EEF8ADA8EC98E1F8F0E8F11
:1049500088248394912C99A288A289EF91E00E94E7
:104960003F1AC7018A0D9B1D2AA52B8F2BA52C8FC3
:104970002CA52D8F0197988F8F8BDA8EC98E1F8F64
:104980000E8F99A288A289EF91E00E943F1A0C0D28
:104990001D1D8AA58B8F8BA58C8F8CA58D8FF88E76
:1049A000EF8A015011091A8F098FBF8EAE8E19A29E
:1049B00018A289EF91E0DF91CF911F910F91FF90A5
:1049C000EF90DF90CF90BF90AF909F908F900C941E
:1049D0003F1ACF93DF93C5EFD1E01AA61BA61CA602
:1049E00089EF91E00E94691B2F8138854D815E819E
:1049F00060E070E080E090E00E94D9228FEF8AA70B
:104A00008BA78CA7DF91CF9108958091020290919E
:104A10000302009741F09093FF018093FE011092F2
:104A200003021092020289EF91E00E948E1B89EF2F
:104A300091E00C94691B90E0FC01EE5AF74D249133
:104A4000FC01E25CF74D8491882399F090E0880F97
:104A5000991FFC01EC5CF74DA591B491FC01E65D5A
:104A6000F74D859194918FB7F894EC91E22BEC93EC
:104A70008FBF0895CF93DF93CDB7DEB72E970FB6D4
:104A8000F894DEBF0FBECDBF789484B5826084BD3C
:104A900084B5816084BD85B5826085BD85B5816042
:104AA00085BD80916E00816080936E0010928100C0
:104AB000809181008260809381008091810081607B
:104AC000809381008091800081608093800080913C
:104AD000B10084608093B1008091B00081608093C8
:104AE000B00080917A00846080937A0080917A008F
:104AF000826080937A0080917A008E7F80937A0022
:104B000080917A00806880937A001092C10068EEEC
:104B100073E080E090E00E9444198091C40290917B
:104B2000C5024091C2025091C3022091F9012E7F2B
:104B30002093F901109203021092020221E030E06A
:104B400030931A022093190210925E0210925D02B5
:104B500020936C021092BF021092C0021092C10208
:104B6000009711F481EA96E190930102809300028C
:104B70005093FF014093FE0181EB9DE190930B0266
:104B800080930A0289EF91E00E94031A89EF91E075
:104B90000E949E1B89EF91E00E948E1B81E0809312
:104BA0006C028FEB93E10E94C9230E94E92480915B
:104BB000A2018370813099F078F08230E9F40E948C
:104BC00005258091FE019091FF019093030280934F
:104BD00002028CE295E11CC00E94052525C00E94BE
:104BE00005258091FE019091FF019093030280932F
:104BF000020285EB95E10CC00E9405258091FE0123
:104C00009091FF0190930302809302028EEA94E157
:104C10009093FF018093FE0189EF91E00E948E1B2B
:104C200089EF91E00E94691B8091A201843008F411
:104C300041C00E94E9240E942A227B012FE1E22246
:104C4000FF240E942A226F71772739E1E30EF11CBD
:104C50008B01075E1F4F0E942A229B01AC01A0918D
:104C6000FA01B091FB01AE19BF090E944731872EAE
:104C7000982EA92EBB240E942A229B01AC01A09150
:104C8000FC01B091FD01A01BB10B0E944731BB2775
:104C9000A92F982F872F9A8289829C838B83FE82EB
:104CA000ED8218870F83BE016F5F7F4F89EF91E020
:104CB0000E94601B8091A2018F5F8093A2011092DD
:104CC0001F0288E28093200290E590932102909346
:104CD000220210922302809324021FEF10932502D8
:104CE0001092260210932702109228021093290294
:104CF00010932A026091FC017091FD018091FA01EC
:104D00009091FB010E94492210931F0288EA809330
:104D10002002109221021092CA0242E0E42EF12CED
:104D2000F092C702E092C60282E190E09093C9023D
:104D30008093C80285E291E00E943722F092C70278
:104D4000E092C60286E290E09093C9028093C80286
:104D50008CE291E00E94372260ED77E080E090E005
:104D60000E9444198AEF80931F0210922002109231
:104D7000210210932202109323028EE180932402D9
:104D80009CED909325029BEE909326029AE09093DF
:104D900027029DEC909328021092290280932A0208
:104DA0006091FC017091FD018091FA019091FB01ED
:104DB0000E944922E090FA01F090FB01F7FE03C047
:104DC0008FEFE81AF80AF594E7940091FC0110912E
:104DD000FD0117FF02C00F5F1F4F15950795772440
:104DE0007A9470921F027092200270922102F2E077
:104DF000AF2EB12CB092C702A092C60282E190E021
:104E00009093C9028093C80289E391E00E943722FF
:104E100010921F02A6E66A2E60922002BCEC9B2E26
:104E200090922102C7010F969093C7028093C60209
:104E3000C80105979093C9028093C8028FE391E05F
:104E40000E943722670195E0C90ED11CD092C7029B
:104E5000C092C602C8014A969093C9028093C802C4
:104E600084E491E00E943722C70188979093C7029B
:104E70008093C602C80144969093C9028093C802E9
:104E800089E491E00E943722D092C702C092C60204
:104E9000C80149979093C9028093C8028EE491E0BB
:104EA0000E94372210921F0260922002709221020B
:104EB0001092220260922302909224021092250204
:104EC0001092260289E9809327021801E1E02E1A48
:104ED00031084701F2E08F0E911C1092100260928F
:104EE00011027092120290920D0280920C02309286
:104EF0000F0220920E0284E1C82ED12CD09214020F
:104F0000C0921302109216021092150289EF91E0DE
:104F10000E943F1A80912202809310028091230206
:104F200080931102809124028093120290920D02CC
:104F300080920C0210930F0200930E02D092140282
:104F4000C0921302109216021092150289EF91E09E
:104F50000E943F1A28012FEF421A520A809125021F
:104F60008093100280912602809311028091270283
:104F70008093120290920D0280920C0250920F02C6
:104F800040920E02D0921402C092130210921602A6
:104F90001092150289EF91E00E943F1A380132E029
:104FA000630E711CA7014F5F5F4F80911F028093BA
:104FB000100280912002809311028091210280933F
:104FC000120250930D0240930C0270920F026092F5
:104FD0000E02D0921402C092130288248394912C62
:104FE000909216028092150289EF91E04D875E87BC
:104FF0000E943F1A80912202809310028091230226
:10500000809311028091240280931202F0920D028B
:10501000E0920C0270920F0260920E02D092140283
:10502000C0921302909216028092150289EF91E0CD
:105030000E943F1A970121503109809125028093E7
:1050400010028091260280931102809127028093A2
:10505000120230930D0220930C0270920F026092A4
:105060000E02D0921402C092130290921602809205
:10507000150289EF91E02B873C870E943F1A470178
:1050800082E0881A910880911F028093100280911B
:10509000200280931102809121028093120290924B
:1050A0000D0280920C0250920F0240920E02D0929A
:1050B0001402C0921302B0921602A092150289EF58
:1050C00091E00E943F1A8091220280931002809109
:1050D0002302809311028091240280931202909205
:1050E0000D0280920C0210930F0200930E02D092D8
:1050F0001402C0921302B0921602A092150289EF18
:1051000091E00E943F1A80912502809310028091C5
:1051100026028093110280912702809312029092BE
:105120000D0280920C0230920F0220920E02D09259
:105130001402C0921302B0921602A092150289EFD7
:1051400091E00E943F1A0250110980911F02809342
:10515000100280912002809311028091210280939D
:1051600012022B853C8530930D0220930C02109384
:105170000F0200930E02D0921402C092130223E099
:10518000A22EB12CB0921602A092150289EF91E0E6
:105190000E943F1A80912202809310028091230284
:1051A000809311028091240280931202F0920D02EA
:1051B000E0920C0210930F0200930E02D0921402A0
:1051C000C0921302B0921602A092150289EF91E0EC
:1051D0000E943F1A8091250280931002809126023E
:1051E0008093110280912702809312024D855E8583
:1051F00050930D0240930C0210930F0200930E0285
:10520000D0921402C0921302B0921602A09215021C
:1052100089EF91E00E943F1A60ED77E080E090E036
:105220000E9444198091FA019091FB018C0197FF33
:1052300002C00F5F1F4F1595079510921F02109225
:10524000200226E920932102109222023CE33093AF
:10525000230228E220932402309325021092260292
:105260002093270228E7209328022093290228EC84
:1052700020932A026091FC017091FD010E94492255
:105280008FEF80931F02809320028093210282E09F
:1052900090E09093C7028093C60282E190E09093E1
:1052A000C9028093C8021092CA0283E591E00E946D
:1052B000372260E070E080E090E00E94152360E01B
:1052C00070E081E090E00E9415236091FC017091F4
:1052D000FD01615071098091FA019091FB010197E4
:1052E0000E9415236091FC017091FD0161507109CC
:1052F0008091FA019091FB0102970E941523812C65
:10530000912CE12CF12C77247A946DE0C62ED12CCF
:10531000AA24A394B12CE016F1060CF058C0C401E5
:10532000B8010E94F730262F2095CB0177FD01961A
:1053300095958795809570921F0280932002209307
:105340002102709210028093110220931202F092B7
:105350000D02E0920C02E8E1F0E0F0930F02E0931E
:105360000E02E091FE01F091FF0140E050E064E1A7
:1053700070E089EF91E0099580911F0280931002FF
:105380008091200280931102809121028093120269
:10539000C701079690930D0280930C022AE130E03A
:1053A00030930F0220930E02D0921402C092130287
:1053B000B0921602A092150289EF91E00E943F1A66
:1053C0003FEFE31AF30A8FEF880E911CA4CF60ED34
:1053D00077E080E090E00E94441910921F02109242
:1053E0002002109221022091FC013091FD01409198
:1053F000FA015091FB0160E070E080E090E00E94D3
:10540000D9228FEF80931F02809320028093210284
:1054100082E090E09093C7028093C60282E190E020
:105420009093C9028093C8021092CA028CE591E061
:105430000E9437228FE780931F028093200280937F
:1054400021022CE230E044E450E064E170E080E0CE
:1054500090E00E94D92210E032E0E32EF12C10936C
:105460001F02109320021093210228E030E044E054
:1054700050E066E170E0C7010E94D92210931F023C
:10548000109220021092210228E030E044E050E027
:105490006EE170E0C7010E94D92210921F021093A2
:1054A00020021092210228E030E044E050E066E261
:1054B00070E0C7010E94D92210921F0210922002B0
:1054C0001093210228E030E044E050E06EE270E00A
:1054D000C7010E94D92210931F02812F80958093CB
:1054E00020021092210228E030E044E050E066E320
:1054F00070E0C7010E94D92294E0E90EF11C1F5E02
:10550000103109F0ACCF60ED77E080E090E00E94D0
:10551000441910921F0220E52093200294E19093F9
:1055200021028CE380932202209323029093240291
:105530008093250288E7809326021092270210921A
:1055400028028CE8809329028EE180932A026091E0
:10555000FC017091FD018091FA019091FB010E9484
:1055600049228FEF80931F028093200280932102B3
:1055700082E090E09093C7028093C60282E190E0BF
:105580009093C9028093C80287E691E00E94372277
:105590000E947E196B017C01E0EACE0EEFE0DE1E78
:1055A000E11CF11C0E947E196C157D058E059F057E
:1055B00008F0F6C00E942A22162F0E942A22062FE7
:1055C0000E942A22862F8F77815880931F020F71A5
:1055D000009320021F77105C109321020E942A2260
:1055E0009B01AC01A091FC01B091FD0154970E9478
:1055F0004731BB27A92F982F872F1C01F4E12F0ECD
:10560000311C0E942A229B01AC01A091FA01B091A9
:10561000FB010E944731872E982EA92EBB240E94A1
:105620002A229B01AC01A091FC01B091FD0154978D
:105630000E944731BB27A92F982F872F9C012C5EF2
:105640003F4F3A8729870E942A229B01AC01A091F3
:10565000FA01B091FB010E944731472E582E692E66
:1056600077240E942A229B01AC01A091FC01B091F9
:10567000FD0154970E944731BB27A92F982F872FF0
:105680008C010C5E1F4F0E942A229B01AC01A0914D
:10569000FA01B091FB010E944731BB27A92F982F37
:1056A000872F9093BC018093BB011093BE010093A0
:1056B000BD015092C0014092BF0189859A859093A7
:1056C000C2018093C1019092C4018092C3013092C3
:1056D000C6012092C50193E09093CB01E6E3F6E189
:1056E000F093F301E093F2012DE236E13093E00113
:1056F0002093DF011092E101EBEBF1E0580190E023
:1057000081E0833070F426813781021713070CF48F
:1057100089012A153B0514F4982F59018F5F34969F
:10572000F0CF9093E1010A191B091093CE01009369
:10573000CD01012B09F436CF9093F40161E0C5014E
:105740000E949A2360E0C5010E949A2331E03093C1
:10575000CC01A091E10184E0A89FD0011124A554BF
:10576000BE4FE091F40194E0E99FF0011124E5546B
:10577000FE4F2D913C91808191812817390719F0B6
:105780001092CC015DC48091CD019091CE01019722
:105790009093CE018093CD01892B09F051C402CFA3
:1057A00010921F0288E28093200290E590932102DC
:1057B00096E9909322021092230208EC00932402AF
:1057C0009CE3909325021092260280932702109268
:1057D000280280EA8093290280932A026091FC01CA
:1057E0007091FD018091FA019091FB010E94492284
:1057F0001FEF10931F0210932002109321021092AA
:10580000CA0242E0E42EF12CF092C702E092C602F6
:1058100082E190E09093C9028093C80280E791E012
:105820000E94372281E080936C0210931F02009344
:1058300020028AEA809321028BEE9EE00E94C92317
:10584000F092C702E092C60283E290E09093C90210
:105850008093C80286E791E00E9437228EE498E0A8
:105860000E94C923F092C702E092C60282E390E050
:105870009093C9028093C80286E791E00E94372284
:105880008EE990E00E94C92356E7E52E51E0F52EFF
:1058900002E010E0F70161917F01662349F1E09198
:1058A0005F02F091600289EF91E06B870995109398
:1058B0006402009363028D5B9F4F90936602809316
:1058C000650210926D026B8589EF91E00E940B1AC0
:1058D000009749F0BC0189EF91E00E94B71A082EA9
:1058E000000C990B02C080E090E0080F191FD2CF86
:1058F00010926C02FF24FA94F0921F0288EC8093BD
:1059000020028AEA809321021092220284E6809388
:10591000230288E7809324028BEE9EE00E94C92335
:1059200002E010E01093C7020093C6028EE690E0FA
:105930009093C9028093C80286E791E00E943722C3
:105940008EE498E00E94C9231093C7020093C60218
:105950008DE790E09093C9028093C80286E791E0BA
:105960000E9437228EE990E00E94C9231093C7025B
:105970000093C6028EE890E09093C9028093C8021B
:1059800086E791E00E94372281E080936C028FEBE2
:1059900093E10E94C92360ED77E080E090E00E94EF
:1059A000441980E580931F0298E2909320021092A0
:1059B00021028CE38093220210922302909324020E
:1059C00094E19093250210922602909327028093EF
:1059D00028021092290210922A026091FC01709113
:1059E000FD018091FA019091FB010E944922F09201
:1059F0001F02F0922002F09221021093C70200933E
:105A0000C60282E190E09093C9028093C80210928E
:105A1000CA0282E891E00E9437220E947E196B013F
:105A20007C01F0EACF0EFFE0DF1EE11CF11C00E07C
:105A300010E00E947E196C157D058E059F0508F00B
:105A40004DC00E942A22B62E0E942A22A62E0E9413
:105A50002A226F7160931F028A2D8F77815880935D
:105A600020028B2D8F77805C809321020E942A2256
:105A70009B01AC01A091FA01B091FB0198970E94A3
:105A80004731872E982EA92EBB240E942A229B01E3
:105A9000AC01A091FC01B091FD0156970E944731E5
:105AA000BB27A92F982F872FBC016A5E7F4F90924A
:105AB000C7028092C6027093C9026093C802C801EF
:105AC000959587959595879583708093CA020F5F0A
:105AD0001F4F85E291E00E943722ABCF1092CA029D
