:020000040000FA
:100000000B28FF3FFF3FFF3FCE00030E83128C0003
:100010000A088D0094290C2883010E280E308316BF
:100020008500860183129601160816218312860028
:100030000516C8308E0000308F006E218312051225
:10004000013094001408960710301602031C29286A
:100050002A2814289601160816218312860086176E
:10006000C8308E0000308F006E218312861301305D
:1000700094001408960710301602031C40284128EB
:100080002B28960105168617970116081621803829
:10009000831286000A308E0000308F006E210130FE
:1000A00083129400140897070A301702031C59287A
:1000B0005A2845280130940014089607103016027B
:1000C000031C6328642842288601970101308506B5
:1000D000F4308E0001308F006E21013083129400C5
:1000E0001408970704301702031C7728782866281D
:1000F00096019701970A17088600C8308E000030D5
:100100008F006E21831217089400140795001508BC
:1001100097001708031D8D288E287B280130940036
:100120001408960703301602031C9728982879288C
:1001300086019701FF30940014088606C8308E00AF
:1001400000308F006E21013083129400140897074D
:1001500004301702031CAD28AE289A28FE308316FF
:100160008500D6288518B528B628BB280614851C16
:10017000BA28BB28B7280519BE28BF28C42886146A
:10018000051DC328C428C0288519C728C828CD281C
:100190000615851DCC28CD28C928051AD028D128B8
:1001A000D6288615051ED528D628D2280F308312CA
:1001B000060594000F301406031DDF28E028B2283E
:1001C0008601E03083168500831285019701023095
:1001D0008506C8308E0000308F006E2183120430F7
:1001E0008506C8308E0000308F006E2183120830E3
:1001F0008506C8308E0000308F006E2183121030CB
:100200008506C8308E0000308F006E2101308312C9
:1002100094001408970704301702031C10291129B1
:10022000E728FE308316850014290B2883128E00E0
:100230003B293F306D2906306D295B306D294F30E9
:100240006D2966306D296D306D297D306D2907303F
:100250006D297F306D296F306D2977306D297C30A5
:100260006D2958306D295E306D2979306D297130D6
:100270006D2900306D290E08003A03191929013A39
:1002800003191B29033A03191D29013A03191F29D0
:10029000073A03192129013A03192329033A0319BB
:1002A0002529013A031927290F3A03192929013A67
:1002B00003192B29033A03192D29013A03192F2970
:1002C000073A03193129013A03193329033A03196B
:1002D0003529013A03193729392908008312910178
:1002E0009201892993010000000000000000000035
:1002F00001308312900010089307C8301302031CCA
:10030000822983297329013091070318920A00304A
:1003100092070F081202031D8F290E081102031CF9
:1003200092299329722908000D088A000C0E830077
:10033000CE0E4E0E0900FF3FFF3FFF3FFF3FFF3F46
:10034000FF3FFF3FFF3FFF3FFF3FFF3FFF3FFF3FBD
:10035000FF3FFF3FFF3FFF3FFF3FFF3FFF3FFF3FAD
:10036000FF3FFF3FFF3FFF3FFF3FFF3FFF3FFF3F9D
:10037000FF3FFF3FFF3FFF3FFF3FFF3FFF3FFF3F8D
:02400E00F2FFBF
:10420000FF00FF00FF00FF00FF00FF00FF00FF00B6
:10421000FF00FF00FF00FF00FF00FF00FF00FF00A6
:10422000FF00FF00FF00FF00FF00FF00FF00FF0096
:10423000FF00FF00FF00FF00FF00FF00FF00FF0086
:10424000FF00FF00FF00FF00FF00FF00FF00FF0076
:10425000FF00FF00FF00FF00FF00FF00FF00FF0066
:10426000FF00FF00FF00FF00FF00FF00FF00FF0056
:10427000FF00FF00FF00FF00FF00FF00FF00FF0046
:00000001FF
