:020000040000FA
:100000000A128A111228FF3FFE00030E8312031307
:10001000A4000408A5000A08A6007F08A7000A1685
:100020008A11FD2C0A128A111528F8018313513008
:10003000840067300A168A115B2383010A128A152D
:10004000C52D83120313A8000130A9000A168A11D6
:100050001E240A128A11C0300A168A11D6230A12E7
:100060008A11F83083120313AF008830B0000A16EB
:100070008A1145240A128A118312031386193C2817
:10008000C6300A168A11D6230A128A112F3083121B
:100090000313AF008A30B0000A168A1145240A12F1
:1000A0008A11F43083120313A8000130A9000A1644
:1000B0008A111E240A128A11C0300A168A11D62308
:1000C0000A128A11073083120313AF008930B0007F
:1000D0000A168A1145240A128A1183120313061A7A
:1000E0006D28C6300A168A11D6230A128A112F30BB
:1000F00083120313AF008A30B0000A168A11452418
:100100000A128A11F43083120313A8000130A900E7
:100110000A168A111E240A128A11C0300A168A1180
:10012000D6230A128A11253083120313AF008930B7
:10013000B0000A168A1145240A128A118312031389
:10014000861A9E28C6300A168A11D6230A128A11E8
:100150002F3083120313AF008A30B0000A168A11C1
:1001600045240A128A11F43083120313A8000130C7
:10017000A9000A168A111E240A128A11C0300A1612
:100180008A11D6230A128A11163083120313AF0084
:100190008930B0000A168A1145240A128A11831286
:1001A0000313851ACF28C6300A168A11D6230A12DD
:1001B0008A112F3083120313AF008A30B0000A1661
:1001C0008A1145240A128A11F43083120313A800FD
:1001D0000130A9000A168A111E240A128A118312FC
:1001E000031386010B30831603139F0001300A1698
:1001F0008A11D6230A128A1180300A168A11D62350
:100200000A128A11BB3083120313AF008830B0008A
:100210000A168A1145240A128A11C0300A168A1158
:10022000D6230A128A11483083120313AF00883094
:10023000B0000A168A1145240A128A110330831667
:10024000031386008312061C272986182229061804
:10025000E4298316031387170713C4300A168A117B
:10026000D6230A128A113C3083120313AF008A305E
:10027000B0000A168A1145240A128A111630831218
:100280000313A9008830AA000A168A116F240A12E3
:100290008A1183120313D0010430500203186C2911
:1002A0005008303E0A168A116C230A128A11AA30AD
:1002B00083120313A9008930AA000A168A116F2439
:1002C0000A128A11013083120313C4004408D007B4
:1002D00004305002031C5029E830A8000330A90064
:1002E0000A168A111E240A128A1101300A168A116E
:1002F000D6230A128A1180300A168A11D6230A12CE
:100300008A11AB3083120313AF008830B0000A1695
:100310008A1145240A128A11DE3083120313A900C0
:100320008930AA000A168A116F240A128A118312D0
:100330000313D001203050020318DB2950080F3975
:10034000031DB329C0300A168A11D6230A128A1156
:10035000113083120313A9008A30AA000A168A11E9
:100360006F240A128A11D03083120313AE000730B3
:10037000AF000A168A1199240A128A1183120313F4
:10038000C4004408CF004F080A168A11FA230A1243
:100390008A11831203134F080A168A116C230A125A
:1003A0008A11013083120313C4004408D00720309F
:1003B0005002031C9E296430A8000030A9000A16D0
:1003C0008A111E240A128A1101300A168A11D623B4
:1003D0000A128A1180300A168A11D6230A128A114B
:1003E0007B3083120313AF008830B0000A168A11E5
:1003F00045240A128A1183120313D001C830500217
:100400000318752ACC30B8000030B90000300A1645
:100410008A1170250A128A11831203132908B30066
:100420002808B2000A30B4000030B5000A168A115C
:10043000B3230A128A11831203133308BB00320854
:10044000BA000A168A11AC250A128A118312031304
:100450003808C4004408CF00C6300A168A11D623D3
:100460000A128A11831203134F08C400C5014408FD
:10047000C0004508C1004930C6004608C2000A1243
:100480008A1562230A128A11831203134C080A1672
:100490008A11FA230A128A112C300A168A11FA23B9
:1004A0000A128A11831203134D080A168A11FA23BD
:1004B0000A128A1156300A168A11FA230A128A1170
:1004C0000A3083120313A8000030A9000A168A110B
:1004D0001E240A128A11013083120313C400440837
:1004E000D007C8305002031C022A01300A168A11B4
:1004F000D6230A128A1180300A168A11D6230A12CC
:100500008A118B3083120313AF008830B0000A16B3
:100510008A1145240A128A1183120313D001C830AC
:1005200050020318062BCC30B8000030B90001305F
:100530000A168A1170250A128A11831203132908D8
:10054000B3002808B2000A30B4000030B5000A1623
:100550008A11B3230A128A11831203133308BB00D2
:100560003208BA000A168A11AC250A128A118312BF
:1005700003133808C4004408CF00C6300A168A1195
:10058000D6230A128A11831203134F08C400C5012F
:100590004408C0004508C1004930C6004608C200F2
:1005A0000A128A1562230A128A11831203134C0855
:1005B0000A168A11FA230A128A112C300A168A1195
:1005C000FA230A128A11831203134D080A168A119C
:1005D000FA230A128A1156300A168A11FA230A12CD
:1005E0008A110A3083120313A8000030A9000A16EA
:1005F0008A111E240A128A11013083120313C400C7
:100600004408D007C8305002031C932A83160313F2
:100610000710091001300A168A11D6230A128A110E
:1006200080300A168A11D6230A128A11B730831233
:100630000313AF008930B0000A168A1145240A124C
:100640008A1183120313D001053050020318452B81
:1006500007080139C4000130C40607084406FE3902
:1006600044068700F430A8000130A9000A168A1158
:100670001E240A128A11013083120313C400440895
:10068000D00705305002031C282B071001300A1632
:100690008A11D6230A128A1180300A168A11D623AB
:1006A0000A128A11C43083120313AF008930B000DC
:1006B0000A168A1145240A128A1183120313D001E3
:1006C000053050020318812B09080139C40001309C
:1006D000C40609084406FE3944068900F430A8001F
:1006E0000130A9000A168A111E240A128A1101304B
:1006F00083120313C4004408D00705305002031CC2
:10070000642B0910033083160313860001300A1688
:100710008A11D6230A128A1180300A168A11D6232A
:100720000A128A11433083120313AF008930B000DC
:100730000A168A1145240A128A11C0300A168A1133
:10074000D6230A128A11E93083120313AF008930CD
:10075000B0000A168A1145240A128A118312031363
:100760008618AE2B01300A168A11D6230A128A1176
:1007700080300A168A11D6230A128A118E3083120B
:100780000313AF008930B0000A168A1145240A12FB
:100790008A1107308316031385000A128A154D2229
:1007A0000A128A1183120313D00164305002031815
:1007B000492C02300A168A1170250A128A118312F6
:1007C00003132908B3002808B2000A30B40000302F
:1007D000B5000A168A11B3230A128A118312031371
:1007E0003208C4003308C5000310C50CC40C44080B
:1007F000C7004508C800C5300A168A11D6230A1258
:100800008A11831203134808C1004708C000493009
:10081000C4004408C2000A128A1562230A128A110F
:10082000831203134B080A168A11FA230A128A113B
:10083000831203134C080A168A11FA230A128A112A
:100840002C300A168A11FA230A128A118312031312
:100850004D080A168A11FA230A128A1143300A1621
:100860008A11FA230A128A11143083120313A80082
:100870000030A9000A168A111E240A128A110130BA
:1008800083120313C4004408D00764305002031CD1
:10089000D92B01300A168A11D6230A128A11803008
:1008A0000A168A11D6230A128A11343083120313CE
:1008B000AF008930B0000A168A1145240A128A1145
:1008C000831203138716D001643050020318D82C0A
:1008D00002300A168A1170250A128A118312031334
:1008E0002908B3002808B2000A30B4000030B5006F
:1008F0000A168A11B3230A128A11831203133208CB
:10090000C4003308C5000310C50CC40C4408C7005C
:100910004508C800C5300A168A11D6230A128A1162
:10092000831203134808C1004708C0004930C400BF
:100930004408C2000A128A1562230A128A1183121D
:1009400003134B080A168A11FA230A128A1183121A
:1009500003134C080A168A11FA230A128A112C3042
:100960000A168A11FA230A128A11831203134D08F8
:100970000A168A11FA230A128A1143300A168A11BA
:10098000FA230A128A11323083120313A8000030AE
:10099000A9000A168A111E240A128A110130831234
:1009A0000313C4004408D00764305002031C682CB1
:1009B000871283160313071401300A168A11D623EF
:1009C0000A128A1180300A168A11D6230A128A1155
:1009D000523083120313AF008930B0000A168A1117
:1009E00045240A128A118316031381128111011002
:1009F000811001158B16831203139014901210129C
:100A00000B11063081007D30C4004408F8008B17BC
:100A10008F018E0110140715D00196305002031873
:100A2000C82D02300A168A1170250A128A11831203
:100A300003132908B3002808B2000A30B4000030BC
:100A4000B5000A168A11B3230A128A1183120313FE
:100A50003208C4003308C5000310C50CC40C440898
:100A6000C7004508C800C2300A168A11D6230A12E8
:100A70008A11831203134808C1004708C000493097
:100A8000C4004408C2000A128A1562230A128A119D
:100A9000831203134B080A168A11FA230A128A11C9
:100AA000831203134C080A168A11FA230A128A11B8
:100AB0002C300A168A11FA230A128A1183120313A0
:100AC0004D080A168A11FA230A128A1143300A16AF
:100AD0008A11FA230A128A11C8300A168A11D623FB
:100AE0000A128A11831203135208C1005108C00070
:100AF0004930C4004408C2000A128A1562230A124F
:100B00008A11831203134A080A168A11FA230A1259
:100B10008A11831203134B080A168A11FA230A1248
:100B20008A11831203134C080A168A11FA230A1237
:100B30008A11831203134D080A168A11FA230A1226
:100B40008A1152300A168A11FA230A128A11503079
:100B50000A168A11FA230A128A1153300A168A11C8
:100B6000FA230A128A110A3083120313A8000030F4
:100B7000A9000A168A111E240A128A110130831252
:100B80000313C4004408D00796305002031C112DF3
:100B90008B1307110F30831603139F0001300A16C1
:100BA0008A11D6230A128A1180300A168A11D62396
:100BB0000A128A11143083120313AF008A30B00076
:100BC0000A168A1145240A128A110A128A15C224A9
:100BD0000A128A11C0300A168A11D6230A128A1103
:100BE000533083120313AF000030B0000A168A118D
:100BF00045240A128A11D03083120313A80007304B
:100C0000A9000A168A111E240A128A1183120313DC
:100C1000D001143050020318382E0A128A15C2244B
:100C20000A128A11C0300A168A11D6230A128A11B2
:100C30005D3083120313AF000030B0000A168A1132
:100C400045240A128A11F43083120313A8000130DC
:100C5000A9000A168A111E240A128A110130831271
:100C60000313C4004408D00714305002031C0D2E97
:100C7000033083160313860001300A168A11D62327
:100C80000A128A1180300A168A11D6230A128A1192
:100C9000373083120313AF008830B0000A168A1170
:100CA00045240A128A11C0300A168A11D6230A1264
:100CB0008A11E93083120313AF008930B0000A169D
:100CC0008A1145240A128A11831203138618642E8E
:100CD000F83083160313860001300A168A11D623D2
:100CE0000A128A1182300A168A11D6230A128A1130
:100CF0009C3083120313AF008930B0000A168A11AA
:100D000045240A128A11C1300A168A11D6230A1202
:100D10008A1183120313D0010E3050020318B72E2C
:100D20000F30831603138800DC3083120313AE00E8
:100D30000530AF000A128A150A240A128A11303EC1
:100D400083120313C4004408CF00831603138801E1
:100D5000831203134F080A168A11FA230A128A1102
:100D6000013083120313C4004408D0078C2E0130D5
:100D70000A168A11D6230A128A1180300A168A119D
:100D8000D6230A128A116A3083120313AF00883007
:100D9000B0000A168A1145240A128A11C0300A16B8
:100DA0008A11D6230A128A11483083120313AF0026
:100DB0008830B0000A168A1145240A128A110330BD
:100DC0008316031386008312061CE82E8618E32E72
:100DD0000618772F0A30AD000030AE000A128A11D3
:100DE000B5270A128A1183120313C4004408CF00E6
:100DF0004F080A168A11FA230A128A110A3083123E
:100E00000313B3000030B400A530C4004408B5009B
:100E10000A168A1124270A128A110A308312031330
:100E2000B3000030B4005A30C4004408B5000A16BC
:100E30008A1124270A128A110A3083120313AD0083
:100E40000030AE000A128A11B5270A128A118312E5
:100E50000313C4004408D0000A30B3000030B400CB
:100E60004F08C4004408B5000A168A1124270A1244
:100E70008A1101300A168A11D6230A128A1180308B
:100E80000A168A11D6230A128A116A3083120313B2
:100E9000AF008830B0000A168A1145240A128A1160
:100EA000C0300A168A11D6230A128A115A308312C8
:100EB00003135006031D602F1E30AF008A30652FCC
:100EC000F43083120313AF008930B0000A168A1180
:100ED00045240A128A11E83083120313A800033054
:100EE000A9000A168A111E240A128A117B2F831266
:100EF0000313861C772F83160313860183120313B3
:100F0000860101300A168A11D6230A128A1180300E
:100F10000A168A11D6230A128A1132308312031359
:100F2000AF008A30B0000A168A1145240A128A11CD
:100F3000C0300A168A11D6230A128A116130831230
:100F40000313AF008930B0000A168A1145240A1233
:100F50008A110A3083120313A9008A30AA000A16E4
:100F60008A116F240A128A11B42F831203132E08D8
:100F70000139AF002F08B2002D08AF002F08B100D3
:100F80000A168A1193230A128A1183120313320854
:100F90000319CC2FA230CD2FA0300A168A11EA25D2
:100FA0000A128A118312031331080A168A11EA25DC
:100FB0000A128A110A168A1193230A128A118312BD
:100FC000031332080319E62FA330E72FA1300A16C6
:100FD0008A11EA250A128A1101300A168A11292675
:100FE0000A128A1183120313AF002F08B0000A16E9
:100FF0008A11A3238312031330080800FF3FFF3F29
:10100000FF1B0A2883137F1883170008840A03191B
:10101000FF0A08007F087F398A000408840A031940
:10102000FF0A820001340234043400340D340A34DF
:101030002034503469346334733469346D346C341F
:10104000613462340D340A342034543465347334DA
:101050007434653420345334653472346934613403
:101060006C342034543458340D340A34003444344D
:10107000653473342E3420344434493453342A34A0
:101080002034653420344C34453444343134003415
:101090002034283473343D345234423430342034D4
:1010A0006E343D34523442343134293420343F34A8
:1010B00000344434653473346C34693467347534C3
:1010C0006534203452345434433420344434493465
:1010D00050340034543465347334743465342034FB
:1010E00045344534503452344F344D342034453433
:1010F00058345434003420345434653473347434E4
:10110000653420344134443443342034283450345A
:101110003134293400342034543465347334743415
:10112000653420344134443443342034283450343A
:101130003234293400344C346934673475346534BE
:10114000203474346F3464346F3473342034443452
:101150004934503400345434653473347434653451
:101160002034533465347234693461346C3420343F
:101170005234583400345434653473347434653420
:101180002034533465347234693461346C3420341F
:1011900054345834003420345234423430342034FF
:1011A000203420342034203420342034203420349F
:1011B000203400342034523442343134203420344A
:1011C000203420342034203420342034203420347F
:1011D0000034203452344234323420342034203429
:1011E000203420342034203420342034203400347F
:1011F00020345234423433342034203420342034E8
:10120000203420342034203420342034003420345E
:1012100052344234343420342034203420342034C6
:10122000203420342034203420340034203452340C
:1012300041343534203420342034203420342034D8
:1012400020342034203420340034203452344234CA
:1012500035342034203420342034203420342034D9
:1012600020342034203400342034203420345434CA
:101270006534733474346534203441345134553416
:101280004534433400344434653473346C342E3480
:101290002034523445344C343134203444344934CD
:1012A00050340034203420342034543465347334C2
:1012B0007434653420345234453453344634523413
:1012C00000342034503472346534733473346934E8
:1012D0006F346E3465342034523453345434003413
:1012E00020342034203454346534733474346534F9
:1012F0002034373420345334653467340034203498
:1013000020345434653473347434653420344334B5
:1013100068346134763465347334003420342034D6
:101320002034543465347334743465342034543484
:1013300045344D345034003454346534733474348B
:10134000653420345434653463346C34613464342B
:101350006F34003420345034693463347334693466
:101360006D344C34613462340D340A3400345434F6
:1013700065347334743465342034523445344C3419
:101380004534203431340034543465347334743487
:1013900065342034523445344C34453420343234AE
:1013A000003420342034203454346534733474349D
:1013B000653420344C3443344434003420344434D1
:1013C0006934673469347434653421340D340A3433
:1013D0000034503472346534733473342E34203412
:1013E0005234423431340034203420342034203418
:1013F000203420344534523452344F340034543481
:10140000653473347434653420344C344534443496
:10141000733400340D340A342034463449344D34A6
:1014200021340D340A340034543465347334743444
:10143000653420345234543443340034203420345E
:10144000203420342034203420344F344B340034C2
:1014500020342034203420342034203420344F34BD
:101460006B340034203420342034203420342034B1
:10147000463469346D3400343934363430343034E1
:10148000203438344E343134003420342034203485
:1014900042346534653470340034013083120313F0
:1014A0009F000B30831603139F0001309B00080040
:1014B00083120313AF008830B0000A168A11452446
:1014C0000A128A15831203130618622AC6300A16F6
:1014D0008A11D6230A128A152F3083120313AF0004
:1014E0008A30B0000A168A1145240A128A15F4308F
:1014F00083120313A8000130A9000A168A111E24C2
:101500000A128A15C0300A168A11D6230A128A15C1
:10151000DA3083120313AF008830B0000A168A1144
:1015200045240A128A15831203138618932AC6309B
:101530000A168A11D6230A128A152F308312031332
:10154000AF008A30B0000A168A1145240A128A15A3
:10155000F43083120313A8000130A9000A168A117F
:101560001E240A128A15C0300A168A11D6230A12BE
:101570008A15E93083120313AF008830B0000A16D1
:101580008A1145240A128A15831203130619C42AE4
:10159000C6300A168A11D6230A128A152F308312F2
:1015A0000313AF008A30B0000A168A114524F430C4
:1015B0000A128A1121280A168A11D6230A128A15BC
:1015C000FF3083120313AF008930B0000A168A116E
:1015D00045240A128A1583120313CF0103304F02E8
:1015E0000318172BD001D00A500803190F2B5008ED
:1015F000860050088800C830A8000030A9000A16EC
:101600008A111E240A128A15831203135008C4007B
:101610004407C5004508D0005008031DF72A0130D3
:10162000C4004408CF0703304F02031CF22A86018E
:101630008801D001043050020318392BFF30C40058
:1016400044088606FF30C40044088806C830A80055
:101650000030A9000A168A111E240A128A150130C8
:1016600083120313C4004408D00704305002031C43
:101670001E2B01300A168A11D6230A128A158030D1
:101680000A168A11D6230A128A157F308312031391
:10169000AF008930B0000A168A1145240A128A1553
:1016A00083120313CF010F30831603139F00851697
:1016B0003F308600C0300A168A11D623CB300A127A
:1016C0008A15582A103083120313B8002730B90046
:1016D0004108BB004008BA000A168A11AC250A125C
:1016E0008A15831203133808303EC3004208840071
:1016F000430883138000E830B8000330B900410884
:10170000AB004008AA001030A8002730A9000A1634
:101710008A11C9240A128A15831203132908BB00EF
:101720002808BA000A168A11AC250A128A158312F3
:1017300003133808303EC300420A84004308831371
:1017400080006430B8000030B9004108AB004008A8
:10175000AA00E830A8000330A9000A168A11C9249B
:101760000A128A15831203132908BB002808BA003D
:101770000A168A11AC250A128A1583120313380837
:10178000303EC3004208023E8400430883138000B9
:101790000A30B8000030B9004108AB004008AA0088
:1017A0006430A8000030A9000A168A11C9240A1260
:1017B0008A15831203132908BB002808BA000A16E9
:1017C0008A11AC250A128A15831203133808303E99
:1017D000C3004208033E84004308831380000A309C
:1017E000A8000030A9004108AB004008AA000A1672
:1017F0008A11C924831203132808303EC30042080B
:10180000043E84004308831380004208053E8400A0
:101810008001080083120313B101B201B40106086C
:10182000B0003008B300A42CB50103303502031812
:10183000932C3508123E840088300318013EFF00C7
:101840000A128A1500200A128A15FF3AB0003008E1
:10185000860488193D2C1430A8000030A9000A160F
:101860008A111E240A128A158312031388193D2C2B
:10187000881D382C3508013E782C0819512C14305D
:10188000A8000030A9000A168A111E240A128A151F
:10189000831203130819512C081D4C2C3508043EE3
:1018A000782C8818652C1430A8000030A9000A167E
:1018B0008A111E240A128A15831203138818652CB4
:1018C000881C602C3508073E782C08187C2C1430B6
:1018D000A8000030A9000A168A111E240A128A15CF
:1018E0008312031308187C2C081C742C35080A3E3C
:1018F000B0003008B400932C3508123E84008830C4
:101900000318013EFF000A128A1500200A128A15E8
:10191000B000300886050130B0003008B50703304C
:101920003502031C192C0530A8000030A9000A1646
:101930008A111E240A128A15053083120313B10777
:101940000318B20A0030B2072F083202031DAA2C76
:101950002E083102031CB02C2E082F04031DB32CBB
:1019600034080319142C3408031DBA2CFF30B000BE
:101970003008B4000B3034060319B4013308860074
:10198000340808000A168A1193230A128A15D030E7
:101990000A168A11EA250A128A1500300A168A11D7
:1019A000EA250A128A150A168A1193230A128A1541
:1019B000D1300A168A11EA250A128A1501300A1650
:1019C0008A1129260A128A157F3983120313AD0062
:1019D0002D08AE003A30AD002D08E2002E080A16A0
:1019E0008A1184230A128A1583120313AD002D086D
:1019F000E3002E080A168A114C230A128A15831254
:101A00000313AD002D08E400E50101300A168A1128
:101A100029260A128A157F3983120313AD002D0877
:101A2000AE003A30AD002D08DF002E080A168A11EC
:101A300084230A128A1583120313AD002D08E000D7
:101A40002E080A168A114C230A128A1583120313D0
:101A5000AD002D08E10001300A168A1129260A126C
:101A60008A153F3983120313AD002D08AE002E08EE
:101A70000A168A1184230A128A1583120313AD00F1
:101A80002D08DD002E080A168A114C230A128A1529
:101A900083120313AD002D08DE0001300A168A11EF
:101AA00029260A128A1501300A168A1129260A12D5
:101AB0008A153F3983120313AD002D08AE002E089E
:101AC0000A168A1184230A128A1583120313AD00A1
:101AD0002D08D3002E080A168A114C230A128A15E3
:101AE00083120313AD002D08D40001300A168A11A9
:101AF00029260A128A151F3983120313AD002D08F7
:101B0000AE002F30AD002D08D5002E080A168A1120
:101B100084230A128A1583120313AD002D08D60000
:101B20002E080A168A114C230A128A1583120313EF
:101B3000AD002D08D70000300A168A1129260A1296
:101B40008A1583120313AD002D08AE002F30AD00AF
:101B50002D08D8002E080A168A1184230A128A1525
:101B600083120313AD002D08D9002E080A168A111E
:101B70004C230A128A1583120313AD002D08DA00D4
:101B8000DB010A168A11A3230800C330831603134E
:101B900085000130860001308700880189010A161E
:101BA0008A1176260A128A150A168A1153230A12F6
:101BB0008A150A168A1176230A128A150A128A15BC
:101BC0004D220A128A150F30831603139F00073027
:101BD0009C000330860001300A168A11D6230A12AF
:101BE0008A1580300A168A11D6230A128A159B306C
:101BF00083120313AF008830B0000A168A114524FF
:101C00000A128A15C0300A168A11D6230A128A15BA
:101C1000E93083120313AF008930B0000A168A112D
:101C200045240A128A15831203138618132E0130D5
:101C30000A168A11D6230A128A1580300A168A11CA
:101C4000D6230A128A15D13083120313AF008930CC
:101C5000B0000A168A1145240A128A15831203134A
:101C6000D0010A30500203184E2EC830A8000030B0
:101C7000A9000A168A111E240A128A1518300A169B
:101C80008A11D6230A128A15013083120313C40065
:101C90004408D0070A305002031C352ED0010A3008
:101CA000500203186C2EC830A8000030A9000A1694
:101CB0008A111E240A128A151C300A168A11D6238C
:101CC0000A128A15013083120313C4004408D00796
:101CD0000A305002031C532ED0010A305002031860
:101CE0008A2EC830A8000030A9000A168A111E24C6
:101CF0000A128A1510300A168A11D6230A128A157A
:101D0000013083120313C4004408D0070A30500284
:101D1000031C712ED0010A3050020318A82EC830BF
:101D2000A8000030A9000A168A111E240A128A157A
:101D300014300A168A11D6230A128A15013083122A
:101D40000313C4004408D0070A305002031C8F2E2E
:101D500040300A168A11D6230A128A1511300A1643
:101D60008A11FA230A128A1519300A168A11FA23DF
:101D70000A128A1515300A168A11FA230A128A15D0
:101D800013300A168A11FA230A128A1513300A161A
:101D90008A11FA230A128A1515300A168A11FA23B3
:101DA0000A128A1519300A168A11FA230A128A159C
:101DB00011300A168A11FA230A128A150E300A16F1
:101DC0008A11FA230A128A1511300A168A11FA2387
:101DD0000A128A150E300A168A11FA230A128A1577
:101DE00005300A168A11FA230A128A150E300A16CD
:101DF0008A11FA230A128A1514300A168A11FA2354
:101E00000A128A150A300A168A11FA230A128A154A
:101E100011300A168A11FA230A128A15C0300A16DE
:101E20008A11D6230A128A1583120313D0011030A7
:101E300050020318372F500801390A168A11FA2365
:101E40000A128A15643083120313A8000030A90017
:101E50000A168A111E240A128A15013083120313EE
:101E6000C4004408D00710305002031C1B2F01305F
:101E70000A168A11D6230A128A1580300A168A1188
:101E8000D6230A128A15D13083120313AF0089308A
:101E9000B0000A168A1145240A128A1520308312CE
:101EA0000313C4004408D00020305002031C7F2FCD
:101EB00050080F39031D622FC0300A168A11D6232D
:101EC0000A128A158312031350080A168A11FA237C
:101ED0000A128A15323083120313A8000030A900B9
:101EE0000A168A111E240A128A150130831203135E
:101EF000C4004408D007203050020318582F643023
:101F0000A8000030A9000A168A111E240A128A1598
:101F100001300A168A11D6230A128A1580300A1651
:101F20008A11D6230A128A15D13083120313AF0007
:101F30008930B0000A168A1145240A128A15C03069
:101F40000A168A11D6230A128A152830831203131F
:101F5000AF008A30B0000A168A1145240A128A1589
:101F6000F43083120313A8000130A9000A168A1165
:101F70001E240A128A1501300A168A11D6230A1263
:101F80008A1580300A168A11D6230A128A1545301E
:101F900083120313AF008A30B0000A168A11452459
:101FA0000A128A15831203138714F430A800013033
:101FB000A9000A168A111E240A128A158312031315
:101FC000871001300A168A11D6230A128A1580302A
:101FD0000A168A11D6230A128A1570308312031347
:101FE000AF008930B0000A168A1145240F308316DD
:101FF00003139F0083120313D0010A168A11BA2F0C
:10200000FF3FFF3FFF3FFF3FFF3FFF3FFF3FFF3FE0
:10201000FF3FFF3FFF3FFF3FFF3FFF3FFF3FFF3FD0
:10202000FF3FFF3FFF3FFF3FFF3FFF3FFF3FFF3FC0
:10203000FF3FFF3FFF3FFF3FFF3FFF3FFF3FFF3FB0
:10268000FF3FFF3FFF3FFF3FFF3FFF3F831203132B
:10269000A80028088800080083120313A80028084F
:1026A0000F39303E080083160313071283120313F9
:1026B00087150716080064008001840A04060319C0
:1026C000003404065C2B0000000000000000000045
:1026D000000000000000080083120313A80028086F
:1026E00099008316031398180800712B673083161E
:1026F0000313990018139816181218158312031350
:10270000981718131816080083120313A900290834
:10271000A80004300310A80CFF3E031D8A2B2808D4
:102720000F39303E080083120313871507160A1667
:102730008A1163230A168A118312031307120A16D9
:102740008A116323080083120313871507120A16E0
:102750008A1163230A168A118312031307160A16B5
:102760008A116323080083120313B601B701321CD8
:10277000BF2B3408B6070318B70A3508B70701306E
:102780000310B40DB50DFF3E031DC02B0130031027
:10279000B30CB20CFF3E031DC72B32083304031DDC
:1027A000B72B3708B3003608B200080083120313B2
:1027B000AE0089142E080A168A1146230A168A11B9
:1027C0008312031309110330A8000030A9000A1670
:1027D0008A111E240A168A118312031389100330EA
:1027E000A8000030A9000A168A111E2483120313C0
:1027F0008914080083120313AE0089142E080A16E8
:102800008A1146230A168A1183120313091503300D
:10281000A8000030A9000A168A111E240A168A117F
:102820008312031389100330A8000030A9000A1690
:102830008A111E24831203138914080083120313C0
:10284000AB01AC0129082C02031D282C28082B02FF
:1028500003180800AD01C8302D0203183E2C0000FB
:102860000000000000000000013083120313AA00E2
:102870002A08AD07C8302D02031C2F2C0130AB07EE
:102880000318AC0A0030AC07222C83120313B201E8
:1028900032082F07840030080318300AFF000A129C
:1028A0008A1500200A168A11003A03190800320816
:1028B0002F07840030080318300AFF000A128A1517
:1028C00000200A168A110A168A11FA230A168A119A
:1028D000013083120313B1003108B207482C831270
:1028E0000313AC012C08290784002A0803182A0ABC
:1028F000FF000A128A1500200A168A11003A0319ED
:1029000008002C08290784002A0803182A0AFF0057
:102910000A128A1500200A168A110A168A116C23D7
:102920000A168A11013083120313AB002B08AC077F
:10293000722C83120313B001B1011819A12C981C39
:10294000B52C18121816B52C1430A8000030A900A8
:102950000A168A111E240A168A11143083120313D0
:10296000B0070318B10A0030B1072F083102031D68
:10297000BB2C2E083002031CC12C2E082F04031D73
:10298000C32C8C1EA42C8C1EC72C1A080800A53042
:10299000080083120313280829040319F82CAD0139
:1029A000AD0AA91BDF2C01300310A80DA90DFF3EB5
:1029B000031DD42C0130AC002C08AD07D12C290804
:1029C0002B02031DE52C28082A02031CED2C2808E5
:1029D000AA022908031CAB03AB0201300310A90CA7
:1029E000A80CFF3E031DEE2C0130AD02031DDF2CB1
:1029F0002B08A9002A08A80008000130F80278086E
:102A0000031D262D0730F0000030F1000E08A00055
:102A1000A1010F08A200A3012208A300A20120081F
:102A20002204F20021082304F3000A168A11342537
:102A30000A168A11710883120313D2007008D1009C
:102A40007D30A0002008F8008F018E010B110630A8
:102A500081002708FF0026088A0025088400240E2C
:102A60008300FE0E7E0E0900F501F6017008710468
:102A700003196B2DF701F70AF11B4A2D01300310E2
:102A8000F00DF10DFF3E031D3F2D0130F4007408E1
:102A9000F7073C2D01300310F50DF60DFF3E031D29
:102AA0004B2D71087302031D572D70087202031C11
:102AB000602D7008F2027108031CF303F302751411
:102AC00001300310F10CF00CFF3E031D612D0130AD
:102AD000F702031D4A2D7608F1007508F000080082
:102AE00083120313B1007B2D0130792D0930792D2C
:102AF00011309F00862D3108003A0319742D013AD8
:102B00000319762D033A0319782D862D1F151F19E9
:102B1000872D831603131E0883120313AA000630A1
:102B20000310AA0CFF3E031D902D2A08AB00AC0138
:102B30001E08AD00AE010310AD0DAE0D0310AD0DBE
:102B4000AE0D2B082D04AF002C082E04B0002F086A
:102B5000A8003008A900080083120313BD01BE01BC
:102B6000380839040319E52DBF01BF0AB91BC42D6C
:102B700001300310B80DB90DFF3E031DB92D013012
:102B8000BC003C08BF07B62D01300310BD0DBE0DC3
:102B9000FF3E031DC52D39083B02031DD12D38080A
:102BA0003A02031CDA2D3808BA023908031CBB03A9
:102BB000BB023D1401300310B90CB80CFF3E031DDD
:102BC000DB2D0130BF02031DC42D3E08B9003D08B6
:102BD000B800080083120313AA008711AB01083064
:102BE0002B020318192E2A08A8002B03FF3A073ED0
:102BF000013EFC2D0310A80CFF3E031DFA2D2808F2
:102C00000139A900A90E07082906EF39290687000E
:102C100087150A168A1163230A168A118312031371
:102C200087110130A8002808AB0708302B02031CCD
:102C3000F32D07160A168A1163230A168A118312C6
:102C4000031387150A168A1163238312031387114E
:102C5000080083120313AA00AB0187118316031324
:102C60000716831203130716AC0108302C02031851
:102C70005B2E87150A168A1163230A168A1183129E
:102C80000313070E0139A8002C03FF3A073E013E4B
:102C90004B2E0310A80DFF3E031D492E2808A90046
:102CA0002908AB0487110130A8002808AC070830B8
:102CB0002C02031C392E83160313071283120313ED
:102CC0002A080319652E0712662E07160A168A119E
:102CD00063230A168A118312031387150A168A11B1
:102CE00063238312031387112B0808008312031335
:102CF000891009111430A8000030A9000A168A11A1
:102D00001E240A168A1183120313891438300A16F6
:102D10008A11D6230A168A11053083120313A800DC
:102D20000030A9000A168A111E240A168A113830AA
:102D30000A168A11D6230A168A1101308312031348
:102D4000A8000030A9000A168A111E240A168A114A
:102D500038300A168A11D6230A168A1108300A1644
:102D60008A11D6230A168A110F300A168A11D62321
:102D70000A168A1101300A168A11D6230A168A11F8
:102D800038300A168A11D6230A168A1180300A169C
:102D90008A11D623080083120313A800F12E3F30B6
:102DA0000800063008005B3008004F30080066302D
:102DB00008006D3008007D300800073008007F30C3
:102DC00008006F300800773008007C300800583069
:102DD00008005E30080079300800713008000030CB
:102DE00008002808003A0319CF2E013A0319D12E02
:102DF000033A0319D32E013A0319D52E073A0319C2
:102E0000D72E013A0319D92E033A0319DB2E013AC2
:102E10000319DD2E0F3A0319DF2E013A0319E12EB3
:102E2000033A0319E32E013A0319E52E073A031971
:102E3000E72E013A0319E92E033A0319EB2E013A62
:102E40000319ED2EEF2E0800831203133508B60088
:102E5000B7013608BB003708BC0034080139B6009A
:102E60003608B8003308B6003608B900BA010A16A9
:102E70008A1193230A168A1183120313380803193F
:102E8000432FA230442FA0300A168A11EA250A16D1
:102E90008A118312031339080A168A11EA250A16C1
:102EA0008A11831203133B080A168A11EA250A16AF
:102EB0008A110A168A11A3230A168A110130831275
:102EC0000313B6003608BA073408AE003308AD0065
:102ED0000A128A11B5270A168A1183120313B60043
:102EE000B7013C083706031D772F3B083606031948
:102EF00008000A303A0203180800372F2030852FC7
:102F00001030852F0830852F04308500952F50080C
:102F1000003A03197E2F013A0319802F033A03194F
:102F2000822F013A0319842F952FCF0110304F02C1
:102F30000318B62F4F080A168A11CB260A168A11D3
:102F4000831203138800C830A8000030A9000A16B5
:102F50008A111E240A168A11013083120313C40039
:102F60004408CF0710304F02031C9A2F0130C400D1
:102F70004408D00704305002031C872F0B308316FF
:102F800003139F0083120313880103308316031376
:102F9000860001300A168A11D6230A168A1180305B
:102FA0000A168A11D6230A168A115930831203137E
:102FB000AF008830B0000A168A1145240A168A111B
:102FC000C0300A168A11D6230A168A11E9308312F4
:102FD0000313AF008930B0000A168A1145240A167F
:102FE0008A11831203138618F12F831603138601A7
:102FF00001300A168A11D62383300A128A15DB2A79
:10300000FF3FFF3FFF3FFF3FFF3FFF3FFF3FFF3FD0
:10301000FF3FFF3FFF3FFF3FFF3FFF3FFF3FFF3FC0
:10302000FF3FFF3FFF3FFF3FFF3FFF3FFF3FFF3FB0
:10303000FF3FFF3FFF3FFF3FFF3FFF3FFF3FFF3FA0
:04400E00AAFFBCFF4A
:00000001FF
