:100000000A128A1110280800FE00030E831203133F
:10001000A4000A08A5007F08A6000A168A15E32A8C
:100020000A128A111328F8018313513084006730B3
:100030000A168A159C210A128A1183010A128A154E
:100040001729073083160313860001300A168A1514
:1000500036220A128A1180300A168A1536220A12AE
:100060008A11523083120313AB008830AC000A1699
:100070008A1586220A128A11523083120313A800AD
:100080008830A9000A168A15B3220A128A11BB30D9
:1000900083120313A8008830A9000A168A15B32218
:1000A0000A128A11C0300A168A1536220A128A11DB
:1000B000F33083120313AB008630AC000A168A15A6
:1000C00086220A128A11F33083120313A8008630A5
:1000D000A9000A168A15B3220A128A11BB308312AC
:1000E0000313A8008830A9000A168A15B3220A1241
:1000F0008A1107308312031388000618802881288C
:100100007D28CA300A168A1536220A128A11A830AA
:1001100083120313AB008830AC000A168A158622BE
:100120000A128A11A83083120313A8008830A9008C
:100130000A168A15B3220A128A11BB3083120313DE
:10014000A8008830A9000A168A15B3220A128A115B
:10015000063083120313B1001330B000AD30AF008E
:10016000AF0BB028B00BB028B10BB028C0300A16C6
:100170008A1536220A128A11023083120313AB0049
:100180008730AC000A168A1586220A128A110230BC
:1001900083120313A8008730A9000A168A15B32218
:1001A0000A128A11BB3083120313A8008830A900F9
:1001B0000A168A15B3220A128A1107308312031312
:1001C00088008618E428E528E128CA300A168A152E
:1001D00036220A128A11A83083120313AB0088302A
:1001E000AC000A168A1586220A128A11A8308312D8
:1001F0000313A8008830A9000A168A15B3220A1230
:100200008A11BB3083120313A8008830A9000A1694
:100210008A15B3220A128A11063083120313B10021
:100220001330B000AD30AF00AF0B1429B00B142960
:10023000B10B1429C0300A168A1536220A128A1107
:10024000113083120313AB008730AC000A168A15F5
:1002500086220A128A11113083120313A8008730F4
:10026000A9000A168A15B3220A128A11BB3083121A
:100270000313A8008830A9000A168A15B3220A12AF
:100280008A11073083120313880006194829492967
:100290004529CA300A168A1536220A128A11A83050
:1002A00083120313AB008830AC000A168A1586222D
:1002B0000A128A11A83083120313A8008830A900FB
:1002C0000A168A15B3220A128A11BB30831203134D
:1002D000A8008830A9000A168A15B3220A128A11CA
:1002E000063083120313B1001330B000AD30AF00FD
:1002F000AF0B7829B00B7829B10B7829C0300A16DA
:100300008A1536220A128A11203083120313AB0099
:100310008730AC000A168A1586220A128A1120300C
:1003200083120313A8008730A9000A168A15B32286
:100330000A128A11BB3083120313A8008830A90067
:100340000A168A15B3220A128A110B30831203137C
:1003500088000618AC29AD29A929CA300A168A15C1
:1003600036220A128A11A83083120313AB00883098
:10037000AC000A168A1586220A128A11A830831246
:100380000313A8008830A9000A168A15B3220A129E
:100390008A11BB3083120313A8008830A9000A1603
:1003A0008A15B3220A128A11063083120313B10090
:1003B0001330B000AD30AF00AF0BDC29B00BDC293F
:1003C000B10BDC29C0300A168A1536220A128A11AE
:1003D0002F3083120313AB008730AC000A168A1546
:1003E00086220A128A112F3083120313A800873045
:1003F000A9000A168A15B3220A128A11BB30831289
:100400000313A8008830A9000A168A15B3220A121D
:100410008A110B308312031388008618102A112AC0
:100420000D2ACA300A168A1536220A128A11A830F5
:1004300083120313AB008830AC000A168A1586229B
:100440000A128A11A83083120313A8008830A90069
:100450000A168A15B3220A128A11BB3083120313BB
:10046000A8008830A9000A168A15B3220A128A1138
:10047000063083120313B1001330B000AD30AF006B
:10048000AF0B402AB00B402AB10B402AC0300A16ED
:100490008A1536220A128A113E3083120313AB00EA
:1004A0008730AC000A168A1586220A128A113E305D
:1004B00083120313A8008730A9000A168A15B322F5
:1004C0000A128A11BB3083120313A8008830A900D6
:1004D0000A168A15B3220A128A110B3083120313EB
:1004E00088000619742A752A712ACA300A168A15D4
:1004F00036220A128A11A83083120313AB00883007
:10050000AC000A168A1586220A128A11A8308312B4
:100510000313A8008830A9000A168A15B3220A120C
:100520008A11BB3083120313A8008830A9000A1671
:100530008A15B3220A128A11063083120313B100FE
:100540001330B000AD30AF00AF0BA42AB00BA42A1B
:10055000B10BA42AC0300A168A1536220A128A1153
:100560004D3083120313AB008730AC000A168A1596
:1005700086220A128A114D3083120313A800873095
:10058000A9000A168A15B3220A128A11BB308312F7
:100590000313A8008830A9000A168A15B3220A128C
:1005A0008A110D308312031388000618D82AD92A1D
:1005B000D52ACA300A168A1536220A128A11A8309C
:1005C00083120313AB008830AC000A168A1586220A
:1005D0000A128A11A83083120313A8008830A900D8
:1005E0000A168A15B3220A128A11BB30831203132A
:1005F000A8008830A9000A168A15B3220A128A11A7
:10060000063083120313B1001330B000AD30AF00D9
:10061000AF0B082BB00B082BB10B082BC0300A1600
:100620008A1536220A128A115C3083120313AB003A
:100630008730AC000A168A1586220A128A115C30AD
:1006400083120313A8008730A9000A168A15B32263
:100650000A128A11BB3083120313A8008830A90044
:100660000A168A15B3220A128A110D308312031357
:10067000880086183C2B3D2B392BCA300A168A1568
:1006800036220A128A11A83083120313AB00883075
:10069000AC000A168A1586220A128A11A830831223
:1006A0000313A8008830A9000A168A15B3220A127B
:1006B0008A11BB3083120313A8008830A9000A16E0
:1006C0008A15B3220A128A11063083120313B1006D
:1006D0001330B000AD30AF00AF0B6C2BB00B6C2BF8
:1006E000B10B6C2BC0300A168A1536220A128A11F9
:1006F0006B3083120313AB008730AC000A168A15E7
:1007000086220A128A116B3083120313A8008730E5
:10071000A9000A168A15B3220A128A11BB30831265
:100720000313A8008830A9000A168A15B3220A12FA
:100730008A110D308312031388000619A02BA12BF8
:100740009D2BCA300A168A1536220A128A11A83041
:1007500083120313AB008830AC000A168A15862278
:100760000A128A11A83083120313A8008830A90046
:100770000A168A15B3220A128A11BB308312031398
:10078000A8008830A9000A168A15B3220A128A1115
:10079000063083120313B1001330B000AD30AF0048
:1007A000AF0BD02BB00BD02BB10BD02BC0300A1617
:1007B0008A1536220A128A117A3083120313AB008B
:1007C0008730AC000A168A1586220A128A117A30FE
:1007D00083120313A8008730A9000A168A15B322D2
:1007E0000A128A11BB3083120313A8008830A900B3
:1007F0000A168A15B3220A128A110E3083120313C5
:1008000088000618042C052C012CCA300A168A15FB
:1008100036220A128A11A83083120313AB008830E3
:10082000AC000A168A1586220A128A11A830831291
:100830000313A8008830A9000A168A15B3220A12E9
:100840008A11BB3083120313A8008830A9000A164E
:100850008A15B3220A128A11063083120313B100DB
:100860001330B000AD30AF00AF0B342CB00B342CD4
:10087000B10B342CC0300A168A1536220A128A119E
:10088000E43083120313AB008630AC000A168A15DD
:1008900086220A128A11E43083120313A8008630DC
:1008A000A9000A168A15B3220A128A11BB308312D4
:1008B0000313A8008830A9000A168A15B3220A1269
:1008C0008A110E308312031388008618682C692C55
:1008D000652CCA300A168A1536220A128A11A830E7
:1008E00083120313AB008830AC000A168A158622E7
:1008F0000A128A11A83083120313A8008830A900B5
:100900000A168A15B3220A128A11BB308312031306
:10091000A8008830A9000A168A15B3220A128A1183
:10092000063083120313B1001330B000AD30AF00B6
:10093000AF0B982CB00B982CB10B982CC0300A162A
:100940008A1536220A128A11893083120313AB00EA
:100950008730AC000A168A1586220A128A1189305D
:1009600083120313A8008730A9000A168A15B32240
:100970000A128A11BB3083120313A8008830A90021
:100980000A168A15B3220A128A110E308312031333
:1009900088000619CC2CCD2CC92CCA300A168A1511
:1009A00036220A128A11A83083120313AB00883052
:1009B000AC000A168A1586220A128A11A830831200
:1009C0000313A8008830A9000A168A15B3220A1258
:1009D0008A11BB3083120313A8008830A9000A16BD
:1009E0008A15B3220A128A11063083120313B1004A
:1009F0001330B000AD30AF00AF0BFC2CB00BFC2CB3
:100A0000B10BFC2C080001300A168A1536220A1296
:100A10008A1180300A168A1536220A128A11C730C6
:100A200083120313AB008830AC000A168A158622A5
:100A30000A128A11C73083120313A8008830A90054
:100A40000A168A15B3220A128A11BB3083120313C5
:100A5000A8008830A9000A168A15B3220A128A1142
:100A60000A168A151C240A128A110A168A11F12004
:100A70000A128A11C0300A168A1536220A128A1101
:100A80005D3083120313AB000030AC000A168A15E8
:100A900086220A128A115D3083120313A8000030E7
:100AA000A9000A168A15B3220A128A11BB308312D2
:100AB0000313A8008830A9000A168A15B3220A1267
:100AC0008A11153083120313B1004B30B000BD30D2
:100AD000AF00AF0B692DB00B692DB10B692D702DD7
:100AE00083120313B2010A168A11F1200A128A1125
:100AF000C0300A168A1536220A128A115330831220
:100B00000313AB000030AC000A168A1586220A12C5
:100B10008A11533083120313A8000030A9000A166B
:100B20008A15B3220A128A11BB3083120313A8005C
:100B30008830A9000A168A15B3220A128A110B30CE
:100B400083120313B1002630B0005D30AF00AF0B4D
:100B5000A72DB00BA72DB10BA72D013083120313C6
:100B6000AF002F08B2070A303202031CB82DB92D8E
:100B7000732D080083120313BC01BD01370838042C
:100B80000319C32DC42DFB2DBE01BE0AD22D013089
:100B90000310B70DB80DFF3E031DC82D0130BB007B
:100BA0003B08BE07B81FD52DD62DC72D0130031029
:100BB000BC0DBD0DFF3E031DD72D38083A02031DA5
:100BC000E32D37083902031CE62DE72DEE2D3708FB
:100BD000B9023808031CBA03BA023C1401300310EE
:100BE000B80CB70CFF3E031DEF2D0130BE02031DF4
:100BF000FA2DFB2DD62D3D08B8003C08B7000800A3
:100C0000FF1B0A2E83137F1883170008840A031919
:100C1000FF0A08007F087F398A000408840A031944
:100C2000FF0A820008340434023401340D340A34DB
:100C30002034503469346334733469346D346C3423
:100C4000613462340D340A342034543465347334DE
:100C500074342034533465347234693461346C3400
:100C60002034543458340D340A3400345434753438
:100C700072346E3420344F34663466342034523447
:100C800045344C3431342034443449345034003405
:100C90002034283459343D345234423430342034F2
:100CA0004E343D34523442343134293420343F34CC
:100CB00000345434753472346E3420344F34663416
:100CC0006634203452345434433420344434493468
:100CD000503400345434753472346E3420344F340C
:100CE0006E34203461346C346C34203444344934F0
:100CF00050340034543465347334743420344534FF
:100D00004534503452344F344D3420344534583403
:100D100054340034203452344234303420342034BB
:100D20002034203420342034203420342034203423
:100D300000342034523442343134203420342034CE
:100D40002034203420342034203420342034003423
:100D5000203452344234323420342034203420348D
:100D60002034203420342034203420340034203403
:100D7000523442343334203420342034203420346C
:100D800020342034203420342034003420345234B1
:100D9000423434342034203420342034203420347D
:100DA000203420342034203400342034523442346F
:100DB000353420342034203420342034203420347E
:100DC0002034203420340034503472346534733489
:100DD00073342E3420343034203420342034203402
:100DE0002034203400345034723465347334733416
:100DF0002E34203431342034203420342034203434
:100E000020340034503472346534733473342E34E7
:100E10002034323420342034203420342034203420
:100E20000034503472346534733473342E342034C7
:100E3000333420342034203420342034203400341F
:100E4000503472346534733473342E342034343473
:100E500020342034203420342034203400345034E2
:100E600072346534733473342E3420343534203482
:100E70002034203420342034203400345034723470
:100E80006534733473342E342034363420342034B3
:100E9000203420342034203400345034723465340B
:100EA000733473342E3420343734203420342034D7
:100EB0002034203420340034503472346534733498
:100EC00073342E3420343834203420342034203409
:100ED0002034203400345034723465347334733425
:100EE0002E3420343934203420342034203420343B
:100EF00020340034503472346534733473342E34F7
:100F000020343C3420342034203420342034203425
:100F10000034503472346534733473342E342034D6
:100F20003E34203420342034203420342034003423
:100F300020345434653473347434203441344434AC
:100F400043342034283450343134293400342034AC
:100F50005434653473347434203441344434433469
:100F60002034283450343234293400345434653435
:100F700073347434203453346534723469346134D6
:100F80006C3420345234583400345434653473345F
:100F900074342034533465347234693461346C34BD
:100FA0002034543458340034203420342034543421
:100FB000653473347434203443346F346F346C3498
:100FC0006534723400342034203420345434653491
:100FD0007334743420344834653461347434653483
:100FE000723400342034203454346534733474340F
:100FF000203453347734693474346334683473344C
:1010000000345434653473347434203452346534C9
:101010006C34613479343134203431340034543414
:101020006534733474342034523465346C34613430
:1010300079343234203432340034203420342034B3
:101040005434653473347434203437342034533496
:101050006534673400342034503469346334733475
:1010600069346D344C34613462340D340A340034E4
:1010700020342034203454346534733474342034B0
:10108000543445344D3450340034203450347234A8
:101090006534733453342034523445345334453436
:1010A00054340034543465347334743420344B3441
:1010B00065347934743470346134643400342034E9
:1010C00020342034543465347334743420344C3434
:1010D0004334443400345434653473347434203429
:1010E0004B346534793470346134643400345034B2
:1010F00072346534733473342E34203452344234B1
:10110000313400342034203420342034203420344E
:101110004534523452344F34003420342034203497
:1011200020342034203420344F344B3400342034E5
:101130002034203420342034203445346E34643458
:10114000003420342034203420342034203420341F
:101150004F346B3400345434653473347434203475
:101160004C344534443473340034203454347934AA
:101170007034653421340D340A3400343934363453
:1011800030343034203438344E3431340034543434
:10119000653473347434203452345434433400345A
:1011A00020342034203442346534653470340034C3
:1011B20083120313B0003008A900A90DA90DA90DCF
:1011C2001F082906C73929069F000C308312031312
:1011D200A900A90BEA280000831203131F151F1987
:1011E200F328F428F028831603131E08831203132E
:1011F200A90006300310A90CFF3E031DFB28290895
:10120200AA00AB011E08AC00AD010310AC0DAD0D80
:101212000310AC0DAD0D2A082C04AE002B082D04D2
:10122200AF002E08A7002F08A8000800C3308316BD
:10123200031385000130860001308700880189018F
:101242000A168A1563240A128A150C300A168A15A0
:1012520036220A128A150A168A15A4210A128A153A
:101262000A168A15AD210A128A150F308316031346
:101272009F0007309C008312031385018714871295
:10128200071383160313871707130A168A15C42137
:101292000A128A15033083160313860001300A16D8
:1012A2008A1536220A128A1580300A168A153622C3
:1012B2000A128A156A3083120313AB008630AC001F
:1012C2000A168A1586220A128A156A3083120313B5
:1012D200A8008630A9000A168A15B3220A128A15B6
:1012E200BB3083120313A8008830A9000A168A159E
:1012F200B3220A128A15C0300A168A1536220A1239
:101302008A15773083120313AB008830AC000A16BB
:101312008A1586220A128A15773083120313A800CF
:101322008830A9000A168A15B3220A128A15BB3020
:1013320083120313A8008830A9000A168A15B32263
:101342000A128A15831203138618A829A929A32928
:10135200023083120313D0000430CF00B930CE0024
:10136200CE0BB129CF0BB129D00BB129B8298312E9
:101372000313861CBD29BE29B82902308312031328
:10138200D0000430CF00B930CE00CE0BC629CF0B2F
:10139200C629D00BC629CD29033083160313860034
:1013A20001300A168A1536220A128A1580300A1668
:1013B2008A1536220A128A15593083120313AB009A
:1013C2008630AC000A168A1586220A128A1559300E
:1013D20083120313A8008630A9000A168A15B322C5
:1013E2000A128A15BB3083120313A8008830A900A1
:1013F2000A168A15B3220A128A15C0300A168A15ED
:1014020036220A128A15773083120313AB00883012
:10141200AC000A168A1586220A128A1577308312C0
:101422000313A8008830A9000A168A15B3220A12EB
:101432008A15BB3083120313A8008830A9000A164C
:101442008A15B3220A128A158312031386182A2ACE
:101452002B2A252A0A168A11DB250A128A150A1650
:101462008A1100200A128A150A168A15B0260A1253
:101472008A150A168A152A260A128A150A128A1546
:10148200C4220A128A150A168A1189240A128A1596
:101492000A168A113E230A128A150A168A11422056
:1014A2000A128A150A128A154B250A128A150A127D
:1014B2008A1103250A128A150A128A1121200A1298
:1014C2008A150A128A1103200A128A150A168A112B
:1014D200F6210A128A1501300A168A1536220A12D4
:1014E2008A1580300A168A1536220A128A15973012
:1014F20083120313AB008830AC000A168A158622C9
:101502000A128A15973083120313A8008830A900A3
:101512000A168A15B3220A128A15BB3083120313E4
:10152200A8008830A9000A168A15B3220A128A1561
:10153200C0300A168A1536220A128A1545308312DD
:101542000313AB008830AC000A168A1586220A12F1
:101552008A15453083120313A8008830A9000A16A1
:101562008A15B3220A128A15BB3083120313A8000C
:101572008830A9000A168A15B3220A128A15C02ACF
:101582000A128A11102801300A168A1536220A1206
:101592008A1580300A168A1536220A128A15F23006
:1015A20083120313AB008730AC000A168A15862219
:1015B2000A128A15F23083120313A8008730A90099
:1015C2000A168A15B3220A128A15BB308312031334
:1015D200A8008830A9000A168A15B3220A128A15B1
:1015E2000F30831603139F003F308600C0300A1667
:1015F2008A1536220A128A158A3083120313AB0027
:101602008630AC000A168A1586220A128A158A309A
:1016120083120313A8008630A9000A168A15B32282
:101622000A128A15BB3083120313A8008830A9005E
:101632000A168A15B3220A128A1583120313061890
:10164200232B242B1E2BC6300A168A1536220A1289
:101652008A15A83083120313AB008830AC000A1637
:101662008A1586220A128A15A83083120313A8004B
:101672008830A9000A168A15B3220A128A15BB30CD
:1016820083120313A8008830A9000A168A15B32210
:101692000A128A15063083120313B1001330B00008
:1016A200AD30AF00AF0B532BB00B532BB10B532B01
:1016B200C0300A168A1536220A128A159930831208
:1016C2000313AB008630AC000A168A1586220A1272
:1016D2008A15993083120313A8008630A9000A16CE
:1016E2008A15B3220A128A15BB3083120313A8008B
:1016F2008830A9000A168A15B3220A128A158312A3
:1017020003138618852B862B802BC6300A168A1562
:1017120036220A128A15A83083120313AB008830CE
:10172200AC000A168A1586220A128A15A83083127C
:101732000313A8008830A9000A168A15B3220A12D8
:101742008A15BB3083120313A8008830A9000A1639
:101752008A15B3220A128A15063083120313B100C6
:101762001330B000AD30AF00AF0BB52BB00BB52BC3
:10177200B10BB52BC0300A168A1536220A128A1509
:10178200A83083120313AB008630AC000A168A1508
:1017920086220A128A15A83083120313A800863003
:1017A200A9000A168A15B3220A128A15BB308312BF
:1017B2000313A8008830A9000A168A15B3220A1258
:1017C2008A15831203130619E72BE82BE22BC63086
:1017D2000A168A1536220A128A15A83083120313B2
:1017E200AB008830AC000A168A1586220A128A15C6
:1017F200A83083120313A8008830A9000A168A159C
:10180200B3220A128A15BB3083120313A800883050
:10181200A9000A168A15B3220A128A150630831203
:101822000313B1001330B000AD30AF00AF0B172C73
:10183200B00B172CB10B172CC0300A168A153622A2
:101842000A128A15B73083120313AB008630AC003C
:101852000A168A1586220A128A15B73083120313D2
:10186200A8008630A9000A168A15B3220A128A1520
:10187200BB3083120313A8008830A9000A168A1508
:10188200B3220A128A15831203138619492C4A2C91
:10189200442CC6300A168A1536220A128A15A83036
:1018A20083120313AB008830AC000A168A15862215
:1018B2000A128A15A83083120313A8008830A900DF
:1018C2000A168A15B3220A128A15BB308312031331
:1018D200A8008830A9000A168A15B3220A128A15AE
:1018E200063083120313B1001330B000AD30AF00E5
:1018F200AF0B792CB00B792CB10B792CC0300A16B6
:101902008A1536220A128A15C63083120313AB00D7
:101912008630AC000A168A1586220A128A15C6304B
:1019220083120313A8008630A9000A168A15B3226F
:101932000A128A15BB3083120313A8008830A9004B
:101942000A168A15B3220A128A1583120313061A7B
:10195200AB2CAC2CA62CC6300A168A1536220A12DB
:101962008A15A83083120313AB008830AC000A1624
:101972008A1586220A128A15A83083120313A80038
:101982008830A9000A168A15B3220A128A15BB30BA
:1019920083120313A8008830A9000A168A15B322FD
:1019A2000A128A15063083120313B1001330B000F5
:1019B200AD30AF00AF0BDB2CB00BDB2CB10BDB2C53
:1019C200C0300A168A1536220A128A15D5308312B9
:1019D2000313AB008630AC000A168A1586220A125F
:1019E2008A15D53083120313A8008630A9000A167F
:1019F2008A15B3220A128A15BB3083120313A80078
:101A02008830A9000A168A15B3220A128A1583128F
:101A12000313861A0D2D0E2D082DC6300A168A15AF
:101A220036220A128A15A83083120313AB008830BB
:101A3200AC000A168A1586220A128A15A830831269
:101A42000313A8008830A9000A168A15B3220A12C5
:101A52008A15BB3083120313A8008830A9000A1626
:101A62008A15B3220A128A15063083120313B100B3
:101A72001330B000AD30AF00AF0B3D2DB00B3D2D9C
:101A8200B10B3D2D8312031386010B308316031312
:101A92009F000800033083160313860001300A16E4
:101AA2008A1536220A128A1580300A168A153622BB
:101AB2000A128A15363083120313AB008630AC004B
:101AC2000A168A1586220A128A15363083120313E1
:101AD200A8008630A9000A168A15B3220A128A15AE
:101AE200BB3083120313A8008830A9000A168A1596
:101AF200B3220A128A15C0300A168A1536220A1231
:101B02008A15773083120313AB008830AC000A16B3
:101B12008A1586220A128A15773083120313A800C7
:101B22008830A9000A168A15B3220A128A15BB3018
:101B320083120313A8008830A9000A168A15B3225B
:101B42000A128A15831203138618A82DA92DA32D14
:101B520001300A168A1536220A128A1580300A16B0
:101B62008A1536220A128A15383083120313AB0003
:101B72008830AC000A168A1586220A128A15383075
:101B820083120313A8008830A9000A168A15B3220B
:101B92000A128A15BB3083120313A8008830A900E9
:101BA2000A168A15B3220A128A15073083160313FE
:101BB20085000A168A15AD210A128A1583120313AB
:101BC200CD0102300A128A15D9200A128A1583120F
:101BD20003132808B2002708B1000A30B30000300E
:101BE200B4000A168A150F220A128A1583120313E9
:101BF2003108C3003208C4000310C40CC30C4308EC
:101C0200CB004408CC00C5300A168A1536220A12C7
:101C12008A15831203134C08C0004B08BF004530DD
:101C2200C3004308C1000A168A1556270A128A15EC
:101C32008312031347080A168A155E220A128A15AE
:101C42008312031348080A168A155E220A128A159D
:101C52002C300A168A155E220A128A158312031381
:101C620049080A168A155E220A128A1543300A1694
:101C72008A155E220A128A15343083120313C400B5
:101C8200F130C300C30B432EC40B432E0130831229
:101C92000313C3004308CD0764304D02031C522EC8
:101CA200532EE22D01300A168A1536220A128A159F
:101CB20080300A168A1536220A128A15E3308312F8
:101CC2000313AB008730AC000A168A1586220A126B
:101CD2008A15E33083120313A8008730A9000A167D
:101CE2008A15B3220A128A15BB3083120313A80085
:101CF2008830A9000A168A15B3220A128A1583129D
:101D020003138716CD0102300A128A15D9200A124E
:101D12008A15831203132808B2002708B1000A307B
:101D2200B3000030B4000A168A150F220A128A156F
:101D3200831203133108C3003208C4000310C40C19
:101D4200C30C4308CB004408CC00C5300A168A15E0
:101D520036220A128A15831203134C08C0004B085C
:101D6200BF004530C3004308C1000A168A15562732
:101D72000A128A158312031347080A168A155E226D
:101D82000A128A158312031348080A168A155E225C
:101D92000A128A152C300A168A155E220A128A1530
:101DA2008312031349080A168A155E220A128A153B
:101DB20043300A168A155E220A128A15823083126D
:101DC2000313C400DD30C300C30BE52EC40BE52EA4
:101DD200013083120313C3004308CD07C8304D02FC
:101DE200031CF42EF52E842E871283160313071478
:101DF20001300A168A1536220A128A1580300A160E
:101E02008A1536220A128A15D43083120313AB00C4
:101E12008730AC000A168A1586220A128A15D43037
:101E220083120313A8008730A9000A168A15B32269
:101E32000A128A15BB3083120313A8008830A90046
:101E42000A168A15B3220A128A15831603138112FF
:101E520081110110811001158B1683120313901446
:101E6200901210120B11063081007D30C30043081E
:101E7200F8008B178F018E0110140715CD01023067
:101E82000A128A15D9200A128A1583120313280806
:101E9200B2002708B1000A30B3000030B4000A16BD
:101EA2008A150F220A128A15831203133108C300FE
:101EB2003208C4000310C40CC30C4308CB0044080E
:101EC200CC00C2300A168A1536220A128A158312EB
:101ED20003134C08C0004B08BF004530C300430841
:101EE200C1000A168A1556270A128A15831203138D
:101EF20047080A168A155E220A128A1583120313EC
:101F020048080A168A155E220A128A152C300A1609
:101F12008A155E220A128A158312031349080A16C9
:101F22008A155E220A128A1543300A168A155E2223
:101F32000A128A15C8300A168A1536220A128A151A
:101F4200831203135208C0005108BF004530C3007A
:101F52004308C1000A168A1556270A128A158312E7
:101F6200031346080A168A155E220A128A1583127C
:101F7200031347080A168A155E220A128A1583126B
:101F8200031348080A168A155E220A128A1583125A
:101F9200031349080A168A155E220A128A1552305C
:101FA2000A168A155E220A128A1550300A168A15F6
:101FB2005E220A128A1553300A168A155E220A1206
:101FC2008A151A3083120313C400F730C300C30BFF
:101FD200E82FC40BE82FED2F013083120313C30047
:101FE2004308CD0796304D02031CF82FF92F402FDE
:101FF2008B1307110F30831603139F000800013063
:102002000A168A1536220A168A1180300A168A158D
:1020120036220A168A11D03083120313AB0088309D
:10202200AC000A168A1586220A168A11D03083124B
:102032000313A8008830A9000A168A15B3220A16CB
:102042008A11BB3083120313A8008830A9000A1634
:102052008A15B3220A168A118312031387100630D7
:1020620083120313B1001330B000AD30AF00AF0BD9
:102072003828B00B3828B10B382883120313871481
:102082000800831603130710091001300A168A1577
:1020920036220A168A1180300A168A1536220A1644
:1020A2008A11013083120313AB008830AC000A1688
:1020B2008A1586220A168A11013083120313A80098
:1020C2008830A9000A168A15B3220A168A11BB3073
:1020D20083120313A8008830A9000A168A15B322B6
:1020E2000A168A1183120313B20107080139AF00DD
:1020F2000130AF0607082F06FE392F06870006308B
:1021020083120313B1001330B000AD30AF00AF0B38
:102112008828B00B8828B10B88280130831203135A
:10212200AF002F08B20705303202031C99289A2803
:102132007628071001300A168A1536220A168A11E5
:1021420080300A168A1536220A168A110F30831237
:102152000313AB008830AC000A168A1586220A16D1
:102162008A110F3083120313A8008830A9000A16BF
:102172008A15B3220A168A11BB3083120313A800F0
:102182008830A9000A168A15B3220A168A11831208
:102192000313B20109080139AF000130AF06090883
:1021A2002F06FE392F068900063083120313B10071
:1021B2001330B000AD30AF00AF0BDD28B00BDD281F
:1021C200B10BDD28013083120313AF002F08B207D1
:1021D20005303202031CEE28EF28CB280910080034
:1021E2000A168A15E1210A168A11D0300A168A15B2
:1021F200B9240A168A1100300A168A15B9240A1659
:102202008A110A168A15E1210A168A11D1300A1694
:102212008A15B9240A168A1101300A168A15C925A7
:102222000A168A117F3983120313AD002D08AE00FE
:102232003A30AD002D08D8002E080A168A15D22190
:102242000A168A1183120313AD002D08D9002E0835
:102252000A168A158D210A168A1183120313AD00FC
:102262002D08DA00DB0101300A168A15C9250A1683
:102272008A117F3983120313AD002D08AE003A3064
:10228200AD002D08D5002E080A168A15D2210A168D
:102292008A1183120313AD002D08D6002E080A16E8
:1022A2008A158D210A168A1183120313AD002D0897
:1022B200D70001300A168A15C9250A168A113F3934
:1022C20083120313AD002D08AE002E080A168A15DC
:1022D200D2210A168A1183120313AD002D08D300EE
:1022E2002E080A168A158D210A168A1183120313E3
:1022F200AD002D08D40001300A168A15C9250A1628
:102302008A1101300A168A15C9250A168A113F391F
:1023120083120313AD002D08AE002E080A168A158B
:10232200D2210A168A1183120313AD002D08DD0093
:102332002E080A168A158D210A168A118312031392
:10234200AD002D08DE0001300A168A15C9250A16CD
:102352008A111F3983120313AD002D08AE002F30EE
:10236200AD002D08DF002E080A168A15D2210A16A2
:102372008A1183120313AD002D08E0002E080A16FD
:102382008A158D210A168A1183120313AD002D08B6
:10239200E10000300A168A15C9250A168A1183122D
:1023A2000313AD002D08AE002F30AD002D08E20062
:1023B2002E080A168A15D2210A168A1183120313CD
:1023C200AD002D08E3002E080A168A158D210A1683
:1023D2008A1183120313AD002D08E400E5010A16E9
:1023E2008A15F8210A168A11080001300A168A1580
:1023F20036220A168A1180300A168A1536220A16E1
:102402008A117A3083120313AB008630AC000A16AD
:102412008A1586220A168A117A3083120313A800BB
:102422008630A9000A168A15B3220A168A11BB3011
:1024320083120313A8008830A9000A168A15B32252
:102442000A168A11C0300A168A1536220A168A110D
:10245200483083120313AB008630AC000A168A158B
:1024620086220A168A11483083120313A800863086
:10247200A9000A168A15B3220A168A11BB308312E2
:102482000313A8008830A9000A168A15B3220A1677
:102492008A1103308316031386008312061C522A04
:1024A200532A572A8618562A572A4E2A06185A2A73
:1024B2005B2A332B0A30AD000030AE000A168A15B3
:1024C2006B250A168A1183120313B3003308B7006F
:1024D20037080A168A155E220A168A110A308312F2
:1024E2000313AC000030AD00A530B3003308AE00DA
:1024F2000A168A15D7230A168A110A308312031381
:10250200AC000030AD005A30B3003308AE000A16FA
:102512008A15D7230A168A110A3083120313AD00D3
:102522000030AE000A168A156B250A168A1183122C
:102532000313B3003308B6000A30AC000030AD001C
:102542003708B3003308AE000A168A15D7230A16D5
:102552008A1101300A168A1536220A168A1180302B
:102562000A168A1536220A168A117A308312031342
:10257200AB008630AC000A168A1586220A168A112A
:102582007A3083120313A8008630A9000A168A152E
:10259200B3220A168A11BB3083120313A8008830B3
:1025A200A9000A168A15B3220A168A11C0300A1621
:1025B2008A1536220A168A115A30831203133606F6
:1025C200031DE42AE52A052B8D30AB008830AC00D0
:1025D2000A168A1586220A168A118D30831203136F
:1025E200A8008830A9000A168A15B3220A168A1191
:1025F200BB3083120313A8008830A9000A168A157B
:10260200B3220A168A11242B8230AB008830AC0028
:102612000A168A1586220A168A1182308312031339
:10262200A8008830A9000A168A15B3220A168A1150
:10263200BB3083120313A8008830A9000A168A153A
:10264200B3220A168A110B3083120313B500263007
:10265200B4005D30B300B30B2C2BB40B2C2BB50B99
:102662002C2B372B861C362B372B332B831603133D
:102672008601831203138601080001300A168A15A7
:1026820036220A168A1180300A168A1536220A164E
:102692008A11983083120313AB008730AC000A16FC
:1026A2008A1586220A168A11983083120313A8000B
:1026B2008730A9000A168A15B3220A168A11BB307E
:1026C20083120313A8008830A9000A168A15B322C0
:1026D2000A168A1183120313CD01CC30B7000030E1
:1026E200B80000300A128A15D9200A168A118312FC
:1026F20003132808B2002708B1000A30B3000030E3
:10270200B4000A168A150F220A168A1183120313BD
:102712003208BA003108B9000A128A11BA250A161B
:102722008A11831203133708C3004308CC00C63052
:102732000A168A1536220A168A11831203134C08C6
:10274200C300C4014308BF004408C0004630C500AE
:102752004508C1000A168A1556270A168A118312DD
:10276200031349080A168A155E220A168A112C30AA
:102772000A168A155E220A168A11831203134A0860
:102782000A168A155E220A168A1156300A168A1508
:102792005E220A168A111A3083120313C400F7301C
:1027A200C300C30BD22BC40BD22BD72B0130831205
:1027B2000313C3004308CD07C8304D02031CE22BAC
:1027C200E32B6E2B01300A168A1536220A168A115D
:1027D20080300A168A1536220A168A11A730831209
:1027E2000313AB008730AC000A168A1586220A163C
:1027F2008A11A73083120313A8008730A9000A1692
:102802008A15B3220A168A11BB3083120313A80059
:102812008830A9000A168A15B3220A168A11831271
:102822000313CD01CC30B7000030B80001300A12DA
:102832008A15D9200A168A11831203132808B200B6
:102842002708B1000A30B3000030B4000A168A1516
:102852000F220A168A11831203133208BA003108B2
:10286200B9000A128A11BA250A168A1183120313B1
:102872003708C3004308CC00C6300A168A15362230
:102882000A168A11831203134C08C300C4014308B9
:10289200BF004408C0004630C5004508C1000A1602
:1028A2008A1556270A168A118312031349080A1633
:1028B2008A155E220A168A112C300A168A155E22A1
:1028C2000A168A11831203134A080A168A155E220F
:1028D2000A168A1156300A168A155E220A168A11BB
:1028E2001A3083120313C400F730C300C30B772CD2
:1028F200C40B772C7C2C013083120313C3004308D2
:10290200CD07C8304D02031C872C882C132C0800DD
:1029120001300A168A1536220A168A1180300A16E2
:102922008A1536220A168A11C53083120313AB00A8
:102932008730AC000A168A1586220A168A11C5301B
:1029420083120313A8008730A9000A168A15B3223E
:102952000A168A11BB3083120313A8008830A9001B
:102962000A168A15B3220A168A11C0300A168A1567
:1029720036220A168A11483083120313AB008630BE
:10298200AC000A168A1586220A168A11483083126A
:102992000313A8008630A9000A168A15B3220A1664
:1029A2008A11BB3083120313A8008830A9000A16CB
:1029B2008A15B3220A168A1103308316031386007E
:1029C2008312061CE52CE62CEA2C8618E92CEA2C4C
:1029D200E12C0618ED2CEE2CDA2DC4300A168A15DD
:1029E20036220A168A11BE3083120313AB008830D6
:1029F200AC000A168A1586220A168A11BE30831284
:102A02000313A8008830A9000A168A15B3220A16F1
:102A12008A11BB3083120313A8008830A9000A165A
:102A22008A15B3220A168A11163083120313A800DC
:102A32008630A9000A168A15B3220A168A11831251
:102A42000313B3013308303E0A168A15B8210A1659
:102A52008A112B3083120313A8008830A9000A16AA
:102A62008A15B3220A168A11013083120313AF00AA
:102A72002F08B30704303302031C402D412D232DB0
:102A82000B3083120313B1002630B0005D30AF006B
:102A9200AF0B492DB00B492DB10B492D01300A1650
:102AA2008A1536220A168A1180300A168A153622AB
:102AB2000A168A11B63083120313AB008730AC00BA
:102AC2000A168A1586220A168A11B6308312031351
:102AD200A8008730A9000A168A15B3220A168A119D
:102AE200BB3083120313A8008830A9000A168A1586
:102AF200B3220A168A11B53083120313A800883054
:102B0200A9000A168A15B3220A168A118312031320
:102B1200B30133080F39031D8F2D902DA12DC03025
:102B22000A168A1536220A168A11BB30831203133B
:102B3200A8008830A9000A168A15B3220A168A113B
:102B4200D03083120313A7000730A8000A168A1593
:102B520056230A168A1183120313AF002F08B200FC
:102B620032080A168A155E220A168A118312031384
:102B720032080A168A15B8210A168A110130831200
:102B82000313AF002F08B30720303302031CCA2DF2
:102B9200CB2D8A2D023083120313B1000430B00012
:102BA200B930AF00AF0BD32DB00BD32DB10BD32D5A
:102BB200DA2D080001300A168A1536220A168A1101
:102BC20080300A168A1536220A168A115F3083125D
:102BD2000313AB008830AC000A168A1586220A1647
:102BE2008A115F3083120313A8008830A9000A16E5
:102BF2008A15B3220A168A11BB3083120313A80066
:102C02008830A9000A168A15B3220A168A1183127D
:102C12000313B201023083120313B1000430B00077
:102C2200B930AF00AF0B132EB00B132EB10B132E16
:102C32001A2E18300A168A1536220A168A110130FF
:102C420083120313AF002F08B2070A303202031CAB
:102C52002B2E2C2E0B2EB201023083120313B10045
:102C62000430B000B930AF00AF0B352EB00B352EAB
:102C7200B10B352E3C2E1C300A168A1536220A1646
:102C82008A11013083120313AF002F08B2070A30F2
:102C92003202031C4D2E4E2E2D2E0F300A168A158F
:102CA20036220A168A1183120313B20102308312EA
:102CB2000313B1000430B000B930AF00AF0B5F2E88
:102CC200B00B5F2EB10B5F2E662E10300A168A15DE
:102CD20036220A168A11013083120313AF002F081D
:102CE200B2070A303202031C772E782E572EB20119
:102CF200023083120313B1000430B000B930AF00C8
:102D0200AF0B812EB00B812EB10B812E882E143089
:102D12000A168A1536220A168A1101308312031303
:102D2200AF002F08B2070A303202031C992E9A2EE6
:102D3200792E0C300A168A1536220A168A1140306C
:102D42000A168A1536220A168A1111300A168A15AF
:102D52005E220A168A1119300A168A155E220A168E
:102D62008A1115300A168A155E220A168A11133044
:102D72000A168A155E220A168A1113300A168A1555
:102D82005E220A168A1115300A168A155E220A1662
:102D92008A1119300A168A155E220A168A11113012
:102DA2000A168A155E220A168A110E300A168A152A
:102DB2005E220A168A1111300A168A155E220A1636
:102DC2008A110E300A168A155E220A168A110530F9
:102DD2000A168A155E220A168A110E300A168A15FA
:102DE2005E220A168A1114300A168A155E220A1603
:102DF2008A110A300A168A155E220A168A111130C1
:102E02000A168A155E220A168A11C0300A168A1517
:102E120036220A168A1183120313B20132080139CB
:102E22000A168A155E220A168A11023083120313C9
:102E3200B1000430B000B930AF00AF0B1E2FB00BA1
:102E42001E2FB10B1E2F252F013083120313AF004B
:102E52002F08B20710303202031C302F312F0F2FF0
:102E620001300A168A1536220A168A1180300A168D
:102E72008A1536220A168A115F3083120313AB00B9
:102E82008830AC000A168A1586220A168A115F302B
:102E920083120313A8008830A9000A168A15B322E8
:102EA2000A168A11BB3083120313A8008830A900C6
:102EB2000A168A15B3220A168A11203083120313C6
:102EC200AF002F08B20032080F39031D692F6A2F95
:102ED200702FC0300A168A1536220A168A118312FA
:102EE200031332080A168A155E220A168A118230E4
:102EF20083120313B000DD30AF00AF0B7E2FB00B97
:102F02007E2F013083120313AF002F08B207203047
:102F1200320203188D2F8E2F642F02308312031377
:102F2200B1000430B000B930AF00AF0B962FB00B38
:102F3200962FB10B962F9D2F01300A168A15362235
:102F42000A168A1180300A168A1536220A168A1142
:102F52005F3083120313AB008830AC000A168A1567
:102F620086220A168A115F3083120313A800883062
:102F7200A9000A168A15B3220A168A11BB308312D7
:102F82000313A8008830A9000A168A15B3220A166C
:102F92008A11C0300A168A1536220A168A11A13001
:102FA20083120313AB008830AC000A168A158622FE
:102FB2000A168A11A13083120313A8008830A900CF
:102FC2000A168A15B3220A168A11BB30831203131A
:102FD200A8008830A9000A168A15B3220A168A1197
:102FE200063083120313B1001330B000AD30AF00CE
:0E2FF200AF0BF92FB00BF92FB10BF92F080020
:10330E0083120313A70027088800080083120313F3
:10331E00A70027080F39303E08000C308312031324
:10332E00A700A70B98290000080064008001840AFA
:10333E0004060319003404069D298316031387110E
:10334E000712831203138715071608000130831224
:10335E0003139F000B30831603139F0001309B0055
:10336E00080083120313A70027089900831603137E
:10337E00981CC229C329BD290800333083160313B4
:10338E00990018151813981618128312031398170C
:10339E0018131816080083120313A8002808A70094
:1033AE0004300310A70CFF3E031DD82927080F3940
:1033BE00303E08000A168A1594210A168A158312C1
:1033CE000313071687150A168A1594210A168A15ED
:1033DE008312031307120A168A1594210A168A15E8
:1033EE0008000A168A1594210A168A1583120313E9
:1033FE00071287150A168A1594210A168A15831242
:10340E00031307160A168A1594210A168A15080040
:10341E0083120313B501B601311C162A172A1D2A71
:10342E003308B5070318B60A3408B607013003107F
:10343E00B30DB40DFF3E031D1E2A01300310B20C56
:10344E00B10CFF3E031D252A31083204031D302A1C
:10345E00312A132A3608B2003508B100080083124B
:10346E000313AA0089142A080A168A1587210A1638
:10347E008A15831203130911083083120313A9004E
:10348E00C930A800A80B492AA90B492A8312031395
:10349E008910083083120313A900C930A800A80BA5
:1034AE00562AA90B562A8312031389140800831275
:1034BE000313AA0089142A080A168A1587210A16E8
:1034CE008A15831203130915083083120313A900FA
:1034DE00C930A800A80B712AA90B712A83120313F5
:1034EE008910083083120313A900C930A800A80B55
:1034FE007E2AA90B7E2A83120313891408008312D5
:10350E000313AE01A12A2E082B0784002C080318E2
:10351E002C0AFF000A128A1100260A168A150A16AC
:10352E008A155E220A168A15013083120313AD0026
:10353E002D08AE072E082B0784002C0803182C0A22
:10354E00FF000A128A1100260A168A15003A031D78
:10355E00B12AB22A8A2A080083120313AA01AB01E8
:10356E00D12A2A082807840029080318290AFF00EF
:10357E000A128A1100260A168A150A168A15B82109
:10358E000A168A15013083120313AA070318AB0A11
:10359E000030AB072A082807840029080318290AD7
:1035AE00FF000A128A1100260A168A15003A031D18
:1035BE00E12AE22AB82A08000130F8027808031D31
:1035CE00E92AEA2A0E2B0730F0000030F1000E082F
:1035DE00A000A1010F08A200A3012208A300A201CE
:1035EE0020082204F20021082304F3000A168A158B
:1035FE0093230A168A15710883120313D2007008DA
:10360E00D1007D30A0002008F8008F018E010B1133
:10361E00063081002608FF0025088A00240E83004C
:10362E00FE0E7E0E090083120313270828040319C9
:10363E00212B222B512BAC01AC0A302B0130031065
:10364E00A70DA80DFF3E031D262B0130AB002B0846
:10365E00AC07A81F332B342B252B28082A02031D59
:10366E003A2B27082902031C3D2B3E2B442B2708FF
:10367E00A9022808031CAA03AA0201300310A80CF1
:10368E00A70CFF3E031D452B0130AC02031D502B32
:10369E00512B342B2A08A8002908A70008008312F2
:1036AE000313AB01AC0118195D2B5E2B622B981C1A
:1036BE00612B622B772B18121816772B343083124E
:1036CE000313AA00F130A900A90B6B2BAA0B6B2BCD
:1036DE00143083120313AB070318AC0A0030AC0787
:1036EE0028082C02031D7D2B27082B02031C802B80
:1036FE00812B872B27082804031D862B872B8B2BCA
:10370E008C1E8A2B8B2B652B8C1E8E2B8F2B912B2D
:10371E001A08922BA5300800F501F6017008710405
:10372E0003199A2B9B2BD22BF701F70AA92B0130E9
:10373E000310F00DF10DFF3E031D9F2B0130F40021
:10374E007408F707F11FAC2BAD2B9E2B0130031025
:10375E00F50DF60DFF3E031DAE2B71087302031D12
:10376E00BA2B70087202031CBD2BBE2BC52B700822
:10377E00F2027108031CF303F302751401300310F7
:10378E00F10CF00CFF3E031DC62B0130F702031D9A
:10379E00D12BD22BAD2B7608F1007508F000080066
:1037AE00831203132D080139AF002F08B1002C0826
:1037BE00AF002F08B2000A168A15E1210A168A15E3
:1037CE008312031331080319ED2BEE2BF52BA230C8
:1037DE000A168A15B9240A168A15FB2BA0300A166A
:1037EE008A15B9240A168A158312031332080A168B
:1037FE008A15B9240A168A15831203132E080A167F
:10380E008A15B9240A168A150A168A15F8210A1677
:10381E008A151A3083120313B000F730AF00AF0BC6
:10382E00162CB00B162C1B2C08000A168A15E1213B
:10383E000A168A15D0300A168A15B9240A168A1560
:10384E0000300A168A15B9240A168A1534300A165B
:10385E008A15B9240A168A1546300A168A15B9240D
:10386E000A168A1555300A168A15B9240A168A15AB
:10387E0006300A168A15B9240A168A1521300A1638
:10388E008A15B9240A168A1502300A168A15B92421
:10389E000A168A1525300A168A15B9240A168A15AB
:1038AE0000300A168A15B9240A168A150A168A15C0
:1038BE00F8210A168A1508008312031389100911BC
:1038CE00343083120313AC00F130AB00AB0B6D2C14
:1038DE00AC0B6D2C83120313891438300A168A151B
:1038EE0036220A168A150D3083120313AC00FB30F4
:1038FE00AB00AB0B802CAC0B802C38300A168A1523
:10390E0036220A168A15033083120313AC00973041
:10391E00AB00AB0B902CAC0B902C38300A168A15E2
:10392E0036220A168A1508300A168A1536220A1603
:10393E008A150F300A168A1536220A168A15013094
:10394E000A168A1536220A168A1538300A168A156C
:10395E0036220A168A1580300A168A1536220A165B
:10396E008A15080083120313AA0087110A168A15F6
:10397E0094210A168A1583120313AB012A08A80094
:10398E002B08073C013ECD2C0310A80CFF3E031D57
:10399E00CB2C28080139A900A90E07082906EF39F2
:1039AE002906870087150A168A1594210A168A1584
:1039BE008312031387110A168A1594210A168A1583
:1039CE00013083120313A8002808AB0708302B021E
:1039DE00031CF22CF32CC52C8316031307160A16A0
:1039EE008A1594210A168A158312031387150A164F
:1039FE008A1594210A168A158312031387118316CA
:103A0E00031307128312031307160A168A1594213D
:103A1E000A168A15080083120313A700382D3F30AB
:103A2E006A2D06306A2D5B306A2D4F306A2D663056
:103A3E006A2D6D306A2D7D306A2D07306A2D7F30EC
:103A4E006A2D6F306A2D77306A2D7C306A2D583092
:103A5E006A2D5E306A2D79306A2D71306A2D0030F4
:103A6E006A2D2708003A0319162D013A0319182D4D
:103A7E00033A03191A2D013A03191C2D073A03199B
:103A8E001E2D013A0319202D033A0319222D013A56
:103A9E000319242D0F3A0319262D013A0319282D47
:103AAE00033A03192A2D013A03192C2D073A03194B
:103ABE002E2D013A0319302D033A0319322D013AF6
:103ACE000319342D362D0800831203132E080139E5
:103ADE00AF002F08B2002D08AF002F08B1000A1654
:103AEE008A15E1210A168A15831203133208031967
:103AFE00812D822D892DA2300A168A15B9240A1617
:103B0E008A158F2DA0300A168A15B9240A168A1521
:103B1E008312031331080A168A15B9240A168A1558
:103B2E000A168A15F8210A168A150A168A15E1212F
:103B3E000A168A158312031332080319A72DA82D0E
:103B4E00AF2DA3300A168A15B9240A168A15B52D7B
:103B5E00A1300A168A15B9240A168A1500300A16DB
:103B6E008A15C9250A168A1583120313AF002F086A
:103B7E00B0000A168A15F8210A168A158312031345
:103B8E003008080083120313AA00AB0187110A162E
:103B9E008A1594210A168A158316031307168312A3
:103BAE0003130716AC0187150A168A1594210A16F7
:103BBE008A1583120313070E0139A8002C08073C3F
:103BCE00013EEB2D0310A80DFF3E031DE92D280825
:103BDE00A9002908AB0487110A168A1594210A1622
:103BEE008A15013083120313A8002808AC07083089
:103BFE002C02031C032E042EDA2D83160313071238
:103C0E00831203132A0803190D2E0E2E102E0712DF
:103C1E00112E07160A168A1594210A168A15831272
:103C2E00031387150A168A1594210A168A1583120C
:103C3E00031387110A168A1594210A168A15831200
:103C4E0003132B08080083160313860101300A168E
:103C5E008A1536220A168A1583300A168A153622D6
:103C6E000A168A15AB3083120313AB008830AC00F2
:103C7E000A168A1586220A168A15AB30831203138A
:103C8E00A8008830A9000A168A15B3220A168A15CA
:103C9E00BB3083120313A8008830A9000A168A15B8
:103CAE00B3220A168A1583120313B201B301B30AA3
:103CBE003308860033088800033083120313B100E3
:103CCE000830B0007630AF00AF0B6B2EB00B6B2E02
:103CDE00B10B6B2E0000831203133308AF002F07B6
:103CEE00B0003008B3003308031D7E2E7F2E5F2EEA
:103CFE000130AF002F08B20703303202031C882EAA
:103D0E00892E5D2E86018801B301FF30AF002F088A
:103D1E008606FF30AF002F08880603308312031388
:103D2E00B1000830B0007630AF00AF0B9C2EB00B58
:103D3E009C2EB10B9C2E0000013083120313AF009A
:103D4E002F08B30704303302031CAE2EAF2E8C2E79
:103D5E00080001300A168A1536220A168A15803096
:103D6E000A168A1536220A168A151D308312031377
:103D7E00AB008830AC000A168A1586220A168A1500
:103D8E001D3083120313A8008830A9000A168A1565
:103D9E00B3220A168A15BB3083120313A80088308B
:103DAE00A9000A168A15B3220A168A150F30831631
:103DBE0003139F0083120313B201F42E20308500EB
:103DCE00052F10308500052F08308500052F043093
:103DDE008500052F3C308500052F3208003A031967
:103DEE00E52E013A0319E82E033A0319EB2E013A98
:103DFE000319EE2E073A0319F12E052FB3013308DE
:103E0E000A168A1512250A168A15831203138800BC
:103E1E00033083120313B1000830B0007630AF00C8
:103E2E00AF0B172FB00B172FB10B172F0000013050
:103E3E0083120313AF002F08B30710303302031C95
:103E4E00292F2A2F062F0130AF002F08B207053079
:103E5E003202031C332F342FF42E08300A168A1523
:103E6E0012250A168A158312031388000B3083124B
:103E7E000313B1002630B0005D30AF00AF0B452FFD
:103E8E00B00B452FB10B452F8312031385010B3059
:103E9E00831603139F00831203138801080010304A
:103EAE0083120313B7002730B8004008BA003F084A
:103EBE00B9000A128A11BA250A168A15831203133B
:103ECE003708303EC2004108840042088313800048
:103EDE00E830B7000330B8004008AA003F08A90038
:103EEE001030A7002730A8000A168A151A230A16C2
:103EFE008A15831203132808BA002708B9000A127C
:103F0E008A11BA250A168A15831203133708303E12
:103F1E00C200410A84004208831380006430B70057
:103F2E000030B8004008AA003F08A900E830A700FA
:103F3E000330A8000A168A151A230A168A15831248
:103F4E0003132808BA002708B9000A128A11BA25E5
:103F5E000A168A15831203133708303EC200410831
:103F6E00023E84004208831380000A30B7000030FE
:103F7E00B8004008AA003F08A9006430A70000302E
:103F8E00A8000A168A151A230A168A158312031315
:103F9E002808BA002708B9000A128A11BA250A168B
:103FAE008A15831203133708303EC2004108033EC0
:103FBE0084004208831380000A30A7000030A80056
:103FCE004008AA003F08A9000A168A151A230A16E5
:103FDE008A15831203132708303EC2004108043E9F
:103FEE0084004208831380004108053E840080014E
:0A3FFE000800FF3FFF3FFF3FFF3FB9
:04400E00AA3FBC3FCA
:00000001FF
