:020000040000FA
:1000000014EF00F0FFFFFFFF46829DED09F0FFFFB8
:10001000FFFFFFFFFFFFFFFF4680E0CF0AF000F089
:100020000AC0E0FF4690100039EF0AF0C30E926E4E
:10003000010E936E010E946E000E956E000E966E7C
:10004000F19E1FEC09F00C0EFDEC09F051EC0AF0EA
:100050005BEC0AF00F0EC16E070EB46E030E936ECA
:10006000010EFDEC09F0800EFDEC09F0F60E116EAC
:100070007F0E126E75EC09F0C00EFDEC09F0A60EB5
:10008000116E7F0E126E75EC09F081B24AEF00F02E
:100090004CEF00F045EF00F0010EFDEC09F0800E92
:1000A000FDEC09F06A0E116E7F0E126E75EC09F010
:1000B000000E2E6E000E0C6EC80E0B6EC4EC09F016
:1000C000180EFDEC09F02E2A090E2E646AEF00F0DE
:1000D0006CEF00F05AEF00F0000E2E6E000E0C6E6A
:1000E000C80E0B6EC4EC09F01C0EFDEC09F02E2AB4
:1000F000090E2E647EEF00F080EF00F06EEF00F04E
:100100000F0EFDEC09F0000E2E6E000E0C6EC80EE8
:100110000B6EC4EC09F0100EFDEC09F02E2A090E4E
:100120002E6495EF00F097EF00F085EF00F0000EE1
:100130002E6E000E0C6EC80E0B6EC4EC09F0140E81
:10014000FDEC09F02E2A090E2E64A9EF00F0ABEFAA
:1001500000F099EF00F00C0EFDEC09F0400EFDEC04
:1001600009F0110EE8EC09F0190EE8EC09F0150E93
:10017000E8EC09F0130EE8EC09F0130EE8EC09F0D6
:10018000150EE8EC09F0190EE8EC09F0110EE8EC98
:1001900009F00E0EE8EC09F0110EE8EC09F00E0E75
:1001A000E8EC09F0050EE8EC09F00E0EE8EC09F0B9
:1001B000140EE8EC09F00A0EE8EC09F0110EE8EC78
:1001C00009F0C00EFDEC09F0000E2E6E2E50010B52
:1001D000E8EC09F0000E0C6E640E0B6EC4EC09F036
:1001E0002E2A0F0E2E64F7EF00F0F9EF00F0E6EF85
:1001F00000F0010EFDEC09F0800EFDEC09F0830E1D
:10020000116E7F0E126E75EC09F0200E2E6E2EC050
:1002100023F00F0E2316D8A410EF01F012EF01F017
:1002200015EF01F0C00EFDEC09F02E50E8EC09F0DE
:10023000000E0C6E320E0B6EC4EC09F02E2A200E4E
:100240002E6025EF01F027EF01F007EF01F0000E1F
:100250000C6E640E0B6EC4EC09F0010EFDEC09F09F
:10026000800EFDEC09F0830E116E7F0E126E75ECA0
:1002700009F0C00EFDEC09F0DA0E116E7F0E126E61
:1002800075EC09F0010E0C6EF40E0B6EC4EC09F067
:10029000010EFDEC09F0800EFDEC09F0D70E116E99
:1002A0007E0E126E75EC09F00F0EC16E000E2E6EF2
:1002B0006AEF01F0200E806E7DEF01F0100E806E6F
:1002C0007DEF01F0080E806E7DEF01F0040E806E70
:1002D0007DEF01F02E50000AD8B45AEF01F0010A68
:1002E000D8B45EEF01F0030AD8B462EF01F0010A5E
:1002F000D8B466EF01F07DEF01F0000E2D6E2D50A9
:100300007AEC07F0836E000E0C6EC80E0B6EC4EC18
:1003100009F02D2A0F0E2D6490EF01F092EF01F0FD
:100320007FEF01F02E2A030E2E6499EF01F09BEF70
:1003300001F06AEF01F00B0EC16E000E836E000E2D
:10034000936E010EFDEC09F0830EFDEC09F09B0E9F
:10035000116E7F0E126E75EC09F0000E2D6E010EFF
:100360002E6E2EC081FF2EC083FF000E0C6EC80EB5
:100370000B6EC4EC09F02E50020DF3CF2EF02E5070
:10038000D8A4C5EF01F0C7EF01F0B1EF01F02D2ABD
:10039000020E2D64CEEF01F0D0EF01F0AFEF01F0CF
:1003A000000E816E000E836E000E2E6EFF0E811AFF
:1003B000FF0E831A000E0C6EC80E0B6EC4EC09F013
:1003C0002E2A030E2E64E7EF01F0E9EF01F0D6EFDD
:1003D00001F0010EFDEC09F0800EFDEC09F0400E7D
:1003E000116E7F0E126E75EC09F00F0EC16E928ABF
:1003F0003F0E936EC00EFDEC09F0230E116E7E0EC3
:10040000126E75EC09F081B008EF02F00AEF02F00D
:1004100003EF02F0CC0EFDEC09F0E10E116E7F0E41
:10042000126E75EC09F0010E0C6EF40E0B6EC4EC3E
:1004300009F0C00EFDEC09F0380E116E7E0E126E42
:1004400075EC09F081B227EF02F029EF02F022EFFC
:1004500002F0CC0EFDEC09F0E10E116E7F0E126E73
:1004600075EC09F0010E0C6EF40E0B6EC4EC09F085
:10047000C00EFDEC09F04D0E116E7E0E126E75EC85
:1004800009F081B446EF02F048EF02F041EF02F0CC
:10049000CC0EFDEC09F0E10E116E7F0E126E75ECC4
:1004A00009F0010E0C6EF40E0B6EC4EC09F0C00ED8
:1004B000FDEC09F0620E116E7E0E126E75EC09F005
:1004C00081B665EF02F067EF02F060EF02F0CC0E4C
:1004D000FDEC09F0E10E116E7F0E126E75EC09F065
:1004E000010E0C6EF40E0B6EC4EC09F0C00EFDECA8
:1004F00009F0770E116E7E0E126E75EC09F081B860
:1005000084EF02F086EF02F07FEF02F0CC0EFDECFC
:1005100009F0E10E116E7F0E126E75EC09F0010EFE
:100520000C6EF40E0B6EC4EC09F0C00EFDEC09F07D
:10053000A10E116E7E0E126E75EC09F081BAA3EF5A
:1005400002F0A5EF02F09EEF02F0CC0EFDEC09F0F8
:10055000E10E116E7F0E126E75EC09F0010E0C6E3D
:10056000F40E0B6EC4EC09F0C00EFDEC09F08C0E1D
:10057000116E7E0E126E75EC09F080BAC2EF02F0B9
:10058000C4EF02F0BDEF02F0CC0EFDEC09F0E10E7D
:10059000116E7F0E126E75EC09F0010E0C6EF40EEA
:1005A0000B6EC4EC09F0000E816E0B0EC16E010ED5
:1005B000FDEC09F0800EFDEC09F0130E116E7F0EBC
:1005C000126E75EC09F0C00EFDEC09F0B60E116E5E
:1005D0007E0E126E75EC09F0030E936E81A0F3EFA0
:1005E00002F0F5EF02F0FCEF02F081B2FAEF02F058
:1005F000FCEF02F0EEEF02F081B001EF03F003EF49
:1006000003F073EF03F0948E949CC40EFDEC09F09C
:10061000ED0E116E7F0E126E75EC09F0030E0C6E6E
:100620007E0E0D6E4DEC09F0000E2E6E2E50300F2A
:1006300046EC0AF05D0E0C6E7F0E0D6E4DEC09F06F
:100640002E2A030E2E6427EF03F029EF03F016EF96
:1006500003F0030E0C6EE80E0B6EC4EC09F0010EF5
:10066000FDEC09F0800EFDEC09F0040E116E7F0E1A
:10067000126E75EC09F0E40E0C6E7F0E0D6E4DECF3
:1006800009F0000E2E6E2EC023F00F0E2316D8A4F4
:100690004CEF03F04EEF03F057EF03F0C00EFDEC0C
:1006A00009F0C30E0C6E7F0E0D6E4DEC09F0070EB7
:1006B000116ED00E106EF4EC07F02D6E2D50E8EC9C
:1006C00009F02D5046EC0AF02E2A1F0E2E646BEF17
:1006D00003F06DEF03F043EF03F0000E0C6E640EB9
:1006E0000B6EC4EC09F0010EFDEC09F0800EFDEC80
:1006F00009F0E60E116E7E0E126E75EC09F0000E1A
:100700002E6E000E3BEC08F00BC012F00CC013F084
:10071000000E156E0A0E146E26EC0AF012C018F0C8
:1007200013C019F0000E1B6ECC0E1A6E79EC08F097
:1007300018502D6EC60EFDEC09F02DC01FF0206A7A
:10074000270E216E000E226EF6EC06F02A50E8EC21
:1007500009F02C0EE8EC09F02B50E8EC09F0560EED
:10076000E8EC09F0000E0C6E0A0E0B6EC4EC09F0FA
:100770002E2AC70E2E64BFEF03F0C1EF03F081EF06
:1007800003F0010EFDEC09F0800EFDEC09F0F50E12
:10079000116E7E0E126E75EC09F0000E2E6E010EBB
:1007A0003BEC08F00BC012F00CC013F0000E156EFD
:1007B0000A0E146E26EC0AF012C018F013C019F0DD
:1007C000000E1B6ECC0E1A6E79EC08F018502D6ED0
:1007D000C60EFDEC09F02DC01FF0206A270E216E19
:1007E000000E226EF6EC06F02A50E8EC09F02C0E12
:1007F000E8EC09F02B50E8EC09F0560EE8EC09F0B3
:10080000000E0C6E0A0E0B6EC4EC09F02E2AC70EF9
:100810002E640DEF04F00FEF04F0CFEF03F0010EA4
:10082000FDEC09F0800EFDEC09F04F0E116E7F0E0D
:10083000126E75EC09F0070E926E5BEC0AF0000E7A
:100840002E6E020E3BEC08F00BC012F00CC013F041
:10085000000E156E0A0E146E26EC0AF0D8901330B6
:10086000236E1230256E23C026F0C50EFDEC09F074
:1008700025C01FF026C020F0270E216E000E226E2C
:10088000F6EC06F02950E8EC09F02A50E8EC09F003
:100890002C0EE8EC09F02B50E8EC09F0430EE8ECE4
:1008A00009F0000E0C6E140E0B6EC4EC09F02E2A2B
:1008B000630E2E645EEF04F060EF04F021EF04F0AD
:1008C000010EFDEC09F0800EFDEC09F0310E116E09
:1008D0007F0E126E75EC09F0828A000E2E6E020EEB
:1008E0003BEC08F00BC012F00CC013F0000E156EBC
:1008F0000A0E146E26EC0AF0D8901330236E1230D4
:10090000256E23C026F0C50EFDEC09F025C01FF0B2
:1009100026C020F0270E216E000E226EF6EC06F0A7
:100920002950E8EC09F02A50E8EC09F02C0EE8EC2C
:1009300009F02B50E8EC09F0430EE8EC09F0000E4A
:100940000C6E320E0B6EC4EC09F02E2A630E2E6470
:10095000ACEF04F0AEEF04F06FEF04F0829A9480F5
:10096000010EFDEC09F0800EFDEC09F0220E116E77
:100970007F0E126E75EC09F0D59AD596D58CD59070
:10098000D592D584D58EF28ACD82CD9ACD98F29427
:10099000000ED76E060ED66E7D0E456EF28E000EE0
:1009A000CF6E000ECE6ECD808284000E2E6E020EB3
:1009B0003BEC08F00BC012F00CC013F0000E156EEB
:1009C0000A0E146E26EC0AF0D8901330236E123003
:1009D000256E23C026F0C20EFDEC09F025C01FF0E5
:1009E00026C020F0270E216E000E226EF6EC06F0D7
:1009F0002950E8EC09F02A50E8EC09F02C0EE8EC5C
:100A000009F02B50E8EC09F0430EE8EC09F0C80EB1
:100A1000FDEC09F043C01FF044C020F0270E216E0A
:100A2000000E226EF6EC06F02850E8EC09F0295092
:100A3000E8EC09F02A50E8EC09F02B50E8EC09F05A
:100A4000520EE8EC09F0500EE8EC09F0530EE8EC19
:100A500009F0000E0C6E0A0E0B6EC4EC09F02E2A83
:100A6000950E2E6436EF05F038EF05F0D7EF04F061
:100A7000F29E82940F0EC16EF00E936E010EFDEC8D
:100A800009F0820EFDEC09F08F0E116E7F0E126ED2
:100A900075EC09F0C10EFDEC09F0000E2E6E60EF52
:100AA00005F00F0E956E070E116ED00E106E06EC4F
:100AB00006F02D6E000E956E2D50E8EC09F02E2AF2
:100AC0000D0E2E6466EF05F068EF05F051EF05F0AE
:100AD000010EFDEC09F0800EFDEC09F0C70E116E61
:100AE0007E0E126E75EC09F0C00EFDEC09F0B60E2C
:100AF000116E7E0E126E75EC09F0030E936E81502E
:100B0000030B2D6E030E2D18D8B489EF05F08BEF73
:100B100005F07FEF05F0020E2D18D8A492EF05F036
:100B200094EF05F0DCEF05F00A0E62EC0AF02D6E92
:100B30002D50E8EC09F0A50E0B6E0A0E12EC0AF02F
:100B40005A0E0B6E0A0E12EC0AF00A0E62EC0AF054
:100B50002E6E2DC00BF00A0E12EC0AF0010EFDEC09
:100B600009F0800EFDEC09F0C70E116E7E0E126EBC
:100B700075EC09F0C00EFDEC09F05A0E2E18D8A441
:100B8000C4EF05F0C6EF05F0CEEF05F0C60E116E0E
:100B90007F0E126E75EC09F0D4EF05F0770E116E32
:100BA0007F0E126E75EC09F0030E0C6EE80E0B6EE4
:100BB000C4EC09F0E3EF05F081A2E1EF05F0E3EF0B
:100BC00005F0DCEF05F0000E936E000E816E010E55
:100BD000FDEC09F0800EFDEC09F0D00E116E7F0ED9
:100BE000126E75EC09F0C00EFDEC09F0B10E116E3D
:100BF0007F0E126E75EC09F0BC0E0C6E7F0E0D6E42
:100C00004DEC09F002EF06F014EF00F0000E176E45
:100C1000000E166E000E196E81CF18F0B7EF06F0B9
:100C2000000E1A6EFF0E1A24F66EF76A7D0EF7227A
:100C30000800F550FF0A811283B621EF06F023EF7A
:100C400006F03BEF06F0000E0C6E140E0B6EC4ECBB
:100C500009F083B62EEF06F030EF06F03BEF06F01A
:100C600083A635EF06F037EF06F030EF06F01A28CE
:100C7000196EADEF06F083B440EF06F042EF06F0D8
:100C80005BEF06F0000E0C6E140E0B6EC4EC09F058
:100C900083B44DEF06F04FEF06F05BEF06F083A450
:100CA00054EF06F056EF06F04FEF06F01A50050F1E
:100CB000196EADEF06F083B260EF06F062EF06F05A
:100CC0007BEF06F0000E0C6E140E0B6EC4EC09F0F8
:100CD00083B26DEF06F06FEF06F07BEF06F083A2B4
:100CE00074EF06F076EF06F06FEF06F01A50090F7A
:100CF000196EADEF06F083B080EF06F082EF06F0DC
:100D00009BEF06F0000E0C6E140E0B6EC4EC09F097
:100D100083B08DEF06F08FEF06F09BEF06F083A017
:100D200094EF06F096EF06F08FEF06F01A500D0FD5
:100D3000196EADEF06F0FF0E1A24F66EF76A7D0EFF
:100D4000F7220800F55081161A2A030E1A64ABEF39
:100D500006F0ADEF06F012EF06F0000E0C6E050E79
:100D60000B6EC4EC09F0050E1626000E172210506B
:100D7000165C11501758D8A0C0EF06F0C2EF06F06D
:100D8000CBEF06F010501110D8A4C9EF06F0CBEF4E
:100D900006F0D3EF06F01950D8B4D1EF06F0D3EF38
:100DA00006F010EF06F01950D8A4D9EF06F0DBEFEB
:100DB00006F0DEEF06F01968F2EF06F0FF0E126E95
:100DC000FF0E136E1950146E156A1250142613502C
:100DD0001522EF0E1424F66E7D0E1520F76E080016
:100DE000F5CF19F018C081FF195012001FC018F07C
:100DF00020C019F0270E1B6E100E1A6E79EC08F049
:100E00001850300F21C0D9FF22C0DAFFDF6E20EE6C
:100E100001F02150D9262250DA22270E0E6E100E34
:100E20000D6E1FC00BF020C00CF0EDEC08F00BC0F5
:100E300018F00CC019F0030E1B6EE80E1A6E79EC58
:100E400008F01850300FDF6E20EE02F02150D92646
:100E50002250DA22030E0E6EE80E0D6E1FC00BF04C
:100E600020C00CF0EDEC08F00BC018F00CC019F02D
:100E7000000E1B6E640E1A6E79EC08F01850300FDD
:100E8000DF6E20EE03F02150D9262250DA22000E28
:100E90000E6E640E0D6E1FC00BF020C00CF0EDEC5A
:100EA00008F00BC018F00CC019F0000E1B6E0A0EF3
:100EB0001A6E79EC08F01850300FDF6E20EE04F057
:100EC0002150D9262250DA221FC00BF020C00CF08E
:100ED000000E0E6E0A0E0D6EEDEC08F00B50300F8A
:100EE000DF6E20EE05F02150D9262250DA22000EC6
:100EF000DF6E12000B6EB0EF07F03F0EF3EF07F05E
:100F0000060EF3EF07F05B0EF3EF07F04F0EF3EF73
:100F100007F0660EF3EF07F06D0EF3EF07F07D0EAE
:100F2000F3EF07F0070EF3EF07F07F0EF3EF07F094
:100F30006F0EF3EF07F0770EF3EF07F07C0EF3EF91
:100F400007F0580EF3EF07F05E0EF3EF07F0790E9F
:100F5000F3EF07F0710EF3EF07F0000EF3EF07F079
:100F60000B50000AD8B47DEF07F0010AD8B480EF27
:100F700007F0030AD8B483EF07F0010AD8B486EF6C
:100F800007F0070AD8B489EF07F0010AD8B48CEF4C
:100F900007F0030AD8B48FEF07F0010AD8B492EF34
:100FA00007F00F0AD8B495EF07F0010AD8B498EF0C
:100FB00007F0030AD8B49BEF07F0010AD8B49EEFFC
:100FC00007F0070AD8B4A1EF07F0010AD8B4A4EFDC
:100FD00007F0030AD8B4A7EF07F0010AD8B4AAEFC4
:100FE00007F0ADEF07F01200000E136E000E126E48
:100FF000ABB4FDEF07F0FFEF07F006EF08F0ABA290
:1010000004EF08F006EF08F014EF08F0AB98AB8897
:1010100014EF08F0000E0C6E140E0B6EC4EC09F009
:10102000140E1226000E13221050125C1150135889
:10103000D8A01DEF08F01FEF08F028EF08F01050BF
:101040001110D8A426EF08F028EF08F02FEF08F0D1
:101050009EAA2DEF08F02FEF08F00AEF08F09EAAE5
:1010600034EF08F036EF08F039EF08F0AE503AEF01
:1010700008F0A50E1200116E4AEF08F0010EC26EC4
:1010800059EF08F0050EC26E59EF08F0090EC26E56
:1010900059EF08F01150000AD8B43EEF08F0010AE9
:1010A000D8B442EF08F0030AD8B446EF08F059EF7D
:1010B00008F0C282C2B25FEF08F061EF08F05AEFA9
:1010C00008F0C3CF0DF0060E0E6ED8900D320E2E26
:1010D00065EF08F00D50C4CF0FF0106AD8900F36AE
:1010E0001036D8900F3610360F100B6E10500C6E55
:1010F0001200000E1D6E000E1C6E1A501B10D8B48C
:1011000084EF08F086EF08F0AEEF08F0010E1E6ED7
:101110008EEF08F0D8901A361B361E2A1BAE93EFBE
:1011200008F095EF08F08AEF08F0D8901C361D36CD
:101130001A50185C1B501958D8A0A1EF08F0A3EF63
:1011400008F0A8EF08F01A50185E1B50195A1C80BE
:10115000D8901B321A321E2E95EF08F01CC018F0E2
:101160001DC019F01200000E066E000E056E035031
:101170000410D8B4BEEF08F0C0EF08F0E8EF08F0B4
:10118000010E076EC8EF08F0D89003360436072A20
:1011900004AECDEF08F0CFEF08F0C4EF08F0D89020
:1011A000053606360350015C04500258D8A0DBEF28
:1011B00008F0DDEF08F0E2EF08F00350015E0450A4
:1011C000025A0580D89004320332072ECFEF08F080
:1011D00005C001F006C002F012000D500E10D8B488
:1011E000F4EF08F0F6EF08F01AEF09F0010E0F6EB9
:1011F000FEEF08F0D8900D360E360F2A0EAE03EF34
:1012000009F005EF09F0FAEF08F00D500B5C0E50F5
:101210000C58D8A00EEF09F010EF09F014EF09F008
:101220000D500B5E0E500C5AD8900E320D320F2E10
:1012300005EF09F00BC00BF00CC00CF0120084920B
:101240008494000E0C6E140E0B6EC4EC09F08482B4
:10125000380EFDEC09F0000E0C6E050E0B6EC4ECA2
:1012600009F0380EFDEC09F0000E0C6E010E0B6E4D
:10127000C4EC09F0380EFDEC09F0080EFDEC09F0A5
:101280000F0EFDEC09F0010EFDEC09F0380EFDEC3F
:1012900009F0800EFDEC09F01200000E106E60EFF8
:1012A00009F010500C240E6E000E0D200F6E0EC0B3
:1012B000F6FF0FC0F7FF0800F55046EC0AF0102AC1
:1012C00010500C240E6E000E0D200F6E0EC0F6FF97
:1012D0000FC0F7FF0800F5500009D8A472EF09F01D
:1012E00074EF09F051EF09F01200000E156E88EF4F
:1012F00009F015501124136E000E1220146E13C045
:10130000F6FF14C0F7FF0800F550E8EC09F0152AC5
:1013100015501124136E000E1220146E13C0F6FF28
:1013200014C0F7FF0800F5500009D8A49AEF09F09F
:101330009CEF09F079EF09F01200060045064550D0
:10134000D8A4A5EF09F0A7EF09F0BDEF09F0CF5041
:10135000086ECE50016E08C002F0000E046E070E3B
:10136000036EB3EC08F001C043F002C044F07D0E00
:10137000456E000ECF6E000ECE6EF294000ED76E4C
:10138000060ED66E46921100000E0E6E000E0D6E09
:10139000DCEF09F0000E0F6E00F000F000F000F03E
:1013A00000F00F2AC70E0F64D8EF09F0DAEF09F04A
:1013B000CCEF09F00D4A0E2A0B500D5C0C500E5864
:1013C000D8A0E5EF09F0E7EF09F0CAEF09F0120045
:1013D000106E8482105068EC0AF08484000E0C6E4B
:1013E000030E0B6EC4EC09F08492000E0C6E030E1B
:1013F0000B6EC4EC09F084821200106E84821050CF
:1014000068EC0AF08494000E0C6E030E0B6EC4ECB4
:1014100009F08492000E0C6E030E0B6EC4EC09F002
:10142000848212000C6E0CC0A9FF0BC0A8FFA6841A
:10143000550EA76EAA0EA76EA682A6B222EF0AF0DC
:1014400024EF0AF01DEF0AF0A694120012501402C5
:10145000F3CF16F0F4CF17F012501502F350172601
:1014600013501402F350172616C012F017C013F0D1
:10147000120000EE2FF0170EEE6AE806FDE146902E
:101480004692000EF86E000116EF00F00B6E0BC0D6
:10149000ADFFACA24EEF0AF050EF0AF049EF0AF0B0
:1014A0001200670EAF6EAC9CAC8AAC98AC84AB8E6D
:1014B000AB9CAB881200010EC26E0B0EC16E010E0A
:1014C000C06E12000B6E0BC0A9FFA680A8501200C0
:1014D0000B6E0BC083FF1200FFFFFFFFFFFFFFFF3C
:1014E000FFFFFFFFFFFFFFFFFFFFFFFFFFFFFFFF0C
:1014F000FFFFFFFFFFFFFFFFFFFFFFFFFFFFFFFFFC
:10150000FFFFFFFFFFFFFFFFFFFFFFFFFFFFFFFFEB
:10151000FFFFFFFFFFFFFFFFFFFFFFFFFFFFFFFFDB
:107DE000FFFFFFFFFFFFFFFFFFFFFFFFFFFF003170
:107DF00032334134353642373839432A302344014F
:107E00000204080D0A2050696373696D6C61620D8C
:107E10000A2053657269616C20546573742054584C
:107E20000D0A0020507265737320524230202020CA
:107E300020202020202020002050726573732052C3
:107E4000423120202020202020202020002050729D
:107E500065737320524232202020202020202020D1
:107E6000200020507265737320524233202020205E
:107E70002020202020200020507265737320524261
:107E80003420202020202020202020002050726537
:107E900073732052413520202020202020202020D4
:107EA000002050726573732052423520202020201C
:107EB0002020202020002028593D524230204E3DD5
:107EC00052423129203F00494E5420454550524FDF
:107ED0004D2054657374002020203720536567209F
:107EE00054657374200020414443202850312920D8
:107EF0005465737400204144432028503229205493
:107F00006573740053657269616C20525820546522
:107F100073740053657269616C2054582054657302
:107F20007400202020436F6F6C6572205465737459
:107F300000202020486561746572205465737400C8
:107F4000202053776974636873205465737400202C
:107F5000202054454D502E205465737400205069E4
:107F60006373696D4C61620D0A002020204C43440C
:107F70002054657374200020202020202045525278
:107F80004F52002020204C43442054657374004B12
:107F900065797061642054657374004C45447320A6
:107FA00054657374200050726573732E20524231F1
:107FB0000020507265737320525354000D0A2045FF
:107FC0006E64210D0A00202020202020204F4B002D
:107FD000202020202020456E64002020202020200A
:107FE000204F6B002054797065210D0A003936301E
:107FF0003020384E3100546F207374617274000069
:020000040020DA
:10000000FFFFFFFFFFFFFFFFFFFFFFFFFFFFFFFF00
:020000040030CA
:0E000000290C181EFF8180FF0FC00FE00F407B
:0200000400F00A
:1000000000112233445566778899AABBCCDDEEFFF8
:10001000FFFFFFFFFFFFFFFFFFFFFFFFFFFFFFFFF0
:10002000FFFFFFFFFFFFFFFFFFFFFFFFFFFFFFFFE0
:10003000FFFFFFFFFFFFFFFFFFFFFFFFFFFFFFFFD0
:10004000FFFFFFFFFFFFFFFFFFFFFFFFFFFFFFFFC0
:10005000FFFFFFFFFFFFFFFFFFFFFFFFFFFFFFFFB0
:10006000FFFFFFFFFFFFFFFFFFFFFFFFFFFFFFFFA0
:10007000FFFFFFFFFFFFFFFFFFFFFFFFFFFFFFFF90
:10008000FFFFFFFFFFFFFFFFFFFFFFFFFFFFFFFF80
:10009000FFFFFFFFFFFFFFFFFFFFFFFFFFFFFFFF70
:1000A000FFFFFFFFFFFFFFFFFFFFFFFFFFFFFFFF60
:1000B000FFFFFFFFFFFFFFFFFFFFFFFFFFFFFFFF50
:1000C000FFFFFFFFFFFFFFFFFFFFFFFFFFFFFFFF40
:1000D000FFFFFFFFFFFFFFFFFFFFFFFFFFFFFFFF30
:1000E000FFFFFFFFFFFFFFFFFFFFFFFFFFFFFFFF20
:1000F000FFFFFFFFFFFFFFFFFFFFFFFFFFFFFFFF10
:00000001FF
