:100000000C945D000C9485000C9485000C94850084
:100010000C9485000C9485000C9485000C9485004C
:100020000C9485000C9485000C9485000C9485003C
:100030000C9485000C9485000C9485000C9485002C
:100040000C9474070C9485000C9442070C941C07C4
:100050000C9485000C9485000C9485000C9485000C
:100060000C94BE070C9485000000000800020100FB
:100070000003040700000000000000000000000072
:10008000250028002B0000000000240027002A0083
:10009000010204081020408001020408102001021F
:1000A00004081020040404040404040402020202EC
:1000B0000202030303030303DD0811241FBECFEF75
:1000C000D8E0DEBFCDBF11E0A0E0B1E0E6E0FCE1AA
:1000D00002C005900D92A03CB107D9F723E0A0EC37
:1000E000B1E001C01D92A834B207E1F710E0CDE500
:1000F000D0E004C02197FE010E94FB0DCC35D10752
:10010000C9F70E94AC090C94010E0C940000809178
:10011000110290911202891B990B089590E0FC0145
:10012000E057FF4F24918C559F4FFC018491882309
:1001300099F090E0880F991FFC01EA57FF4FA591B5
:10014000B491FC01E458FF4F859194918FB7F894D6
:10015000EC91E22BEC938FBF089508950895AF9230
:10016000BF92CF92DF92EF92FF920F931F93CF93A4
:10017000DF936C017B018B01040F151FEB015E0106
:10018000AE18BF08C017D10759F06991D601ED919B
:10019000FC910190F081E02DC6010995892B79F73A
:1001A000C501DF91CF911F910F91FF90EF90DF90EC
:1001B000CF90BF90AF900895FC01538D448D252FB3
:1001C00030E0842F90E0821B930B541710F0CF96F1
:1001D000089501970895FC01918D828D981761F023
:1001E000A28DAE0FBF2FB11D5D968C91928D9F5F3A
:1001F0009F73928F90E008958FEF9FEF0895FC0119
:10020000918D828D981731F0828DE80FF11D858DCB
:1002100090E008958FEF9FEF0895FC01918D228D5E
:10022000892F90E0805C9F4F821B91098F739927E3
:10023000089583E892E00E940D0121E0892B09F4E2
:1002400020E0822F089580E090E0892B29F00E9421
:10025000190181110C9400000895FC01A48DA80FD0
:10026000B92FB11DA35ABF4F2C91848D90E00196F8
:100270008F739927848FA689B7892C93A089B18918
:100280008C91837080648C93938D848D981306C0B9
:100290000288F389E02D80818F7D80830895EF921D
:1002A000FF920F931F93CF93DF93EC0181E0888F30
:1002B0009B8D8C8D98131AC0E889F989808185FF00
:1002C00015C09FB7F894EE89FF896083E889F989A2
:1002D00080818370806480839FBF81E090E0DF91A4
:1002E000CF911F910F91FF90EF900895F62E0B8DF7
:1002F00010E00F5F1F4F0F731127E02E8C8D8E11B2
:100300000CC00FB607FCFACFE889F989808185FF18
:10031000F5CFCE010E942D01F1CFEB8DEC0FFD2F1B
:10032000F11DE35AFF4FF0829FB7F8940B8FEA89D3
:10033000FB8980818062CFCFCF93DF93EC01888DE2
:100340008823B9F0AA89BB89E889F9898C9185FD50
:1003500003C0808186FD0DC00FB607FCF7CF8C91DE
:1003600085FFF2CF808185FFEDCFCE010E942D0168
:10037000E9CFDF91CF91089590E0FC01E859FF4F5C
:100380002491FC01E057FF4F3491FC01EC55FF4FE5
:10039000E491EE23C9F0222339F0233001F1A8F4CF
:1003A000213019F1223029F1F0E0EE0FFF1FE4585F
:1003B000FF4FA591B4918FB7F894EC91611126C0CD
:1003C00030953E233C938FBF08952730A9F0283005
:1003D000C9F0243049F7809180008F7D03C080915F
:1003E00080008F7780938000DFCF84B58F7784BDC6
:1003F000DBCF84B58F7DFBCF8091B0008F7780936A
:10040000B000D2CF8091B0008F7DF9CF3E2BDACFF4
:100410003FB7F8948091090290910A02A0910B02D3
:10042000B0910C0226B5A89B05C02F3F19F001968C
:10043000A11DB11D3FBFBA2FA92F982F8827BC013E
:10044000CD01620F711D811D911D42E0660F771F66
:10045000881F991F4A95D1F708952091E101260F31
:100460003327331F21323105ECF420915902FC016E
:1004700090E080E0243069F082E00895A091E101ED
:100480002191AC014F535E4FA40FB52FB11D2C939A
:100490000196861798F38091E101680F6093E1015E
:1004A00080E0089581E008951092590281E08093E0
:1004B00058021092330261E082E10E94BC0161E0C7
:1004C00083E10E94BC01E9EBF0E080818E7F8083B4
:1004D00080818D7F808388E48093B80085E4809359
:1004E000BC000895CF93DF9391E09093C0018823DF
:1004F000B9F0C091B800D091BA008091BC008A7B5D
:100500008093BC0060E082E10E94BC0160E083E176
:100510000E94BC010E945402D093BA00C093B8005C
:10052000DF91CF9108958F929F92AF92BF92CF9219
:10053000DF92EF92FF920F931F93CF93DF93D091AF
:100540008202D13208F0D7C0182FC09181020E94D8
:1005500008026B017C018091590281116BC082E01D
:1005600080935902109358028FEF80935702109294
:100570005602D0935502A1E6B2E0E5E3F2E080E056
:10058000D81391C01092340280913402CC0FC82B42
:10059000C093340280913302813009F088C01092F8
:1005A00033020E9408026B017C0180913402809327
:1005B000BB0080915B0290915C02A0915D02B091C2
:1005C0005E02892B8A2B8B2BA1F00E9408020091DE
:1005D0005B0210915C0220915D0230915E026C1909
:1005E0007D098E099F09061717072807390708F4A0
:1005F00042C08091BC0083FDD8CF85EC8093BC00C5
:100600000E9408026B017C0180915902823009F43A
:1006100050C0809157028F3F09F46FC080915702FC
:10062000803209F46CC080915702803309F469C0AC
:1006300084E026C080915B0290915C02A0915D02F3
:10064000B0915E02892B8A2B8B2B09F484CF0E94F8
:10065000080280905B0290905C02A0905D02B090D6
:100660005E026C197D098E099F0986169706A806F9
:10067000B90608F070CF80915A020E94720285E09C
:10068000109260021092820210925F02DF91CF916D
:100690001F910F91FF90EF90DF90CF90BF90AF90A0
:1006A0009F908F9008959D9191938F5F69CF85EE74
:1006B000A5CF80915B0290915C02A0915D02B09108
:1006C0005E02892B8A2B8B2B09F49ECF0E94080295
:1006D00000915B0210915C0220915D0230915E02FC
:1006E0006C197D098E099F09061717072807390716
:1006F00008F08ACFC0CF81E0C3CF80E0C1CF82E0D5
:10070000BFCF83E0BDCF0895E09112028091110226
:10071000E81730F4F0E0ED5EFD4F808190E0089541
:100720008FEF9FEF089590911202809111022FEFA9
:100730003FEF981748F4E92FF0E0ED5EFD4F208180
:1007400030E09F5F90931202C9010895CF92DF922B
:10075000EF92FF920F931F93CF93DF937C01CB0116
:100760008A0120915F02222389F0EB016B01C40E04
:10077000D51ECC15DD0569F06991D701ED91FC918D
:100780000190F081E02DC7010995F3CF642F0E94FD
:100790002D02C801DF91CF911F910F91FF90EF9033
:1007A000DF90CF900895CF93DF931F92CDB7DEB740
:1007B000698320915F022223F9F020918202203286
:1007C00058F021E030E0FC013383228390E080E0A8
:1007D0000F90DF91CF91089580916002E82FF0E0B3
:1007E000EF59FD4F998190838F5F809360028093D2
:1007F000820281E090E0ECCF61E0CE0101960E94A0
:100800002D02F7CF90E080E008958EBD00000DB47A
:1008100007FEFDCF8EB50895CF93DF93D82FC62F57
:10082000809143038823C9F081E080935F0283E5D0
:100830008093810210926002109282026D2F80E2FA
:1008400093E00E94D3036C2F80E293E00E94D303D5
:1008500081E0DF91CF910C94930260E0809141039D
:100860000E94BC018D2F0E9405048C2F0E9405045C
:1008700061E080914103DF91CF910C94BC014F92D4
:100880005F926F927F928F929F92AF92BF92CF9220
:10089000DF92EF92FF921F93CF93DF937B01EA01E8
:1008A00090914303992309F4FDC011E010935F0276
:1008B00093E5909381021092600210928202682F59
:1008C00080E293E00E94D30381E00E9493021093A0
:1008D0005F0210926002109282020E9408024B0195
:1008E0005C0180915902811165C01E2D81E08093C9
:1008F0005902809358029FEF90935702109256022C
:100900009E0D909355028093340280913402866A42
:100910008093340280913302813009F085C01092B7
:1009200033020E9408024B015C01809134028093E3
:10093000BB0080915B0290915C02A0915D02B0913E
:100940005E02892B8A2B8B2BA1F00E94080240901B
:100950005B0250905C0260905D0270905E026819CC
:1009600079098A099B09461657066806790608F42C
:1009700042C08091BC0083FDD8CF85EC8093BC0041
:100980000E9408024B015C0180915902813009F4F8
:100990004DC080915602811710F410915602A5E3C4
:1009A000B2E0E3E1F2E080E0811751F19D91919393
:1009B0008F5FFACF80915B0290915C02A0915D0203
:1009C000B0915E02892B8A2B8B2B09F48ACF0E946F
:1009D000080240905B0250905C0260905D02709053
:1009E0005E02681979098A099B0946165706680646
:1009F000790608F076CF80915A020E94720210E0C8
:100A000010921202109311026E01C6018C1B9D0BF5
:100A100020911202121761F180E293E00E94930389
:100A2000F60181936F01F1CF85EEA8CF80915B0233
:100A300090915C02A0915D02B0915E02892B8A2B9D
:100A40008B2B09F4A1CF0E94080240905B025090CA
:100A50005C0260905D0270905E02681979098A09F3
:100A60009B09461657066806790608F08DCFC3CF56
:100A7000E816F90629F010922D0381E080932E03E9
:100A800081E0DF91CF911F91FF90EF90DF90CF90A9
:100A9000BF90AF909F908F907F906F905F904F909E
:100AA0000C949302182F10686130710511F0182F03
:100AB000106C60E0809141030E94BC01812F0E9474
:100AC0000504EC0EFD1E80E00E9405048993CE15FE
:100AD000DF05C9F761E080914103DF91CF911F915C
:100AE000FF90EF90DF90CF90BF90AF909F908F904E
:100AF0007F906F905F904F900C94BC01FF920F938A
:100B00001F93CF93DF931F92CDB7DEB7182FF62E2A
:100B1000042FAE014F5F5F4F61E070E00E943F0421
:100B200021E030E001C0220FFA94EAF78981002326
:100B300069F0822B89836981812F0E940C040F90B8
:100B4000DF91CF911F910F91FF90089520958223FF
:100B5000F1CFFC0101900020E9F73197AF01481B6C
:100B6000590BBC0183E892E00C94AF008F929F92E6
:100B7000AF92BF920F931F93CF93DF93CDB7DEB7A2
:100B8000A1970FB6F894DEBF0FBECDBF19A24230B9
:100B900008F44AE08E010F5D1F4F842E912CB12C7A
:100BA000A12CA50194010E94D90DE62FB901CA011B
:100BB000EA30F4F4E05DD801EE938D01232B242B71
:100BC000252B79F790E080E0109719F0CD010E9475
:100BD000A905A1960FB6F894DEBF0FBECDBFDF9179
:100BE000CF911F910F91BF90AF909F908F900895DC
:100BF000E95CE1CFCF93DF930E94A905EC0184E289
:100C000091E00E94A9058C0F9D1FDF91CF9108955F
:100C10004F925F926F927F928F929F92AF92BF920C
:100C2000CF92DF92EF92FF920F931F93CF936B01BE
:100C30007C01742EAC019B010E94D40D882399F095
:100C400087E291E0CF911F910F91FF90EF90DF909D
:100C5000CF90BF90AF909F908F907F906F905F905C
:100C60004F900C94A90546015701E894B7F82FEF6F
:100C70003FEF4FE75FE7C501B4010E94D40D81113A
:100C80000DC02FEF3FEF4FE75FE7C501B4010E94B2
:100C90000A0C18161CF48BE291E0D4CF2FEF3FEF33
:100CA0004FE75FE4C701B6010E94620D18161CF4FD
:100CB0008FE291E0C7CF2FEF3FEF4FE75FECC70127
:100CC000B6010E940A0C87FDF3CF20E030E0A901B5
:100CD000C701B6010E940A0C10E000E087FF0AC0BD
:100CE0006DE283E892E00E944F018C01F7FAF094E4
:100CF000F7F8F094C0E060E070E080E09FE37C16DD
:100D000041F020E030E040E251E40E940F0CCF5F60
:100D1000F6CFA70196010E949E0B2B013C010E9479
:100D2000810C4B015C014AE00E94B6057C01E00E9B
:100D3000F11ECC23C1F1C501B4010E94B00C9B018E
:100D4000AC01C301B2010E949D0B4B015C016EE23C
:100D500083E892E00E944F01E80EF91EC15018F19D
:100D600020E030E040E251E4C501B4010E94670D8B
:100D70002B013C010E94810C4B01B12CA12C4AE0BB
:100D8000C501B4010E94B605E80EF91EC501B40103
:100D90000E94B00C9B01AC01C301B2010E949D0BEB
:100DA0004B015C01DBCFC701CF911F910F91FF90E9
:100DB000EF90DF90CF90BF90AF909F908F907F90FB
:100DC0006F905F904F90089585ED8093BC00809167
:100DD0005B0290915C02A0915D02B0915E02079669
:100DE000A11DB11D23E0B695A795979587952A95E6
:100DF000D1F72091BC0024FD03C010925902089540
:100E000040915B0250915C0260915D0270915E02C4
:100E1000452B462B472B69F30097A105B10541F0FF
:100E20002AE22A95F1F700C00197A109B109E1CFA3
:100E300080915A020C9472021F920F920FB60F9279
:100E400011242F933F934F935F936F937F938F93CF
:100E50009F93AF93BF93EF93FF9383E892E00E9439
:100E60002D01FF91EF91BF91AF919F918F917F9154
:100E70006F915F914F913F912F910F900FBE0F9007
:100E80001F9018951F920F920FB60F9211242F9357
:100E90008F939F93EF93FF93E0919302F0919402CD
:100EA0008081E0919902F0919A0282FD1BC09081AD
:100EB00080919C028F5F8F7320919D02821741F079
:100EC000E0919C02F0E0ED57FD4F958F80939C02DE
:100ED000FF91EF919F918F912F910F900FBE0F90E7
:100EE0001F9018958081F4CF1F920F920FB60F922A
:100EF00011242F933F938F939F93AF93BF93809130
:100F0000050290910602A0910702B091080230916B
:100F1000040223E0230F2D3758F50196A11DB11DC2
:100F2000209304028093050290930602A093070287
:100F3000B09308028091090290910A02A0910B02DD
:100F4000B0910C020196A11DB11D809309029093EE
:100F50000A02A0930B02B0930C02BF91AF919F9134
:100F60008F913F912F910F900FBE0F901F9018956A
:100F700026E8230F0296A11DB11DD2CF1F920F921A
:100F80000FB60F9211242F933F934F935F936F935C
:100F90007F938F939F93AF93BF93EF93FF93809132
:100FA000B900887F803609F44AC0F0F5883209F428
:100FB000A7C018F5803109F49BC0B8F4882309F460
:100FC000F9C0883009F494C0FF91EF91BF91AF91BF
:100FD0009F918F917F916F915F914F913F912F9151
:100FE0000F900FBE0F901F901895883109F488C09C
:100FF000803251F78093570214C0803409F49DC0A9
:1010000040F48033B9F38833F9F68093570285ECC6
:10101000B0C0803509F485C0883509F496C088349D
:1010200099F60E94E406D0CF883909F48CC038F5CF
:10103000883729F050F4883611F0803729F683E09C
:10104000809359021092030257C0883809F47BC07C
:10105000803919F0803809F0B7CF809103028032CF
:1010600008F071C0E091030281E08E0F80930302CB
:101070008091BB00F0E0ED51FE4F80833DC0803B8E
:1010800039F0E0F4803A09F479C0883A09F09CCF4D
:1010900084E0809359021092E2011092E101E09104
:1010A0000F02F091100209958091E10181110FC0AA
:1010B00081E08093E1011092C10109C0803C09F4F4
:1010C000A6CF883C09F4A3CF883B09F07DCFE091FF
:1010D000E20181E08E0F8093E201F0E0EF53FE4FDA
:1010E00080818093BB009091E2018091E10129C051
:1010F000809134028093BB0085EC8093BC0064CF68
:101100009091560280915502981758F5E091560239
:1011100081E08E0F80935602F0E0EB5CFD4F808102
:10112000E9CFE091560281E08E0F809356028091C4
:10113000BB00F0E0EB5CFD4F808390915602809104
:1011400055029817C8F285E8D8CFE091560281E0A1
:101150008E0F809356028091BB00F0E0EB5CFD4F58
:1011600080838091580281115CCF81E080933302AB
:1011700084EA8093BC001092590226CF85EC8093BC
:10118000BC001092590280910302803230F4E09149
:101190000302F0E0ED51FE4F10826091030270E017
:1011A000E0910D02F0910E0283EE91E0099510920C
:1011B00003020ACF1092570234CFCF9310928602C7
:1011C0001092850288EE93E0A0E0B0E08093870261
:1011D00090938802A0938902B0938A0224E031E0C0
:1011E000309384022093830225EC30E03093900208
:1011F00020938F0224EC30E03093920220939102EE
:1012000020EC30E0309394022093930221EC30E004
:10121000309396022093950222EC30E030939802AE
:101220002093970226EC30E030939A0220939902A3
:1012300010929C0210929D0210929E0210929F02A8
:10124000109223031092220380932403909325038A
:10125000A0932603B093270386E191E090932103A6
:101260008093200380E49BE4ACE4B0E080934403EB
:1012700090934503A0934603B093470381E0809386
:101280002D0310922E0383EC9BEAA6E7BBE3809329
:101290002F0390933003A0933103B093320388ED72
:1012A0009BE6A6E7BBE38093330390933403A093BC
:1012B0003503B093360382EF94EEA4E6BBE380934C
:1012C000370390933803A0933903B0933A038AE02D
:1012D00090E0909342038093410310924303CFB771
:1012E000F89480912C03811124C0EEEAF0E08491FF
:1012F000EAE9F0E09491E82FF0E0EE0FFF1FEA57E3
:10130000FF4FA591B491EC91E92321F461E08AE0CB
:101310000E94BC018AE00E948E008CB580618CBD69
:101320008CB580648CBD8DE00E948E008BE00E94A5
:101330008E0080912C038F5F80932C03CFBF8CB5E0
:101340008C608CBD809141030E948E0061E0809191
:101350004103CF910C94BC01CF93DF931F92CDB783
:10136000DEB7789484B5826084BD84B5816084BD25
:1013700085B5826085BD85B5816085BD80916E0033
:10138000816080936E001092810080918100826064
:1013900080938100809181008160809381008091A1
:1013A00080008160809380008091B1008460809390
:1013B000B1008091B00081608093B00080917A008C
:1013C000846080937A0080917A00826080937A00B2
:1013D00080917A00816080937A0080917A008068A1
:1013E00080937A001092C100E0919302F0919402F0
:1013F00082E08083E0918F02F09190021082E09170
:101400009102F09192028FEC808310929B02E09106
:101410009702F091980286E08083E0919502F09126
:101420009602808180618083E0919502F09196021E
:10143000808188608083E0919502F091960280819E
:1014400080688083E0919502F091960280818F7D83
:10145000808383E391E00E94FA0584E291E00E9498
:10146000A905809143038823B1F0109212021092D3
:10147000110210926002109282020E9454028DEAC0
:1014800090E09093100280930F028EEA90E0909388
:101490000E0280930D0260E08DE20E940C0460E178
:1014A0008DE20E940C0468E08DE20E940C04AE0103
:1014B0004F5F5F4F61E070E081E30E943F0469810C
:1014C0006C7E636081E30E940C0440E066E070E0A3
:1014D00081E30E947E0541E066E070E087E20E94C1
:1014E0007E0540E065E070E087E20E947E0540E016
:1014F00064E070E087E20E947E056BE484E20E9473
:101500000C0441E062E070E087E20E947E0540E06A
:1015100061E070E087E20E947E0540E070E060E0FC
:1015200087E20E947E056BE485E20E940C046AE07B
:1015300086E20E940C0440E062E070E08AE20E94D1
:101540007E0540E061E070E08AE20E947E0541E0B5
:1015500070E060E08AE20E947E0562E38DE10E9415
:101560000C046FE081E20E940C0460E582E20E94BC
:101570000C0468EC83E20E940C0467E088E20E949D
:101580000C046EE189E20E940C0441E063E070E02B
:101590008EE20E947E0541E064E070E08EE20E94EF
:1015A0007E0541E062E070E08EE20E947E0541E04F
:1015B00065E070E08EE20E947E0541E066E070E04A
:1015C0008EE20E947E0590E0A92E90E0B92E4BE3BA
:1015D00053E066E070E082E30E943F04C0903D0368
:1015E000D0903E03E0903F03F090400360913B03B6
:1015F00070913C03072E000C880B990B0E94B20CD3
:1016000020E030E040E851E40E94670D20E030E047
:1016100040E05BE30E94670D42E00E94080688E616
:1016200091E00E94A905B601DD0C880B990B0E9480
:10163000B20C20E030E040E851E40E94670D20E069
:1016400030E040E05BE30E94670D42E00E94080644
:1016500088E691E00E94A905B701FF0C880B990B61
:101660000E94B20C20E030E040E851E40E94670D97
:1016700020E030E040E05BE30E94670D42E00E9422
:10168000080684E291E00E94A905AE014F5F5F4F1A
:1016900061E070E080E30E943F04198112FF04C002
:1016A0008BE691E00E94FA0513FF04C08DE791E0FC
:1016B0000E94FA0514FF04C080E991E00E94FA0537
:1016C00015FF04C081EA91E00E94FA0516FF04C0EC
:1016D00084EB91E00E94FA050E9408026B017C01F4
:1016E00084EF482E55245394612C712C0E940802DB
:1016F0006C197D098E099F09683E7340810591052B
:10170000A8F321E0421A51086108710888EEC80E5A
:1017100083E0D81EE11CF11C4114510461047104E2
:1017200029F7A114B10409F452CF0E9419018823AA
:1017300009F44DCF0E9400004ACF5058BB27AA277A
:101740000E94B50B0C94280D0E941A0D38F00E94CF
:10175000210D20F039F49F3F19F426F40C94170D55
:101760000EF4E095E7FB0C94110DE92F0E94390D62
:1017700058F3BA17620773078407950720F079F4C6
:10178000A6F50C945B0D0EF4E0950B2EBA2FA02D50
:101790000B01B90190010C01CA01A0011124FF271E
:1017A000591B99F0593F50F4503E68F11A16F04019
:1017B000A22F232F342F4427585FF3CF4695379518
:1017C0002795A795F0405395C9F77EF41F16BA0BDD
:1017D000620B730B840BBAF09150A1F0FF0FBB1F8B
:1017E000661F771F881FC2F70EC0BA0F621F731FD4
:1017F000841F48F4879577956795B795F7959E3F31
:1018000008F0B0CF9395880F08F09927EE0F9795C1
:10181000879508950E94ED0C08F481E008950E94D8
:10182000230C0C94280D0E94210D58F00E941A0DD3
:1018300040F029F45F3F29F00C94110D51110C94E4
:101840005C0D0C94170D0E94390D68F39923B1F3C8
:10185000552391F3951B550BBB27AA2762177307D6
:10186000840738F09F5F5F4F220F331F441FAA1F6A
:10187000A9F335D00E2E3AF0E0E832D09150504026
:10188000E695001CCAF72BD0FE2F29D0660F771FD4
:10189000881FBB1F261737074807AB07B0E809F0BA
:1018A000BB0B802DBF01FF2793585F4F3AF09E3F3F
:1018B000510578F00C94110D0C945C0D5F3FE4F32E
:1018C000983ED4F3869577956795B795F7959F5F82
:1018D000C9F7880F911D9695879597F90895E1E0CE
:1018E000660F771F881FBB1F621773078407BA072D
:1018F00020F0621B730B840BBA0BEE1F88F7E09588
:1019000008950E94410D88F09F5798F0B92F9927AC
:10191000B751B0F0E1F0660F771F881F991F1AF0DA
:10192000BA95C9F714C0B13091F00E945B0DB1E0D7
:1019300008950C945B0D672F782F8827B85F39F0D6
:10194000B93FCCF3869577956795B395D9F73EF473
:1019500090958095709561957F4F8F4F9F4F08951B
:10196000E89409C097FB3EF4909580957095619539
:101970007F4F8F4F9F4F9923A9F0F92F96E9BB27EF
:101980009395F695879577956795B795F111F8CF6B
:10199000FAF4BB0F11F460FF1BC06F5F7F4F8F4FD6
:1019A0009F4F16C0882311F096E911C0772321F0CC
:1019B0009EE8872F762F05C0662371F096E8862F64
:1019C00070E060E02AF09A95660F771F881FDAF7BB
:1019D000880F9695879597F90895990F0008550FE8
:1019E000AA0BE0E8FEEF16161706E807F907C0F0A5
:1019F00012161306E407F50798F0621B730B840BAD
:101A0000950B39F40A2661F0232B242B252B21F486
:101A100008950A2609F4A140A6958FEF811D811D26
:101A2000089597F99F6780E870E060E008959FEF60
:101A300080EC089500240A94161617061806090665
:101A4000089500240A941216130614060506089534
:101A5000092E0394000C11F4882352F0BB0F40F4BC
:101A6000BF2B11F460FF04C06F5F7F4F8F4F9F4FFC
:101A7000089557FD9058440F551F59F05F3F71F07E
:101A80004795880F97FB991F61F09F3F79F08795E5
:101A90000895121613061406551FF2CF4695F1DF6E
:101AA00008C0161617061806991FF1CF86957105FE
:101AB000610508940895E894BB2766277727CB0132
:101AC00097F908950E94ED0C08F48FEF08950E9495
:101AD0007A0D0C94280D0E941A0D38F00E94210DE9
:101AE00020F0952311F00C94110D0C94170D112476
:101AF0000C945C0D0E94390D70F3959FC1F3950F06
:101B000050E0551F629FF001729FBB27F00DB11D81
:101B1000639FAA27F00DB11DAA1F649F6627B00D11
:101B2000A11D661F829F2227B00DA11D621F739FFA
:101B3000B00DA11D621F839FA00D611D221F749F08
:101B40003327A00D611D231F849F600D211D822F4F
:101B5000762F6A2F11249F5750409AF0F1F0882376
:101B60004AF0EE0FFF1FBB1F661F771F881F9150A3
:101B70005040A9F79E3F510580F00C94110D0C9434
:101B80005C0D5F3FE4F3983ED4F3869577956795B7
:101B9000B795F795E7959F5FC1F7FE2B880F911DCD
:101BA0009695879597F908950E94ED0C880B990BEF
:101BB0000895A1E21A2EAA1BBB1BFD010DC0AA1F8E
:101BC000BB1FEE1FFF1FA217B307E407F50720F0A6
:101BD000A21BB30BE40BF50B661F771F881F991F21
:101BE0001A9469F760957095809590959B01AC016A
:101BF000BD01CF010895EE0FFF1F0590F491E02D78
:101C00000994F894FFCF000000004F01AF00DC0002
:101C10009C010D01EB00FF0000000000D303A603B0
:101C2000020483038700930384030D0A006E616E30
:101C300000696E66006F766600537061726B467560
:101C40006E204144584C33343520416363656C65E4
:101C5000726F6D6574657220486F6F6B20557020D0
:101C60004775696465204578616D706C65002C204E
:101C7000002A2A2A20465245452046414C4C202A1B
:101C80002A2A002A2A2A20494E41435449564954B7
:101C900059202A2A2A002A2A2A20414354495649EF
:101CA0005459202A2A2A002A2A2A20444F55424CD5
:101CB0004520544150202A2A2A002A2A2A20544109
:101CC00050202A2A2A00FFFFFFFFFFFFFFFFFFFF30
:101CD000FFFFFFFFFFFFFFFFFFFFFFFFFFFFFFFF14
:101CE000FFFFFFFFFFFFFFFFFFFFFFFFFFFFFFFF04
:101CF000FFFFFFFFFFFFFFFFFFFFFFFFFFFFFFFFF4
:101D000009F485C0833081F1813009F083C084E912
:101D100092E02CC08FE292E0E4CF85E392E0E1CF45
:101D20008AE392E0DECF8AE292E0DBCF8FE392E0BB
:101D3000D8CF84E492E0D5CF80E592E0D2CF88E49A
:101D400092E0CFCF8EE492E0CCCF84E592E0C9CF91
:101D50008AE592E0C6CF80E692E0C3CF86E692E0C5
:101D6000C0CF8CE692E0BDCF80E992E00E941408DB
:101D700087E992E00E9406088AE391E00E94060843
:101D800000E010E0BE016F5F7F4F8BE194E00E94A6
:101D900063098AE992E00E9414086D897E898F891F
:101DA000988D42E00E94160883E991E00E94140891
:101DB0008EE992E00E941408698D7A8D8B8D9C8D3E
:101DC00042E00E94160883E991E00E94140882EA2A
:101DD00092E00E9414086D8D7E8D8F8D98A142E057
:101DE0000E94160883E991E00E94140886EA92E0B6
:101DF0000E9406080E9449020115110519F20E946D
:101E0000F900882309F4BECF0E940000BBCF83E60F
:101E100092E0ACCF8AEA92E0A9CF8BE194E00C94F7
:101E2000F2085058BB27AA270E94290F0C949C1037
:101E30000E948E1038F00E94951020F039F49F3FD8
:101E400019F426F40C948B100EF4E095E7FB0C9437
:101E50008510E92F0E94AD1058F3BA176207730777
:101E60008407950720F079F4A6F50C94CF100EF4B2
:101E7000E0950B2EBA2FA02D0B01B90190010C019A
:101E8000CA01A0011124FF27591B99F0593F50F4B2
:101E9000503E68F11A16F040A22F232F342F44270A
:101EA000585FF3CF469537952795A795F040539502
:101EB000C9F77EF41F16BA0B620B730B840BBAF0D2
:101EC0009150A1F0FF0FBB1F661F771F881FC2F73D
:101ED0000EC0BA0F621F731F841F48F48795779551
:101EE0006795B795F7959E3F08F0B0CF9395880F0B
:101EF00008F09927EE0F9795879508950E94611035
:101F000008F481E008950E94970F0C949C100E94A1
:101F1000951058F00E948E1040F029F45F3F29F090
:101F20000C94851051110C94D0100C948B100E94BD
:101F3000AD1068F39923B1F3552391F3951B550B1D
:101F4000BB27AA2762177307840738F09F5F5F4F8C
:101F5000220F331F441FAA1FA9F335D00E2E3AF0CB
:101F6000E0E832D091505040E695001CCAF72BD0E3
:101F7000FE2F29D0660F771F881FBB1F2617370734
:101F80004807AB07B0E809F0BB0B802DBF01FF2766
:101F900093585F4F3AF09E3F510578F00C948510AE
:101FA0000C94D0105F3FE4F3983ED4F38695779578
:101FB0006795B795F7959F5FC9F7880F911D96951F
:101FC000879597F90895E1E0660F771F881FBB1F7B
:101FD000621773078407BA0720F0621B730B840B28
:101FE000BA0BEE1F88F7E09508950E94B51088F0AF
:101FF0009F5798F0B92F9927B751B0F0E1F0660FCD
:10200000771F881F991F1AF0BA95C9F714C0B1300D
:1020100091F00E94CF10B1E008950C94CF10672F7B
:10202000782F8827B85F39F0B93FCCF3869577953C
:102030006795B395D9F73EF4909580957095619525
:102040007F4F8F4F9F4F0895E89409C097FB3EF450
:1020500090958095709561957F4F8F4F9F4F9923F5
:10206000A9F0F92F96E9BB279395F6958795779573
:102070006795B795F111F8CFFAF4BB0F11F460FF33
:102080001BC06F5F7F4F8F4F9F4F16C0882311F08B
:1020900096E911C0772321F09EE8872F762F05C09F
:1020A000662371F096E8862F70E060E02AF09A953A
:1020B000660F771F881FDAF7880F9695879597F92F
:1020C0000895990F0008550FAA0BE0E8FEEF1616C9
:1020D0001706E807F907C0F012161306E407F5071C
:1020E00098F0621B730B840B950B39F40A2661F090
:1020F000232B242B252B21F408950A2609F4A14033
:10210000A6958FEF811D811D089597F99F6780E83F
:1021100070E060E008959FEF80EC089500240A9439
:102120001616170618060906089500240A941216B2
:102130001306140605060895092E0394000C11F4E5
:10214000882352F0BB0F40F4BF2B11F460FF04C092
:102150006F5F7F4F8F4F9F4F089557FD9058440FEB
:10216000551F59F05F3F71F04795880F97FB991FF6
:1021700061F09F3F79F087950895121613061406B3
:10218000551FF2CF4695F1DF08C016161706180640
:10219000991FF1CF86957105610508940895E8941B
:1021A000BB2766277727CB0197F908950E94611016
:1021B00008F48FEF08950E94EE100C949C100E947A
:1021C0008E1038F00E94951020F0952311F00C9499
:1021D00085100C948B1011240C94D0100E94AD101B
:1021E00070F3959FC1F3950F50E0551F629FF0016A
:1021F000729FBB27F00DB11D639FAA27F00DB11D83
:10220000AA1F649F6627B00DA11D661F829F22270B
:10221000B00DA11D621F739FB00DA11D621F839F92
:10222000A00D611D221F749F3327A00D611D231F68
:10223000849F600D211D822F762F6A2F11249F57B6
:1022400050409AF0F1F088234AF0EE0FFF1FBB1FB9
:10225000661F771F881F91505040A9F79E3F510578
:1022600080F00C9485100C94D0105F3FE4F3983EFE
:10227000D4F3869577956795B795F795E7959F5F22
:10228000C1F7FE2B880F911D9695879597F90895B4
:102290000E946110880B990B0895A1E21A2EAA1BC7
:1022A000BB1BFD010DC0AA1FBB1FEE1FFF1FA21706
:1022B000B307E407F50720F0A21BB30BE40BF50B03
:1022C000661F771F881F991F1A9469F7609570958C
:1022D000809590959B01AC01BD01CF010895EE0F53
:1022E000FF1F0590F491E02D09940F931F93CF9356
:1022F000DF938230910510F482E090E0E0912A04AF
:10230000F0912B0430E020E0B0E0A0E0309799F4A9
:102310002115310509F44AC0281B390B2430310539
:10232000D8F58A819B816115710589F1FB01938341
:102330008283FE0111C040815181028113814817BF
:102340005907E0F04817590799F4109761F0129671
:102350000C93129713961C933296CF01DF91CF9175
:102360001F910F91089500932A0410932B04F4CF2A
:102370002115310551F04217530738F0A901DB014F
:102380009A01BD01DF01F801C1CFEF01F9CF9093B0
:102390002B0480932A04CDCFFE01E20FF31F81931B
:1023A00091932250310939832883D7CF2091280473
:1023B00030912904232B41F4209102013091030133
:1023C00030932904209328042091000130910101C9
:1023D0002115310541F42DB73EB7409104015091CC
:1023E0000501241B350BE0912804F0912904E21724
:1023F000F307A0F42E1B3F0B2817390778F0AC0128
:102400004E5F5F4F2417350748F04E0F5F1F509304
:10241000290440932804819391939FCFF0E0E0E05A
:102420009CCFCF93DF930097E9F0FC0132971382A2
:102430001282A0912A04B0912B04ED0130E020E03B
:102440001097A1F420813181820F931F20912804DD
:10245000309129042817390709F061C0F093290445
:10246000E0932804DF91CF910895EA01CE17DF07AA
:10247000E8F54A815B819E0141155105B1F7E901FB
:10248000FB83EA8349915991C40FD51FEC17FD07CF
:1024900061F4808191810296840F951FE9019983EF
:1024A0008883828193819B838A83F0E0E0E01296A7
:1024B0008D919C9113970097B9F52D913C911197AF
:1024C000CD010296820F931F209128043091290498
:1024D0002817390739F6309751F510922B041092CE
:1024E0002A04B0932904A0932804BCCFD383C283C9
:1024F00040815181840F951FC817D90761F44E5F41
:102500005F4F88819981480F591F518340838A8189
:102510009B81938382832115310509F0B0CFF0931D
:102520002B04E0932A049ECFFD01DC01C0CF13826F
:102530001282D7CFFB01DC014150504048F001909E
:102540000D920020C9F701C01D9241505040E0F7A4
:10255000089510E0C2E6D0E004C0FE010E946F11B1
:102560002196C336D107C9F7F894FFCF00002C0499
:102570008000000000002F018F00BC007C01ED00F6
:10258000CB00DF00000000006605390595050F054A
:1025900032051F05100500000000F20810097F0336
:1025A00063091A090D0A006E616E00696E66006F9C
:1025B0007666004144584C33343500416363656CA2
:1025C00065726F6D657465722054657374002D2D8E
:1025D0002D2D2D2D2D2D2D2D2D2D2D2D2D2D2D2D2B
:1025E0002D2D2D2D2D2D2D2D2D2D2D2D2D2D2D2D1B
:1025F0002D2D0053656E736F723A2020202020200D
:102600002000447269766572205665723A20202057
:1026100000556E697175652049443A2020202000DC
:102620004D61782056616C75653A2020202000208D
:102630006D2F735E32004D696E2056616C75653A80
:1026400020202020005265736F6C7574696F6E3A9C
:10265000202020004461746120526174653A20207A
:102660002020004F6F6F70732C206E6F20414458F4
:102670004C333435206465746563746564202E2E94
:102680002E20436865636B20796F757220776972BD
:10269000696E67210033323030200031363030200F
:1026A000003830302000343030200031303020000D
:1026B0003530200031322E352000362E32352000C4
:1026C000332E31332000312E35362000302E37386E
:1026D0002000302E33392000302E32302000302EB2
:1026E0003130200020487A0052616E67653A202020
:1026F000202020202020202B2F2D200031362000CC
:10270000342000206700583A2000593A20005A3AF5
:1027100020006D2F735E32200000FFFFFFFFFFFFE0
:10272000FFFFFFFFFFFFFFFFFFFFFFFFFFFFFFFFB9
:10273000FFFFFFFFFFFFFFFFFFFFFFFFFFFFFFFFA9
:10274000FFFFFFFFFFFFFFFFFFFFFFFFFFFFFFFF99
:10275000FFFFFFFFFFFFFFFFFFFFFFFFFFFFFFFF89
:10276000FFFFFFFFFFFFFFFFFFFFFFFFFFFFFFFF79
:10277000FFFFFFFFFFFFFFFFFFFFFFFFFFFFFFFF69
:10278000AF1ABF0A29813A81820E931EB8CFD601B3
:10279000ED91FC910688F789E02DC60128960FB6C9
:1027A000F894DEBF0FBECDBFDF91CF911F910F9187
:1027B000FF90EF90DF90CF90BF90AF909F908F9061
:1027C0007F906F905F904F903F90099488EF91E0D9
:1027D000EEE0F1E0DF019C011D9221503040E1F775
:1027E000E8E5F6E015861486178616860895CF93D9
:1027F000C82F60E0809174060E94390F80917606A0
:1028000018161CF460E00E94390F8C2F0E949E1253
:1028100080917606181624F461E0CF910C94390F5C
:10282000CF910895EF92FF920F931F93CF938EE075
:10283000E82E81E0F82EC0E08C2F80640E94F71310
:1028400080E80E94F71361E0809174060E94390FBE
:102850008091760618161CF460E00E94390F00E0A3
:1028600010E0F701E00FF11F80810E949E120F5FC0
:102870001F4F04351105A9F78091760618161CF430
:1028800061E00E94390FCF5F84E5E80EF11CC6308D
:1028900099F680E4CF911F910F91FF90EF900C94E7
:1028A000F713009769F0FC0101900020E9F73197D8
:1028B000AF01481B590BBC0188E596E00C94FC065F
:1028C00080E090E00895CF93DF930E945114EC01D3
:1028D00082E595E00E9451148C0F9D1FDF91CF91EE
:1028E0000895CF93DF93CDB7DEB7E0970FB6F89496
:1028F000DEBF0FBECDBF789484B5826084BD84B541
:10290000816084BD85B5826085BD85B5816085BDEA
:1029100080916E00816080936E00109281008091A2
:10292000810082608093810080918100816080932A
:102930008100809180008160809380008091B1004F
:1029400084608093B1008091B00081608093B0007A
:1029500080917A00846080937A0080917A0082600E
:1029600080937A0080917A00816080937A008091D0
:102970007A00806880937A001092C100E0919705F8
:10298000F091980582E08083E0919305F0919405A1
:102990001082E0919505F09196058FEC808310925E
:1029A0009F05E0919B05F0919C0586E08083E09176
:1029B0009905F0919A05808180618083E091990565
:1029C000F0919A05808188608083E0919905F0916B
:1029D0009A05808180688083E0919905F0919A053D
:1029E00080818F7D8083809172068F3F31F490913A
:1029F00073069F3F11F40C94CA2061E00E94690F96
:102A000061E0809173060E94690F80917306082E21
:102A1000000C990BFC01E05CFE4FE491F0E0EE0F3E
:102A2000FF1FEA5CFE4F2591349130937A06209384
:102A30007906FC01EE5DFE4FE491E0937C06809107
:102A40007206082E000C990BFC01E05CFE4FE4912D
:102A5000F0E0EE0FFF1FEA5CFE4F259134913093BA
:102A6000780620937706FC01EE5DFE4FE491E0933B
:102A70007B0661E0809174060E94690F8091750663
:102A800018161CF461E00E94690F809176061816F2
:102A90001CF461E00E94690F8091750618167CF5A0
:102AA00060E00E94390F0E94A50F4B015C01B4EF5A
:102AB000CB2EDD24D394E12CF12C0E94A50FDC0158
:102AC000CB0188199909AA09BB09883E9340A10541
:102AD000B10558F021E0C21AD108E108F10838EE3A
:102AE000830E33E0931EA11CB11CC114D104E10478
:102AF000F10419F761E0809175060E94390F81E2B7
:102B00000E94F71384E10E94F71388EA0E94F713EA
:102B100080E20E94F7138CE00E94F7130E941214C7
:102B200081E20E94F71382EB0E94F71380E20E9479
:102B3000F71360E087E00E94690F61E087E00E9480
:102B4000390F60E086E00E94690F61E086E00E9434
:102B5000390F60E085E00E94690F61E085E00E9426
:102B6000390F84E690E0909353068093520686E0F6
:102B700090E0909355068093540688E596E09093F4
:102B800057068093560684E591E090934D06809316
:102B90004C06CE0143969AA789A780910C0190918B
:102BA0000D018636910509F4E7C1A0F4843691053C
:102BB00019F18536910511F00C94C6201CA61BA6B0
:102BC000812C912CA12CB12CC12CD12C6624639486
:102BD000712CD8C08836910509F425C308F496C233
:102BE0008936910511F00C94C620BB24B39445E6B8
:102BF000C42ED12C0C94BE200E94E61381E0809359
:102C00006C0681E090E090936B0680936A06909347
:102C1000690680936806809162069091630697FD2D
:102C20000196959587958C010C501109609160066D
:102C300070916106072E000C880B990B0E943222BE
:102C400020E030E04CE952E40E94862320E030E0AE
:102C500040E05FE30E9491220E94F3237093650697
:102C600060936406109367060093660682E994E019
:102C70000E945114809162069091630697FD01961F
:102C8000959587958C0104501109609160067091AB
:102C90006106072E000C880B990B0E94322220E05F
:102CA00030E040E452E40E94862320E030E040E03F
:102CB0005FE30E9491220E94F32370936506609364
:102CC0006406109367060093660680EA94E00E940B
:102CD00051140E9412140E94CA0F609374057093DD
:102CE0007505809376059093770500917005109196
:102CF000710520917205309173051B012C01201A7A
:102D0000310A420A530A45EC241649E034064104CC
:102D1000510410F40C94C6206093700570937105F3
:102D200080937205909373050E94E61385E690E008
:102D300090930D0180930C010C94C6200E94CA0F41
:102D4000609374057093750580937605909377056D
:102D500000917005109171052091720530917305F5
:102D60001B012C01201A310A420A530A92018101E7
:102D70000C3411052105310570F443E0A416B104AB
:102D800009F4DFC080910C0190910D018536910509
:102D9000A9F20C94C620609370057093710580931E
:102DA0007205909373050E94D812A114B10421F505
:102DB00080918605882351F02FEFC21AD20A33E0A2
:102DC000C316D10471F4C12CD12C0BC080918405A1
:102DD000882339F041E0C41AD10818F4E2E0CE2E7D
:102DE000D12C80918505882339F0A3E0B0E0BCA701
:102DF000ABA7AA24A394B12C1A8219821C821B822D
:102E00001E821D8244E050E069EA74E0CE01019622
:102E10000E94800EB1E0CB16D10489F0E2E0CE161C
:102E2000D104D1F06EEA74E0CE0101960E94A10EA9
:102E3000212C312C68EA462E62E4562E19C06DEB27
:102E400074E0CE0101960E94A10E212C312C54E891
:102E5000452E52E4552E0CC069EC74E0CE0101966B
:102E60000E94A10E212C312C4CE9442E42E4542E18
:102E70000E94E61338E1E32EF12C04E510E024E093
:102E800036E040E050E060E070E088E596E00E94C7
:102E90004913F1E0F0936C0621E0A216B10449F465
:102EA0001092690610926806B0926B06A0926A06AC
:102EB00008C070926B0660926A0670926906609212
:102EC00068066091600670916106072E000C880B01
:102ED000990B0E943222A20191010E94862320E0D8
:102EE00030E040E05FE30E9491220E94F323709360
:102EF00065066093640680E290E090936706809395
:102F000066064D815E8169817A8188E596E00E943E
:102F1000FC060E941214A114B10471F02BA43CA46D
:102F20002814390430F42FEFA21AB20A812C912C04
:102F300003C03FEF831A930A89819A810E94DD249E
:102F40001CCFC114D10439F487E690E090930D01B1
:102F500080930C0117CF91E0C916D10439F4A6E68D
:102F6000B0E0B0930D01A0930C010CCFA12CB12CBB
:102F700022E0C22ED12C06CF00E010E0772473941B
:102F8000EE24E394F12CA8E0CA2ED12CB5E6AB2EAA
:102F9000B12C80E2882E912C80910C0190910D0132
:102FA0008636910511F00C94C6200E94CA0F6093DA
:102FB000740570937505809376059093770520913D
:102FC00070053091710540917205509173051B0198
:102FD0002C01221A330A440A550AA20191012C3409
:102FE000310541055105C0F260937005709371057C
:102FF00080937205909373050E94D8128091860584
:10300000811108C080918505811104C080918405DB
:10301000882311F00F5F1F4F0E94E61370926C0619
:10302000F0926B06E0926A06F0926906E0926806FA
:103030006091600670916106072E000C880B990B59
:103040000E94322220E030E040E452E40E948623D5
:1030500020E030E040E05FE30E9491220E94F323F1
:103060007093650660936406109267061092660678
:103070000230110524F487ED94E00E94511410925F
:10308000650610926406D0926706C0926606011526
:10309000110549F480EE94E00E9463148CEE94E0F4
:1030A0000E94631430C00130110549F582E195E0BA
:1030B0000E9463146091600670916106072E000CF7
:1030C000880B990B0E94322220E030E040E752E466
:1030D0000E94862320E030E040E05FE30E949122DE
:1030E0000E94F323709365066093640690926706CE
:1030F0008092660683E395E00E94511404C0B0926A
:103100000D01A0920C010E94121446CFBB24B3946F
:1031100068E6C62ED12C80910C0190910D01873666
:10312000910511F00C94C6200E94E61300916206EE
:10313000109163062091600630916106EE24E394BD
:10314000F12C40E050E060E070E088E596E00E94FD
:103150008D0CB0926C06109269061092680681E0A0
:1031600090E090936B0680936A068091620690913E
:10317000630697FD0196959587958C01035011097B
:103180006091600670916106072E000C880B990B08
:103190000E94322220E030E048E252E40E9486237E
:1031A00020E030E040E05FE30E9491220E94F323A0
:1031B0007093650660936406109367060093660635
:1031C0008EE395E00E9451140E9412140E94CA0FCF
:1031D00060937405709375058093760590937705D9
:1031E0000091700510917105209172053091730561
:1031F0002B013C01401A510A620A730A4BEC441637
:1032000048E054066104710408F485CF60937005AA
:10321000709371058093720590937305D0920D01A0
:10322000C0920C0178CF109268051092670583E078
:1032300090E090930B0180930A0181E090E09093DD
:1032400003018093020110924406109245061092E9
:1032500046061092470660916206709163066851B7
:103260007109072E000C880B990B0E943222609383
:1032700048067093490680934A0690934B06109235
:103280005705109258051092590510925A05109240
:103290005B0510925C0510925D0510925E05109220
:1032A0002C0610922D0610922E0610922F061092C8
:1032B00030061092310610923206109233068FEFCC
:1032C0009FEF909366058093650510925605222422
:1032D0002394312C80910C0190910D018836910539
:1032E00009F054C70E94CA0F609374057093750566
:1032F0008093760590937705009170051091710584
:1033000020917205309173052B013C01401A510A3E
:10331000620A730A930182010C34110521053105FB
:10332000C8F2609370057093710580937205909355
:1033300073050E94D812909183058091810599238D
:1033400069F020918205222349F0882339F045E66F
:10335000642E712C70920D0160920C01B090850565
:1033600020916705309168052330310509F495C334
:1033700010925B0510925C0510925D0510925E053F
:10338000992339F0811125C0309203012092020166
:1033900008C08823F1F08FEF9FEF90930301809393
:1033A00002016091020170910301072E000C880B4D
:1033B000990B0E94322220E030E040E450E40E9469
:1033C000912260935B0570935C0580935D059093FB
:1033D0005E0560915B0570915C0580915D05909143
:1033E0005E0520E030E0A9010E948C10C0905B05D2
:1033F000D0905C05E0905D05F0905E05A701960118
:1034000060913C0670913D0680913E0690913F068A
:103410000E94872360933C0670933D0680933E068E
:1034200090933F0680916505909166058F3F2FEF41
:10343000920709F055C040904406509045066090B0
:10344000460670904706609160067091610677FFAE
:1034500002C06F5F7F4F759567956A507109072E9F
:10346000000C880B990B0E9432229B01AC01C30116
:10347000B2010E94292418162CF4109266051092AD
:1034800065050EC0A7019601C301B2010E94872302
:1034900060934406709345068093460690934706D2
:1034A00020E030E0A90160914406709145068091CA
:1034B0004606909147060E942B2287FF64C0109217
:1034C0004406109245061092460610924706109246
:1034D0005B0510925C0510925D0510925E0553C06D
:1034E000019709F050C04090440650904506609006
:1034F0004606709047060091600610916106B8017B
:1035000017FF02C06F5F7F4F759567956A5071090D
:10351000072E000C880B990B0E9432229B01AC01F4
:10352000C301B2010E942B2287FF05C010926605DD
:10353000109265050EC0A7019601C301B2010E9459
:1035400087236093440670934506809346069093C4
:103550004706B801110F880B990B0E9432229B017C
:10356000AC016091440670914506809146069091A9
:1035700047060E942924181634F485E690E09093BB
:103580000D0180930C018091650590916605892B52
:1035900009F0A7C040902C0650902D0660902E0692
:1035A00070902F0620E030E0A901C301B2010E9413
:1035B0002924E0906006F090610600915206109177
:1035C000530687FD15C0B80193E0660F771F9A95E3
:1035D000E1F76E197F0980E090E00E9430229B01A4
:1035E000AC01C301B2010E942B2218160CF013C6C5
:1035F000B80183E0660F771F8A95E1F76E197F099E
:1036000080E090E00E9430226B017C019B01AC01C4
:1036100060912C0670912D0680912E0690912F06B8
:103620000E942924181634F530926605209265050B
:10363000C0922C06D0922D06E0922E06F0922F0614
:1036400020915B0530915C0540915D0550915E05D0
:103650006091440670914506809146069091470618
:103660000E94872360934406709345068093460624
:103670009093470620E030E0A90160912C067091FC
:103680002D0680912E0690912F060E942B2287FFF7
:1036900028C08FEF9FEF909366058093650520917A
:1036A0005B0530915C0540915D0550915E05609130
:1036B00044067091450680914606909147060E9407
:1036C0008723609344067093450680934606909343
:1036D000470610922C0610922D0610922E0610927C
:1036E0002F0680E1A9A5BAA51D928A95E9F7412C7C
:1036F000512C10E2612E11E4712E4B8E5C8E6D8E7A
:103700007E8E612C712C00E8802E01E4902E6F8E4D
:1037100078A289A29AA22091440630914506409150
:1037200046065091470660912C0670912D068091B7
:103730002E0690912F060E94872320E030E040E47F
:1037400050E40E9487236B8B7C8B8D8B9E8B20910A
:1037500048063091490640914A0650914B066091C7
:1037600030067091310680913206909133060E94A6
:10377000872320E030E040E85FE30E9487236F8BDF
:10378000788F898F9A8F0CE017E0F801659174911A
:1037900080E090E00E94302269837A838B839C834F
:1037A000F80132966591749180E090E00E94302299
:1037B0006D837E838F839887F80134966591749129
:1037C00080E090E00E94302269877A878B879C870F
:1037D000F80136966591749180E090E00E94302265
:1037E0006D877E878F87988BBE016F5F7F4FCE017D
:1037F00043960E942010882319F01092640522C07D
:10380000085F1F4F27E00438120709F0BECF2AE9EE
:1038100039E949E15FE3609157057091580580915E
:10382000590590915A050E9487236093570570931C
:1038300058058093590590935A0581E08093560569
:1038400080936405C0905705D0905805E0905905C5
:10385000F0905A0520E030E0A901C701B6010E94AE
:103860002B22882309F4F1C4A701960160E070E0DF
:10387000CB010E948C10BB20E9F08091560581118C
:1038800019C020E030E040E850E4609157057091A5
:1038900058058091590590915A050E94862360939E
:1038A0005705709358058093590590935A0581E008
:1038B00080935605C0905705D0905805E090590563
:1038C000F0905A05209148063091490640914A06E9
:1038D00050914B06C701B6010E9487234B015C0142
:1038E000609348067093490680934A0690934B066E
:1038F0002091400630914106409142065091430686
:10390000C701B6010E9487232B013C01609340064A
:1039100070934106809342069093430620E030E086
:10392000A901C701B6010E942B2281113CC08091E0
:103930006405811138C08091020190910301909338
:1039400001018093000180912C0690912D06A09199
:103950002E06B0912F068093240690932506A093FF
:103960002606B093270640922806509229066092B8
:103970002A0670922B068091440690914506A091EC
:103980004606B09147068093340690933506A0937F
:103990003606B09337068092380690923906A09288
:1039A0003A06B0923B0620913006309131064091A4
:1039B000320650913306C501B4010E9487234B01A2
:1039C0005C012091500630915106809154069091EF
:1039D0005506289FB001299F700D389F700D112446
:1039E00080E090E00E9430229B01AC01C501B4014F
:1039F0000E942924181664F4809167059091680547
:103A0000039731F083E090E0909368058093670519
:103A100000916705109168050330110509F406C18E
:103A200020E030E0A90160915B0570915C05809118
:103A30005D0590915E050E942B2220E030E0A901F7
:103A400081110EC0C701B6010E942B22811117C03F
:103A5000012B09F4EBC0109268051092670519C09C
:103A6000C701B6010E942B22811109C00130110546
:103A700009F4DCC030926805209267050AC0023064
:103A8000110509F4D3C082E090E09093680580931B
:103A9000670581E080936F05C9C0809160059091B2
:103AA0006105A0916205B09163050196A11DB11D4C
:103AB0008E309105A105B1054CF48093600590937B
:103AC0006105A0936205B0936305B0C010926005D4
:103AD00010926105109262051092630580910A01AF
:103AE00090910B01019790930B0180930A01181696
:103AF00019060CF095C020E030E040E05EE36091F4
:103B000034067091350680913606909137060E94F2
:103B1000912220E030E040E051E40E9491220E9496
:103B2000F323072E000C880B990B0E9432226B01A5
:103B30007C016093440670934506809346069093FB
:103B4000470620E030E040E05EE360913806709187
:103B5000390680913A0690913B060E94912220E01E
:103B600030E040E051E40E9491220E94F323072EAE
:103B7000000C880B990B0E943222609348067093C8
:103B8000490680934A0690934B06C0923C06D09219
:103B90003D06E0923E06F0923F0620E030E040E035
:103BA0005EE360912406709125068091260690912F
:103BB00027060E94912220E030E040E051E40E947C
:103BC00091220E94F323072E000C880B990B0E9470
:103BD000322260932C0670932D0680932E069093CC
:103BE0002F06109230061092310610923206109273
:103BF00033061092680510926705109257051092CF
:103C000058051092590510925A0510925B051092B2
:103C10005C0510925D0510925E051092560506C077
:103C2000A9E6B0E0B0930D01A0930C010E94E61349
:103C30006091300670913106809132069091330682
:103C40000E94F3236B017C0160912C0670912D067C
:103C500080912E0690912F060E94F3234B015C0168
:103C600020914E0630914F06CB01B9010E942E24BF
:103C70006DA77EA73601E0915006F0915106C6016E
:103C8000BF010E942E242B01009156061091570669
:103C9000D80118968D919C911997880D991D820FC6
:103CA000931FB9010E942E247CA76BA7D8011A96F6
:103CB0008D919C911B978C0D9D1DBF010E942E2400
:103CC0006B019194819491084C145D040CF057C0E1
:103CD000ADA4BEA4EBA5FCA5AE16BF060CF04BC070
:103CE0008091520690915306489EF001499EF00D36
:103CF000589EF00D1124EA0DFB1DEE0FFF1F809161
:103D00004C0690914D06E80FF91F8591949100970C
:103D100071F1E0905006F09051064E9CA0014F9C2E
:103D2000500D5E9C500D1124460D571D00914E06FE
:103D300010914F06A09EB001A19E700DB09E700D17
:103D40001124680D791D0297823A910580F4880F3D
:103D5000991FFC01E05FFC4F208131812115310565
:103D600031F080915606909157060E944913BFEF9B
:103D7000AB1ABB0AAFCFFFEF4F1A5F0AA5CF8091F6
:103D80006F0500916705109168058823C1F11092B5
:103D90006E0510926D051092690510926A051092D9
:103DA0006B0510926C05C8018D7F892B69F4109208
:103DB0000601109207011092080110920901309239
:103DC00005012092040119C001301105B1F4FDEC88
:103DD0004F2EFCEC5F2EFCE46F2EFFE37F2E409213
:103DE000060150920701609208017092090184E077
:103DF00090E0909305018093040110926F05E0908C
:103E00000401F090050122E0E216F1040CF440C038
:103E100020E030E046E952E460910601709107012C
:103E200080910801909109010E94912220916905D9
:103E300030916A0540916B0550916C050E94872373
:103E40006093690570936A0580936B0590936C0588
:103E500020E030E046E952E40E9429241816C4F418
:103E600080916D0590916E05019690936E058093FB
:103E70006D051092690510926A0510926B051092FB
:103E80006C058E159F0524F010926E0510926D053D
:103E90000115110541F480910201909103010197F0
:103EA00009F03FC041C00230110549F48091020180
:103EB000909103010197D9F124E438E03DC001302D
:103EC0001105C1F5209102013091030180916D052A
:103ED00090916E052130310591F48130910521F1E9
:103EE0002CF4892B39F524EE37E026C08230910579
:103EF00019F00397C9F01EC024EC37E01DC08130D3
:103F0000910579F02CF4892BA9F424E837E014C04A
:103F10008230910519F0039721F00CC024EA37E0B4
:103F20000BC024E638E008C024E238E005C024E0F5
:103F300038E002C020E030E0609148067091490608
:103F400080914A0690914B062FA738AB0E94F3232D
:103F50004B015C01609144067091450680914606D4
:103F6000909147060E94F323E0E1EE2EF12C00E150
:103F700010E02FA538A9A40188E596E00E94491316
:103F800080910A0190910B011CA21BA21EA21DA2EE
:103F900018A61FA24AE0BE016F5F7F4F0E94F62164
:103FA000BE016F5F7F4FCE0183960E94A10E1A82E1
:103FB00019821C821B821E821D8241E050E066E451
:103FC00075E0CE0101960E94800E8FA198A5EBA00E
:103FD000FCA00D811E81E114F10409F431C10097A8
:103FE000A9F0080F191FB801CE0101960E94470ED3
:103FF000882309F425C129813A818D819E81B701E9
:10400000820F931F0E944D261E830D831C8A1B8ADC
:104010001E8A1D8A188E1F8A69817A816115710531
:1040200031F04D815E81CE0143960E94800E8981E0
:104030009A810E94DD2481E080936C0630926906AB
:104040002092680610926B0610926A06109265061E
:104050001092640610926706109266064F89588D7A
:104060006B897C8988E596E00E94FC068B899C8997
:104070000E94DD248BA19CA10E94DD240E941214C9
:1040800029C90E94E61300916206109163062091EF
:10409000600630916106EE24E394F12C40E050E09C
:1040A00060E070E088E596E00E948D0CB0926C06AE
:1040B000109269061092680681E090E090936B067A
:1040C00080936A06809162069091630697FD01963F
:1040D000959587958C010350110960916006709148
:1040E0006106072E000C880B990B0E94322220E0FB
:1040F00030E048E552E40E94862320E030E040E0D2
:104100005FE30E9491220E94F323709365066093FF
:104110006406109367060093660688E495E00E94A3
:1041200051140E9412140E94CA0F60937405709378
:104130007505809376059093770500917005109131
:10414000710520917205309173051B012C01201A15
:10415000310A420A530A49EB24164BE03406410463
:10416000510460F06093700570937105809372053F
:1041700090937305D0920D01C0920C0180910C01B7
:1041800090910D018936910509F47BCF0E94F807C3
:104190000C94CD151FB7F89480915F05811127C04D
:1041A000EAE4F1E08491ECE2F1E09491E82FF0E0B0
:1041B000EE0FFF1FE85EFE4FA591B491EC91E9234D
:1041C00021F461E08AE00E94390F61E08AE00E94F8
:1041D000690F8CB580618CBD8CB580648CBD61E04D
:1041E0008DE00E94690F61E08BE00E94690F809171
:1041F0005F058F5F80935F051FBF8CB58C7F8CBD83
:104200008DB58E7F8DBD8CB5837F8CBD8CB58F7D3C
:104210008CBD0C94391520915B0530915C05409163
:104220005D0550915E05C301B2010E948723609332
:104230002C0670932D0680932E0690932F06D8C9D6
:10424000CE0101960E946E0EE1CEB11016CB2091E8
:1042500048063091490640914A0650914B06C701E5
:10426000B6010E9487234B015C016093480670935E
:10427000490680934A0690934B0620914006309160
:1042800041064091420650914306C701B6010E9483
:1042900087232B013C016093400670934106809375
:1042A00042069093430643CBE7E8F5E0138212827F
:1042B00088EE93E0A0E0B0E084839583A683B78383
:1042C00088E594E09183808385EC90E095878487EE
:1042D00084EC90E09787868780EC90E0918B808BD0
:1042E00081EC90E0938B828B82EC90E0958B848BB9
:1042F00086EC90E0978B868B118E128E138E148E27
:10430000E8E5F6E01382128224E530E03583248369
:1043100080E390E097838683318720879387828725
:10432000158A158614861786168681E0848B2FEFF2
:104330003FEF338B228B318B208B868B178A118E2C
:10434000108E8AE694E09183808389E0828F88E0F2
:10435000838F8AE0848F8CE0858F8BE0868FECE4FE
:10436000F6E081E090E0978386839187808788E0FC
:1043700090E0938382839583848311821082E4E4A6
:10438000F6E0108211821282138280E090E0A0ECAD
:10439000B1E484839583A683B783ECE3F6E01082CF
:1043A00011821282138284839583A683B783E4E308
:1043B000F6E0108211821282138284839583A68391
:1043C000B783ECE2F6E0108211821282138214822B
:1043D000158216821782E4E2F6E0108211821282C0
:1043E000138214821582168217820895BB274A30E1
:1043F00031F4992322F4BDE2909581959F4F0C945E
:104400000222BB27FB015527AA27880F991FAA1F45
:10441000A41710F0A41B83955051B9F7A05DAA33DF
:1044200008F0A95DA193009779F7B111B1931192AA
:10443000CB010C941B22DC01FC01672F71917723C7
:10444000E1F7329704C07C916D9370836291AE174F
:10445000BF07C8F308950E946D2208F481E0089513
:10446000E89409C097FB3EF490958095709561950E
:104470007F4F8F4F9F4F9923A9F0F92F96E9BB27C4
:104480009395F695879577956795B795F111F8CF40
:10449000FAF4BB0F11F460FF1BC06F5F7F4F8F4FAB
:1044A0009F4F16C0882311F096E911C0772321F0A1
:1044B0009EE8872F762F05C0662371F096E8862F39
:1044C00070E060E02AF09A95660F771F881FDAF790
:1044D000880F9695879597F90895990F0008550FBD
:1044E000AA0BE0E8FEEF16161706E807F907C0F07A
:1044F00012161306E407F50798F0621B730B840B82
:10450000950B39F40A2661F0232B242B252B21F45B
:1045100008950A2609F4A140A6958FEF811D811DFB
:1045200008950E94A4220C9415230E94072338F0BA
:104530000E940E2320F0952311F00C94FE220C947F
:10454000042311240C9449230E94262370F3959F81
:10455000C1F3950F50E0551F629FF001729FBB277A
:10456000F00DB11D639FAA27F00DB11DAA1F649F16
:104570006627B00DA11D661F829F2227B00DA11DC9
:10458000621F739FB00DA11D621F839FA00D611D4F
:10459000221F749F3327A00D611D231F849F600D70
:1045A000211D822F762F6A2F11249F5750409AF099
:1045B000F1F088234AF0EE0FFF1FBB1F661F771F25
:1045C000881F91505040A9F79E3F510580F00C94F0
:1045D000FE220C9449235F3FE4F3983ED4F3869582
:1045E00077956795B795F795E7959F5FC1F7FE2B90
:1045F000880F911D9695879597F9089597F99F676C
:1046000080E870E060E008959FEF80EC089500245A
:104610000A941616170618060906089500240A9427
:1046200012161306140605060895092E0394000CAD
:1046300011F4882352F0BB0F40F4BF2B11F460FF3C
:1046400004C06F5F7F4F8F4F9F4F089557FD905865
:10465000440F551F59F05F3F71F04795880F97FB46
:10466000991F61F09F3F79F0879508951216130600
:104670001406551FF2CF4695F1DF08C0161617062F
:104680001806991FF1CF8695710561050894089564
:10469000E894BB2766277727CB0197F908952F92D7
:1046A0003F924F925F926F927F928F929F92AF92C2
:1046B000BF92CF92DF92EF92FF920F931F93CF930F
:1046C000DF93CDB7DEB7CA1BDB0B0FB6F894DEBFA6
:1046D0000FBECDBF09942A88398848885F846E84CC
:1046E0007D848C849B84AA84B984C884DF80EE8016
:1046F000FD800C811B81AA81B981CE0FD11D0FB61F
:10470000F894DEBF0FBECDBFED0108955058BB2712
:10471000AA270E949E230C9415230E94072338F099
:104720000E940E2320F039F49F3F19F426F40C94D4
:1047300004230EF4E095E7FB0C94FE22E92F0E947F
:10474000262358F3BA17620773078407950720F0EA
:1047500079F4A6F50C9448230EF4E0950B2EBA2FAD
:10476000A02D0B01B90190010C01CA01A001112477
:10477000FF27591B99F0593F50F4503E68F11A1623
:10478000F040A22F232F342F4427585FF3CF4695B4
:1047900037952795A795F0405395C9F77EF41F16D6
:1047A000BA0B620B730B840BBAF09150A1F0FF0FA0
:1047B000BB1F661F771F881FC2F70EC0BA0F621F8C
:1047C000731F841F48F4879577956795B795F7957C
:1047D0009E3F08F0B0CF9395880F08F09927EE0F11
:1047E0009795879508950E94FA236894B1110C94C7
:1047F000492308950E942E2388F09F5798F0B92FDF
:104800009927B751B0F0E1F0660F771F881F991F05
:104810001AF0BA95C9F714C0B13091F00E9448233C
:10482000B1E008950C944823672F782F8827B85F4C
:1048300039F0B93FCCF3869577956795B395D9F75D
:104840003EF490958095709561957F4F8F4F9F4F67
:1048500008950E946D2208F48FEF0895AA1BBB1BD8
:1048600051E107C0AA1FBB1FA617B70710F0A61B70
:10487000B70B881F991F5A95A9F780959095BC0191
:10488000CD010895EE0FFF1F0590F491E02D0994DE
:10489000CF93DF938230910510F482E090E0E091B5
:1048A0008806F091890620E030E0C0E0D0E0309743
:1048B00011F14081518148175907C0F04817590735
:1048C00061F482819381209719F09B838A832BC0A6
:1048D000909389068093880626C02115310519F02A
:1048E0004217530718F49A01BE01DF01EF0102805D
:1048F000F381E02DDCCF2115310509F1281B390B9F
:104900002430310590F412968D919C911397611586
:10491000710521F0FB019383828304C09093890683
:1049200080938806FD01329644C0FD01E20FF31F1B
:1049300081939193225031092D933C933AC0209159
:10494000860630918706232B41F42091080330918D
:104950000903309387062093860620910603309141
:1049600007032115310541F42DB73EB740910A03E5
:1049700050910B03241B350BE0918606F0918706BE
:10498000E217F307A0F42E1B3F0B2817390778F026
:10499000AC014E5F5F4F2417350748F04E0F5F1F85
:1049A00050938706409386068193919302C0E0E07E
:1049B000F0E0CF01DF91CF9108950F931F93CF9334
:1049C000DF93009709F48CC0FC01329713821282A6
:1049D00000918806109189060115110581F4208146
:1049E0003181820F931F2091860630918706281708
:1049F000390779F5F0938706E093860671C0D801F0
:104A000040E050E0AE17BF0750F412962D913C9154
:104A10001397AD012115310509F1D901F3CF9D019E
:104A2000DA013383228360817181860F971F821799
:104A3000930769F4EC0128813981260F371F2E5F17
:104A40003F4F318320838A819B8193838283452BCF
:104A500029F4F0938906E093880642C01396FC93EC
:104A6000EE931297ED01499159919E01240F351F44
:104A7000E217F30771F480819181840F951F0296EC
:104A800011969C938E938281938113969C938E931F
:104A90001297E0E0F0E0D80112968D919C91139767
:104AA000009719F0F8018C01F6CF8D919C91980137
:104AB0002E5F3F4F820F931F20918606309187060D
:104AC0002817390769F4309729F410928906109253
:104AD000880602C01382128210938706009386060E
:104AE000DF91CF911F910F910895A0E0B0E0EBE727
:104AF000F5E20C945323EC01009721F4CB010E94C2
:104B00004824B8C0FC01E60FF71F9C012250310970
:104B1000E217F30708F4ACC0D9010D911C9111976D
:104B200006171707B0F00530110508F49FC0C8013B
:104B300004978617970708F499C002501109061BBD
:104B4000170B019311936D937C93CF010E94DD2489
:104B50008DC05B01A01AB10A4C01800E911EA0917C
:104B60008806B091890640E050E0E12CF12C1097C6
:104B700009F44AC0A815B905D1F56D907C9011973C
:104B8000630182E0C80ED11CCA14DB0480F1A301CA
:104B90004A195B096A0182E0C80ED11C1296BC90CA
:104BA00012971396AC91B5E0CB16D10440F0B282C7
:104BB000A38351834083D9016D937C930AC00E5F18
:104BC0001F4FC301800F911FF90191838083EB2D4B
:104BD000FA2FE114F10431F0D7011396FC93EE9310
:104BE000129744C0F0938906E09388063FC08D91E8
:104BF0009C9111974817590708F4AC017D01129652
:104C00000D90BC91A02DB3CF809186069091870620
:104C100088159905E1F446175707C8F480910603F3
:104C200090910703009741F48DB79EB740910A0316
:104C300050910B03841B950BE817F907C8F4F09308
:104C40008706E0938606F901718360830FC0CB016C
:104C50000E9448247C01009759F0A801BE010E94DF
:104C60004426CE010E94DD24C70104C0CE0102C04B
:104C700080E090E0CDB7DEB7EEE00C946F2381E0EA
:104C800090E0F8940C945426FB01DC0102C00190E2
:104C90000D9241505040D8F70895FB01DC0101907E
:104CA0000D920020E1F70895F894FFCF0100010074
:104CB00004000000803F03006400000000000000CA
:104CC00000000000000000000000000000000000E4
:104CD00000000000000000000000000000000000D4
:104CE000C0E0F0F8FCFCFEFFFCE00000000000006B
:104CF00000000000000000000000000000000000B4
:104D000000000000000000000000000000000000A3
:104D1000000000000000000000000000000000F89B
:104D2000F8F8F8F8F8F8F8F8F8F8F8F0F0E0E0C07B
:104D300080C0FCFFFFFFFF7F3F7FFFFFFFFFFF0003
:104D40000000000000000000000000000000000063
:104D50000000000000000000000000000000000053
:104D60000000000000000000000000000000000043
:104D7000000000000F1F3F7FFFFFFFFFFFFFFFFF4F
:104D8000E7C7C7878F9F9FFFFFFFC1C0E0FCFFFF02
:104D9000FFFFFFFCFCFCFCFEFEFEFCFCF8F8F0E074
:104DA000C0C0000000000000000000000000000083
:104DB00000000000000000000000000000000000F3
:104DC000000000000000000000000080C0E0F1FBD7
:104DD000FFFFFFFFFF7F1F0F0F87E7FFFFFF1F1F73
:104DE0003FF9F8F8F8F8F8F8FDFFFFFFFFFFFFFFC5
:104DF000FFFF7F3F0F0701000000000000000000E0
:104E000000000000000000000000000000000000A2
:104E100000000000000000000000000000F0FEFFA5
:104E2000FFFFFFFFFFFFFFFFFFFE7E3F3F0F1FFF64
:104E3000FFFFFCF0E0F1FFFFFFFFFFFCF0010101CD
:104E4000010101010100000000000000000000005D
:104E50000000000000000000000000000000000052
:104E60000000000000000000000000000000000042
:104E70000003030303030303030101010100000016
:104E800000000000030F1F3F7F7FFFFFFFFF7F7FBA
:104E90001F030000000000000000000000000000F0
:104EA0000000000000000000000000000000000002
:104EB000000000008A068000000040401001080148
:104EC0000001000000000000000000000000F800E9
:104ED00000000000F00000000000000000000000E2
:104EE00000000000000000000000000000000000C2
:104EF00000000000000000000000000000000000B2
:104F000000000000000000000000000000000000A1
:104F10000000000000000000000000000000000091
:104F2000000000000000E800E000000000000000B9
:104F30000000000000000000000000000000000071
:104F4000000000000000D800D000000000000000B9
:104F5000C800C000B800B000A800000000000000B9
:104F60000000000000000000000000000000000041
:104F70000000000000000000000000000000000031
:104F800000000000A00098000000000000000000E9
:104F90000000000000000000000000000000000011
:104FA00000000000900088000000000000000000E9
:104FB00000000000000000000000000000000000F1
:104FC00000000000000000000000000000000000E1
:104FD00000000000000000000000800078000000D9
:104FE00000000000000000000000000000000000C1
:104FF00000000000000000000000A8007000680031
:10500000000000008F07FC062707D6075807360761
:105010004A0700000000C30AFC06420E410E2B089E
:10502000960D8F0D670D830D770D970D660D980802
:105030009708210DDD0C8D0C6F0CF80B990B526548
:10504000676920616E6420546F62690070726573D5
:10505000656E74730074657374003C205354415240
:10506000542047414D45203E003C20435245444991
:105070005453203E003C20455849542047414D455B
:10508000203E00435245444954533A0043726561FF
:105090007465642062793A00546F626961732055C7
:1050A0006C7269636820616E6420526567696E6125
:1050B0006C646F2064612053696C76612E005772B6
:1050C000697474656E20696E204320207769746866
:1050D0002041726475696E6F2020556E6F2E0044FA
:1050E00065632C20323031342E004C4556454C201F
:1050F0003100780047414D45204F564552000D0A7A
:105100000000FFFFFFFFFFFFFFFFFFFFFFFFFFFFAD
:10511000FFFFFFFFFFFFFFFFFFFFFFFFFFFFFFFF9F
:10512000FFFFFFFFFFFFFFFFFFFFFFFFFFFFFFFF8F
:10513000FFFFFFFFFFFFFFFFFFFFFFFFFFFFFFFF7F
:10514000FFFFFFFFFFFFFFFFFFFFFFFFFFFFFFFF6F
:107800000C94343C0C94513C0C94513C0C94513CE1
:107810000C94513C0C94513C0C94513C0C94513CB4
:107820000C94513C0C94513C0C94513C0C94513CA4
:107830000C94513C0C94513C0C94513C0C94513C94
:107840000C94513C0C94513C0C94513C0C94513C84
:107850000C94513C0C94513C0C94513C0C94513C74
:107860000C94513C0C94513C11241FBECFEFD8E036
:10787000DEBFCDBF11E0A0E0B1E0ECE9FFE702C060
:1078800005900D92A230B107D9F712E0A2E0B1E065
:1078900001C01D92AD30B107E1F70E942D3D0C945F
:1078A000CC3F0C94003C982F959595959595959582
:1078B000905D8F708A307CF0282F295A8091C0000B
:1078C00085FFFCCF9093C6008091C00085FFFCCF60
:1078D0002093C6000895282F205DF0CF982F809127
:1078E000C00085FFFCCF9093C6000895EF92FF92F1
:1078F0000F931F93EE24FF2487018091C00087FD22
:1079000017C00894E11CF11C011D111D81E4E8164B
:1079100082E4F8068FE0080780E0180770F3E09132
:107920000401F091050109958091C00087FFE9CF1E
:107930008091C6001F910F91FF90EF9008950E94D3
:10794000763C982F8091C00085FFFCCF9093C600B5
:1079500091362CF490330CF09053892F089597555D
:10796000892F08951F930E949F3C182F0E949F3CCF
:107970001295107F810F1F9108951F93182F882350
:1079800021F00E94763C1150E1F71F9108951F935A
:10799000182F0E94763C803249F0809103018F5F5E
:1079A000809303018530C1F01F9108958091C0003C
:1079B00085FFFCCF84E18093C6008091C00085FFE5
:1079C000FCCF1093C6008091C00085FFFCCF80E102
:1079D0008093C6001F910895E0910401F091050184
:1079E00009951F9108950E94763C803241F0809164
:1079F00003018F5F80930301853081F008958091AA
:107A0000C00085FFFCCF84E18093C6008091C00058
:107A100085FFFCCF80E18093C6000895E0910401CA
:107A2000F09105010995089540E951E08823A1F0FE
:107A30002D9A28EE33E0FA013197F1F721503040CA
:107A4000D1F72D9828EE33E0FA013197F1F7215064
:107A50003040D1F7815061F708953F924F925F9285
:107A60006F927F928F929F92AF92BF92CF92DF924E
:107A7000EF92FF920F931F93CF93DF93000080E16B
:107A80008093C4001092C50088E18093C10086E015
:107A90008093C2005098589A259A81E00E94143D24
:107AA00024E1F22E9EE1E92E85E9D82E0FE0C02ECA
:107AB00010E1B12EAA24A394B1E49B2EA6E58A2E50
:107AC000F2E57F2EE0E26E2E79E4572E63E5462E36
:107AD00050E5352E0E94763C8033B1F18133B9F107
:107AE000803409F46FC0813409F476C0823409F41B
:107AF00085C0853409F488C0803531F1823521F1A3
:107B0000813511F1853509F485C0863509F48DC0BC
:107B1000843609F496C0843709F403C1853709F423
:107B200072C1863709F466C0809103018F5F80932C
:107B30000301853079F6E0910401F0910501099582
:107B40000E94763C803351F60E94F33CC3CF0E94E2
:107B5000763C803249F78091C00085FFFCCFF092DF
:107B6000C6008091C00085FFFCCF9092C600809136
:107B7000C00085FFFCCF8092C6008091C00085FFC9
:107B8000FCCF7092C6008091C00085FFFCCF609250
:107B9000C6008091C00085FFFCCF5092C600809146
:107BA000C00085FFFCCF4092C6008091C00085FFD9
:107BB000FCCF3092C6008091C00085FFFCCFB09210
:107BC000C60088CF0E94763C863808F4BDCF0E945C
:107BD000763C0E94F33C7ECF0E94763C803809F4CC
:107BE0009CC0813809F40BC1823809F43CC1883942
:107BF00009F48FC080E00E94C73C6CCF84E10E94F2
:107C0000BD3C0E94F33C66CF85E00E94BD3C0E94D3
:107C1000F33C60CF0E94763C809306010E94763C44
:107C2000809307010E94F33C55CF0E94763C80333D
:107C300009F41DC183E00E94BD3C80E00E94C73C66
:107C400049CF0E94763C809309020E94763C809343
:107C5000080280910C028E7F80930C020E94763C79
:107C6000853409F415C18091080290910902892B8D
:107C700089F000E010E00E94763CF801E85FFE4FDA
:107C800080830F5F1F4F80910802909109020817AF
:107C9000190788F30E94763C803209F045CF809125
:107CA0000C0280FF01C16091060170910701660F0F
:107CB000771F7093070160930601A0910802B091AD
:107CC00009021097C9F0E8E0F1E09B01AD014E0F09
:107CD0005F1FF999FECF32BD21BD819180BDFA9A17
:107CE000F99A2F5F3F4FE417F50799F76A0F7B1F4B
:107CF00070930701609306018091C00085FFFCCF5F
:107D0000F092C6008091C00085FFFCCFB092C60003
:107D1000E1CE83E00E94C73CDDCE82E00E94C73CFA
:107D2000D9CE0E94763C809309020E94763C8093D3
:107D300008028091060190910701880F991F909386
:107D40000701809306010E94763C853409F4A6C0A1
:107D500080910C028E7F80930C020E94763C8032D0
:107D600009F0B8CE8091C00085FFFCCFF092C6002C
:107D7000609108027091090261157105B9F140E046
:107D800050E080910C02A82FA170B82FB27011C0E2
:107D9000BB2309F45CC0E0910601F0910701319624
:107DA000F0930701E09306014F5F5F4F46175707B7
:107DB000E8F4AA2369F3F999FECF209106013091E6
:107DC000070132BD21BDF89A90B58091C00085FFB2
:107DD000FCCF9093C6002F5F3F4F30930701209355
:107DE00006014F5F5F4F4617570718F38091C00099
:107DF00085FDE5CE8091C00085FFF8CFE0CE81E023
:107E00000E94C73C67CE0E94763C803209F08CCE3F
:107E10008091C00085FFFCCFF092C6008091C00029
:107E200085FFFCCFE092C6008091C00085FFFCCFAB
:107E3000D092C6008091C00085FFFCCFC092C600E2
:107E40008091C00085FFFCCFB092C60043CEE09188
:107E50000601F091070194918091C00085FFFCCF4D
:107E60009093C6009CCF80E10E94C73C33CE0E9415
:107E7000763C0E94763C182F0E94763C112309F430
:107E800083C0113009F484C08FE00E94C73C22CE29
:107E900080910C02816080930C02E5CE80910C02EF
:107EA000816080930C0259CF809107018823880F4D
:107EB000880B8A2180930B02809106019091070123
:107EC000880F991F90930701809306018091080203
:107ED00080FF09C080910802909109020196909359
:107EE000090280930802F894F999FECF1127E091D6
:107EF0000601F0910701C8E0D1E08091080290915D
:107F00000902103091F40091570001700130D9F34B
:107F100003E000935700E89500915700017001308D
:107F2000D9F301E100935700E89509901990009169
:107F3000570001700130D9F301E000935700E89534
:107F40001395103498F011270091570001700130FB
:107F5000D9F305E000935700E895009157000170B0
:107F60000130D9F301E100935700E895329602976A
:107F700009F0C7CF103011F00296E5CF112480919F
:107F8000C00085FFB9CEBCCE8EE10E94C73CA2CD19
:107F900085E90E94C73C9ECDF894FFCF8000FFFF8B
:107FA000FFFFFFFFFFFFFFFFFFFFFFFFFFFFFFFFE1
:107FB000FFFFFFFFFFFFFFFFFFFFFFFFFFFFFFFFD1
:107FC000FFFFFFFFFFFFFFFFFFFFFFFFFFFFFFFFC1
:107FD000FFFFFFFFFFFFFFFFFFFFFFFFFFFFFFFFB1
:02000004008179
:00000001FF
