:100000000C946D080C949E080C949E080C949E0809
:100010000C949E080C949E080C949E080C949E08C8
:100020000C949E080C949E080C949E080C949E08B8
:100030000C949E080C949E080C949E080C949E08A8
:100040000C949E080C949E080C949E080C949E0898
:100050000C949E080C949E080C949E080C94C1D499
:100060000C949E080C942ECD0C945DCD0C949E089F
:100070000C949E080C949E080C949E080C949E0868
:100080000C949E080C949E080C949E080C949E0858
:100090000C949E080C949E080C949E080C94C31912
:1000A0000C949E080C949E080C949E080C949E0838
:1000B0000C949E080C949E080C949E080C949E0828
:1000C0000C949E080C949E080C949E080C949E0818
:1000D0000C949E080C949E080C949E080C949E0808
:1000E0000C949E08544654204C4344207465737409
:1000F000005573696E67204164616672756974208A
:10010000322E38222054465420427265616B6F753E
:100110007420426F6172642050696E6F757400467E
:100120006F756E6420494C4939333235204C434455
:100130002064726976657200466F756E6420494C62
:100140004939333238204C434420647269766572F1
:1001500000466F756E642048583833343747204C5A
:1001600043442064726976657200466F756E642040
:10017000494C4939333431204C4344206472697608
:10018000657200466F756E642048583833353744C1
:10019000204C43442064726976657200556E6B6E24
:1001A0006F776E204C4344206472697665722063D9
:1001B0006869703A20004966207573696E6720741B
:1001C000686520416461667275697420322E382238
:1001D000205446542041726475696E6F20736869BB
:1001E000656C642C20746865206C696E653A00202B
:1001F0002023646566696E65205553455F4144411F
:1002000046525549545F534849454C445F50494E06
:100210004F55540073686F756C6420617070656130
:100220007220696E20746865206C696272617279EF
:100230002068656164657220284164616672756931
:10024000745F5446542E68292E00496620757369E0
:100250006E672074686520627265616B6F757420CB
:10026000626F6172642C2069742073686F756C64AE
:10027000204E4F542062652023646566696E656474
:100280002100416C736F206966207573696E672069
:1002900074686520627265616B6F75742C20646F81
:1002A00075626C652D636865636B2074686174208A
:1002B000616C6C20776972696E67006D6174636848
:1002C000657320746865207475746F7269616C2E33
:1002D0000042656E63686D61726B202020202020D3
:1002E0002020202020202020202054696D652028F7
:1002F0006D6963726F7365636F6E64732900536316
:100300007265656E2066696C6C202020202020209C
:1003100020202020202020005465787420202020D8
:1003200020202020202020202020202020202020CD
:1003300020004C696E657320202020202020202082
:10034000202020202020202020202000486F7269BB
:100350007A2F56657274204C696E657320202020B8
:1003600020202020200052656374616E676C6573E5
:1003700020286F75746C696E65292020202020006C
:1003800052656374616E676C6573202866696C6C76
:1003900065642920202020202000436972636C6559
:1003A00073202866696C6C65642920202020202039
:1003B00020202000436972636C657320286F757478
:1003C0006C696E6529202020202020202000547296
:1003D00069616E676C657320286F75746C696E65F2
:1003E0002920202020202000547269616E676C65EE
:1003F00073202866696C6C656429202020202020E9
:100400002000526F756E646564207265637473209A
:10041000286F75746C696E6529202000526F756EA7
:10042000646564207265637473202866696C6C650A
:10043000642920202000446F6E6521002E89298FB9
:100440002B02E200E401E510E601E710E870F2009B
:10045000EA00EB20EC3CEDC8E938F1011B1A1A0266
:100460002461255C183619011F88FF051F80FF05D0
:100470001F90FF051FD4FF05170536092838FF28F0
:10048000283C02000300040005EF060007000801F5
:10049000093F0100B903FF8357FFFAB304000006C8
:1004A00006B60125B00168CC0105B10600151C1C7B
:1004B00083AAC0065050013C1E08B4070240002A1F
:1004C0002A0D783A01553601C03501004402000278
:1004D0001100FF962900FF3200000100FF003200EA
:1004E00001000001020000070300301004000000BA
:1004F00008000202090000000A0000000C000000D1
:100500000D0000000F0000001000000011000700A7
:100510001200000013000000FF00C8001000901639
:1005200011002702FF00320012001A00FF00320003
:100530001300001829002A00FF00320030000000DC
:1005400031000000320000003500060236000808C5
:100550003700070038000102390000003C000000AD
:100560003D000000200000002100000050000000BD
:100570005100EF005200000053003F01600000A74F
:10058000610003006A00000090001000920000006B
:1005900093000300950000119700000098000000F0
:1005A0000700330100000000003E5B4F5B3E3E6BE6
:1005B0004F6B3E1C3E7C3E1C183C7E3C181C577DFD
:1005C000571C1C5E7F5E1C00183C1800FFE7C3E749
:1005D000FF0018241800FFE7DBE7FF30483A060E5B
:1005E0002629792926407F050507407F05253F5AA2
:1005F0003CE73C5A7F3E1C1C08081C1C3E7F142212
:100600007F22145F5F005F5F06097F017F006689BC
:10061000956A606060606094A2FFA29408047E0402
:100620000810207E201008082A1C08081C2A080828
:100630001E101010100C1E0C1E0C30383E383006E8
:100640000E3E0E06000000000000005F00000007E4
:10065000000700147F147F14242A7F2A1223130812
:10066000646236495620500008070300001C2241EE
:10067000000041221C002A1C7F1C2A08083E080892
:100680000080703000080808080800006060002042
:10069000100804023E5149453E00427F4000724925
:1006A0004949462141494D331814127F10274545C9
:1006B00045393C4A494931412111090736494949DF
:1006C00036464949291E000014000000403400004D
:1006D00000081422411414141414004122140802B6
:1006E000015909063E415D594E7C1211127C7F4929
:1006F0004949363E414141227F4141413E7F49497E
:1007000049417F090909013E414151737F080808A9
:100710007F00417F41002040413F017F081422417A
:100720007F404040407F021C027F7F0408107F3ED4
:100730004141413E7F090909063E4151215E7F0941
:10074000192946264949493203017F01033F4040A8
:10075000403F1F2040201F3F4038403F6314081493
:100760006303047804036159494D43007F414141CB
:100770000204081020004141417F040201020440AC
:1007800040404040000307080020545478407F2830
:100790004444383844444428384444287F38545426
:1007A000541800087E090218A4A49C787F08040449
:1007B0007800447D40002040403D007F10284400E8
:1007C00000417F40007C047804787C080404783879
:1007D00044444438FC1824241818242418FC7C08A9
:1007E000040408485454542404043F44243C404026
:1007F000207C1C2040201C3C4030403C44281028D9
:10080000444C9090907C4464544C44000836410021
:100810000000770000004136080002010204023C9B
:100820002623263C1EA1A161123A4040207A38546A
:1008300054555921555579412254547842215554E3
:10084000784020545579400C1E5272123955555536
:1008500059395454545939555454580000457C4121
:100860000002457D420001457C407D1211127DF061
:10087000282528F07C545545002054547C547C0A8B
:10088000097F4932494949323A4444443A324A4854
:1008900048303A4141217A3A42402078009DA0A058
:1008A0007D3D4242423D3D4040403D3C24FF2424AA
:1008B000487E4943662B2FFC2F2BFF0929F620C0C9
:1008C000887E090320545479410000447D4130481A
:1008D000484A32384040227A007A0A0A727D0D195D
:1008E000317D2629292F28262929292630484D40BF
:1008F00020380808080808080808382F10C8ACBABB
:100900002F102834FA00007B000008142A14222239
:10091000142A14085500550055AA55AA55AAFF5582
:10092000FF55FF000000FF00101010FF001414140A
:10093000FF001010FF00FF1010F010F0141414FC52
:10094000001414F700FF0000FF00FF1414F404FC6F
:10095000141417101F10101F101F1414141F001050
:100960001010F0000000001F101010101F101010C9
:1009700010F010000000FF101010101010101010D8
:10098000FF10000000FF140000FF00FF00001F1018
:10099000170000FC04F414141710171414F404F4D2
:1009A0000000FF00F714141414141414F700F714C3
:1009B0001414171410101F101F141414F414101012
:1009C000F010F000001F101F0000001F14000000B6
:1009D000FC140000F010F01010FF10FF141414FFAE
:1009E000141010101F00000000F010FFFFFFFFFFA9
:1009F000F0F0F0F0F0FFFFFF0000000000FFFF0F3D
:100A00000F0F0F0F3844443844FC4A4A4A347E02E0
:100A1000020606027E027E02635549416338444461
:100A20003C04407E201E2006027E020299A5E7A516
:100A3000991C2A492A1C4C7201724C304A4D4D3087
:100A40003048784830BC625A463D3E494949007EAC
:100A50000101017E2A2A2A2A2A44445F4444405143
:100A60004A444040444A51400000FF0103E080FFF7
:100A7000000008086B6B083612362436060F090F83
:100A800006000018180000001010003040FF01019F
:100A9000001F01011E00191D1712003C3C3C3C00C8
:100AA0000000000080402010080402017FBFDFEF3B
:100AB000F7FBFDFE00000000003E5B4F5B3E3E6B1F
:100AC0004F6B3E1C3E7C3E1C183C7E3C181C577DE8
:100AD000571C1C5E7F5E1C00183C1800FFE7C3E734
:100AE000FF0018241800FFE7DBE7FF30483A060E46
:100AF0002629792926407F050507407F05253F5A8D
:100B00003CE73C5A7F3E1C1C08081C1C3E7F1422FC
:100B10007F22145F5F005F5F06097F017F006689A7
:100B2000956A606060606094A2FFA29408047E04ED
:100B30000810207E201008082A1C08081C2A080813
:100B40001E101010100C1E0C1E0C30383E383006D3
:100B50000E3E0E06000000000000005F00000007CF
:100B6000000700147F147F14242A7F2A12231308FD
:100B7000646236495620500008070300001C2241D9
:100B8000000041221C002A1C7F1C2A08083E08087D
:100B9000008070300008080808080000606000202D
:100BA000100804023E5149453E00427F4000724910
:100BB0004949462141494D331814127F10274545B4
:100BC00045393C4A494931412111090736494949CA
:100BD00036464949291E0000140000004034000038
:100BE00000081422411414141414004122140802A1
:100BF000015909063E415D594E7C1211127C7F4914
:100C00004949363E414141227F4141413E7F494968
:100C100049417F090909013E414151737F08080894
:100C20007F00417F41002040413F017F0814224165
:100C30007F404040407F021C027F7F0408107F3EBF
:100C40004141413E7F090909063E4151215E7F092C
:100C5000192946264949493203017F01033F404093
:100C6000403F1F2040201F3F4038403F631408147E
:100C70006303047804036159494D43007F414141B6
:100C80000204081020004141417F04020102044097
:100C900040404040000307080020545478407F281B
:100CA0004444383844444428384444287F38545411
:100CB000541800087E090218A4A49C787F08040434
:100CC0007800447D40002040403D007F10284400D3
:100CD00000417F40007C047804787C080404783864
:100CE00044444438FC1824241818242418FC7C0894
:100CF000040408485454542404043F44243C404011
:100D0000207C1C2040201C3C4030403C44281028C3
:100D1000444C9090907C4464544C4400083641000C
:100D20000000770000004136080002010204023C86
:100D30002623263C1EA1A161123A4040207A385455
:100D400054555921555579412254547842215554CE
:100D5000784020545579400C1E5272123955555521
:100D600059395454545939555454580000457C410C
:100D70000002457D420001457C407D1211127DF04C
:100D8000282528F07C545545002054547C547C0A76
:100D9000097F4932494949323A4444443A324A483F
:100DA00048303A4141217A3A42402078009DA0A043
:100DB0007D3D4242423D3D4040403D3C24FF242495
:100DC000487E4943662B2FFC2F2BFF0929F620C0B4
:100DD000887E090320545479410000447D41304805
:100DE000484A32384040227A007A0A0A727D0D1948
:100DF000317D2629292F28262929292630484D40AA
:100E000020380808080808080808382F10C8ACBAA5
:100E10002F102834FA00007B000008142A14222224
:100E2000142A14085500550055AA55AA55AAFF556D
:100E3000FF55FF000000FF00101010FF00141414F5
:100E4000FF001010FF00FF1010F010F0141414FC3D
:100E5000001414F700FF0000FF00FF1414F404FC5A
:100E6000141417101F10101F101F1414141F00103B
:100E70001010F0000000001F101010101F101010B4
:100E800010F010000000FF101010101010101010C3
:100E9000FF10000000FF140000FF00FF00001F1003
:100EA000170000FC04F414141710171414F404F4BD
:100EB0000000FF00F714141414141414F700F714AE
:100EC0001414171410101F101F141414F4141010FD
:100ED000F010F000001F101F0000001F14000000A1
:100EE000FC140000F010F01010FF10FF141414FF99
:100EF000141010101F00000000F010FFFFFFFFFF94
:100F0000F0F0F0F0F0FFFFFF0000000000FFFF0F27
:100F10000F0F0F0F3844443844FC4A4A4A347E02CB
:100F2000020606027E027E0263554941633844444C
:100F30003C04407E201E2006027E020299A5E7A501
:100F4000991C2A492A1C4C7201724C304A4D4D3072
:100F50003048784830BC625A463D3E494949007E97
:100F60000101017E2A2A2A2A2A44445F444440512E
:100F70004A444040444A51400000FF0103E080FFE2
:100F8000000008086B6B083612362436060F090F6E
:100F900006000018180000001010003040FF01018A
:100FA000001F01011E00191D1712003C3C3C3C00B3
:100FB0000000000000002100240027002A002D006E
:100FC0003000330001010000040107010A010000A4
:100FD0002200250028002B002E00310034000201E1
:100FE0000000050108010B0100002000230026007D
:100FF00029002C002F00320000010000030106012F
:10100000090105050505070508080808020202028E
:101010000A0A080804040404010101010101010194
:101020000303030303030303040707070C0C0C0C5F
:101030000C0C0C0C02020202060606060606060648
:101040000B0B0B0B0B0B0B0B0102102020080810D5
:101050002040102040800201020108040201010228
:101060000408102040808040201008040201800401
:10107000020180402010080402010804020101025C
:101080000408102040800102040810204080000065
:101090000A0B02090C0D0E080703040100000000F2
:1010A0000000000000000000000000000000000040
:1010B00000000000000000000000121110000000FD
:1010C0000000000000000000000000000000000020
:1010D0000000000095142220D5CD11241FBECFEFB3
:1010E000D1E2DEBFCDBF00E00CBF15E0A0E0B2E072
:1010F000E4E0FBEB01E00BBF02C007900D92A83CBF
:10110000B107D9F727E0A8ECB5E001C01D92AE36D3
:10111000B207E1F718E0CDE6D8E000E006C021977D
:101120000109802FFE010E9417DCCA36D10780E03A
:101130000807A9F70E945FD40C9480DD0C9400008E
:10114000CF93DF9300D000D0CDB7DEB79A838983E9
:101150004B835C836D837E838B819C81AD81BE815B
:10116000E981FA8126E0AC01BD01CF010E945BC993
:1011700026960FB6F894DEBF0FBECDBFDF91CF919C
:101180000895CF93DF9300D000D0CDB7DEB79A8318
:1011900089837C836B835E834D8389819A812B81D4
:1011A0003C81FC013587248789819A812D813E818C
:1011B000FC013787268726960FB6F894DEBF0FBE50
:1011C000CDBFDF91CF910895CF93DF9300D01F92D1
:1011D000CDB7DEB79A8389837C836B8389819A81BB
:1011E0002B813C81FC01338B228B89819A81FC010C
:1011F0002289338989819A81FC01318B208B0F9060
:101200000F900F900F90DF91CF910895CF93DF93C0
:101210001F921F92CDB7DEB79A83898389819A8105
:10122000FC01808591850F900F90DF91CF910895FB
:10123000CF93DF931F921F92CDB7DEB79A83898336
:1012400089819A81FC01828593850F900F90DF91AF
:10125000CF910895CF93DF931F921F92CDB7DEB742
:1012600040E855E260E070E084EC96E069DF84EEEF
:1012700090E0BC0184EC96E00E9458D081EF90E0B1
:10128000BC0184EC96E00E9458D062EE74E084ECDD
:1012900096E00E94F1CE88EC95E0B8DF4AE050E09D
:1012A000BC0184EC96E00E9445CF66EB75E084ECCF
:1012B00096E00E94F1CE88EC95E0BADF4AE050E07B
:1012C000BC0184EC96E00E944DD188EC95E00E9430
:1012D000DB2D88EC95E00E9458589A838983898198
:1012E0009A818532934941F48FE191E0BC0184EC0D
:1012F00096E00E9458D06FC089819A8188329349C4
:1013000041F488E391E0BC0184EC96E00E9458D05F
:1013100062C089819A818537954741F481E591E0E2
:10132000BC0184EC96E00E9458D055C089819A8116
:101330008134934941F48AE691E0BC0184EC96E063
:101340000E9458D048C089819A818735934841F4DA
:1013500083E891E0BC0184EC96E00E9458D03BC049
:101360008CE991E0BC0184EC96E00E9482CE8981F8
:101370009A8140E150E0BC0184EC96E00E947AD171
:1013800086EB91E0BC0184EC96E00E9458D08FEE91
:1013900091E0BC0184EC96E00E9458D084E192E098
:1013A000BC0184EC96E00E9458D08AE492E0BC0133
:1013B00084EC96E00E9458D082E892E0BC0184EC74
:1013C00096E00E9458D08BEB92E0BC0184EC96E052
:1013D0000E9458D043C189819A81BC0188EC95E074
:1013E0000E94912381ED92E0BC0184EC96E00E9482
:1013F00058D08EEF92E0BC0184EC96E00E9482CE41
:101400004FD1DC01CB012AE030E0AC01BD0184EC1E
:1014100096E00E94DAD164EF71E080E090E00E94F3
:10142000BBD588E193E0BC0184EC96E00E9482CEBB
:1014300084D1DC01CB012AE030E0AC01BD0184ECB9
:1014400096E00E94DAD168EB7BE080E090E00E94B9
:10145000BBD582E393E0BC0184EC96E00E9482CE8F
:101460008FEF97E02CD2DC01CB012AE030E0AC0119
:10147000BD0184EC96E00E94DAD164EF71E080E077
:1014800090E00E94BBD58CE493E0BC0184EC96E034
:101490000E9482CE6FE170E080E098EF07D4DC011B
:1014A000CB012AE030E0AC01BD0184EC96E00E9463
:1014B000DAD164EF71E080E090E00E94BBD586E66F
:1014C00093E0BC0184EC96E00E9482CE80EE97E02F
:1014D00070D4DC01CB012AE030E0AC01BD0184EC2A
:1014E00096E00E94DAD164EF71E080E090E00E9423
:1014F000BBD580E893E0BC0184EC96E00E9482CEEC
:101500006FE178EF80EE9FEFEED4DC01CB012AE0B3
:1015100030E0AC01BD0184EC96E00E94DAD164EFCA
:1015200071E080E090E00E94BBD58AE993E0BC01C5
:1015300084EC96E00E9482CE6FE178EF8AE0A0D53D
:10154000DC01CB012AE030E0AC01BD0184EC96E087
:101550000E94DAD184EB93E0BC0184EC96E00E9417
:1015600082CE6FEF7FEF8AE013D6DC01CB012AE059
:1015700030E0AC01BD0184EC96E00E94DAD164EF6A
:1015800071E080E090E00E94BBD58EEC93E0BC015E
:1015900084EC96E00E9482CE83D6DC01CB012AE067
:1015A00030E0AC01BD0184EC96E00E94DAD164EF3A
:1015B00071E080E090E00E94BBD588EE93E0BC0132
:1015C00084EC96E00E9482CE1CD7DC01CB012AE09D
:1015D00030E0AC01BD0184EC96E00E94DAD164EF0A
:1015E00071E080E090E00E94BBD582E094E0BC0115
:1015F00084EC96E00E9482CE0E940313DC01CB01B2
:101600002AE030E0AC01BD0184EC96E00E94DAD122
:1016100064EF71E080E090E00E94BBD58CE194E043
:10162000BC0184EC96E00E9482CE0E94BA13DC01D9
:10163000CB012AE030E0AC01BD0184EC96E00E94D1
:10164000DAD164EF71E080E090E00E94BBD586E3E0
:1016500094E0BC0184EC96E00E9458D00F900F906B
:10166000DF91CF910895CF93DF931F92CDB7DEB76F
:1016700019828981843080F4698188EC95E00E9428
:101680002A4F5BD060ED77E080E090E00E94BBD510
:1016900089818F5F8983EDCF0F90DF91CF9108957E
:1016A000EF92FF920F931F93CF93DF9300D01F927F
:1016B000CDB7DEB70E945DD5DC01CB0189839A836B
:1016C000AB83BC8360E070E088EC95E00E947643D9
:1016D00060E078EF88EC95E00E94764360EE77E07A
:1016E00088EC95E00E9476436FE170E088EC95E02D
:1016F0000E94764360E070E088EC95E00E947643BB
:101700000E945DD59B01AC0189819A81AB81BC812E
:1017100079018A01E81AF90A0A0B1B0BD801C701E3
:10172000BC01CD010F900F900F900F90DF91CF91E2
:101730001F910F91FF90EF900895EF92FF920F93FA
:101740001F93CF93DF9300D01F92CDB7DEB760E039
:1017500070E088EC95E00E9476430E945DD5DC0144
:10176000CB0189839A83AB83BC8340E050E060E087
:1017700070E088EC95E005DD6FEF7FEF88EC95E099
:1017800023DD61E088EC95E00E946A7D6FEE74E0F5
:1017900088EC95E00E94D8D060EE7FEF88EC95E071
:1017A00013DD62E088EC95E00E946A7D22E030E083
:1017B0004CEE51E56AE974E488EC95E00E940DD2A4
:1017C00060E078EF88EC95E0FFDC63E088EC95E082
:1017D0000E946A7D20E130E04FEE5EEB6DEA7EED27
:1017E00088EC95E00E94DAD188EC95E00E949FD0C9
:1017F00060EE77E088EC95E0E7DC65E088EC95E06A
:101800000E946A7D6CEF74E088EC95E00E94D8D06D
:1018100062E088EC95E00E946A7D62E075E088EC09
:1018200095E00E94D8D061E088EC95E00E946A7D46
:1018300062E175E088EC95E00E94D8D06DE275E039
:1018400088EC95E00E94D8D068E475E088EC95E0DB
:101850000E94D8D064E675E088EC95E00E94D8D06C
:1018600068E775E088EC95E00E94D8D06BE875E0F9
:1018700088EC95E00E94D8D065EA75E088EC95E0A8
:101880000E94D8D00E945DD59B01AC0189819A81CC
:10189000AB81BC8179018A01E81AF90A0A0B1B0B9A
:1018A000D801C701BC01CD010F900F900F900F9090
:1018B000DF91CF911F910F91FF90EF900895EF92DC
:1018C000FF920F931F93CF93DF93CDB7DEB7669749
:1018D0000FB6F894DEBF0FBECDBF9E8B8D8B88EC0C
:1018E00095E094DC9E838D8388EC95E0A1DC98875D
:1018F0008F8360E070E088EC95E00E9476431A8662
:10190000198689859A859C878B878F819885019711
:101910009C838B830E945DD5DC01CB018D879E87E4
:10192000AF87B88B1A82198229813A818D819E8175
:1019300028173907BCF4ED89FE896B817C812981E8
:101940003A8149855A858B859C857F018B01BC0135
:1019500088EC95E00E94F26189819A8106969A83CB
:101960008983E2CF8D819E8101979A8389831C822E
:101970001B822B813C818F81988528173907BCF405
:10198000ED89FE896B817C8129813A8149855A855F
:101990008B859C857F018B01BC0188EC95E00E94C2
:1019A000F2618B819C8106969C838B83E2CF0E949F
:1019B0005DD59B01AC018D859E85AF85B889790188
:1019C0008A01E81AF90A0A0B1B0BD801C701898B97
:1019D0009A8BAB8BBC8B60E070E088EC95E00E944A
:1019E00076438D819E8101979C878B871A86198605
:1019F0008F81988501979C838B830E945DD5DC0144
:101A0000CB018D879E87AF87B88B1A821982298177
:101A10003A818D819E8128173907BCF4ED89FE89B2
:101A20006B817C8129813A8149855A858B859C858A
:101A30007F018B01BC0188EC95E00E94F2618981F5
:101A40009A8106969A838983E2CF1A8219821C8230
:101A50001B822B813C818F81988528173907BCF424
:101A6000ED89FE896B817C8129813A8149855A857E
:101A70008B859C857F018B01BC0188EC95E00E94E1
:101A8000F2618B819C8106969C838B83E2CF0E94BE
:101A90005DD59B01AC018D859E85AF85B8897901A7
:101AA0008A01E81AF90A0A0B1B0BD801C701298918
:101AB0003A894B895C89820F931FA41FB51F898BBC
:101AC0009A8BAB8BBC8B60E070E088EC95E00E9459
:101AD00076431C861B868F81988501979A87898714
:101AE0001C821B820E945DD5DC01CB018D879E8705
:101AF000AF87B88B1A82198229813A818D819E81A4
:101B000028173907BCF4ED89FE896B817C81298116
:101B10003A8149855A858B859C857F018B01BC0163
:101B200088EC95E00E94F26189819A8106969A83F9
:101B30008983E2CF8D819E8101979A8389831C825C
:101B40001B822B813C818F81988528173907BCF433
:101B5000ED89FE896B817C8129813A8149855A858D
:101B60008B859C857F018B01BC0188EC95E00E94F0
:101B7000F2618B819C8106969C838B83E2CF0E94CD
:101B80005DD59B01AC018D859E85AF85B8897901B6
:101B90008A01E81AF90A0A0B1B0BD801C701298927
:101BA0003A894B895C89820F931FA41FB51F898BCB
:101BB0009A8BAB8BBC8B60E070E088EC95E00E9468
:101BC00076438D819E8101979C878B878F81988535
:101BD00001979A8789871C821B820E945DD5DC0150
:101BE000CB018D879E87AF87B88B1A821982298196
:101BF0003A818D819E8128173907BCF4ED89FE89D1
:101C00006B817C8129813A8149855A858B859C85A8
:101C10007F018B01BC0188EC95E00E94F261898113
:101C20009A8106969A838983E2CF1A8219821C824E
:101C30001B822B813C818F81988528173907BCF442
:101C4000ED89FE896B817C8129813A8149855A859C
:101C50008B859C857F018B01BC0188EC95E00E94FF
:101C6000F2618B819C8106969C838B83E2CF0E94DC
:101C70005DD59B01AC018D859E85AF85B8897901C5
:101C80008A01E81AF90A0A0B1B0BD801C701BC012B
:101C9000CD0166960FB6F894DEBF0FBECDBFDF91C3
:101CA000CF911F910F91FF90EF900895EF92FF92C7
:101CB0000F931F93CF93DF93CDB7DEB760970FB627
:101CC000F894DEBF0FBECDBF9E878D87788B6F8760
:101CD00088EC95E09BDA9E838D8388EC95E0A8DA0A
:101CE00098878F8360E070E088EC95E00E947643EF
:101CF0000E945DD5DC01CB0189879A87AB87BC87C1
:101D00001C821B822B813C818F8198852817390783
:101D1000A4F44D855E852D813E818B819C818A0155
:101D2000AC0160E070E088EC95E00E94FD408B81A2
:101D30009C8105969C838B83E5CF1A821982298129
:101D40003A818D819E8128173907A4F44F855889DF
:101D50002F81388589819A818A0140E050E0BC0159
:101D600088EC95E00E94B84189819A8105969A8312
:101D70008983E5CF0E945DD59B01AC0189859A8559
:101D8000AB85BC8579018A01E81AF90A0A0B1B0B9D
:101D9000D801C701BC01CD0160960FB6F894DEBF33
:101DA0000FBECDBFDF91CF911F910F91FF90EF90AC
:101DB0000895EF92FF920F931F93CF93DF93CDB7C8
:101DC000DEB760970FB6F894DEBF0FBECDBF988B1D
:101DD0008F8788EC95E01ADA99230CF40196959593
:101DE00087959C838B8388EC95E022DA99230CF409
:101DF0000196959587959E838D8360E070E088ECD1
:101E000095E00E94764388EC95E000DA8C0188EC3E
:101E100095E00EDA0817190724F488EC95E0F6D956
:101E200003C088EC95E004DA98878F830E945DD523
:101E3000DC01CB0189879A87AB87BC8782E090E081
:101E40009A83898329813A818F8198852817390758
:101E50005CF589819A8199230CF401969595879573
:101E60009E878D872D813E818D859E85A901481B8A
:101E7000590B2B813C818D859E857901E81AF90AE1
:101E8000C701EF85F88969817A8129813A817F01CB
:101E90008B01BC0188EC95E00E94BF6789819A8123
:101EA00006969A838983CECF0E945DD59B01AC01B3
:101EB00089859A85AB85BC8579018A01E81AF90A7A
:101EC0000A0B1B0BD801C701BC01CD0160960FB6F0
:101ED000F894DEBF0FBECDBFDF91CF911F910F9160
:101EE000FF90EF900895EF92FF920F931F93CF937F
:101EF000DF93CDB7DEB766970FB6F894DEBF0FBE9F
:101F0000CDBF9C8B8B8B7E8B6D8B19821A821B8233
:101F10001C8288EC95E07AD999230CF4019695956A
:101F20008795019798878F8388EC95E081D99923CD
:101F30000CF401969595879501979A87898760E0BB
:101F400070E088EC95E00E94764388EC95E05ED9DD
:101F50008C0188EC95E06CD90817190724F488ECFB
:101F600095E054D903C088EC95E062D99C878B87B3
:101F70008B859C859E838D838D819E811816190685
:101F80000CF06BC08D819E8199230CF40196959580
:101F900087959E878D870E945DD5DC01CB018F8759
:101FA000988BA98BBA8B29853A858D859E85A90149
:101FB000481B590B2F8138858D859E857901E81A3C
:101FC000F90AC701EB89FC896D817E812D813E81F3
:101FD0007F018B01BC0188EC95E00E9473420E9456
:101FE0005DD59B01AC018F859889A989BA89790152
:101FF0008A01E81AF90A0A0B1B0BD801C7012981CB
:102000003A814B815C81820F931FA41FB51F898386
:102010009A83AB83BC8329853A858D859E85A901EA
:10202000481B590B2F8138858D859E858901081B9A
:10203000190BC801ED89FE896D817E812D813E815C
:102040007F018B01BC0188EC95E00E94BF678D8108
:102050009E8106979E838D838FCF89819A81AB81E4
:10206000BC81BC01CD0166960FB6F894DEBF0FBEF1
:10207000CDBFDF91CF911F910F91FF90EF90089509
:10208000EF92FF920F931F93CF93DF93CDB7DEB7FD
:1020900061970FB6F894DEBF0FBECDBF8F87798BE7
:1020A000688B88EC95E0B2D89E838D8388EC95E0B0
:1020B000BFD898878F838F85882F90E0880F991FCE
:1020C0009A87898760E070E088EC95E00E9476430B
:1020D0000E945DD5DC01CB018B879C87AD87BE87D5
:1020E0008F85882F90E09A83898329813A818D8119
:1020F0009E81281739076CF58F85882F90E09C8387
:102100008B832B813C818F81988528173907C4F4F4
:102110008F85282F30E0688979894B815C8189819E
:102120009A818B01BC0188EC95E00E94F3652B81BC
:102130003C8189859A85820F931F9C838B83E1CF95
:1021400029813A8189859A85820F931F9A83898391
:10215000CCCF0E945DD59B01AC018B859C85AD8564
:10216000BE8579018A01E81AF90A0A0B1B0BD8010E
:10217000C701BC01CD0161960FB6F894DEBF0FBE5A
:10218000CDBFDF91CF911F910F91FF90EF900895F8
:10219000EF92FF920F931F93CF93DF93CDB7DEB7EC
:1021A00061970FB6F894DEBF0FBECDBF8F87798BD6
:1021B000688B8F85882F90E0880F991F9E838D8371
:1021C00088EC95E023D89C018F85882F90E0820FC2
:1021D000931F98878F8388EC95E02AD89C018F8580
:1021E000882F90E0820F931F9A8789870E945DD580
:1021F000DC01CB018B879C87AD87BE871A82198251
:1022000029813A818F8198852817390754F51C82D6
:102210001B822B813C8189859A8528173907C4F454
:102220008F85282F30E0688979894B815C8189818D
:102230009A818B01BC0188EC95E00E94BD622B81E4
:102240003C818D819E81820F931F9C838B83E1CF84
:1022500029813A818D819E81820F931F9A83898380
:10226000CFCF0E945DD59B01AC018B859C85AD8550
:10227000BE8579018A01E81AF90A0A0B1B0BD801FD
:10228000C701BC01CD0161960FB6F894DEBF0FBE49
:10229000CDBFDF91CF911F910F91FF90EF900895E7
:1022A000AF92BF92CF92DF92EF92FF920F931F9364
:1022B000CF93DF93CDB7DEB72C970FB6F894DEBF80
:1022C0000FBECDBF88EC95E00E94060999230CF45F
:1022D00001969595879501979C838B8388EC95E073
:1022E0000E94180999230CF40196959587950197FA
:1022F0009E838D8360E070E088EC95E00E947643D9
:102300002B813C818D819E81281739071CF48B819C
:102310009C8102C08D819E8198878F830E945DD5AC
:10232000DC01CB0189879A87AB87BC871A82198227
:1023300029813A818F819885281739070CF03EC092
:102340008981282F40E060E088EC95E00E948A5A5D
:102350007C012D813E8189819A818901080F191F95
:102360002B813C8189819A81D901A80FB91F2D81C8
:102370003E8189819A81F901E80FF91F2B813C8107
:1023800089819A81B901681B790B2D813E818981F0
:102390009A81A901481B590B8B819C8157016801C7
:1023A0007D018F019B01BC0188EC95E00E94BD6A14
:1023B00089819A8105969A838983BACF0E945DD5D7
:1023C0009B01AC0189859A85AB85BC8579018A0121
:1023D000E81AF90A0A0B1B0BD801C701BC01CD0191
:1023E0002C960FB6F894DEBF0FBECDBFDF91CF9114
:1023F0001F910F91FF90EF90DF90CF90BF90AF9023
:102400000895AF92BF92CF92DF92EF92FF920F9317
:102410001F93CF93DF93CDB7DEB72E970FB6F89407
:10242000DEBF0FBECDBF19821A821B821C8288ECD0
:1024300095E00E94060999230CF4019695958795DD
:10244000019798878F8388EC95E00E94180999235B
:102450000CF401969595879501979A87898760E096
:1024600070E088EC95E00E9476430E945DD5DC0127
:10247000CB018B879C87AD87BE872F813885898567
:102480009A85281739071CF48F81988502C08985A1
:102490009A859E838D838D819E810B970CF49CC0C1
:1024A0000E945DD5DC01CB018B879C87AD87BE8701
:1024B0009D818D81292F482F60E088EC95E00E9456
:1024C0008A5A7C0129853A858D819E818901080F70
:1024D000191F2F8138858D819E81D901A80FB91FC1
:1024E00029853A858D819E81F901E80FF91F2F8199
:1024F00038858D819E81B901681B790B29853A85C4
:102500008D819E81A901481B590B8F8198855701A8
:1025100068017D018F019B01BC0188EC95E00E9460
:10252000386B0E945DD59B01AC018B859C85AD8588
:10253000BE8579018A01E81AF90A0A0B1B0BD8013A
:10254000C70129813A814B815C81820F931FA41FAF
:10255000B51F89839A83AB83BC839D818D8120E0E5
:10256000492F682F88EC95E00E948A5A7C012985C2
:102570003A858D819E818901080F191F2F81388529
:102580008D819E81D901A80FB91F29853A858D813A
:102590009E81F901E80FF91F2F8138858D819E8179
:1025A000B901681B790B29853A858D819E81A90126
:1025B000481B590B8F819885570168017D018F0158
:1025C0009B01BC0188EC95E00E94BD6A8D819E81D3
:1025D00005979E838D835FCF89819A81AB81BC8172
:1025E000BC01CD012E960FB6F894DEBF0FBECDBF55
:1025F000DF91CF911F910F91FF90EF90DF90CF90DF
:10260000BF90AF900895CF92DF92EF92FF920F9319
:102610001F93CF93DF93CDB7DEB72E970FB6F89405
:10262000DEBF0FBECDBF88EC95E00E94060999235E
:102630000CF401969595879501979C838B8388EC84
:1026400095E00E94180999230CF4019695958795B9
:1026500001979E838D8360E070E088EC95E00E9496
:10266000764388EC95E00E9406098C0188EC95E0A1
:102670000E941809081719072CF488EC95E00E94AD
:10268000060904C088EC95E00E94180998878F839A
:102690000E945DD5DC01CB0189879A87AB87BC8717
:1026A0001A82198229813A818F81988528173907E2
:1026B0000CF03FC089819A8199230CF4019695957D
:1026C00087959E878D87898120E040E0682F88EC80
:1026D00095E00E948A5ADC0189819A8199230CF441
:1026E0000796959587959595879595958795FC017E
:1026F0002D813E818D859E85A901481B590B2B811B
:102700003C818D859E857901E81AF90AC7016981A6
:102710007A8129813A816D017F018B01BC0188ECAE
:1027200095E00E94626889819A8106969A838983DE
:10273000B9CF0E945DD59B01AC0189859A85AB8597
:10274000BC8579018A01E81AF90A0A0B1B0BD8012A
:10275000C701BC01CD012E960FB6F894DEBF0FBEA7
:10276000CDBFDF91CF911F910F91FF90EF90DF9040
:10277000CF900895CF92DF92EF92FF920F931F9325
:10278000CF93DF93CDB7DEB72C970FB6F894DEBFAB
:102790000FBECDBF88EC95E00E94060999230CF48A
:1027A00001969595879501979C838B8388EC95E09E
:1027B0000E94180999230CF4019695958795019725
:1027C0009E838D8360E070E088EC95E00E94764304
:1027D0000E945DD5DC01CB018F839887A987BA87DA
:1027E00088EC95E00E9406098C0188EC95E00E9437
:1027F0001809081719072CF488EC95E00E940609BF
:1028000004C088EC95E00E9418099A838983898125
:102810009A8145970CF43FC089819A8199230CF4E1
:102820000196959587959C878B87898120E0482F15
:1028300060E088EC95E00E948A5ADC0189819A81E7
:1028400099230CF407969595879595958795959579
:102850008795FC012D813E818B859C85A901481BB4
:10286000590B2B813C818B859C857901E81AF90AEB
:10287000C70169817A8129813A816D017F018B01CC
:10288000BC0188EC95E00E94DE6989819A810697F7
:102890009A838983BCCF0E945DD59B01AC018F8157
:1028A0009885A985BA8579018A01E81AF90A0A0B7F
:1028B0001B0BD801C701BC01CD012C960FB6F894B3
:1028C000DEBF0FBECDBFDF91CF911F910F91FF9063
:1028D000EF90DF90CF900895EF920F93CF93DF9317
:1028E00000D01F92CDB7DEB79A8389837C836B8338
:1028F00089819A81019781F48B819C81019661F491
:102900000F2EFAE3EF2EF02D06E327E348E369E309
:1029100088EC95E00E9494210F900F900F900F90FB
:10292000DF91CF910F91EF900895CF93DF93CDB7C3
:10293000DEB76FEF7FEF81E090E0CEDFDF91CF91E8
:102940000895CF93DF93CDB7DEB71092F50581E000
:102950008093F7051092F80584E161E00E94BAD8EF
:1029600085E161E00E94BAD889EB90E0FC0120810A
:1029700089EB90E02E7FFC01208389EB90E0FC0145
:10298000208189EB90E02D7FFC01208388EB90E093
:1029900028E4FC0120838CEB90E025E4FC012083FB
:1029A000DF91CF910895CF93DF93CDB7DEB78CEB56
:1029B00090E0FC0120818CEB90E02A7BFC012083DD
:1029C00084E160E00E94BAD885E160E00E94BAD854
:1029D000DF91CF910895CF93DF931F92CDB7DEB7EC
:1029E00089838AEB90E02981220FFC0120830F90DC
:1029F000DF91CF910895CF93DF9300D01F92CDB791
:102A0000DEB769837A838B839C8380E094E2A4EFB2
:102A1000B0E029813A814B815C81BC01CD010E94EB
:102A2000D9DBDA01C9014097A109B109B695A7958B
:102A30009795879528EB30E0F90180830F900F90F0
:102A40000F900F90DF91CF910895CF93DF9300D037
:102A500000D000D01F92CDB7DEB78E8378876F830A
:102A600049872A878985813210F080E001C10E9460
:102A70005DD5DC01CB018A839B83AC83BD832AC0F7
:102A80008091F9059091FA05A091FB05B091FC05A4
:102A9000892B8A2B8B2BF1F00E945DD59B01AC0119
:102AA0008A819B81AC81BD81281B390B4A0B5B0B52
:102AB0008091F9059091FA05A091FB05B091FC0574
:102AC00082179307A407B50728F48091FE051ED44A
:102AD00080E0CEC08091F505882391F681E0809357
:102AE000F5058A858093F7058FEF8093680610922D
:102AF0002306898581508093240681E08093F60522
:102B00008E81882F90E0880F991F982F8091F6056D
:102B1000892B8093F6058091F805813009F04AC031
:102B20001092F8050E945DD5DC01CB018A839B835E
:102B3000AC83BD838BEB90E02091F605FC012083F4
:102B40008091F9059091FA05A091FB05B091FC05E3
:102B5000892B8A2B8B2BF1F00E945DD59B01AC0158
:102B60008A819B81AC81BD81281B390B4A0B5B0B91
:102B70008091F9059091FA05A091FB05B091FC05B3
:102B800082179307A407B50728F48091FE05BED3EA
:102B900080E06EC08CEB90E0FC018081882F90E09B
:102BA00088709927892B31F68CEB90E025ECFC019D
:102BB000208305C08CEB90E025EEFC0120830E9471
:102BC0005DD5DC01CB018A839B83AC83BD832AC0A6
:102BD0008091F9059091FA05A091FB05B091FC0553
:102BE000892B8A2B8B2BF1F00E945DD59B01AC01C8
:102BF0008A819B81AC81BD81281B390B4A0B5B0B01
:102C00008091F9059091FA05A091FB05B091FC0522
:102C100082179307A407B50728F48091FE0576D3A1
:102C200080E026C08091F505813091F280912306E5
:102C30009985891718F4809123068987198213C012
:102C40008981282F30E08981882F90E04F81588535
:102C5000840F951F2D5F394FF9012081FC012083DE
:102C600089818F5F898399818985981748F3898540
:102C70002A960FB6F894DEBF0FBECDBFDF91CF917D
:102C800008950F93CF93DF9300D000D000D01F9210
:102C90001F92CDB7DEB78E8378876F8349872A87E7
:102CA0000B878985813210F081E00CC10E945DD5CF
:102CB000DC01CB018A839B83AC83BD832AC08091D6
:102CC000F9059091FA05A091FB05B091FC05892BBF
:102CD0008A2B8B2BF1F00E945DD59B01AC018A8180
:102CE0009B81AC81BD81281B390B4A0B5B0B80910A
:102CF000F9059091FA05A091FB05B091FC058217AA
:102D00009307A407B50728F48091FE05FFD285E05C
:102D1000D9C08091F505882391F682E08093F5056E
:102D20008B858093F7058FEF8093680610922306BA
:102D3000898580932406198213C08981882F90E0A9
:102D40002F813885280F391F8981882F90E0F9015C
:102D500020818D5F994FFC01208389818F5F89835A
:102D600099818985981748F31092F6058E81882FEE
:102D700090E0880F991F982F8091F605892B8093FA
:102D8000F6058091F805813009F04AC01092F805E7
:102D90000E945DD5DC01CB018A839B83AC83BD831C
:102DA0008BEB90E02091F605FC0120838091F905E2
:102DB0009091FA05A091FB05B091FC05892B8A2B17
:102DC0008B2BF1F00E945DD59B01AC018A819B8128
:102DD000AC81BD81281B390B4A0B5B0B8091F90537
:102DE0009091FA05A091FB05B091FC05821793071D
:102DF000A407B50728F48091FE0588D285E062C05B
:102E00008CEB90E0FC018081882F90E088709927FE
:102E1000892B31F68CEB90E025ECFC01208305C07A
:102E20008CEB90E025EEFC0120830E945DD5DC0157
:102E3000CB018A839B83AC83BD832AC08091F90533
:102E40009091FA05A091FB05B091FC05892B8A2B86
:102E50008B2BF1F00E945DD59B01AC018A819B8197
:102E6000AC81BD81281B390B4A0B5B0B8091F905A6
:102E70009091FA05A091FB05B091FC05821793078C
:102E8000A407B50728F48091FE0540D285E01AC05A
:102E90008A85882321F08091F505823079F280912E
:102EA00068068F3F11F480E00DC080916806803283
:102EB00011F482E007C080916806803311F483E04A
:102EC00001C084E02B960FB6F894DEBF0FBECDBFD5
:102ED000DF91CF910F910895CF93DF9300D01F9290
:102EE000CDB7DEB79B838A836C8380914606282FFB
:102EF00030E08C81882F90E0820F931F819714F02F
:102F000081E02CC08091F505843011F082E026C06C
:102F1000198219C08981882F90E02A813B81280F6E
:102F2000391F80914606482F50E08981882F90E014
:102F3000840F951FF90120818B5D994FFC0120833F
:102F400089818F5F898399818C81981718F390917B
:102F500046068C81890F8093460680E00F900F9083
:102F60000F900F90DF91CF910895CF93DF931F9231
:102F70001F92CDB7DEB79A83898389819A81909316
:102F80000206809301060F900F90DF91CF91089574
:102F9000CF93DF931F921F92CDB7DEB79A838983B9
:102FA00089819A81909300068093FF050F900F907E
:102FB000DF91CF910895CF93DF931F92CDB7DEB706
:102FC00089838981882331F08CEB90E025ECFC012A
:102FD000208305C08CEB90E025E8FC0120830F9056
:102FE000DF91CF910895CF93DF93CDB7DEB7A5974B
:102FF0000FB6F894DEBF0FBECDBF8CEB90E025ED91
:10300000FC01208388E08D838D81282F30E040E013
:1030100050E08091F9059091FA05A091FB05B091DF
:10302000FC05820F931FA41FB51F0197A109B109C9
:103030002D81222F30E040E050E0BC01CD010E9404
:10304000D9DBDA01C90189839A83AB83BC8315C1BB
:103050008091F9059091FA05A091FB05B091FC05CE
:10306000892B8A2B8B2B09F408C189819A81AB812A
:10307000BC81892B8A2B8B2B09F4FBC080E090E06C
:10308000A0E2B1E48E839F83A887B9872BEA3AEA4E
:103090004AEA50E46E817F81888599850E9463DBCE
:1030A000DC01CB018A879B87AC87BD8720E030E0BD
:1030B00040E850E46E817F81888599850E9463DBBA
:1030C000DC01CB018E879F87A88BB98B20E030E095
:1030D00040E85FE36A857B858C859D850E9415DAD3
:1030E00088231CF481E08A8BB2C020E03FEF4FE7D9
:1030F00057E46E857F85888999890E945FDB181661
:103100000CF07BC020E030E04AE754E46E817F8120
:10311000888599850E9419DADC01CB018B8B9C8B09
:10312000AD8BBE8B20E030E04AE755E46B897C89AB
:103130008D899E890E9463DBDC01CB018F8B988F88
:10314000A98FBA8F20E030E040E85FE36F89788D87
:10315000898D9A8D0E9415DA88232CF481E090E005
:103160009C8F8B8F3FC020E03FEF4FE757E46F8984
:10317000788D898D9A8D0E945FDB18164CF520E0C2
:1031800030E040E251E46B897C898D899E890E9400
:1031900063DBDC01CB01BC01CD010E9481DADC01E3
:1031A000CB019C8F8B8F0FC080E991E09E8F8D8F1C
:1031B0008D8D9E8D0197F1F79E8F8D8F8B8D9C8DC0
:1031C00001979C8F8B8F8B8D9C8D892B69F73FC0CE
:1031D0006F89788D898D9A8D0E9481DADC01CB010F
:1031E0009C8F8B8F8B8D9C8D98A38F8F8F8D98A1AB
:1031F0000197F1F798A38F8F2AC020E030E04FE7C6
:1032000053E46A857B858C859D850E945FDB18165B
:10321000ACF46E857F85888999890E9481DADC010A
:10322000CB019AA389A389A19AA19CA38BA38BA16B
:103230009CA10197F1F79CA38BA30FC06A857B85A6
:103240008C859D850E9481DADC01CB018A8B8A897D
:103250008DA38DA18A95F1F78DA389819A81AB8188
:10326000BC810197A109B10989839A83AB83BC838F
:1032700004C08091FE054AD00DC08CEB90E0FC01AB
:103280008081882F90E080719927892B09F0E0CE0A
:103290001092F505A5960FB6F894DEBF0FBECDBF10
:1032A000DF91CF910895CF93DF93CDB7DEB78CEB4D
:1032B00090E025ECFC0120831092F505DF91CF9181
:1032C0000895CF93DF9300D01F921F92CDB7DEB742
:1032D00069837A838B839C834D831092FD0589815A
:1032E0009A81AB81BC818093F9059093FA05A093F4
:1032F000FB05B093FC058D818093FE050F900F9028
:103300000F900F900F90DF91CF910895CF93DF939F
:1033100000D0CDB7DEB78B8381E08093FD058B8134
:103320008823B1F088EB90E0FC01808189838AEBEF
:1033300090E0FC0180818A8336DB03DB8AEB90E03E
:103340002A81FC01208388EB90E02981FC01208305
:103350000F900F900F90DF91CF910895CF93DF934F
:103360001F921F92CDB7DEB78A838091FD058983B6
:103370008A81882311F01092FD0589810F900F90AA
:10338000DF91CF9108951F920F920FB60F921124E3
:103390000BB60F922F933F934F935F936F937F934F
:1033A0008F939F93AF93BF93EF93FF93CF93DF934D
:1033B000CDB7DEB789EB90E0FC018081882F90E0EB
:1033C000887F9927092E000CAA0BBB0B893F91051A
:1033D000A105B10508F0FDC1FC018827ED50F64EAE
:1033E0008F4F0C9417DCE61BE91BE91BE91BE91B5B
:1033F000E91BE91BE91BEC1AE91BE91BE91BE91BAB
:10340000E91BE91BE91BEC1AE91BE91BE91BE91B9A
:10341000E91BE91BE91BF51AE91BE91BE91BE91B81
:10342000E91BE91BE91B1F1BE91BE91BE91BE91B46
:10343000E91BE91BE91BF51AE91BE91BE91BE91B61
:10344000E91BE91BE91B241BE91BE91BE91BE91B21
:10345000E91BE91BE91B291BE91BE91BE91BE91B0C
:10346000E91BE91BE91B3E1BE91BE91BE91BE91BE7
:10347000E91BE91BE91B6B1BE91BE91BE91BE91BAA
:10348000E91BE91BE91B2E1BE91BE91BE91BE91BD7
:10349000E91BE91BE91B4A1BE91BE91BE91BE91BAB
:1034A000E91BE91BE91B6D1BE91BE91BE91BE91B78
:1034B000E91BE91BE91B6D1BE91BE91BE91BE91B68
:1034C000E91BE91BE91B6D1BE91BE91BE91BE91B58
:1034D000E91BE91BE91B6D1BE91BE91BE91BE91B48
:1034E000E91BE91BE91B751BE91BE91BE91BE91B30
:1034F000E91BE91BE91BAC1BE91BE91BE91BE91BE9
:10350000E91BE91BE91B751BE91BE91BE91BE91B0F
:10351000E91BE91BE91BAC1BE91BE91BE91BE91BC8
:10352000E91BE91BE91B8F1BE91BE91BE91BE91BD5
:10353000E91BE91BE91BAF1BE91BE91BE91BE91BA5
:10354000E91BE91BE91BAF1BE91BE91BE91BE91B95
:10355000E91BE91BE91BC51BE91BE91BE91BE91B6F
:10356000E91BE91BE91BE11BE91BE91BE91BE91B43
:10357000E91BE91BE91BE11BE91BE91BE91BE91B33
:10358000E91BE91BE91BE91BE91BE91BE91BE91B1B
:10359000E91BE91BE91BE91BE91BE91BE91BE91B0B
:1035A000E91BE91BE91BE91BE91BE91BE91BE91BFB
:1035B000E91BE91BE91BE91BE91BE91BE91BE91BEB
:1035C000E91BE91BE91BE91BE91BE91BE91BE91BDB
:1035D000E91BE91BE91BE91B8BEB90E02091F60549
:1035E000FC01208381E0E7DCF4C090912306809108
:1035F0002406981798F48091230691E0980F9093F1
:103600002306282F30E08BEB90E02D5F394FF90136
:103610002081FC01208381E0CEDCDBC08091F705B6
:10362000882311F0E0DCD5C081E08093F8058CEBB5
:1036300090E024EAFC0120831092F505CAC080E2E4
:1036400080936806D0DCC5C080E380936806CBDC3D
:10365000C0C088E38093680626DEBBC02BEB30E059
:103660008091230691E0980F90932306882F90E095
:10367000F90120818D5F994FFC01208390912306F1
:1036800080912406981718F481E095DCA2C080E0B0
:1036900092DC9FC02BEB30E08091230691E0980FE5
:1036A00090932306882F90E0F90120818D5F994F38
:1036B000FC0120838091F705882311F094DC89C0F8
:1036C00081E08093F8058CEB90E024EAFC012083F4
:1036D0001092F5057EC087DC7CC083E08093F50501
:1036E0001092670681E067DC74C0809167068032C3
:1036F00098F42BEB30E08091670691E0980F90935F
:103700006706882F90E0F9012081895B994FFC01C1
:10371000208381E050DC5DC080E04DDC5AC0C3DD19
:1037200080916706803240F480916706882F90E090
:10373000895B994FFC0110822091010630910206AD
:1037400080916706882F90E0BC0187E496E0F9013C
:103750001995109267063DC080E02DDC3AC084E0E8
:103760008093F50510924506109246068091FF055C
:1037700090910006FC01199580914606882329F452
:1037800081E080934606109225068091450691E0DF
:10379000980F90934506282F30E08BEB90E02B5D3F
:1037A000394FF9012081FC012083909145068091D9
:1037B0004606981718F481E0FEDB0BC080E0FBDBC7
:1037C00008C081E0F8DB1092F50503C0109268068E
:1037D0000ADCDF91CF91FF91EF91BF91AF919F9163
:1037E0008F917F916F915F914F913F912F910F90AA
:1037F0000BBE0F900FBE0F901F901895CF93DF93C5
:1038000000D01F92CDB7DEB79A8389837C836B8308
:1038100089819A812B813C81FC01338322830F9023
:103820000F900F900F90DF91CF910895CF93DF937A
:103830001F921F92CDB7DEB79A83898328E934E0BF
:1038400089819A81FC013183208389819A81FC01DD
:10385000138212820F900F90DF91CF910895CF9332
:10386000DF931F921F92CDB7DEB79A83898380E0E2
:1038700090E00F900F90DF91CF910895CF93DF9359
:103880001F921F92CDB7DEB79A8389830F900F9056
:10389000DF91CF910895CF93DF931F921F92CDB701
:1038A000DEB79A83898389819A81C0DF28E432E078
:1038B00089819A81FC013183208329813A8188EEB4
:1038C00093E0A0E0B0E0F90184839583A683B783F9
:1038D0000F900F90DF91CF910895CF93DF931F92B8
:1038E0001F92CDB7DEB79A83898389819A81D3DF0E
:1038F00026E332E089819A81FC01318320830F9095
:103900000F90DF91CF910895CF93DF931F921F9275
:10391000CDB7DEB79A8389831092890610928A0602
:103920001092AC061092AD060CD881EC9FE130DB12
:1039300088E79FE11ADB0F900F90DF91CF910895F8
:10394000CF93DF9300D0CDB7DEB79A8389836B83A3
:1039500089819A81D9DF8B813ED80F900F900F908B
:10396000DF91CF910895CF93DF9300D01F92CDB711
:10397000DEB79A8389837C836B832B8189819A81CB
:10398000622FDEDF0F900F900F900F90DF91CF919D
:103990000895CF93DF931F921F92CDB7DEB79A831E
:1039A000898301D80F900F90DF91CF910895CF9325
:1039B000DF9300D000D0CDB7DEB79A8389834B83E5
:1039C0005C836D837E838B819C81AD81BE81BC01D4
:1039D000CD0111D826960FB6F894DEBF0FBECDBF2D
:1039E000DF91CF910895CF93DF9300D000D01F9245
:1039F000CDB7DEB79A8389834B835C836D837E83E7
:103A00002F838B819C81AD81BE814F81BC01CD0113
:103A100058DC27960FB6F894DEBF0FBECDBFDF91FE
:103A2000CF910895CF93DF931F921F92CDB7DEB74A
:103A30009A83898380E092DC0F900F90DF91CF9181
:103A40000895CF93DF931F921F92CDB7DEB79A836D
:103A5000898381E083DC0F900F90DF91CF910895EF
:103A6000CF92EF920F931F93CF93DF9300D000D0AC
:103A700000D01F921F92CDB7DEB79B838A836C83E1
:103A80004D830E831F8328873987EA86CB868A85F4
:103A90008823D9F18A819B816C81D0D08A8584303A
:103AA00010F083E08A878A859FEF980F9A8791E0CC
:103AB000882309F490E0992321F18A819B81FC01FC
:103AC00080819181FC01208131818A85882F90E05D
:103AD000AC01440F551F440F551F440F551F8E81D5
:103AE0009F81A885B98504C0B695A79597958795B8
:103AF0004A95D2F7482F8A819B81642FF901199545
:103B0000D2CF8A819B8160E0C7D08D81813210F055
:103B100080E28D832B854D8169E676E08C810E9461
:103B20002515898310928906898180938A06898167
:103B30002B960FB6F894DEBF0FBECDBFDF91CF91AD
:103B40001F910F91EF90CF900895CF92EF920F9326
:103B50001F93CF93DF9300D01F921F92CDB7DEB794
:103B60009A8389836B834C832D8389819A81CD804D
:103B7000E12C00E010E098014C816B8171DF0F9027
:103B80000F900F900F900F90DF91CF911F910F9199
:103B9000EF90CF900895CF93DF9300D01F92CDB7D1
:103BA000DEB79A8389836B834C8389819A8121E074
:103BB0004C816B81CADF0F900F900F900F90DF91B7
:103BC000CF910895CF93DF9300D000D0CDB7DEB76B
:103BD0009A8389837C836B835E834D834D813B8194
:103BE00089819A8121E0632FB0DF26960FB6F89481
:103BF000DEBF0FBECDBFDF91CF910895CF93DF938E
:103C000000D000D01F921F92CDB7DEB79A83898370
:103C10007C836B835E834D8338872F832F814D8117
:103C20003B8189819A81632F90DF28960FB6F894A3
:103C3000DEBF0FBECDBFDF91CF910895CF93DF934D
:103C400000D0CDB7DEB79A8389836B8381E0809300
:103C5000AE068B8180938B061092AC061092AD0657
:103C60000F900F900F90DF91CF910895CF93DF9336
:103C700000D01F92CDB7DEB79A8389837C836B8394
:103C80002B8189819A81622FD9DF0F900F900F903D
:103C90000F90DF91CF9108950F93CF93DF9300D0D2
:103CA0001F92CDB7DEB79B838A836C839091AD065C
:103CB00080918B060C8121E0492F6CE876E00E9410
:103CC000411689831092AC061092AD061092AE0692
:103CD00089810F900F900F900F90DF91CF910F91EE
:103CE0000895CF93DF931F921F92CDB7DEB79A83CB
:103CF000898389819A8161E0CFDF0F900F90DF91F6
:103D0000CF910895CF93DF9300D0CDB7DEB79A83DC
:103D100089836B838091AE068823F9F08091AD068C
:103D2000803240F089819A8161E070E067DD80E057
:103D300090E019C08091AC06882F90E02B818457C9
:103D4000994FFC0120838091AC068F5F8093AC0675
:103D50008091AC068093AD0604C0CE01039661E06D
:103D6000BBD881E090E00F900F900F90DF91CF9142
:103D70000895CF93DF9300D000D01F921F92CDB74C
:103D8000DEB79C838B837E836D8358874F838091BE
:103D9000AE06882321F11A82198229813A818F8106
:103DA00098852817390700F58B819C81FC0180815B
:103DB0009181FC01208131814D815E8189819A81CF
:103DC000840F951FFC0140818B819C81642FF90138
:103DD000199589819A8101969A838983DECF2F81F3
:103DE0008D819E81622F78D88F81988528960FB615
:103DF000F894DEBF0FBECDBFDF91CF910895CF9372
:103E0000DF931F921F92CDB7DEB79A83898380918B
:103E10008A06282F30E080918906882F90E0A9013A
:103E2000481B590BCA010F900F90DF91CF91089555
:103E3000CF93DF9300D01F92CDB7DEB79C838B83E7
:103E40008FEF9FEF9A8389839091890680918A06EC
:103E5000981788F480918906882F90E08759994FA8
:103E6000FC018081882F90E09A8389838091890664
:103E70008F5F8093890689819A810F900F900F90B0
:103E80000F90DF91CF910895CF93DF9300D01F92D1
:103E9000CDB7DEB79C838B838FEF9FEF9A838983A7
:103EA0009091890680918A06981760F4809189061E
:103EB000882F90E08759994FFC018081882F90E0EE
:103EC0009A83898389819A810F900F900F900F9028
:103ED000DF91CF910895CF93DF931F921F92CDB7BB
:103EE000DEB79A8389830F900F90DF91CF91089569
:103EF000CF93DF9300D01F921F92CDB7DEB79B8385
:103F00008A837D836C838091B1069091B206892B60
:103F100081F19091890680918A06981750F1198253
:103F20008981882F90E02C813D8182179307A4F42A
:103F30008981882F90E02A813B81280F391F898150
:103F4000882F90E0F90120818759994FFC01208347
:103F500089818F5F8983E4CF109289068C81809359
:103F60008A062091B1063091B2068C819D81F901BB
:103F700019950F900F900F900F900F90DF91CF91A8
:103F80000895CF93DF93CDB7DEB78091AF069091C0
:103F9000B006892B51F01092AC061092AD068091BC
:103FA000AF069091B006FC011995DF91CF9108956D
:103FB000CF93DF9300D01F92CDB7DEB79A8389836A
:103FC0007C836B838B819C819093B2068093B10636
:103FD0000F900F900F900F90DF91CF910895CF9396
:103FE000DF9300D01F92CDB7DEB79A8389837C839D
:103FF0006B838B819C819093B0068093AF060F906A
:104000000F900F900F90DF91CF910895CF93DF9392
:1040100000D01F92CDB7DEB79A8389837C836B83F0
:1040200089819A81019739F48B819C81019619F4D9
:1040300083EB96E052DC0F900F900F900F90DF9182
:10404000CF910895CF93DF93CDB7DEB76FEF7FEFBA
:1040500081E090E0DBDFDF91CF910895CF93DF9394
:10406000CDB7DEB72F970FB6F894DEBF0FBECDBF2A
:104070008FE590E0FC0180818983F8948091C006EF
:10408000882309F05BC087E390E19B838A838A8160
:104090009B81FC0184918C838C818D838DE790E1E1
:1040A0009F838E838E819F81FC0184918887888580
:1040B00089878D81882F90E0880F991F8C54904FAD
:1040C0009B878A878A859B85FC0125913491CF0146
:1040D0003D872C879B878A878C859D859F878E87C8
:1040E0008E859F85FC0190818985982381E09923A5
:1040F00009F080E0882321F061E085E30E94BAD8CE
:1041000061E085E30E9420D78CE490E0FC012081EF
:104110008CE490E02061FC0120838CE490E0FC01C1
:1041200020818CE490E02064FC01208361E084E342
:104130000E9420D761E083E30E9420D78091C006CF
:104140008F5F8093C0068FE590E02981FC0120837A
:104150002F960FB6F894DEBF0FBECDBFDF91CF9183
:104160000895CF93DF931F92CDB7DEB78FE590E030
:10417000FC0180818983F8948091C006882329F00E
:104180008091C00681508093C0068091C00688232C
:1041900059F48CE490E0FC0120818CE490E02F7BCA
:1041A000FC0120831092C1068FE590E02981FC017B
:1041B00020830F90DF91CF910895CF93DF9300D0AC
:1041C000CDB7DEB78B8319828FE590E0FC0180814B
:1041D0008A83F8948B81882F90E0092E000CAA0B1B
:1041E000BB0B88309105A105B10538F5FC01882786
:1041F000E350FF4D8F4F0C9417DC052108210B2154
:104200000E211121142117211A2180E1898318C060
:1042100080E2898315C081E0898312C082E08983AE
:104220000FC084E089830CC088E0898309C080E4E2
:10423000898306C080E8898303C082E08093C10639
:104240009091C2068981892B8093C2068091C10614
:10425000882319F481E08093C1068FE590E02A81DC
:10426000FC0120830F900F900F90DF91CF91089564
:10427000CF93DF9300D0CDB7DEB78B838091C1069B
:10428000823009F44BC019828FE590E0FC018081F7
:104290008A83F8948B81882F90E0092E000CAA0B5A
:1042A000BB0B88309105A105B10530F5FC018827CD
:1042B000E35AFE4D8F4F0C9417DC652168216B216A
:1042C0006E217121742177217A2180E1898314C0C4
:1042D00080E2898311C081E089830EC082E08983F6
:1042E0000BC084E0898308C088E0898305C080E42E
:1042F000898302C080E88983898180959091C20674
:1043000089238093C2068091C206882311F41092FB
:10431000C1068FE590E02A81FC0120830F900F9069
:104320000F90DF91CF910895EF920F93CF93DF938A
:10433000CDB7DEB7AF970FB6F894DEBF0FBECDBFD7
:104340009AA789A76BA74CA72DA70EA7EFA689A5AB
:104350009AA540E451E060EF70E00E941D5E26E8FF
:1043600032E089A59AA5FC013183208389A59AA50D
:104370002FA5FC0124A78BA5882F90E08E5F9F4E70
:104380009A83898389819A81FC0184918B838B81B3
:10439000882F90E0880F991F8253904F9D838C83C4
:1043A0008C819D81FC0125913491CF013F832E8327
:1043B0009D838C838E819F819C0189A59AA5FC0198
:1043C000358F248F8CA5882F90E08E5F9F4E998724
:1043D000888788859985FC0184918A878A85882FBA
:1043E00090E0880F991F8253904F9C878B878B8515
:1043F0009C85FC0125913491CF013E872D879C87B8
:104400008B878D859E859C0189A59AA5FC01378F98
:10441000268F8DA5882F90E08E5F9F4E988B8F877B
:104420008F859889FC018491898B8989882F90E0F8
:10443000880F991F8253904F9B8B8A8B8A899B8907
:10444000FC0125913491CF013D8B2C8B9B8B8A8B6A
:104450008C899D899C0189A59AA5FC0131A320A383
:104460008EA5882F90E08E5F9F4E9F8B8E8B8E89BE
:104470009F89FC018491888F888D882F90E0880F18
:10448000991F8253904F9A8F898F898D9A8DFC0145
:1044900025913491CF013C8F2B8F9A8F898F8B8DF3
:1044A0009C8D9C0189A59AA5FC0133A322A38BA511
:1044B000882F90E0885B9F4E9E8F8D8F8D8D9E8D77
:1044C000FC0184918F8F89A59AA52F8DFC0124A3CF
:1044D0008CA5882F90E0885B9F4E99A388A388A124
:1044E00099A1FC0184918AA389A59AA52AA1FC011E
:1044F00025A38DA5882F90E0885B9F4E9CA38BA35E
:104500008BA19CA1FC0184918DA389A59AA52DA1C5
:10451000FC0126A38EA5882F90E0885B9F4E9FA369
:104520008EA38EA19FA1FC01849188A789A59AA53D
:1045300028A5FC0127A389A59AA5FC0184A1282F01
:10454000209589A59AA5FC0120A789A59AA5FC011B
:1045500085A1282F209589A59AA5FC0121A789A5C9
:104560009AA5FC0186A1282F209589A59AA5FC0172
:1045700022A789A59AA5FC0187A1282F209589A5A6
:104580009AA5FC0123A789A59AA5FC01848D958D88
:10459000FC01308189A59AA5FC0124A189A59AA5D1
:1045A000FC01848D958D232BFC01208389A59AA580
:1045B000FC01868D978DFC01308189A59AA5FC01AF
:1045C00025A189A59AA5FC01868D978D232BFC0139
:1045D000208389A59AA5FC0180A191A1FC013081CD
:1045E00089A59AA5FC0126A189A59AA5FC0180A10F
:1045F00091A1232BFC01208389A59AA5FC0182A10E
:1046000093A1FC01308189A59AA5FC0127A189A568
:104610009AA5FC0182A193A1232BFC01208361E0D8
:104620008BA50E9420D761E08CA50E9420D761E075
:104630008DA50E9420D761E08EA50E9420D78FA56E
:10464000882341F061E08FA50E94BAD861E08FA570
:104650000E9420D789A59AA52AD0AF960FB6F894C4
:10466000DEBF0FBECDBFDF91CF910F91EF900895C8
:10467000CF93DF931F921F92CDB7DEB79A838983C2
:1046800089819A8140E451E060EF70E00E941D5EF4
:1046900026E832E089819A81FC0131832083898177
:1046A0009A8105D00F900F90DF91CF910895CF930D
:1046B000DF931F921F92CDB7DEB79A83898381E281
:1046C00090E02FEFFC01208389819A81FC01168AFA
:1046D00089819A81FC011586148689819A81FC0161
:1046E0002485358589819A81FC01378726878981D0
:1046F0009A812FEF3FEFFC01318B208B89819A81CA
:1047000020EF30E0FC013187208789819A8120E405
:1047100031E0FC01338722870F900F90DF91CF911A
:1047200008950F931F93CF93DF93CDB7DEB7AC9768
:104730000FB6F894DEBF0FBECDBF9AA789A77CA79E
:104740006BA7198289A59AA50E94DB2D68EC70E001
:1047500080E090E00E94BBD58BA59CA58532934953
:1047600031F08BA59CA58832934909F05FC189A5DA
:104770009AA5FC01138E89A59AA5FC01848D958DBF
:10478000FC01308189A59AA5FC0120A589A59AA5DF
:10479000FC01848D958D2323FC012083898186363D
:1047A00008F024C1898191E0980F9983882F90E0C7
:1047B000880F991F88529B4F9C8F8B8F8B8D9C8D60
:1047C000FC0125913491CF013E8F2D8F9C8F8B8FD3
:1047D0008D8D9E8D98A38F8F898191E0980F9983FD
:1047E000882F90E0880F991F88529B4F9AA389A326
:1047F00089A19AA1FC0125913491CF013CA32BA35F
:104800009AA389A38BA19CA19EA38DA38F8D98A110
:104810008F3F910551F48DA19EA1CC01A0E0B0E0A5
:10482000BC01CD010E94BBD5B9CF8F8D98A1892F36
:1048300099278FA38F8D88A789A59AA5FC01868DBE
:10484000978DFC01308189A59AA5FC0121A589A538
:104850009AA5FC01868D978D2323FC01208382E29B
:1048600090E02FA1FC01208389A59AA5FC0180A1DD
:1048700091A1FC01308189A59AA5FC0122A589A5F9
:104880009AA5FC0180A191A12323FC01208389A585
:104890009AA5FC0180A191A1FC01308189A59AA56E
:1048A000FC0126A189A59AA5FC0180A191A1232B39
:1048B000FC01208382E290E028A5FC01208389A5E9
:1048C0009AA5FC0180A191A1FC01308189A59AA53E
:1048D000FC0122A589A59AA5FC0180A191A1232311
:1048E000FC01208389A59AA5FC0180A191A1FC016E
:1048F000308189A59AA5FC0126A189A59AA5FC016C
:1049000080A191A1232BFC0120838DA19EA1892F41
:1049100099278FA38DA188A789A59AA5FC01868DCB
:10492000978DFC01308189A59AA5FC0125A189A557
:104930009AA5FC01868D978D232BFC01208382E2B2
:1049400090E02FA1FC01208389A59AA5FC0180A1FC
:1049500091A1FC01308189A59AA5FC0122A589A518
:104960009AA5FC0180A191A12323FC01208389A5A4
:104970009AA5FC0180A191A1FC01308189A59AA58D
:10498000FC0126A189A59AA5FC0180A191A1232B58
:10499000FC01208382E290E028A5FC01208389A508
:1049A0009AA5FC0180A191A1FC01308189A59AA55D
:1049B000FC0122A589A59AA5FC0180A191A1232330
:1049C000FC01208389A59AA5FC0180A191A1FC018D
:1049D000308189A59AA5FC0126A189A59AA5FC018B
:1049E00080A191A1232BFC012083D8CE89A59AA573
:1049F000FC01808191814896FC012081318189A54B
:104A00009AA5FC01468989A59AA5642FF9011995F3
:104A100089A59AA50FE311E02FEE30E040E050E0C9
:104A200060E070E00E94CC2E0C94D02D8BA59CA54C
:104A30008134934909F0BBC689A59AA522E0FC01FF
:104A4000238F89A59AA5FC01848D958DFC01308169
:104A500089A59AA5FC0120A589A59AA5FC01848DAC
:104A6000958D2323FC01208389A59AA5FC01868DC1
:104A7000978DFC01308189A59AA5FC0121A589A506
:104A80009AA5FC01868D978D2323FC01208382E269
:104A900090E021E0FC01208389A59AA5FC0180A17A
:104AA00091A1FC01308189A59AA5FC0122A589A5C7
:104AB0009AA5FC0180A191A12323FC01208389A553
:104AC0009AA5FC0180A191A1FC01308189A59AA53C
:104AD000FC0126A189A59AA5FC0180A191A1232B07
:104AE000FC01208389A59AA5FC01868D978DFC0188
:104AF000308189A59AA5FC0125A189A59AA5FC016B
:104B0000868D978D232BFC01208382E290E0FC01AF
:104B1000108289A59AA5FC0180A191A1FC01308198
:104B200089A59AA5FC0122A589A59AA5FC0180A1C9
:104B300091A12323FC01208389A59AA5FC0180A1D2
:104B400091A1FC01308189A59AA5FC0126A189A526
:104B50009AA5FC0180A191A1232BFC01208362E393
:104B600070E080E090E00E94BBD589A59AA5FC0189
:104B7000868D978DFC01308189A59AA5FC0121A520
:104B800089A59AA5FC01868D978D2323FC0120839E
:104B900082E290E028E2FC01208389A59AA5FC012D
:104BA00080A191A1FC01308189A59AA5FC0122A5D3
:104BB00089A59AA5FC0180A191A12323FC01208352
:104BC00089A59AA5FC0180A191A1FC01308189A54C
:104BD0009AA5FC0126A189A59AA5FC0180A191A115
:104BE000232BFC01208389A59AA5FC01868D978D36
:104BF000FC01308189A59AA5FC0125A189A59AA56A
:104C0000FC01868D978D232BFC01208382E290E0AE
:104C1000FC01108289A59AA5FC0180A191A1FC014B
:104C2000308189A59AA5FC0122A589A59AA5FC0138
:104C300080A191A12323FC01208389A59AA5FC01D1
:104C400080A191A1FC01308189A59AA5FC0126A132
:104C500089A59AA5FC0180A191A1232BFC012083A9
:104C600089A59AA5FC01868D978DFC01308189A5C7
:104C70009AA5FC0121A589A59AA5FC01868D978D91
:104C80002323FC01208382E290E020ECFC012083BE
:104C900089A59AA5FC0180A191A1FC01308189A57B
:104CA0009AA5FC0122A589A59AA5FC0180A191A144
:104CB0002323FC01208389A59AA5FC0180A191A151
:104CC000FC01308189A59AA5FC0126A189A59AA598
:104CD000FC0180A191A1232BFC01208389A59AA529
:104CE000FC01868D978DFC01308189A59AA5FC0178
:104CF00025A189A59AA5FC01868D978D232BFC0102
:104D0000208382E290E023E2FC01208389A59AA51A
:104D1000FC0180A191A1FC01308189A59AA5FC012B
:104D200022A589A59AA5FC0180A191A12323FC01BC
:104D3000208389A59AA5FC0180A191A1FC01308165
:104D400089A59AA5FC0126A189A59AA5FC0180A1A7
:104D500091A1232BFC01208389A59AA5FC01868DB6
:104D6000978DFC01308189A59AA5FC0121A589A513
:104D70009AA5FC01868D978D2323FC01208382E276
:104D800090E021ECFC01208389A59AA5FC0180A17B
:104D900091A1FC01308189A59AA5FC0122A589A5D4
:104DA0009AA5FC0180A191A12323FC01208389A560
:104DB0009AA5FC0180A191A1FC01308189A59AA549
:104DC000FC0126A189A59AA5FC0180A191A1232B14
:104DD000FC01208389A59AA5FC01868D978DFC0195
:104DE000308189A59AA5FC0125A189A59AA5FC0178
:104DF000868D978D232BFC01208382E290E020E1B9
:104E0000FC01208389A59AA5FC0180A191A1FC0148
:104E1000308189A59AA5FC0122A589A59AA5FC0146
:104E200080A191A12323FC01208389A59AA5FC01DF
:104E300080A191A1FC01308189A59AA5FC0126A140
:104E400089A59AA5FC0180A191A1232BFC012083B7
:104E50001F8A85EC888F89A59AA5FC01868D978D80
:104E6000FC01308189A59AA5FC0121A589A59AA5F7
:104E7000FC01868D978D2323FC01208382E290E044
:104E80002F89FC01208389A59AA5FC0180A191A10D
:104E9000FC01308189A59AA5FC0122A589A59AA5C6
:104EA000FC0180A191A12323FC01208389A59AA55F
:104EB000FC0180A191A1FC01308189A59AA5FC018A
:104EC00026A189A59AA5FC0180A191A1232BFC0113
:104ED000208382E290E0288DFC01208389A59AA599
:104EE000FC0180A191A1FC01308189A59AA5FC015A
:104EF00022A589A59AA5FC0180A191A12323FC01EB
:104F0000208389A59AA5FC0180A191A1FC01308193
:104F100089A59AA5FC0126A189A59AA5FC0180A1D5
:104F200091A1232BFC0120838BE28F8B8BE2888F56
:104F300089A59AA5FC01868D978DFC01308189A5F4
:104F40009AA5FC0125A189A59AA5FC01868D978DBE
:104F5000232BFC01208382E290E02F89FC01208337
:104F600089A59AA5FC0180A191A1FC01308189A5A8
:104F70009AA5FC0122A589A59AA5FC0180A191A171
:104F80002323FC01208389A59AA5FC0180A191A17E
:104F9000FC01308189A59AA5FC0126A189A59AA5C5
:104FA000FC0180A191A1232BFC01208382E290E0EF
:104FB000288DFC01208389A59AA5FC0180A191A1DF
:104FC000FC01308189A59AA5FC0122A589A59AA595
:104FD000FC0180A191A12323FC01208389A59AA52E
:104FE000FC0180A191A1FC01308189A59AA5FC0159
:104FF00026A189A59AA5FC0180A191A1232BFC01E2
:10500000208389A59AA5FC01868D978DFC013081AE
:1050100089A59AA5FC0121A589A59AA5FC01868DE3
:10502000978D2323FC01208382E290E027ECFC0192
:10503000208389A59AA5FC0180A191A1FC01308162
:1050400089A59AA5FC0122A589A59AA5FC0180A1A4
:1050500091A12323FC01208389A59AA5FC0180A1AD
:1050600091A1FC01308189A59AA5FC0126A189A501
:105070009AA5FC0180A191A1232BFC01208389A585
:105080009AA5FC01868D978DFC01308189A59AA592
:10509000FC0125A189A59AA5FC01868D978D232B5E
:1050A000FC01208382E290E020ECFC01208389A5B2
:1050B0009AA5FC0180A191A1FC01308189A59AA546
:1050C000FC0122A589A59AA5FC0180A191A1232319
:1050D000FC01208389A59AA5FC0180A191A1FC0176
:1050E000308189A59AA5FC0126A189A59AA5FC0174
:1050F00080A191A1232BFC01208389A59AA5FC0105
:10510000868D978DFC01308189A59AA5FC0121A58A
:1051100089A59AA5FC01868D978D2323FC01208308
:1051200082E290E026E3FC01208389A59AA5FC0198
:1051300080A191A1FC01308189A59AA5FC0122A53D
:1051400089A59AA5FC0180A191A12323FC012083BC
:1051500089A59AA5FC0180A191A1FC01308189A5B6
:105160009AA5FC0126A189A59AA5FC0180A191A17F
:10517000232BFC01208389A59AA5FC01868D978DA0
:10518000FC01308189A59AA5FC0125A189A59AA5D4
:10519000FC01868D978D232BFC01208382E290E019
:1051A00028E8FC01208389A59AA5FC0180A191A192
:1051B000FC01308189A59AA5FC0122A589A59AA5A3
:1051C000FC0180A191A12323FC01208389A59AA53C
:1051D000FC0180A191A1FC01308189A59AA5FC0167
:1051E00026A189A59AA5FC0180A191A1232BFC01F0
:1051F000208389A59AA5FC01868D978DFC013081BD
:1052000089A59AA5FC0121A589A59AA5FC01868DF1
:10521000978D2323FC01208382E290E02AE3FC01A6
:10522000208389A59AA5FC0180A191A1FC01308170
:1052300089A59AA5FC0122A589A59AA5FC0180A1B2
:1052400091A12323FC01208389A59AA5FC0180A1BB
:1052500091A1FC01308189A59AA5FC0126A189A50F
:105260009AA5FC0180A191A1232BFC01208389A593
:105270009AA5FC01868D978DFC01308189A59AA5A0
:10528000FC0125A189A59AA5FC01868D978D232B6C
:10529000FC01208382E290E025E5FC01208389A5C2
:1052A0009AA5FC0180A191A1FC01308189A59AA554
:1052B000FC0122A589A59AA5FC0180A191A1232327
:1052C000FC01208389A59AA5FC0180A191A1FC0184
:1052D000308189A59AA5FC0126A189A59AA5FC0182
:1052E00080A191A1232BFC012083198E81EB8A8F51
:1052F00089A59AA5FC01868D978DFC01308189A531
:105300009AA5FC0121A589A59AA5FC01868D978DFA
:105310002323FC01208382E290E0298DFC0120837D
:1053200089A59AA5FC0180A191A1FC01308189A5E4
:105330009AA5FC0122A589A59AA5FC0180A191A1AD
:105340002323FC01208389A59AA5FC0180A191A1BA
:10535000FC01308189A59AA5FC0126A189A59AA501
:10536000FC0180A191A1232BFC01208382E290E02B
:105370002A8DFC01208389A59AA5FC0180A191A119
:10538000FC01308189A59AA5FC0122A589A59AA5D1
:10539000FC0180A191A12323FC01208389A59AA56A
:1053A000FC0180A191A1FC01308189A59AA5FC0195
:1053B00026A189A59AA5FC0180A191A1232BFC011E
:1053C0002083198E8BE18A8F89A59AA5FC01868D91
:1053D000978DFC01308189A59AA5FC0125A189A59D
:1053E0009AA5FC01868D978D232BFC01208382E2F8
:1053F00090E0298DFC01208389A59AA5FC0180A15C
:1054000091A1FC01308189A59AA5FC0122A589A55D
:105410009AA5FC0180A191A12323FC01208389A5E9
:105420009AA5FC0180A191A1FC01308189A59AA5D2
:10543000FC0126A189A59AA5FC0180A191A1232B9D
:10544000FC01208382E290E02A8DFC01208389A563
:105450009AA5FC0180A191A1FC01308189A59AA5A2
:10546000FC0122A589A59AA5FC0180A191A1232375
:10547000FC01208389A59AA5FC0180A191A1FC01D2
:10548000308189A59AA5FC0126A189A59AA5FC01D0
:1054900080A191A1232BFC01208389A59AA5FC0161
:1054A000868D978DFC01308189A59AA5FC0121A5E7
:1054B00089A59AA5FC01868D978D2323FC01208365
:1054C00082E290E027EBFC01208389A59AA5FC01EC
:1054D00080A191A1FC01308189A59AA5FC0122A59A
:1054E00089A59AA5FC0180A191A12323FC01208319
:1054F00089A59AA5FC0180A191A1FC01308189A513
:105500009AA5FC0126A189A59AA5FC0180A191A1DB
:10551000232BFC01208389A59AA5FC01868D978DFC
:10552000FC01308189A59AA5FC0125A189A59AA530
:10553000FC01868D978D232BFC01208382E290E075
:1055400027E0FC01208389A59AA5FC0180A191A1F7
:10555000FC01308189A59AA5FC0122A589A59AA5FF
:10556000FC0180A191A12323FC01208389A59AA598
:10557000FC0180A191A1FC01308189A59AA5FC01C3
:1055800026A189A59AA5FC0180A191A1232BFC014C
:10559000208389A59AA5FC01868D978DFC01308119
:1055A00089A59AA5FC0121A589A59AA5FC01868D4E
:1055B000978D2323FC01208382E290E021E1FC010E
:1055C000208389A59AA5FC0180A191A1FC013081CD
:1055D00089A59AA5FC0122A589A59AA5FC0180A10F
:1055E00091A12323FC01208389A59AA5FC0180A118
:1055F00091A1FC01308189A59AA5FC0126A189A56C
:105600009AA5FC0180A191A1232BFC01208389A5EF
:105610009AA5FC01868D978DFC01308189A59AA5FC
:10562000FC0125A189A59AA5FC01868D978D232BC8
:10563000FC01208382E290E0FC01108289A59AA5FA
:10564000FC0180A191A1FC01308189A59AA5FC01F2
:1056500022A589A59AA5FC0180A191A12323FC0183
:10566000208389A59AA5FC0180A191A1FC0130812C
:1056700089A59AA5FC0126A189A59AA5FC0180A16E
:1056800091A1232BFC01208366E970E080E090E08B
:105690000E94BBD589A59AA5FC01868D978DFC013A
:1056A000308189A59AA5FC0121A589A59AA5FC01AF
:1056B000868D978D2323FC01208382E290E029E2EE
:1056C000FC01208389A59AA5FC0180A191A1FC0180
:1056D000308189A59AA5FC0122A589A59AA5FC017E
:1056E00080A191A12323FC01208389A59AA5FC0117
:1056F00080A191A1FC01308189A59AA5FC0126A178
:1057000089A59AA5FC0180A191A1232BFC012083EE
:1057100089A59AA5FC01868D978DFC01308189A50C
:105720009AA5FC0125A189A59AA5FC01868D978DD6
:10573000232BFC01208382E290E0FC01108289A5EA
:105740009AA5FC0180A191A1FC01308189A59AA5AF
:10575000FC0122A589A59AA5FC0180A191A1232382
:10576000FC01208389A59AA5FC0180A191A1FC01DF
:10577000308189A59AA5FC0126A189A59AA5FC01DD
:1057800080A191A1232BFC01208364EF71E080E0D4
:1057900090E00E94BBD589A59AA50FE311E02FEEFA
:1057A00030E040E050E060E070E0F6D2F9C18BA557
:1057B0009CA58735934809F009C189A59AA523E0DE
:1057C000FC01238F89A59AA5FC01848D958DFC0190
:1057D000308189A59AA5FC0120A589A59AA5FC017F
:1057E000848D958D2323FC0120838981863408F0E4
:1057F000D7C1898191E0980F9983882F90E08E56C8
:105800009B4F9C878B878B859C85FC0184918D8722
:105810008D858E87898191E0980F9983882F90E0FC
:105820008E569B4F988B8F878F859889FC0184912A
:10583000898B89898A8B8E858F3F51F48A89882F3D
:1058400090E0A0E0B0E0BC01CD010E94BBD5CDCF7F
:1058500089A59AA5FC01848D958DFC01308189A5CF
:105860009AA5FC0120A589A59AA5FC01848D958D9A
:105870002323FC01208389A59AA5FC01868D978DA1
:10588000FC01308189A59AA5FC0121A589A59AA5CD
:10589000FC01868D978D2323FC01208382E290E01A
:1058A0002E85FC01208389A59AA5FC0180A191A1E8
:1058B000FC01308189A59AA5FC0122A589A59AA59C
:1058C000FC0180A191A12323FC01208389A59AA535
:1058D000FC0180A191A1FC01308189A59AA5FC0160
:1058E00026A189A59AA5FC0180A191A1232BFC01E9
:1058F000208389A59AA5FC01868D978DFC013081B6
:1059000089A59AA5FC0125A189A59AA5FC01868DEA
:10591000978D232BFC0120831A829A818A899817FC
:1059200008F040C0898191E0980F9983882F90E01A
:105930008E569B4F9C8B8B8B8B899C89FC01849111
:105940008D8B8D898E8B82E290E02E89FC012083E5
:1059500089A59AA5FC0180A191A1FC01308189A5AE
:105960009AA5FC0122A589A59AA5FC0180A191A177
:105970002323FC01208389A59AA5FC0180A191A184
:10598000FC01308189A59AA5FC0126A189A59AA5CB
:10599000FC0180A191A1232BFC0120838A818F5FD0
:1059A0008A83BBCF89A59AA5FC01848D958DFC01C6
:1059B000308189A59AA5FC0124A189A59AA5FC019D
:1059C000848D958D232BFC0120830FCF8BA59CA567
:1059D0008537954709F0DFC089A59AA521E0FC012C
:1059E000238F89A59AA5FC01848D958DFC013081BA
:1059F00089A59AA5FC0120A589A59AA5FC01848DFD
:105A0000958D2323FC0120838981863508F0ACC065
:105A1000898191E0980F9983882F90E0845C9B4F57
:105A20009C838B838B819C81FC0184918D838D81F0
:105A30008E83898191E0980F9983882F90E0845C10
:105A40009B4F98878F838F819885FC0184918987EC
:105A500089858A878E818F3F51F48A85882F90E0CF
:105A6000A0E0B0E0BC01CD010E94BBD5CDCF89A59F
:105A70009AA5FC01868D978DFC01308189A59AA598
:105A8000FC0121A589A59AA5FC01868D978D23236C
:105A9000FC01208382E290E02E81FC01208389A515
:105AA0009AA5FC0180A191A1FC01308189A59AA54C
:105AB000FC0122A589A59AA5FC0180A191A123231F
:105AC000FC01208389A59AA5FC0180A191A1FC017C
:105AD000308189A59AA5FC0126A189A59AA5FC017A
