:100000000C942D040C9455040C9455040C94550434
:100010000C9455040C9455040C9455040C945504FC
:100020000C9455040C9455040C9455040C945504EC
:100030000C9455040C9455040C9455040C945504DC
:100040000C9492070C9455040C9455040C9455048C
:100050000C9455040C9455040C9455040C945504BC
:100060000C9455040C9455042E07830753074D0731
:1000700068076C0777072D125412A712B6120514E1
:1000800026147C149D14BE14FFE0FFD1200824FF29
:1000900032FFD0FFFEFFE0FFD1200CFFD0FFFEFFBC
:1000A000D0FFE0FFC1FFD1210613C0200CFF642068
:1000B0000DFF64FF64200CFF64FFD0FFFE00000012
:1000C0000800020100000304070000000000000017
:1000D0000001060A00FE070136026820FFFE08FE46
:1000E00007FE0A00602217678080808080008016EB
:1000F0003363A0A0A00257675050F850F850500248
:1001000057672070A07028702002576748A85020B9
:1001100050A89002576740A0A040A890682613639B
:1001200080808012376720408080804020123767AF
:10013000804020202040800355658850F850880377
:1001400055652020F82020113363604080055161FF
:10015000F811336340E040025767080810204080E0
:100160008002576720508888885020025767206097
:10017000A0202020F8025767708808304080F802DD
:100180005767F80810300888700257671030509091
:10019000F81010025767F880B0C8088870025767D7
:1001A000304080B0C88870025767F80810102040AF
:1001B0004002576770888870888870025767708817
:1001C000986808106011376740E0400040E0401137
:1001D000376740E040006040801247671020408051
:1001E000402010045363F800F81247678040201045
:1001F0002040800257677088102020002002576737
:10020000708898A8B0807002576720508888F88856
:1002100088025767F04848704848F002576770886E
:100220008080808870025767F04848484848F0024C
:100230005767F88080F08080F8025767F88080F078
:100240008080800257677088808098887002576726
:10025000888888F8888888123767E04040404040A6
:10026000E0025767381010101090600257678890AE
:10027000A0C0A09088025767808080808080F802AC
:1002800057678888D8A88888880257678888C8A848
:1002900098888802576770888888888870025767AE
:1002A000F08888F08080800158687088888888A8E5
:1002B0007008025767F08888F0A09088025767702E
:1002C000888070088870025767F82020202020203E
:1002D0000257678888888888887002576788888866
:1002E00050505020025767888888A8A8D88802579D
:1002F0006788885020508888025767888850202057
:100300002020025767F80810204080F8123767E075
:100310008080808080E0025767808040201008083D
:10032000123767E02020202020E006536320508809
:10033000015161F828226280400255657008788872
:10034000780257678080B0C888C8B0025565708849
:100350008088700257670808689888986802556511
:100360007088F88070025767304840F04040400085
:100370005767788888780888700257678080B0C887
:100380008888881237674000C0404040E0104969C3
:100390001000301010109090600257678080889095
:1003A000E09088123767C04040404040E002556509
:1003B000D0A8A8A888025565B0C888888802556565
:1003C0007088888870005767B0C888C8B08080007F
:1003D000576768988898680808025565B0C8808093
:1003E0008002556570807008F00257674040F04009
:1003F0004048300255658888889868025565888825
:100400005050200255658888A8A85002556588502C
:10041000205088005767888898680888700255655A
:10042000F8102040F8124767304020C020403022AA
:10043000176780808080808080124767C0204030AE
:100440004020C006536348A890FFFFFFFFFFFFFF57
:10045000FFFFFFFFFFFFFFFFFFFFFFFFFFFFFFFFAC
:10046000FFFFFFFFFFFFFFFFFFFF0A00602217678C
:10047000800080808080800157672078A0A0A078CD
:1004800020025767304840E04048B0025565887008
:1004900050708801586888885020F8202020221742
:1004A00067808080008080800158687080E090487C
:1004B000380870193161A00257677088A8C8A888E9
:1004C000701346667090B05000F002656524489045
:1004D0004824144262F010154161F0025767708899
:1004E000E8C8C88870095161F816336340A040021B
:1004F00056662020F82020F815456560902040F0D1
:10050000154565E0106010E02822624080015666C3
:10051000888888C8B08002576778E8E86828282863
:1005200025116180202262408015356540C0404021
:10053000E01346666090906000F002656590482484
:10054000489001696940C04040E40C143C040169D2
:100550006940C04040E81404081C015969C02040AB
:1005600020C818287808025767200020204088708B
:100570000258684020708888F888880258681020DF
:10058000708888F888880258682050708888F888B1
:100590008802586848B0708888F88888025868507F
:1005A00000708888F888880258682050708888F819
:1005B00088880267673C50909CF0909C0059697055
:1005C000888080808870204002586840F88080F0E1
:1005D0008080F802586810F88080F08080F8025817
:1005E0006820F88080F08080F802586850F8808099
:1005F000F08080F81238688040E040404040E012CF
:1006000038682040E040404040E012386840A0E0B8
:1006100040404040E0123868A000E040404040E0E8
:10062000025767F04848E84848F002586828508860
:10063000C8A8988888025868402070888888887080
:100640000258681020708888888870025868205086
:1006500070888888887002586828507088888888D0
:1006600070025868500070888888887002556588C4
:1006700050205088025767709898A8C8C8700258D0
:100680006840208888888888700258681020888888
:10069000888888700258682050008888888870028E
:1006A00058685000888888888870025868102088A8
:1006B000885020202002576780F088F080808002D8
:1006C0005767708890A09088B002586840200070EA
:1006D00008788878025868102000700878887802B6
:1006E00058682050007008788878025868285000B0
:1006F0007008788878025767500070087888780208
:100700005868205020700878887802656578147CD5
:10071000907C00576770888088702040025868403D
:1007200020007088F880700258681020007088F8E7
:1007300080700258682050007088F88070025767F7
:1007400050007088F88070123868804000C04040C7
:1007500040E0123868408000C0404040E0123868F5
:1007600040A000C0404040E0123767A000C04040B9
:1007700040E0025767C03070888888700258682847
:100780005000B0C888888802586840200070888867
:100790008870025868102000708888887002586835
:1007A000205000708888887002586828500070882F
:1007B0008888700257675000708888887003556574
:1007C0002000F800200255657898A8C8F002586803
:1007D000402000888888986802586810200088881F
:1007E000889868025868205000888888986802575E
:1007F0006750008888889868005969102088889810
:100800006808887000586880F0888888F0808000C8
:100810005969500088889868088870000000002591
:100820000028002B0000000000240027002A0004FC
:100830000404040404040402020202020203030387
:100840000303030102040810204080010204081081
:100850002001020408102000001111241FBECFEF58
:10086000D8E0DEBFCDBF11E0A0E0B1E0E0E7FCE200
:1008700002C005900D92A43CB107D9F722E0A4EC88
:10088000B1E001C01D92AB3AB207E1F714E0CDE24E
:10089000D4E004C02197FE010E941716CC32D10784
:1008A000C9F70E9466110C9436160C940000089546
:1008B0006150FC01808D681710F06FEF680F862F74
:1008C00008956F5FFC01808D681708F060E0862F47
:1008D0000895DC011696ED91FC91179712968C9174
:1008E000481B477081E090E001C0880F4A95EAF705
:1008F000E60FF11D3081222311F0832B02C0809579
:10090000832380830895FB014181DC0112962C91A1
:100910001297421768F013962C911397241740F002
:10092000608115962C91621718F424810C94690447
:100930000895FC0180819281980F92832181921702
:1009400060F494819F5F94839381890F821710F0E4
:100950008FEF820F838381E0089580E00895FC018A
:10096000128280818150838314820895FC01808DDE
:100970008F5F089580E008950B96FC01849108959F
:100980000A96FC0184910895FC0184910895FC016C
:10099000E60FF11D849190E0982F88273196E4911D
:1009A0008E0F911D089568E00C94C70466E00C94C6
:1009B000C7042EEC37E0009729F0F9013197F1F7E1
:1009C0000197F9CF08955091200260911F02409144
:1009D0001E0230911D02A0911B02B0911C02E091F9
:1009E0001902F0911A029FB790931802F89498E0B8
:1009F0002C9187FF02C0252B01C026232C93208138
:100A0000242B2083880F208123232083915081F77A
:100A1000809118028FBF0895282F30E0F901E15D21
:100A2000F74FE491F0E0EE0FFF1FE55EF74F859181
:100A3000949190931C0280931B0270E0FB01E15D96
:100A4000F74F9491E92FF0E0EE0FFF1FE55EF74FAF
:100A50008591949190931A0280931902F901ED5BAC
:100A6000F74F249120932002FB01ED5BF74F649137
:100A700060931E02609560931D02209520931F02D3
:100A80000895DB011496ED91FC91159720E030E07C
:100A900065E00994DB011496ED91FC91159720E037
:100AA00030E062E00994DB011496ED91FC9115971A
:100AB00020E030E063E00994CF92DF92EF92FF9262
:100AC0000F931F93CF93DF938C017B016A0180E02A
:100AD000F601C49181110BC0CF3F09F44CC04C2FDB
:100AE000B701C8010E944105811143C049C0CF3FF1
:100AF00011F44FEFF5CFCE3F09F444C0C03FC8F525
:100B0000C03E38F04C2F4F70B701C8010E944A0513
:100B100030C0C03D38F04C2F4F70B701C8010E9463
:100B2000530527C0C03CF8F0D7011496ED91FC9115
:100B3000159720E030E040E064E0C8010995C295D7
:100B4000C07FCE5FD0E0CE010E94D904D7011496B9
:100B5000ED91FC91159720E030E041E064E0C801A0
:100B60000995CE0104C0C7FD04C08C2F90E00E94FF
:100B7000D90480E001C081E0BFEFCB1ADB0AA8CF27
:100B800080E001C081E0DF91CF911F910F91FF9034
:100B9000EF90DF90CF900895AF92BF92DF92EF92E7
:100BA000FF920F931F93CF93DF938C01EB01D42E11
:100BB000790120E1421709F470C0241710F13AE0DE
:100BC000431739F18FE0481372C040E0C8010E941A
:100BD0004A0541E0BE01C8010E94530541E2BE0141
:100BE000C8010E944105F701408146954068BE0159
:100BF000C8010E94410540E0BE01C8010E945305A2
:100C0000FBC0A1E14A1709F44BC0B5E14B1779F0DD
:100C10004EC0EC81FD8120E030E043E061E00995C9
:100C20004FE950E0BE01C8010E945C0540C0AA80A7
:100C3000BB8040E00E944A0541E0BE01C8010E941D
:100C4000530540E2BE01C8010E94410540E8BE01D3
:100C5000C8010E944105F50144814064BE01C801FC
:100C60000E94410541E0BE01C8010E944A05D5012C
:100C700016962D913C911797EC81FD8115964C911C
:100C800066E0C8010995811102C080E0B6C040E06D
:100C9000BE01C8010E9453050AC045E950E002C0E8
:100CA00048E850E0BE01C8010E945C05A5C00A806A
:100CB000DB81C02DF2E3DF1609F46EC0FD1598F05C
:100CC00025E1D21609F475C037E1D31609F483C0C3
:100CD00084E1D81291C0EE81FF818D819F01280FA0
:100CE000311DC9015EC0A6E4DA1609F47EC0B7E47E
:100CF000DB1609F47EC0EBE3DE127EC0D70111964D
:100D00008C91119713969C91913029F0933031F486
:100D1000482F885004C048E0480F01C0482F21E008
:100D20003B81381708F420E031E05A81451708F478
:100D300030E051E0481708F050E0822F852B38232F
:100D400019F4252309F458C0F701D280913051F0ED
:100D500030F0923049F0933051F41FEF09C010E0A9
:100D600001E007C011E004C010E00FEF02C010E086
:100D700000E0D7FE04C0B701CE010E948304D70172
:100D80008C91800F8C9311968C911197810F1196F5
:100D90008C93DD0C71F730C0B701CE010E94830443
:100DA0002BC01192E817F907E1F7CE010E94AF04BA
:100DB00023C0CE010E949904882309F466CFEE81F6
:100DC000FF818D81DF01A80FB11DCD011192E817C0
:100DD000F907E1F711C0F70110828A8181838D81C3
:100DE000815082838B81838307C08D81D7018C934F
:100DF00003C08981F701808381E0DF91CF911F914A
:100E00000F91FF90EF90DF90BF90AF9008950895FD
:100E100080E090E00895860F911DFC0183A18F3F33
:100E200019F0642F0C94440B0895CF92DF92EF9247
:100E3000FF920F931F93CF93DF931F92CDB7DEB72F
:100E40006C018901862F90E0FC013197E730F105B4
:100E500008F05DC0EC5CFF4F0C94171686010D5D29
:100E60001F4F760180E3E80EF11CF80180818F3F6F
:100E700039F00E94E11061E0F80180810E94440B8A
:100E80000F5F1F4F0E151F0581F740E064E0C6019C
:100E90000E940B0740E065E012C0F60183A18F3F7E
:100EA000B1F160E031C0411103C041E062E02CC00B
:100EB00040E064E0C6010E940B0740E062E0C6012A
:100EC0000E940B07F60167A180A50E940C051FC0B8
:100ED000842F0E94E3041BC04423C9F0F8018191D0
:100EE0008F0149830E94E30449814150F5CF442397
:100EF00071F0F801849149830E94E3040F5F1F4F52
:100F000049814150F4CF61E0C6010E940B0781E0A6
:100F10000F90DF91CF911F910F91FF90EF90DF9095
:100F2000CF9008951F920F920FB60F9211242F9316
:100F30003F938F939F93AF93BF938091260290919D
:100F40002702A0912802B09129023091250226E0C3
:100F5000230F2D3720F40296A11DB11D05C029E8ED
:100F6000230F0396A11DB11D209325028093260215
:100F700090932702A0932802B09329028091210226
:100F800090912202A0912302B09124020196A11D0A
:100F9000B11D8093210290932202A0932302B0936B
:100FA0002402BF91AF919F918F913F912F910F900C
:100FB0000FBE0F901F901895FC012085318582850A
:100FC0009385281739072CF54485558584819581AB
:100FD000480F591F55874487668577858681978195
:100FE000860F971F978786871816190664F4608105
:100FF0007181460F571F5587448742815381841B57
:10100000950B978786872F5F3F4F3187208781E039
:10101000089580E00895DB01ED91FC9109946F92B1
:101020007F928F929F92AF92BF92CF92DF92EF9278
:10103000FF920F931F93CF93DF9300D0CDB7DEB70E
:101040007C018901FB01C280D3804B3309F45BC072
:1010500028F44731F9F0423379F104C0463441F0C5
:10106000473459F09801B601C7010E940B08B3C07C
:101070009E012F5F3F4F46E404C09E012F5F3F4F0C
:1010800047E4B601C7010E940B0889818695F801E3
:101090008083A0C047E1B6010E940B08F80180815F
:1010A00086958083828186958283818186958183DE
:1010B0008381869583838EC0F901A080AA0CB180BC
:1010C000BB0CA082B18242E3B6010E940B089924B6
:1010D00093949A0CF8019082B182980142E3B60190
:1010E000C7010E940B08B394F8019082B182980165
:1010F00042E3B601C7010E940B08F801A082B18249
:10110000980142E363C0F9019281A38088E0812CB9
:10111000912C880C991C880C991C97FF02C0F3E055
:101120008F2A990F8150A9F7F801B080BB0C51812B
:10113000550FA0FE05C0662463946B0C752E04C089
:1011400077247394750E6B2CF8019282B0825183D0
:1011500098014BE3B601C7015A830E940B08F801BE
:1011600060827182A38298014BE3B601C7010E949D
:101170000B08F80182825A81F1E0AF1681F0AF16B8
:1011800050F022E0A21679F083E0A8120FC0585068
:1011900088EF780E0BC0E8E0BE0E6E0E07C0585FF9
:1011A000F8E07F0E03C028EFB20E620EF801B082A5
:1011B0005183A38298014BE3B601C7010E940B083B
:1011C000F80160827182A38298014BE3B601C701E6
:1011D0000E940B0881E00F900F90DF91CF911F913B
:1011E0000F91FF90EF90DF90CF90BF90AF909F90C6
:1011F0008F907F906F9008950F93FC01828193816F
:10120000648F458F278F068F9F01245E3F4F4BE3EE
:10121000BC01CF010F910C940B080F931F93CF9338
:10122000DF931F92CDB7DEB78C01FC016281738121
:101230009E012F5F3F4F46E40E940B088981F80111
:101240008083628173819E012F5F3F4F47E4C80115
:101250000E940B088981F80181836281738120E0FB
:1012600030E048E4C8010E940B08F8018387980128
:101270002D5C3F4F6281738147E1C8010E940B08DA
:101280000F90DF91CF911F910F9108950F931F93AE
:10129000CF93DF93EC010A811B81E9A9FAA982E0CF
:1012A000099520E030E04AE0B801CE010E940B0829
:1012B000182FE9A9FAA983E00995E9A9FAA980E01C
:1012C0000995112329F0CE010E940D0981E001C08A
:1012D00080E0DF91CF911F910F9108950E94C40487
:1012E000882321F0823011F083E0089586E008958C
:1012F000BF92CF92DF92EF92FF920F931F93CF9303
:10130000DF938C01E62EDC011496CD91DC911597CC
:10131000CE010E94C404F82EF801848195810E94B8
:101320006E09C82EF1E0FF1203C02FE0B22E02C0FA
:10133000BB24BA94D80114968D919C9115970E9464
:10134000C004F82EF801848195810E94BC04D82E37
:10135000D80114968D919C9115970E94D304B0E604
:10136000BE1538F4009729F0C80FD91F91E6F92E61
:1013700010C0F801848195810E94D604F0E4FE1526
:1013800038F4009729F0C80FD91F81E4F82E01C066
:101390006196DE1490F4D80150961C9250975396A3
:1013A0001C92539754961C92549751961C925197A5
:1013B00052961C9280E090E067C0DF1460F38C2DA1
:1013C00090E0FE0124912F3F11F4219658C0FE10A9
:1013D0004DC0D80114968D919C9115970E94C4041C
:1013E0009E012F5F3F4FFE01882311F08230E1F410
:1013F0008491D80153968C935397F9012491549674
:101400002C935497FE013396E4915096EC935097A9
:10141000FE013496E4915196EC935197FE01359676
:10142000E4915296EC9320C08491982F9F70925033
:10143000D80152969C93529782958F7051968C93B7
:101440005197F9012491822F8F7054968C93549761
:1014500022952F7053962C935397FE013296E49168
:10146000E295EF705096EC93CE010EC0FE013296DD
:10147000E491EB219C012E0F311DC20FD31FFD14EF
:1014800009F489CFF3949DCFDF91CF911F910F91F4
:10149000FF90EF90DF90CF90BF9008950F93FC01E5
:1014A0000150040F84A996A9941718F0081728F47E
:1014B00002C0081750F0041740F42150260F83A9EA
:1014C00095A9961720F4281720F480E007C0281764
:1014D00020F481E0261710F0F8CF81E00F910895F5
:1014E0004F925F926F927F929F92AF92BF92CF92F4
:1014F000DF92EF92FF920F931F93CF93DF931F9290
:10150000CDB7DEB72C01962E142F622F0E947809DA
:101510007C01892B09F440C0F201848195810E94ED
:101520006E09B82EF201D388C4888189980E9289F9
:101530009C0D191B0C2D2D2D412F692DC2010E94D0
:101540004E0A882331F1EB0CF11C87E08D0DD82E6B
:10155000D694D694D694C10E6D2C712C1C15C9F05E
:10156000392D57018A2D8E198D1578F4F5010491C6
:1015700020E0412F632FC20139830E94FC08FFEF56
:10158000AF1ABF0A3981385FEDCFE60CF71C1F5F39
:10159000E5CFF201808901C080E00F90DF91CF910B
:1015A0001F910F91FF90EF90DF90CF90BF90AF9081
:1015B0009F907F906F905F904F900895CF92DF92B1
:1015C000EF92FF920F931F93CF93DF931F92CDB7AC
:1015D000DEB76C01DC01DC961C91DC97DB960C918C
:1015E0007C01B4E0EB0EF11CDC015996ED91FC910D
:1015F0005A97C70169830995482F410F2981602FA8
:10160000C7010E94700AF60123AD082E000C990B49
:10161000820F911D83AF81E090E00F90DF91CF9119
:101620001F910F91FF90EF90DF90CF900895CF9290
:10163000DF92EF92FF920F931F93CF93DF936C0192
:101640007A018B01C0E0D0E0CE15DF0589F0D8012A
:101650006D918D01D601ED91FC910190F081E02D0D
:10166000C6010995892B11F47E0102C02196ECCFA9
:10167000C701DF91CF911F910F91FF90EF90DF9005
:10168000CF9008950E94311690E0FC01E354FF4F83
:101690003491FC01ED5BF74F2491FC01E15DF74FC4
:1016A000E491EE2309F43BC0332339F1333091F058
:1016B00038F43130A9F0323001F584B58F7D12C095
:1016C000373091F03830A1F03430B9F48091800097
:1016D0008F7D03C0809180008F77809380000DC044
:1016E00084B58F7784BD09C08091B0008F7703C027
:1016F0008091B0008F7D8093B000F0E0EE0FFF1F6F
:10170000E55EF74FA591B4918FB7F894EC91611114
:1017100003C020952E2301C02E2B2C938FBF08953C
:10172000EF92FF920F931F93CF93DF93D82FF62E54
:10173000C42F142FE82EE40E6E2D611B183048F0D4
:101740000FEF20E04F2D81E792E00E94FC08185037
:10175000F3CF6C2F687F6D0F9C2F977081F027E07F
:1017600092279F5F97700FEF10E001C0000F9A95CE
:10177000EAF720E04F2D81E792E00E94FC08DF911C
:10178000CF911F910F91FF90EF9008950F931F93AA
:10179000CF93DF93182F042FC62FD62FD20F402FB1
:1017A0006C2F812F0E94900BCF5FDC13F8CFDF915D
:1017B000CF911F910F910895EF92FF920F931F9376
:1017C000CF93DF93F82ED62FC42F142FE62EE40EDE
:1017D0004E2D411B183048F00FEF21E06F2D81E7AF
:1017E00092E00E94FC081850F3CF4C2F487F4D0F19
:1017F0009C2F977081F027E092279F5F97700FEFE3
:1018000010E001C0000F9A95EAF721E06F2D81E703
:1018100092E00E94FC08DF91CF911F910F91FF9001
:10182000EF9008950F931F93CF93DF93C82FD62F78
:10183000142F042F21E0462F682F81E792E00E94A9
:101840004E0A882349F0412F6D2F8C2FDF91CF91C5
:101850001F910F910C94DC0BDF91CF911F910F9191
:101860000895FF920F931F93CF93DF93C82FD62F26
:10187000142FF22E00FF10C041E0460F622F6D1BA7
:10188000812F8C0F0E94120C41E04C0F6F2D6C1BAE
:101890008D2F810F0E94120C01FF10C041E04D0FEF
:1018A0006F2D6D1B812F8C1B0E94120C41E04C0F81
:1018B0006F2D6C1B812F8D1B0E94120C03FF0EC01D
:1018C00041E04D0F6F2D812F8C0F0E94120C41E0D3
:1018D0004C0F6F2D8D2F810F0E94120C02FF13C031
:1018E00041E04D0F6F2D812F8C1B0E94120C41E0A7
:1018F0004C0F6F2D812F8D1BDF91CF911F910F9179
:10190000FF900C94120CDF91CF911F910F91FF90DB
:101910000895CF92DF92FF920F931F93CF93DF939F
:1019200000D0CDB7DEB7F82E062FE0918602F091F9
:10193000870281E792E049835A830995080F49811C
:10194000C42E5A81D52E10E0F60121916F01222379
:1019500049F0402F6F2D81E792E00E94700AF80E47
:10196000180FF2CF812F0F900F90DF91CF911F9121
:101970000F91FF90DF90CF90089580917502909124
:101980007602009709F437C020918802FC012111EA
:1019900007C03596E491E0938902FC013C960FC0A4
:1019A000213039F43F96E491E0938902FC0170966E
:1019B00006C03D96E491E0938902FC013E96E491D5
:1019C000E0938A0280918902082E000C990B2091E5
:1019D0008A02821B910927FD939520918B02203466
:1019E00041F0829FC001112426E0969587952A95A3
:1019F000E1F780938C020895FF920F931F93CF938A
:101A0000DF93182FC62FF42ED22F022F242F462F0C
:101A1000682F81E792E00E944E0A8823E9F04F2D5B
:101A20006C2F812F0E94900B4D2F6C2F812F0E94C5
:101A3000DC0B8FEF8F0D4D2F6C2F810F0E94DC0B75
:101A4000D1506D2F6C0F4F2D812FDF91CF911F91B2
:101A50000F91FF900C94900BDF91CF911F910F91FC
:101A6000FF900895FF920F931F93CF93DF93C82F9A
:101A7000D62F142FF22E022F242F462F682F81E706
:101A800092E00E944E0A882359F02F2D412F6D2F8E
:101A90008C2FDF91CF911F910F91FF900C94C60B6B
:101AA000DF91CF911F910F91FF900895962FEDE652
:101AB000F2E06681778180A391A32DE832E042E3D2
:101AC00081E792E00C940B08FF920F931F93CF9342
:101AD000DF93C82FD62F142FF22E00FF0CC0622FD9
:101AE0006D1B842F8C0F0E94560D6F2D6C1B8D2F3C
:101AF000810F0E94560D01FF0CC06F2D6D1B812FB1
:101B00008C1B0E94560D6F2D6C1B812F8D1B0E940C
:101B1000560D03FF0CC06F2D6D0F812F8C0F0E948F
:101B2000560D6F2D6C0F8D2F810F0E94560D02FFE9
:101B300011C06F2D6D0F812F8C1B0E94560D6F2DC4
:101B40006C0F812F8D1BDF91CF911F910F91FF9013
:101B50000C94560DDF91CF911F910F91FF90089536
:101B6000CF92DF92EF92FF920F931F93CF93DF9369
:101B7000E82ED62EC42FC22ED1E0D41BF42EF19421
:101B8000FF0C022F262F482F6C2F80E00E94640D3F
:101B900010E01C1798F4D7FD04C0C150F394F394DF
:101BA000DF0D1F5F912F990F9F5FD90F0C2D2D2DEA
:101BB0004E2D6C2F812F0E94640DEBCFDF91CF91C2
:101BC0001F910F91FF90EF90DF90CF900895CF92EB
:101BD000DF92EF92FF920F931F93CF93DF93E82E44
:101BE000D62EC42FC22ED1E0D41BF42EF194FF0CBC
:101BF000022F262F482F6C2F80E00E94310C10E01E
:101C00001C1798F4D7FD04C0C150F394F394DF0D72
:101C10001F5F912F990F9F5FD90F0C2D2D2D4E2DEA
:101C20006C2F812F0E94310CEBCFDF91CF911F9150
:101C30000F91FF90EF90DF90CF900895EF92FF9279
:101C40000F931F93CF93DF93C82F08E229E14AE057
:101C500062E381E792E00E944E0A882309F448C0BB
:101C600012E31C0F8AE0F82EFC0EDAE4DC1B01E321
:101C70000C1B22E04C2F6F2D812F0E94E70D21E0DD
:101C80004C2F6F2D8D2F0E94E70D24E04C2F602FDD
:101C9000812F0E94E70D28E04C2F602F8D2F0E948E
:101CA000E70DD9E1DC1BDC1BD25018E21C1B1C1B0E
:101CB00093E3F92EFC0EEE24E394EC0E2E2D4D2F23
:101CC0006AE08F2D0E94C60B2E2D4D2F602F8F2D79
:101CD0000E94C60B2EEF210F6BE06C0F49E182E3EF
:101CE000DF91CF911F910F91FF90EF900C94C60B55
:101CF000DF91CF911F910F91FF90EF900895FF9288
:101D00000F931F93CF93DF93C82F0EE128E24AE091
:101D100065E081E792E00E944E0A882309F445C0FD
:101D200005E00C0F8AE0F82EFC0EDCE2DC1B17E26B
:101D30001C1B22E04C2F6F2D802F0E94B00D21E044
:101D40004C2F6F2D8D2F0E94B00D24E04C2F612F52
:101D5000802F0E94B00D28E04C2F612F8D2F0E9404
:101D6000B00D18E21C1B1C1B1250DEE1DC1BDC1B3F
:101D7000D25006E00C0FC55F412F6AE0802F0E9411
:101D8000900B412F67E2802F0E94900B4D2F6C2FFC
:101D900085E00E94DC0B4D2F6C2F8CE2DF91CF9100
:101DA0001F910F91FF900C94DC0BDF91CF911F914D
:101DB0000F91FF900895CF92DF92EF92FF920F93D1
:101DC0001F93CF93DF93C82F681718F4D82FD61B13
:101DD00002C0D62FD81BDD3250F06C1780F08D2F4B
:101DE000062F1C2F67E3CAE0DDE2E12C05C0EE24DC
:101DF000E3948DE207E31AE0CD2ED82F07C00C2F15
:101E0000162F8DE2C82EE12C6AE0C7E3FD2EF69472
:101E1000C61718F0DD24DA9402C0DD24D3940F3FF6
:101E200071F40EEF0CC0E1100DC06C2F812F0E94D9
:101E3000560DFC18F7FE02C0CD0DFD0E1F5F0117F9
:101E400090F703C0612F8C2FF2CFDF91CF911F91BC
:101E50000F91FF90EF90DF90CF900895CF92DF9297
:101E6000EF92FF920F931F93CF93DF93082F10E011
:101E700093E1899FE0011124C55DDD4F6EA584E0EB
:101E8000689FF0011124E55DFD4FE280F380C08082
:101E9000D180ECA5FDA58BE292E0099594E0899FA5
:101EA000F0011124E55DFD4F228133814081518194
:101EB0008EA7CA018C199D09A9014E195F095F8F70
:101EC0004E8F3FA32EA3FDA2ECA2D9A6C8A697FDD4
:101ED00008C021E030E03D8F2C8F1BA61AA67C01A4
:101EE0000EC02FEF3FEF3D8F2C8FEE24FF24E81A1A
:101EF000F90A21E030E0241B350B3BA72AA723E198
:101F0000209FF001219FF00D1124E55DFD4F268DEE
:101F1000378DB9010E94031671A360A3C701B901EF
:101F20000E94031693A382A3DF91CF911F910F917B
:101F3000FF90EF90DF90CF9008950F931F93CF9372
:101F4000DF93C82FD62F142F01E0242F462F682FA0
:101F500081E792E00E944E0A882349F0412F6D2FBD
:101F60008C2FDF91CF911F910F910C94900BDF91EB
:101F7000CF911F910F910895EF92FF920F931F93AE
:101F8000CF93DF938C0183E1689FF0011124E55D1D
:101F9000FD4F66A57F01ACE2EA0EF11CEF01AE96A3
:101FA000D701ED91FC918BE292E00995682FB4E0A6
:101FB0008B9FF0011124E55DFD4F82819381801795
:101FC000910711F46883ECCFDF91CF911F910F91AE
:101FD000FF90EF900895EF92FF920F931F93CF938E
:101FE000DF9390932C0280932B0270932E026093C8
:101FF0002D025093300240932F02309332022093EF
:1020000031021093340200933302F0923602E092D0
:10201000350283E08093430281E694E090936B0263
:1020200080936A0288E594E0909358028093570267
:1020300010925902EBE2F2E0EB0190E081E0833094
:1020400070F426813781621773070CF4B9012C17DD
:102050003D0714F4982FE9018F5F3496F0CF9093E9
:1020600059026C1B7D0B7093460260934502672BEF
:1020700009F4A0C090936C0261E0CE010E94BC0FF5
:1020800060E0CE010E94BC0F81E080934402A091E9
:10209000590284E0A89FD0011124A55DBD4FE091B5
:1020A0006C0284E0E89FF0011124E55DFD4F2D9165
:1020B0003C91808191812817390719F010924402D0
:1020C0000CC0809145029091460201979093460280
:1020D00080934502892B09F46DC0C0914502D091CF
:1020E000460280E00E942E0F81E00E942E0F809118
:1020F0004402882341F087E492E00E94DC078AE5ED
:1021000092E00E94DC0720915302309154028091AA
:10211000660290916702609162027091630277FD9E
:1021200030C04091720250E06417750754F52817CB
:1021300039079CF497FD25C04091710250E02417A7
:102140003507FCF437FF02C020E030E08417950724
:102150000CF4AC01421B822F12C037FD12C040911B
:10216000710250E08417950764F497FF02C020E0E5
:1021700030E0421753070CF49A01422F481B0E948B
:102180009D0F87E492E00E94DC07811104C080E08B
:102190000E942E0FF6CF8AE592E00E94DC078111A3
:1021A00004C081E00E942E0FF6CF21971C161D0659
:1021B0000CF4A9CFDF91CF911F910F91FF90EF9079
:1021C000089590E0FC01ED5BF74F2491FC01E15D87
:1021D000F74F8491882399F090E0880F991FFC01B4
:1021E000EB5DF74FA591B491FC01E55EF74F85914A
:1021F00094918FB7F894EC91E22BEC938FBF0895F4
:102200001092700210926F0288E191E090936E023A
:1022100080936D021092A8021092A9021092AA0255
:102220001092760210927502109278021092770244
:1022300010927A0281E08093790282E280937B029D
:102240001092800210927F02E4E9F2E09FEF8EE0AC
:102250008E0F91938E13FDCF81E0809391022AEB34
:1022600034E0309387022093860280938802109294
:10227000890210928A0280E480938B0210928C0271
:1022800087E594E09093A3028093A20288E091E016
:1022900090937402809373028DE0809398028BE098
:1022A000809399028AE08093960289E08093950258
:1022B00088E08093940281E792E00E94460984E2DC
:1022C00091E090936E0280936D020895CF93DF9317
:1022D00000D01F92CDB7DEB7789484B5826084BDFC
:1022E00084B5816084BD85B5826085BD85B581601A
:1022F00085BD80916E00816080936E001092810098
:102300008091810082608093810080918100816052
:102310008093810080918000816080938000809113
:10232000B10084608093B1008091B000816080939F
:10233000B00080917A00846080937A0080917A0066
:10234000826080937A0080917A008E7F80937A00F9
:1023500080917A00806880937A001092C1008DE0AD
:102360000E94E11061E08DE00E94440B8091AA027E
:10237000811107C081E08093AA0281E792E00E9468
:1023800046090091730210917402E091A202F0914B
:10239000A30282E00995E091A202F091A30281E0FC
:1023A000099520E030E044E1B80181E792E00E9425
:1023B0000B0824EA32E047E1B80181E792E00E948D
:1023C0000B08E091A202F091A30280E009958091B0
:1023D000750290917602815D904071F081ED90E000
:1023E00090937602809375020E94BD0CEAEBF4E0B4
:1023F000F0938702E093860281E0809388020E9436
:10240000BD0C80917C02803331F48FEF8093910278
:10241000809392020BC0883221F0823021F081E05B
:1024200003C08FEF01C083E08093910286EB94E0BC
:10243000909387028093860210912A02E12FF0E0A8
:1024400083E0F595E7958A95E1F7E930F10508F025
:10245000E7C2E55CFF4F0C9417164CE251E060E0D8
:1024600080E00E94890C2AE044E16AE085E00E9455
:10247000320D1770165F27E04EE16FE0812F0E944A
:10248000320D44E351E06EE180E00E94890C2AE0C5
:1024900044E168E285E00E94FC0C27E04EE16DE239
:1024A000812F0E94FC0CBCC217704EE351E060E02B
:1024B00080E00E94890C04E124E148E060E081E7CB
:1024C00092E00E944E0A882331F02FE049E062E159
:1024D0008AE00E94E70D08E1F02EF10E105F00E1A6
:1024E00020E148E0612F81E792E00E944E0A8823B4
:1024F00031F02FE047E060E18F2D0E94E70D47E4C7
:1025000051E06EE180E00E94890C04E124E146E2A2
:1025100060E081E792E00E944E0A882331F02FE0CC
:1025200049E060E38AE00E94B00D00E120E146E26C
:10253000612F81E792E00E944E0A882309F470C25D
:102540002FE047E06EE28F2D0E94B00D69C242E598
:1025500051E060E080E00E94890C17701F5F812FBE
:102560000E947F0E812F0E941E0E5AC2177041E6F4
:1025700051E06FE18EE1810F0E94890CAFE14A2E9C
:10258000410EE0918602F091870281E792E0099581
:102590009EE1592E581AB4E68B2EB1E09B2EF40121
:1025A00061914F01662309F455C081E792E00E94D2
:1025B00078096C01892B09F44AC0809175029091C9
:1025C00076020E946E09A82E30908402B090850297
:1025D000F0908302F394F50CE0908202E40C032D5A
:1025E0002B2D4E2D6F2D81E792E00E944E0A8823FD
:1025F00059F1CA0CD11C87E0830D382E36943694DD
:1026000036948FEF8B0DF80E2F2C2B18632C712C1A
:10261000F214D1F03E2D56018A2D8C19831580F4C9
:10262000F501049121E0432F6F2D81E792E03B8378
:102630000E94FC08FFEFAF1ABF0A3B81385FECCF66
:10264000C60CD71CFA94E4CF8091810201C080E0CF
:10265000480EA5CF8EE1582E511AE0918602F091D6
:10266000870281E792E009959FE1492E481AF8E632
:102670008F2EF1E09F2EF40161914F01662309F442
:1026800058C081E792E00E9478096C01892B09F417
:102690004DC080917502909176020E946E09A82E1D
:1026A000E0908402B090850280918202352C381A25
:1026B000F0908302F394F40C61E06E19630D0B2D1E
:1026C0002E2D4F2D81E792E00E944E0A882359F16A
:1026D000CA0CD11C87E08E0DE82EE694E694E694B1
:1026E0008FEF8B0DF80E2F2C2B186E2C712CF214F3
:1026F000D1F0332D56018A2D8C198E1580F4F501F9
:10270000049122E04F2D632F81E792E03B830E94EA
:10271000FC08FFEFAF1ABF0A3B813850ECCFC60C64
:10272000D71CFA94E4CF8091810201C080E0581A4E
:10273000A2CF8FE1D82ED11AE0918602F0918702C4
:1027400081E792E009957EE1572E580EEDE68E2E38
:10275000E1E09E2E44244394F40161914F016623ED
:1027600009F45EC181E792E00E9478097C01892B1F
:1027700009F448C080917502909176020E946E091A
:10278000B82E109184022090850280918202CD2C77
:10279000C81A80918302820D352C381A442D411BB2
:1027A0004C0D012F222D632D81E792E00E944E0AED
:1027B000882329F1EB0CF11C195F169516951695D7
:1027C000230C612E712C3214D1F03C2D57018A2D2F
:1027D0008E19811780F4F501049123E0432F632DB6
:1027E00081E792E03B830E94FC08FFEFAF1ABF0A2B
:1027F0003B813850ECCFE60CF71C3394E4CF80914A
:10280000810201C080E0D81AA7CF177042E751E0DB
:1028100060E080E00E94890C68E287E0810F0E94FE
:10282000DB0E012F000F6CE387E0800F0E94DB0EB0
:10283000802F810F60E5895F0E94DB0E812F880F5A
:10284000880F64E6895F0E94DB0EEAC01770C12E14
:10285000D12C4BE751E060E080E00E94890C28E237
:10286000E22EF12C0AE010E02EE130E04DE250E0E3
:1028700067E070E08EE090E00E94EB0F5601FDE211
:10288000AF0EB11C8AE090E07C01EC18FD088601D7
:10289000075C1F4F2EE130E02C193D0967E070E026
:1028A0006C197D09A501C6010E960E94EB0FC601A9
:1028B0008B96880F991FAC014952510965E3E62EAA
:1028C000F12C8C012EE130E06AE070E04D970E941F
:1028D000EB0F760125E3E20EF11C86010A5A1F4F29
:1028E0009601225E3F4FB601685D7F4FA501C6018C
:1028F0000A960E94EB0F94C080E290E09A8389834D
:1029000048E851E060E080E00E94890C9AE000E233
:10291000F02E10E0F982AE014F5F5F4F692F812FDB
:102920009B830E94890CF394195F9B81103791F768
:10293000005F965F003861F773C0E0E2F0E0FA8371
:10294000E98345E951E060E080E00E94890C0AE0FB
:1029500090EAF92E10E0F982AE014F5F5F4F602FD1
:10296000812F9B830E94890CF394195F9B81103700
:1029700091F7905F065F063461F752C017700091BF
:102980007C02003319F0083209F090C01295110F43
:10299000107E912E969496949694A12EA294A6942D
:1029A000A69483E0A82200E0C02ECC0CCC0CDC2C3A
:1029B000D694D69420E2D29EC0011124B92CB82A14
:1029C000D694D694D6948C2D807EE82EE694E69408
:1029D000E694EA28F12C9F2D990F990F80917C02A3
:1029E000883209F0F0C0907E9E29909391026F2D5D
:1029F000802F0E94560DF394F0E4FF12ECCF0F5F8E
:102A0000003491F680917C02883209F0ECC08FEF9F
:102A10008093910242EA51E060E082E40E94890CD6
:102A2000E0917F02F0918002309719F081E792E007
:102A30000995E0907302F0907402E091A202F09187
:102A4000A30282E00995E091A202F091A30281E045
:102A5000099520E030E045E1B70181E792E00E946E
:102A60000B08182F882341F024EA32E047E1B70130
:102A700081E792E00E940B08E091A202F091A3028C
:102A800080E009951111A3CC80912A028F5F8834D0
:102A900018F480932A0202C010922A0280E090E08B
:102AA000892B09F463CC0E94000060CC023009F04D
:102AB0004CC04DEA51E060E082E40E94890C81E064
:102AC0008093910220E240E464E080E00E94320DB5
:102AD0002CE044E064E186E40E94320D0093910210
:102AE000E12EF12C90E1C92ED12CCE18DF082C2D2F
:102AF000220F40E250E04E195F09440F64E0610F7D
:102B0000812F0E94320D2CE044E064E18AE40E94AF
:102B1000320D83E08093910228E030E02E193F09C6
:102B2000220F220F4C2D440F440F82E0E80EF11CBF
:102B30006E2D660F812F880F0E94320D2CE044E02D
:102B400064E18EE40E94320D6BCF48EB51E06CE003
:102B500080E00E94890C8091730290917402E1E000
:102B60008E309E0751F090931101809310018EE0FA
:102B700091E09093740280937302EFE0F8E0F09399
:102B80000F01E0930E0181E792E00E940D0966E0DB
:102B9000610F48EB51E080E00E94890C8091730244
:102BA000909174028E50914009F03ACF80911001BB
:102BB00090911101909374028093730281E792E0E7
:102BC0000E940D092DCF803339F4B0929102987F85
:102BD0009D29909392020BCF90939102C092920202
:102BE0001093930204CF803331F48FEF80939102DE
:102BF000809392020FCF8FEF809391028093920285
:102C00008093930207CF97FB072E16F4009407D00A
:102C100077FD09D00E941D1607FC05D03EF4909563
:102C200081959F4F0895709561957F4F0895EE0FA0
:102C3000FF1F0590F491E02D0994AA1BBB1B51E1E5
:102C400007C0AA1FBB1FA617B70710F0A61BB70B1C
:102C5000881F991F5A95A9F780959095BC01CD01C1
:102C6000089581E090E0F8940C943616F894FFCF24
:102C7000083000000054C401CC05000115070F08FE
:102C80000000000000000000DE0A170B080707071D
:102C900000000000DE0A170B08070707647261775F
:102CA000426F7800647261774672616D650064728C
:102CB0006177446973630064726177436972636C1E
:102CC000650064726177524672616D652F426F785C
:102CD00000203000203930002031383000203237D9
:102CE0003000647261774C696E650064726177547C
:102CF0007269616E676C6500415343494920706198
:102D00006765203100415343494920706167652060
:102D10003200436F6C6F72205061676500477261CB
:102D200079204C6576656C007365745363616C65DE
:102D300032783200FFFFFFFFFFFFFFFFFFFFFFFFC3
:102D4000FFFFFFFFFFFFFFFFFFFFFFFFFFFFFFFF93
:102D5000FFFFFFFFFFFFFFFFFFFFFFFFFFFFFFFF83
:102D6000FFFFFFFFFFFFFFFFFFFFFFFFFFFFFFFF73
:102D7000FFFFFFFFFFFFFFFFFFFFFFFFFFFFFFFF63
:102D80000E9470127C01892B09F444C08C819D81C2
:102D90000E945412B82EDB88CC888989580E9A89F3
:102DA0009C0D191B0C2D2D2D412F652DCE010E9440
:102DB0008B16882369F1EB0CF11C87E08D0DD82E62
:102DC000D694D694D694C10E4E018CE1880E911CF7
:102DD0006D2C712C1C15E1F0052D57018A2D8E19D3
:102DE0008D1590F4F50184916A817B810C8F1D8F84
:102DF0001F8E8E8F94014BE3CE010E941D16FFEFB4
:102E0000AF1ABF0A085FEACFE60CF71C1F5FE2CFDC
:102E1000888901C080E0DF91CF911F910F91FF90D1
:102E2000EF90DF90CF90BF90AF909F908F907F906A
:102E30006F905F900895CF92DF92EF92FF920F9381
:102E40001F93CF93DF931F92CDB7DEB76C01DC01E8
:102E5000DC961C91DC97DB960C917C01B4E0EB0EC8
:102E6000F11CDC015996ED91FC915A97C7016983D9
:102E70000995482F410F2981602FC7010E94AD1687
:102E8000F60123AD082E000C990B820F911D83AF24
:102E900081E090E00F90DF91CF911F910F91FF9013
:102EA000EF90DF90CF9008952F923F924F925F92D4
:102EB0006F927F928F929F92AF92BF92CF92DF924A
:102EC000EF92FF920F931F93CF93DF9300D0CDB774
:102ED000DEB78A8387E795E00E9454198EE1582E69
:102EE0008A81580E46E251E0652D0E94201986E73E
:102EF00090E00E9454199AE0A92EEA81AE0EE0916A
:102F0000CC01F091CD0187EB91E009959A81995E12
:102F1000B92EB81A28E2822E21E0922E442443943E
:102F2000F40161914F01662309F461C087EB91E0E0
:102F30000E9470127C01892B09F456C08091BB015C
:102F40009091BC010E945412782ED090CA01C0907A
:102F5000CB016090C90163946B0C1091C8011A0DEC
:102F60000D2D2C2D412F662D87EB91E00E948B16A5
:102F70008823B9F1E70CF11C07E00D0D06950695C5
:102F800006958FEF8C0D262C280E322C3C18602EC7
:102F9000712C231431F1512F67018C2D8E1980175C
:102FA000E0F4F60184916091B9017091BA01209228
:102FB000D3015093D4014092D6018093D50123EDE3
:102FC00031E04BE387EB91E059830E941D16FFEF40
:102FD000CF1ADF0A5981585FE0CFE60CF71C2A941C
:102FE000D8CF8091C70101C080E0A80E99CF87E7B4
:102FF00095E00E9454194AE251E0652D8A818B5C6C
:103000000E9420196A816D5D8A818E5F0E94E41999
:103010006A81605E8A81835D0F900F90DF91CF910E
:103020001F910F91FF90EF90DF90CF90BF90AF90E6
:103030009F908F907F906F905F904F903F902F90D8
:103040000C94A119CF92DF92EF92FF920F931F93EE
:10305000CF93DF936C017A018B01C0E0D0E0CE15F5
:10306000DF0589F0D8016D918D01D601ED91FC91BC
:103070000190F081E02DC6010995892B11F47E01A4
:1030800002C02196ECCFC701DF91CF911F910F9124
:10309000FF90EF90DF90CF9008953FB7F894809124
:1030A000F6019091F701A091F801B091F90126B5D0
:1030B000A89B05C02F3F19F00196A11DB11D3FBF70
:1030C000BA2FA92F982F8827820F911DA11DB11DFE
:1030D000BC01CD0143E0660F771F881F991F4A95F9
:1030E000D1F708950895DC011696ED91FC9117979C
:1030F00012968C91481B477081E090E001C0880FC8
:103100004A95EAF7E60FF11D3081222311F0832B57
:1031100002C08095832380830895EF92FF920F93DE
:103120001F93CF93DF93D82F062FC42F142FF82E81
:10313000F40EEE24EA948F2D811B1830A8F06091D4
:10314000B9017091BA018093D3010093D401109218
:10315000D601E092D50123ED31E04BE387EB91E01E
:103160000E941D161850E7CF8C2F887FD80F4C2F48
:10317000477019F197E049276091B9017091BA0140
:10318000D093D3010093D4011092D6014F5F4770C2
:103190008FEF90E001C0880F4A95EAF78093D50140
:1031A00023ED31E04BE387EB91E0DF91CF911F916D
:1031B0000F91FF90EF900C941D16DF91CF911F910E
:1031C0000F91FF90EF9008950F931F93CF93DF938C
:1031D000182F042FC62FD62FD20F402F6C2F812FE0
:1031E0000E948D18CF5FDC13F8CFDF91CF911F9134
:1031F0000F910895FF920F931F93CF93DF93C82FE2
:10320000D62F142FF22E022F242F462F682F87EB54
:1032100091E00E948B16882359F02F2D412F6D2F9E
:103220008C2FDF91CF911F910F91FF900C94E41898
:10323000DF91CF911F910F91FF9008950E94851CFF
:10324000CF92DF92FF920F931F93CF93DF9300D023
:10325000CDB7DEB7F82E062FE091CC01F091CD016D
:1032600087EB91E049835A830995080F4981C42E61
:103270005A81D52E10E0F60121916F01222349F0E9
:10328000402F6F2D87EB91E00E94AD16F80E180FBE
:10329000F2CF812F0F900F90DF91CF911F910F915F
:1032A000FF90DF90CF9008952091BB013091BC0139
:1032B0002817390709F444C09093BC018093BB01DF
:1032C000009709F437C02091CE01FC01211107C0FD
:1032D0003596E491E093CF01FC013C960FC021307C
:1032E00039F43F96E491E093CF01FC01709606C05B
:1032F0003D96E491E093CF01FC013E96849180934A
:10330000D0018091CF01082E000C990B2091D001A3
:10331000821B910927FD93952091D101203441F022
:10332000829FC001112426E0969587952A95E1F7A2
:103330008093D20187E492E19093CD018093CC01F8
:1033400008950F931F93CF93DF93D82FC62F0CE0D0
:1033500021E0462F682F87EB91E00E948B1688238F
:1033600071F16091B9017091BA01D093D301C0930A
:10337000D40111E01093D6018FEF8093D50123ED96
:1033800031E04BE387EB91E00E941D166091B9019B
:103390007091BA01D093D301C85FC093D401109348
:1033A000D60180EF8093D50123ED31E04BE387EB2D
:1033B00091E0DF91CF911F910F910C941D16DF9139
:1033C000CF911F910F9108950F93CF93DF93C82F43
:1033D000D62F01E02FE2462F682F87EB91E00E9465
:1033E0008B16882341F04FE26D2F8C2FDF91CF9108
:1033F0000F910C948D18DF91CF910F91089590E06B
:10340000FC01E95BF14E3491FC01ED5CF14E24913D
:10341000FC01E15EF14EE491EE2309F43BC033235D
:1034200039F1333091F038F43130A9F0323001F510
:1034300084B58F7D12C0373091F03830A1F0343030
:10344000B9F4809180008F7D03C0809180008F77D8
:10345000809380000DC084B58F7784BD09C08091B2
:10346000B0008F7703C08091B0008F7D8093B00053
:10347000F0E0EE0FFF1FEB5EF14EA591B4918FB718
:10348000F894EC91611103C020952E2301C02E2BDE
:103490002C938FBF08951F920F920FB60F92112495
:1034A0002F933F938F939F93AF93BF938091F2019C
:1034B0009091F301A091F401B091F5013091F101E7
:1034C00026E0230F2D3720F40296A11DB11D05C063
:1034D00029E8230F0396A11DB11D2093F1018093CC
:1034E000F2019093F301A093F401B093F501809160
:1034F000F6019091F701A091F801B091F9010196C0
:10350000A11DB11D8093F6019093F701A093F801DE
:10351000B093F901BF91AF919F918F913F912F91FE
:103520000F900FBE0F901F901895FB014181DC0199
:1035300012962C911297421768F013962C911397BC
:10354000241740F0608115962C91621718F424819D
:103550000C9473180895FC0180819281980F9283D6
:103560002181921760F494819F5F94839381890FE6
:10357000821710F08FEF820F838381E0089580E03F
:103580000895FC0112828081815083831482089502
:103590001092B6011092B50182E191E09093B401CE
:1035A0008093B3011092EE011092EF011092F0019E
:1035B0001092BC011092BB011092BE011092BD018D
:1035C0001092C00181E08093BF0182E28093C1012B
:1035D0001092C6011092C501EAEDF1E09FEF8EE076
:1035E0008E0F91938E13FDCF81E08093D70127E456
:1035F00032E13093CD012093CC018093CE01109223
:10360000CF011092D00180E48093D1011092D201B9
:1036100082E798E19093E9018093E80188E091E0E6
:103620009093BA018093B9018DE08093DE018BE025
:103630008093DF018AE08093DC0189E08093DB01E5
:1036400088E08093DA0187EB91E00E9421168EE1F9
:1036500091E09093B4018093B3010895789484B578
:10366000826084BD84B5816084BD85B5826085BD7E
:1036700085B5816085BD80916E00816080936E000C
:1036800010928100809181008260809381008091FE
:1036900081008160809381008091800081608093AF
:1036A00080008091B10084608093B1008091B0006F
:1036B00081608093B00080917A00846080937A006A
:1036C00080917A00826080937A0080917A008E7F68
:1036D00080937A0080917A00806880937A001092BB
:1036E000C10063E0962E00E010E0D1E08091F0018F
:1036F000811106C0D093F00187EB91E00E94211662
:10370000E090B901F090BA01E091E801F091E9018F
:1037100082E00995E091E801F091E90181E00995E5
:1037200020E030E044E1B70187EB91E00E941D16F4
:103730002AEE31E047E1B70187EB91E00E941D16C8
:10374000E091E801F091E90180E009958091C201E2
:10375000883209F043C0F090B701F294F69457E034
:10376000F522E090B801E694E694E6948F2C880C5C
:10377000880C880C612CC0E0712CC12CD12CC601A6
:10378000880F991F880F991F4C2E482A372C360C0A
:10379000512CA12CB12C950145E0220F331F4A95E5
:1037A000E1F724292093D7012E2D4F2D652D832D50
:1037B0000E94FA182FEFA21AB20A5E0C88E0A8162F
:1037C000B10449F72FEFC21AD20A7F0C88E0C8165D
:1037D000D104A9F6CF5F680CC43071F6D093D7013D
:1037E0008091C2018F71823058F082E00E9454179C
:1037F00082E08093D70181E00E9454179092D70114
:1038000080E00E9454178BE59EE10E94541980913C
:10381000B8018B3358F44CE251E069E085E30E9433
:1038200020194BE451E062E18DE404C04CE351E027
:1038300066E381E00E942019D093D701E091C50191
:10384000F091C601309719F087EB91E00995E0906F
:10385000B901F090BA01E091E801F091E90182E04C
:103860000995E091E801F091E90181E0099520E0F6
:1038700030E045E1B70187EB91E00E941D16C82FAB
:10388000882341F02AEE31E047E1B70187EB91E070
:103890000E941D16E091E801F091E90180E0099590
:1038A000C11154CF0E944D182B013C0188ECC82E49
:1038B000D12CE12CF12C0E944D18DC01CB01841994
:1038C0009509A609B709883E9340A105B10558F0AE
:1038D00021E0C21AD108E108F10888EE480E83E021
:1038E000581E611C711CC114D104E104F10419F7C4
:1038F0000115110509F4FACE0E940000F6CEEE0F74
:10390000FF1F0590F491E02D099481E090E0F89478
:103910000C948A1CF894FFCF083000000054560124
:103920003D1400018215000000001B1722183A14F4
:103930003914000000001B1722183A1439145500DE
:1039400038006700636F64652E676F6F676C652E64
:10395000636F6D00636F64652E676F6F676C652EB4
:10396000636F6D2F702F7538676C69620000FFFF01
:10397000FFFFFFFFFFFFFFFFFFFFFFFFFFFFFFFF57
:10398000223051F4F70109C0F70101C0F80120818C
:103990003181820F931F07C0F80120813181A90175
:1039A000481B590BCA019183808381E090E0DF912D
:1039B000CF911F910F91FF90EF90DF90CF90BF902C
:1039C000AF909F908F907F906F905F904F900895F1
:1039D0000F931F93CF93DF93EC018C010C5F1F4F6C
:1039E0008C818E7F8C831E861D8681E090E09DA356
:1039F0008CA3FE01E859FF4F118210823F9680830D
:103A0000ED5AFF4F1082319610823196108281EA72
:103A100096E19C878B878FEB9BE19A8789871E8A2B
:103A20001D8AC8010E94031AC8010E949E1BC8017A
:103A30000E948E1BFE01EF52FF4F118210823296C0
:103A40001182108232961082FF97CD55DF4F8FEF93
:103A50008193EC17FD07E1F7DF91CF911F910F9153
:103A60000895EF92FF920F931F93CF93DF93EC0192
:103A7000E42E8C010A561F4F662311F061E001C04D
:103A800060E0F80180810E94F818CB56DF4F61E0BA
:103A900088810E94F81860E088810E94F81888E008
:103AA000F82EE7FE02C061E001C060E0F80180810D
:103AB0000E94F81861E088810E94F81860E088810F
:103AC0000E94F818EE0CFA94F110EBCFDF91CF9131
:103AD0001F910F91FF90EF900895AF92BF92CF92F8
:103AE000DF92EF92FF920F931F93CF93DF931F927A
:103AF000CDB7DEB75C018A017901FB013A97EC3062
:103B0000F10508F0EAC0EC5CFF4F0C9464306C01E6
:103B100087ECC80ED11C93C06C01E7ECCE0ED11C13
:103B200077C06C01F7ECCF0ED11C63C0020F131FDE
:103B30006C0187ECC80ED11CA1C06C01E6E9CE0E69
:103B4000D11CF60180810E945A247501F5E9EF0E1F
:103B5000F11CF70180810E945A2485010C561F4FE9
:103B6000F80180818F3F11F00E945A24F2E9AF0ED4
:103B7000B11CF50180818F3F11F00E945A2461E051
:103B8000F60180810E94F81860E0F70180810E94B0
:103B9000F818F80180818F3F19F061E00E94F81851
:103BA000F50180818F3F09F498C061E013C0433074
:103BB000510508F492C0CA01880F991F0497019714
:103BC000F1F78BC0FC01EE56FF4F80818F3F09F467
:103BD00084C0602F0E94F81880C0FC01EC56FF4F93
:103BE000F4CFFC01E953FF4F608161700E94311DE9
:103BF00074C00115110509F470C0F601608161708F
:103C0000F7014081C5010E94311D01501109F1CF1A
:103C10000115110509F461C0F60160816170F701B9
:103C20004081C5010E94311DF60160816170F7017C
:103C30004181C5010E94311D01501109E9CF0115D3
:103C4000110509F44AC0F60160816170F7014081F5
:103C5000C5010E94311DF60160816170F70141814B
:103C6000C5010E94311DF60160816170F70142813A
:103C7000C5010E94311D01501109E1CFE016F10686
:103C800061F1F70141917F01F60160816170C50129
:103C90000E94311DF3CFFC01E953FF4F20812170B9
:103CA000FFEFEF1AFF0A01151105B9F0F70131977F
:103CB0008081882321F021E0813009F420E0F701A0
:103CC0004081622FC50129830E94311D01501109D5
:103CD000F2E0EF0EF11C2981E6CF81E090E00F9039
:103CE000DF91CF911F910F91FF90EF90DF90CF90D8
:103CF000BF90AF9008959A01DC015196ED91FC912F
:103D00005297AB0162E170E00994EF92FF920F933A
:103D10001F93CF93C42F8C010A531F4FAC014953FB
:103D20005F4F7A0161111BC0D8013C913C2329F0FF
:103D3000FA0130813C233C132EC0622F70E0DC017D
:103D40005196ED91FC91529720E030E040E050E038
:103D500009959C2F9095F7018081892317C0F80160
:103D600030813C2321F0DA013C913C23A1F4462F21
:103D700050E0622F70E0DC015196ED91FC9152977A
:103D800020E030E00995F70180818C2B8083D801F9
:103D90008C91C82BCC93CF911F910F91FF90EF90F6
:103DA00008952FE041E00C94851E6F927F928F92D0
:103DB0009F92AF92BF92CF92DF92EF92FF920F93BA
:103DC0001F93CF93DF938C01EB016C0188ECC80E3D
:103DD000D11C66246394FE016491E62EE2942FE0E8
:103DE000E222F62FFF707F2E8E2D90E0FC0131979E
:103DF000EF30F10508F0CCC0E05CFF4F0C9464306C
:103E00004E018FEF881A980AD6016C916695617001
:103E1000C8010E94D11EF12CA401B701C8010E9463
:103E2000D91BA72CB12C772069F08E0C9F1CF601B2
:103E300060816170C8010E94D11EA401B501C80152
:103E40000E94D91BFFEFEF1AFF0AEA0CFB1C12C0FD
:103E5000D6016C916170C8010E94D11EAE014F5F06
:103E60005F4FE72CF12CB701C8010E94D91BBFEFAF
:103E7000EB1AFB0ACE0DDF1DAECFF6016081669511
:103E800061706625C8010E94D11EE72CF12C7720B5
:103E900039F0AE014F5F5F4FB701C8010E94D91BD7
:103EA000FFEFEF1AFF0AE6CFFE013196E491672D8E
:103EB00070E0762F66276E0F711DC8010E94091CE5
:103EC0000CC0FE013196E491672D70E0762F6627D5
:103ED0006E0F711DC8010E94FE1B22967CCFFE0151
:103EE0003196E4903196F4902396D6016C916170EE
:103EF000C8010E94D11EF8014389548902C055951A
:103F000047957A94E2F74E21E42FEF294E2F50E0A7
:103F1000D8011BC0FE013196E4903196F4902396AF
:103F2000F60160816170C8010E94D11ED8015596CA
:103F30004D915C91569702C0559547957A94E2F75A
:103F40004E21E42FEF294E2F50E05196ED91FC9138
:103F5000529720E030E060E170E0C80109953BCF66
:103F6000872D86958695813059F030F0833071F435
:103F70006370F60160830AC061702DE044E003C005
:103F800061702EE042E0C8010E94851E219623CF79
:103F9000DF91CF911F910F91FF90EF90DF90CF9025
:103FA000BF90AF909F908F907F906F900895FC018D
:103FB00025893689E25AFF4F40815181241B350BF8
:103FC00037FD0AC0349681E090E04081518124178A
:103FD000350724F080E0089580E090E00895FC012A
:103FE00023893489E45AFF4F40815181241B350BCA
:103FF00037FD0AC0349681E090E04081518124175A
:10400000350724F080E0089580E090E00895EF9275
:10401000FF920F931F93CF93DF9300D000D0CDB7C3
:10402000DEB78C01FC01178E168EE48CF58CF1E066
:10403000EF16F10409F446C01CF4EF2861F0E7C064
:1040400052E0E516F10409F472C083E0E816F104C9
:1040500009F4A5C0DCC00E94D71F892B19F4E12CFC
:10406000F12CD8C0F801238934893C832B83828DBD
:10407000938D820F931F9A838983E45AFF4F408167
:104080005181349620813181240F351FBE016F5F2D
:104090007F4FCE0103960E941D1C892B01F32B81BB
:1040A0003C81F80183899489A901481B590B578FDA
:1040B000468F348B238B89819A81821B930B938F3C
:1040C000828FA5C00E94EF1F892B49F2F801258934
:1040D00036893C832B83828D938D820F931F9A8325
:1040E0008983E25AFF4F408151813496208131818A
:1040F000240F351FBE016F5F7F4FCE0103960E94D4
:104100001D1C892B09F4ABCF2B813C81F8018589DB
:104110009689A901481B590B578F468F368B258BE3
:1041200089819A81821B930B938F828F73C00E9427
:10413000D71F892B09F493CFF801838994890196BD
:104140009A838983228D338D821B930B9C838B836F
:10415000E45AFF4F40815181349620813181240FF0
:10416000351FBE016F5F7F4FCE0103960E941D1C5D
:10417000892B09F474CF89819A812B813C81AC0110
:10418000421B530BF801538F428F019723893489C7
:10419000281B390B378F268F948B838B38C0C8012F
:1041A0000E94EF1F892B09F45ACFF801858996895F
:1041B00001969A838983228D338D821B930B9C8376
:1041C0008B83E25AFF4F40815181349620813181A7
:1041D000240F351FBE016F5F7F4FCE0103960E94F3
:1041E0001D1C892B09F43BCF89819A812B813C814D
:1041F000AC01421B530BF801538F428F0197258965
:104200003689281B390B378F268F968B858BEE24AA
:10421000E394F12CC7010F900F900F900F90DF9156
:10422000CF911F910F91FF90EF900895FC0126818F
:104230008081280F20834485558582859385840F4E
:10424000951F9587848740855185841795073CF095
:104250003281230F2083841B950B958784870895D3
:104260001F93CF93DF93FC01162F6183C42FD0E0FF
:10427000C61BD109D583C4832150310931872087DA
:1042800081E090E093838283CE01B9010E94503097
:1042900077836683D7FF09C0D195C195D109D583AE
:1042A000C4838FEF9FEF9383828384819581B901CB
:1042B0000E9450309387828737FF02C02F5F3F4FA5
:1042C00035952795358724871083DF91CF911F91EE
:1042D00008958091000161E4869F602D11246F5E36
:1042E0006093000170E080E090E00895009769F02D
:1042F000FC0101900020E9F73197AF01481B590BF1
:10430000BC0186EE91E00C945E1480E090E008958C
:104310008F929F92BF92CF92DF92EF92FF920F9374
:104320001F93CF93DF936C017B010CEB12E0C9E18B
:10433000D2E0BC2E83E0B80E4E01DE011397FE01E1
:10434000399797014C916081C8010E9430212196D4
:10435000FE0137979701D4014C916081C8018A967C
:104360000E943021025F1F4FBC12E6CFC0E0D0E0B8
:1043700097012C1B3D0B121613060CF04DC08091BB
:10438000BC02809310028091CA0280931102809136
:10439000D802809312028091E602809313028091EA
:1043A000F40280931402809102038093150210920C
:1043B000FE011092FD01D0930002C093FF01D09244
:1043C0000502C09204021092070210920602E091C8
:1043D000EF01F091F0014DEF51E067E170E08AEEFE
:1043E00091E009958CEB92E00E9416218AEC92E014
:1043F0000E94162188ED92E00E94162186EE92E03E
:104400000E94162184EF92E00E94162182E093E040
:104410000E9416212196ACCFDF91CF911F910F9171
:10442000FF90EF90DF90CF90BF909F908F90089576
:10443000CF92DF92EF92FF920F931F93CF93DF9370
:104440007C018B016A01E9011C161D0624F580918F
:1044500010028093010280911102809302028091E8
:10446000120280930302F092FE01E092FD0110938C
:1044700000020093FF01D0920502C0920402109244
:104480000702109206028AEE91E00E943F1A2197DD
:104490000F5F1F4FD9CFDF91CF911F910F91FF90E9
:1044A000EF90DF90CF900895E6EEF1E022A5238F04
:1044B00023A5248F24A5258F908F878B728F618FE2
:1044C0000184F285E02D40E050E064E170E08AEE86
:1044D00091E00994CF92DF92EF92FF920F931F9396
:1044E000CF93DF93082F10E093E1899FE00111241F
:1044F000C455DE4F6EA184E0689FF0011124E4559D
:10450000FE4FE280F380C080D180ECA1FDA18CEA57
:1045100091E0099594E0899FF0011124E455FE4F44
:1045200022813381408151818EA3CA018C199D095A
:10453000A9014E195F095F8B4E8B3F8F2E8FFD8E29
:10454000EC8ED9A2C8A297FD08C021E030E03D8BD7
:104550002C8B1BA21AA27C010EC02FEF3FEF3D8BCC
:104560002C8BEE24FF24E81AF90A21E030E0241B0A
:10457000350B3BA32AA323E1209FF001219FF00DDF
:104580001124E455FE4F26893789B9010E94503025
:10459000718F608FC701B9010E945030938F828F55
:1045A000DF91CF911F910F91FF90EF90DF90CF900F
:1045B0000895EF92FF920F931F93CF93DF938C0197
:1045C00083E1689FF0011124E455FE4F66A17F014D
:1045D000A4E2EA0EF11CEF01A696D701ED91FC9141
:1045E0008CEA91E00995682FB4E08B9FF0011124CB
:1045F000E455FE4F828193818017910711F46883FF
:10460000ECCFDF91CF911F910F91FF90EF90089524
:10461000CF93DF9320914E0230914F022817390734
:1046200009F4A2C0EC0190934F0280934E02FC016A
:10463000849180935F023196E491E0936002FE01E1
:104640003296E491E0936102FE013396E491E093A7
:104650006202FE013496E491E0936302FE01359616
:10466000E491E0936402FE013696E491E0936502E2
:10467000FE013796E491E0936602FE013896E491DC
:10468000E0936702FE013996E491E0936802FE012F
:104690003A96E491E0936902FE013B96E491E0933F
:1046A0006A02FE013C96E491E0936B02FE013D96A6
:1046B000E491E0936C02FE013E96E491E0936D027A
:1046C000FE013F96E491E0936E02FE017096E49144
:1046D000E0936F0261E1CE010E94331A9093710260
:1046E0008093700263E1CE010E94331A90937302AB
:1046F0008093720280914E0290914F02892BA1F11A
:1047000080916C0280937A0240916D0240937B020B
:1047100090917902992341F1913069F490916E0260
:10472000891714F490937A0280916F028417E4F44D
:1047300080937B0219C03091690220916B02082E90
:10474000000C990B622F022E000C770B630F711D6A
:1047500037FD7A95861797071CF4320F30937A024B
:10476000241714F420937B02DF91CF9108958F9248
:104770009F92AF92BF92CF92DF92EF92FF920F93F0
:104780001F93CF93DF937C016B015A018901C6EE21
:10479000D1E08AA58B8F8BA58C8F8CA58D8FF88E01
:1047A000EF8A7A8F698F5F8F4E8F19A218A28AEED7
:1047B00091E00E943F1A8AA58B8F8BA58C8F8CA5C8
:1047C0008D8FF88EEF8ADA8EC98E1F8F0E8F882418
:1047D0008394912C99A288A28AEE91E00E943F1ABC
:1047E000C7018A0D9B1D2AA52B8F2BA52C8F2CA5CD
:1047F0002D8F0197988F8F8BDA8EC98E1F8F0E8F1A
:1048000099A288A28AEE91E00E943F1A0C0D1D1D0C
:104810008AA58B8F8BA58C8F8CA58D8FF88EEF8AB8
:10482000015011091A8F098FBF8EAE8E19A218A2DE
:104830008AEE91E0DF91CF911F910F91FF90EF9061
:10484000DF90CF90BF90AF909F908F900C943F1AC5
:10485000CF93DF93C6EED1E01AA61BA61CA68AEE64
:1048600091E00E94691B2F8138854D815E8160E057
:1048700070E080E090E00E9418228FEF8AA78BA75B
:104880008CA7DF91CF9108958091F3019091F4016D
:10489000009741F09093F0018093EF011092F401A2
:1048A0001092F3018AEE91E00E948E1B8AEE91E055
:1048B0000C94691B90E0FC01EE5AF74D2491FC0129
:1048C000E25CF74D8491882399F090E0880F991F5E
:1048D000FC01EC5CF74DA591B491FC01E65DF74D50
:1048E000859194918FB7F894EC91E22BEC938FBF64
:1048F0000895CF93DF93CDB7DEB72E970FB6F89418
:10490000DEBF0FBECDBF789484B5826084BD84B510
:10491000816084BD85B5826085BD85B5816085BDBA
:1049200080916E00816080936E0010928100809172
:1049300081008260809381008091810081608093FA
:104940008100809180008160809380008091B1001F
:1049500084608093B1008091B00081608093B0004A
:1049600080917A00846080937A0080917A008260DE
:1049700080937A0080917A008E7F80937A00809174
:104980007A00806880937A001092C10068EE73E02C
:1049900080E090E00E9444198091B5029091B602A7
:1049A0004091B3025091B4022091EA012E7F2093EE
:1049B000EA011092F4011092F30121E030E030930B
:1049C0000B0220930A0210924F0210924E02209383
:1049D0005D021092B0021092B1021092B2020097E2
:1049E00011F481EA96E19093F2018093F1015093E2
:1049F000F0014093EF018DE69DE19093FC018093DF
:104A0000FB018AEE91E00E94031A8AEE91E00E9477
:104A10009E1B8AEE91E00E948E1B81E080935D02D6
:104A20008FEB93E10E9408230E9428248091A20129
:104A30008370813099F078F08230E9F40E94442448
:104A40008091EF019091F0019093F4018093F30134
:104A50008CE295E11CC00E94442425C00E9444249D
:104A60008091EF019091F0019093F4018093F30114
:104A700085EB95E10CC00E9444248091EF01909158
:104A8000F0019093F4018093F3018EEA94E1909306
:104A9000F0018093EF018AEE91E00E948E1B8AEE76
:104AA00091E00E94691B8091A201843008F441C00A
:104AB0000E9428240E9469217B012FE1E222FF2429
:104AC0000E9469216F71772739E1E30EF11C8B0198
:104AD000075E1F4F0E9469219B01AC01A091EB0171
:104AE000B091EC01AE19BF090E946A30872E982E52
:104AF000A92EBB240E9469219B01AC01A091ED016C
:104B0000B091EE01A01BB10B0E946A30BB27A92F08
:104B1000982F872F9A8289829C838B83FE82ED82D5
:104B200018870F83BE016F5F7F4F8AEE91E00E946E
:104B3000601B8091A2018F5F8093A20110921002EE
:104B400088E28093110290E59093120290931302F1
:104B500010921402809315021FEF10931602109208
:104B60001702109318021092190210931A02109350
:104B70001B026091ED017091EE018091EB0190912B
:104B8000EC010E9488211093100288EA80931102A0
:104B9000109212021092BB0242E0E42EF12CF0922D
:104BA000B802E092B70282E190E09093BA0280935B
:104BB000B90285E291E00E947621F092B802E0927B
:104BC000B70286E290E09093BA028093B9028CE239
:104BD00091E00E94762160ED77E080E090E00E9415
:104BE00044198AEF8093100210921102109212025F
:104BF00010931302109314028EE1809315029CED22
:104C0000909316029BEE909317029AE090931802ED
:104C10009DEC9093190210921A0280931B026091EE
:104C2000ED017091EE018091EB019091EC010E94F9
:104C30008821E090EB01F090EC01F7FE03C08FEFCC
:104C4000E81AF80AF594E7940091ED011091EE014D
:104C500017FF02C00F5F1F4F1595079577247A94B1
:104C6000709210027092110270921202F2E0AF2E56
:104C7000B12CB092B802A092B70282E190E090937A
:104C8000BA028093B90289E391E00E9476211092E2
:104C90001002A6E66A2E60921102BCEC9B2E909246
:104CA0001202C7010F969093B8028093B702C80111
:104CB00005979093BA028093B9028FE391E00E9426
:104CC0007621670195E0C90ED11CD092B802C0923E
:104CD000B702C8014A969093BA028093B90284E45D
:104CE00091E00E947621C70188979093B802809343
:104CF000B702C80144969093BA028093B90289E43E
:104D000091E00E947621D092B802C092B702C80109
:104D100049979093BA028093B9028EE491E00E9481
:104D2000762110921002609211027092120210927B
:104D300013026092140290921502109216021092C1
:104D4000170289E9809318021801E1E02E1A310850
:104D50004701F2E08F0E911C109201026092020254
:104D6000709203029092FE018092FD013092000247
:104D70002092FF0184E1C82ED12CD0920502C0926E
:104D8000040210920702109206028AEE91E00E943D
:104D90003F1A809113028093010280911402809344
:104DA000020280911502809303029092FE0180928C
:104DB000FD01109300020093FF01D0920502C09202
:104DC000040210920702109206028AEE91E00E94FD
:104DD0003F1A28012FEF421A520A8091160280933F
:104DE0000102809117028093020280911802809341
:104DF00003029092FE018092FD01509200024092C7
:104E0000FF01D0920502C092040210920702109294
:104E100006028AEE91E00E943F1A380132E0630EEA
:104E2000711CA7014F5F5F4F8091100280930102B8
:104E300080911102809302028091120280930302FA
:104E40005093FE014093FD01709200026092FF01B9
:104E5000D0920502C092040288248394912C9092EF
:104E60000702809206028AEE91E04D875E870E94DB
:104E70003F1A809113028093010280911402809363
:104E800002028091150280930302F092FE01E092EB
:104E9000FD01709200026092FF01D0920502C09263
:104EA000040290920702809206028AEE91E00E942C
:104EB0003F1A970121503109809116028093010217
:104EC000809117028093020280911802809303025E
:104ED0003093FE012093FD01709200026092FF0169
:104EE000D0920502C09204029092070280920602BC
:104EF0008AEE91E02B873C870E943F1A470182E0AF
:104F0000881A910880911002809301028091110209
:104F10008093020280911202809303029092FE011C
:104F20008092FD01509200024092FF01D092050252
:104F3000C0920402B0920702A09206028AEE91E0AB
:104F40000E943F1A80911302809301028091140203
:104F50008093020280911502809303029092FE01D9
:104F60008092FD01109300020093FF01D092050290
:104F7000C0920402B0920702A09206028AEE91E06B
:104F80000E943F1A809116028093010280911702BD
:104F90008093020280911802809303029092FE0196
:104FA0008092FD01309200022092FF01D092050212
:104FB000C0920402B0920702A09206028AEE91E02B
:104FC0000E943F1A02501109809110028093010241
:104FD0008091110280930202809112028093030259
:104FE0002B853C853093FE012093FD011093000238
:104FF0000093FF01D0920502C092040223E0A22E8A
:10500000B12CB0920702A09206028AEE91E00E94B3
:105010003F1A8091130280930102809114028093C1
:1050200002028091150280930302F092FE01E09249
:10503000FD01109300020093FF01D0920502C0927F
:105040000402B0920702A09206028AEE91E00E944A
:105050003F1A80911602809301028091170280937B
:10506000020280911802809303024D855E85509361
:10507000FE014093FD01109300020093FF01D092C6
:105080000502C0920402B0920702A09206028AEEC4
:1050900091E00E943F1A60ED77E080E090E00E948E
:1050A00044198091EB019091EC018C0197FF02C0B3
:1050B0000F5F1F4F15950795109210021092110265
:1050C00026E920931202109213023CE3309314025B
:1050D00028E22093150230931602109217022093B3
:1050E000180228E72093190220931A0228EC209333
:1050F0001B026091ED017091EE010E9488218FEFFB
:1051000080931002809311028093120282E090E05B
:105110009093B8028093B70282E190E09093BA0234
:105120008093B9021092BB0283E591E00E94762140
:1051300060E070E080E090E00E94542260E070E067
:1051400081E090E00E9454226091ED017091EE01A7
:10515000615071098091EB019091EC0101970E94DF
:1051600054226091ED017091EE01615071098091BE
:10517000EB019091EC0102970E945422812C912C1A
:10518000E12CF12C77247A946DE0C62ED12CAA2440
:10519000A394B12CE016F1060CF058C0C401B8017C
:1051A0000E943C30262F2095CB0177FD01969595E6
:1051B00087958095709210028093110220931202BD
:1051C000709201028093020220930302F092FE018A
:1051D000E092FD01E8E1F0E0F0930002E093FF01CE
:1051E000E091EF01F091F00140E050E064E170E007
:1051F0008AEE91E0099580911002809301028091DE
:105200001102809302028091120280930302C7016F
:1052100007969093FE018093FD012AE130E03093E0
:1052200000022093FF01D0920502C0920402B092C6
:105230000702A09206028AEE91E00E943F1A3FEF19
:10524000E31AF30A8FEF880E911CA4CF60ED77E08C
:1052500080E090E00E944419109210021092110216
:10526000109212022091ED013091EE014091EB017C
:105270005091EC0160E070E080E090E00E94182224
:105280008FEF80931002809311028093120282E0CC
:1052900090E09093B8028093B70282E190E09093FF
:1052A000BA028093B9021092BB028CE591E00E9491
:1052B00076218FE78093100280931102809312026F
:1052C0002CE230E044E450E064E170E080E090E003
:1052D0000E94182210E032E0E32EF12C109310020D
:1052E000109311021093120228E030E044E050E0E5
:1052F00066E170E0C7010E9418221093100210921C
:1053000011021092120228E030E044E050E06EE119
:1053100070E0C7010E94182210921002109311022F
:105320001092120228E030E044E050E066E270E0C3
:10533000C7010E94182210921002109211021093BD
:10534000120228E030E044E050E06EE270E0C70175
:105350000E94182210931002812F809580931102D1
:105360001092120228E030E044E050E066E370E082
:10537000C7010E94182294E0E90EF11C1F5E103153
:1053800009F0ACCF60ED77E080E090E00E94441936
:105390001092100220E52093110294E190931202E2
:1053A0008CE3809313022093140290931502809350
:1053B000160288E7809317021092180210921902C1
:1053C0008CE880931A028EE180931B026091ED01BC
:1053D0007091EE018091EB019091EC010E94882187
:1053E0008FEF80931002809311028093120282E06B
:1053F00090E09093B8028093B70282E190E090939E
:10540000BA028093B90287E691E00E9476210E9459
:105410007E196B017C01E0EACE0EEFE0DE1EE11C9E
:10542000F11C0E947E196C157D058E059F0508F004
:10543000F6C00E946921162F0E946921062F0E9442
:105440006921862F8F778158809310020F71009306
:1054500011021F77105C109312020E9469219B01B8
:10546000AC01A091ED01B091EE0154970E946A3019
:10547000BB27A92F982F872F1C01F4E12F0E311C79
:105480000E9469219B01AC01A091EB01B091EC015C
:105490000E946A30872E982EA92EBB240E94692173
:1054A0009B01AC01A091ED01B091EE0154970E94D7
:1054B0006A30BB27A92F982F872F9C012C5E3F4F66
:1054C0003A8729870E9469219B01AC01A091EB01D9
:1054D000B091EC010E946A30472E582E692E772435
:1054E0000E9469219B01AC01A091ED01B091EE01F8
:1054F00054970E946A30BB27A92F982F872F8C01C1
:105500000C5E1F4F0E9469219B01AC01A091EB0131
:10551000B091EC010E946A30BB27A92F982F872FEA
:105520009093AD018093AC011093AF010093AE0155
:105530005092B1014092B00189859A859093B30150
:105540008093B2019092B5018092B4013092B7017C
:105550002092B60193E09093BC01E6E3F6E1F0936C
:10556000E401E093E3012DE236E13093D101209391
:10557000D0011092D201ECEAF1E0580190E081E014
:10558000833070F426813781021713070CF48901E8
:105590002A153B0514F4982F59018F5F3496F0CFEC
:1055A0009093D2010A191B091093BF010093BE0109
:1055B000012B09F436CF9093E50161E0C5010E940B
:1055C000D92260E0C5010E94D92231E03093BD01AB
:1055D000A091D20184E0A89FD0011124A455BE4F10
:1055E000E091E50194E0E99FF0011124E455FE4FBC
:1055F0002D913C91808191812817390719F01092E3
:10560000BD015DC48091BE019091BF01019790934F
:10561000BF018093BE01892B09F051C402CF1092C3
:10562000100288E28093110290E59093120296E9AD
:10563000909313021092140208EC009315029CE35D
:10564000909316021092170280931802109219027A
:1056500080EA80931A0280931B026091ED017091A1
:10566000EE018091EB019091EC010E9488211FEFE7
:105670001093100210931102109312021092BB02A9
:1056800042E0E42EF12CF092B802E092B70282E1FF
:1056900090E09093BA028093B90280E791E00E9473
:1056A000762181E080935D02109310020093110235
:1056B0008AEA809312028BEE9EE00E940823F09209
:1056C000B802E092B70283E290E09093BA0280932E
:1056D000B90286E791E00E9476218EE498E00E946C
:1056E0000823F092B802E092B70282E390E0909330
:1056F000BA028093B90286E791E00E9476218EE992
:1057000090E00E94082356E7E52E51E0F52E02E0D6
:1057100010E0F70161917F01662349F1E0915002A9
:10572000F09151028AEE91E06B8709951093550232
:10573000009354028D5B9F4F9093570280935602C3
:1057400010925E026B858AEE91E00E940B1A009720
:1057500049F0BC018AEE91E00E94B71A082E000CB5
:10576000990B02C080E090E0080F191FD2CF109271
:105770005D02FF24FA94F092100288EC80931102EB
:105780008AEA809312021092130284E68093140234
:1057900088E7809315028BEE9EE00E94082302E0CA
:1057A00010E01093B8020093B7028EE690E0909359
:1057B000BA028093B90286E791E00E9476218EE4D6
:1057C00098E00E9408231093B8020093B7028DE777
:1057D00090E09093BA028093B90286E791E00E942C
:1057E00076218EE990E00E9408231093B80200937E
:1057F000B7028EE890E09093BA028093B90286E7F0
:1058000091E00E94762181E080935D028FEB93E12D
:105810000E94082360ED77E080E090E00E94441948
:1058200080E58093100298E2909311021092120288
:105830008CE380931302109214029093150294E16A
:1058400090931602109217029093180280931902F7
:1058500010921A0210921B026091ED017091EE01FC
:105860008091EB019091EC010E948821F09210024E
:10587000F0921102F09212021093B8020093B70254
:1058800082E190E09093BA028093B9021092BB0239
:1058900082E891E00E9476210E947E196B017C01D2
:1058A000F0EACF0EFFE0DF1EE11CF11C00E010E08B
:1058B0000E947E196C157D058E059F0508F04DC070
:1058C0000E946921B62E0E946921A62E0E9469219C
:1058D0006F71609310028A2D8F7781588093110227
:1058E0008B2D8F77805C809312020E9469219B012F
:1058F000AC01A091EB01B091EC0198970E946A3045
:10590000872E982EA92EBB240E9469219B01AC01F1
:10591000A091ED01B091EE0156970E946A30BB272D
:10592000A92F982F872FBC016A5E7F4F9092B802F3
:105930008092B7027093BA026093B902C80195953C
:1059400087959595879583708093BB020F5F1F4F56
:1059500085E291E00E947621ABCF1092BB0280914C
:10596000A201843008F077C11092100241EDF42EAC
:10597000F09211028EE5809312021FEF1093130232
:1059800087EF8093140201E600931502F09216024D
:1059900087EC80931702109218020093190210935B
:1059A0001A0288EA80931B026091ED017091EE016A
:1059B0008091EB019091EC010E94882110931002DC
:1059C000109311021093120282E090E09093B802BB
:1059D0008093B70252E1A52EB12CB092BA02A092E8
:1059E000B9021092BB0287E891E00E947621F09202
:1059F00010021092110283E7809312028CE89CE15E
:105A00000E94082369E1E62EF12CF092B802E092A0
:105A1000B7027DE2C72ED12CD092BA02C092B90251
:105A20001092BB0281E991E00E9476217724739461
:105A30007092BB0281E991E00E947621E2E08E2E15
:105A40008092BB0281E991E00E947621F3E09F2ED3
:105A50009092BB0281E991E00E9476218AEE91E06A
:105A60000E94691B109310021093110210931202EE
:105A700026E130E041E150E06DE170E083E190E04B
:105A80000E94B72384E190E09A8389832EE130E07D
:105A90003C832B832FE030E03E832D8398878F83D8
:105AA000BE016F5F7F4F8AEE91E00E94601B1093F2
:105AB000100200931102A8EB6A2E60921202F0927B
:105AC000B802E092B702D092BA02C092B902109224
:105AD000BB0281E991E00E9476217092BB0281E9CC
