:100000000C945D000C9485000C9485000C94850084
:100010000C9485000C9485000C9427180C94850092
:100020000C9485000C9485000C9485000C9485003C
:100030000C9485000C9485000C9485000C9485002C
:100040000C94B4080C9485000C9482080C945C0801
:100050000C9485000C9485000C9485000C9485000C
:100060000C94FE080C94850000000000240027007A
:100070002A0000000000250028002B0004040404CE
:100080000404040402020202020203030303030342
:10009000010204081020408001020408102001021F
:1000A00004081020000000080002010000030407FB
:1000B00000000000000000002A1811241FBECFEF2E
:1000C000D8E0DEBFCDBF12E0A0E0B1E0ECEEF9E396
:1000D00002C005900D92AE31B107D9F724E0AEE130
:1000E000B2E001C01D92A532B207E1F710E0CDE504
:1000F000D0E004C02197FE010E94DE1CCC35D10760
:10010000C9F70E9472180C94F41C0C940000AF9272
:10011000BF92CF92DF92EF92FF920F931F93CF93F4
:10012000DF936C017B018B01040F151FEB015E0156
:10013000AE18BF08C017D10759F06991D601ED91EB
:10014000FC910190F081E02DC6010995892B79F78A
:10015000C501DF91CF911F910F91FF90EF90DF903C
:10016000CF90BF90AF900895FC01538D448D252F03
:1001700030E0842F90E0821B930B541710F0CF9641
:10018000089501970895FC01918D828D981761F073
:10019000A28DAE0FBF2FB11D5D968C91928D9F5F8A
:1001A0009F73928F90E008958FEF9FEF0895FC0169
:1001B000918D828D981731F0828DE80FF11D858D1C
:1001C00090E008958FEF9FEF0895FC01918D228DAF
:1001D000892F90E0805C9F4F821B91098F73992734
:1001E00008958CE693E00E94E50021E0892B09F454
:1001F00020E0822F08950E94F10081110C940000EC
:10020000089580E090E0892B11F00C94FB00089594
:10021000FC01A48DA80FB92FB11DA35ABF4F2C917B
:10022000848D90E001968F739927848FA689B78972
:100230002C93A089B1898C91837080648C93938D69
:10024000848D981306C00288F389E02D80818F7D0C
:1002500080830895EF92FF920F931F93CF93DF93C4
:10026000EC0181E0888F9B8D8C8D98131AC0E889F2
:10027000F989808185FF15C09FB7F894EE89FF89C1
:100280006083E889F98980818370806480839FBF5F
:1002900081E090E0DF91CF911F910F91FF90EF905F
:1002A0000895F62E0B8D10E00F5F1F4F0F7311276F
:1002B000E02E8C8D8E110CC00FB607FCFACFE889AA
:1002C000F989808185FFF5CFCE010E940801F1CF29
:1002D000EB8DEC0FFD2FF11DE35AFF4FF0829FB71E
:1002E000F8940B8FEA89FB8980818062CFCFCF930E
:1002F000DF93EC01888D8823B9F0AA89BB89E8894E
:10030000F9898C9185FD03C0808186FD0DC00FB6F3
:1003100007FCF7CF8C9185FFF2CF808185FFEDCF71
:10032000CE010E940801E9CFDF91CF91089590E0BE
:10033000FC01EC55FF4F2491FC01E057FF4F349135
:10034000FC01E458FF4FE491EE23C9F0222339F079
:10035000233001F1A8F4213019F1223029F1F0E025
:10036000EE0FFF1FEE58FF4FA591B4918FB7F89491
:10037000EC91611126C030953E233C938FBF0895C8
:100380002730A9F02830C9F0243049F78091800047
:100390008F7D03C0809180008F7780938000DFCFB6
:1003A00084B58F7784BDDBCF84B58F7DFBCF809103
:1003B000B0008F778093B000D2CF8091B0008F7D56
:1003C000F9CF3E2BDACF3FB7F8948091EE029091AF
:1003D000EF02A091F002B091F10226B5A89B05C0F2
:1003E0002F3F19F00196A11DB11D3FBFBA2FA92FB4
:1003F000982F8827BC01CD01620F711D811D911DB1
:1004000042E0660F771F881F991F4A95D1F708951C
:100410008F929F92AF92BF92CF92DF92EF92FF9214
:100420004B015C010E94E3016B017C010E94E3012E
:100430006C197D098E099F09683E734081059105FD
:10044000A8F321E0821A9108A108B10888EEC80E2D
:1004500083E0D81EE11CF11C81149104A104B104B5
:1004600029F7FF90EF90DF90CF90BF90AF909F90D3
:100470008F900895089520917402260F3327331F1B
:1004800021323105ECF42091BF02FC0190E080E0C4
:10049000243069F082E00895A09174022191AC01AA
:1004A0004E5A5D4FA40FB52FB11D2C9301968617A0
:1004B00098F380917402680F6093740280E008954D
:1004C00081E008951092BF0281E08093BE021092F5
:1004D000990261E082E10E94970161E083E10E945C
:1004E0009701E9EBF0E080818E7F808380818D7FB2
:1004F000808388E48093B80085E48093BC000895ED
:10050000CF93DF9391E0909351028823B9F0C0918B
:10051000B800D091BA008091BC008A7B8093BC0067
:1005200060E082E10E94970160E083E10E94970110
:100530000E946202D093BA00C093B800DF91CF91BD
:100540000895089508950895E091500280914F0212
:10055000E81730F4F0E0E15DFD4F808190E0089510
:100560008FEF9FEF08959091500280914F022FEFEF
:100570003FEF981748F4E92FF0E0E15DFD4F20814F
:1005800030E09F5F90935002C901089580914F021F
:1005900090915002891B990B0895CF92DF92EF92B0
:1005A000FF920F931F93CF93DF937C01CB018A01BE
:1005B0002091C502222389F0EB016B01C40ED51EE8
:1005C000CC15DD0569F06991D701ED91FC910190A1
:1005D000F081E02DC7010995F3CF642F0E943B0203
:1005E000C801DF91CF911F910F91FF90EF90DF90A5
:1005F000CF900895CF93DF931F92CDB7DEB7698375
:100600002091C5022223F9F02091E802203258F00F
:1006100021E030E0FC013383228390E080E00F9002
:10062000DF91CF9108958091C602E82FF0E0E95361
:10063000FD4F998190838F5F8093C6028093E8027B
:1006400081E090E0ECCF61E0CE0101960E943B0298
:10065000F7CFCF92DF92EF92FF920F931F93CF933A
:10066000DF93FC01C48121E02093C502C093E7021F
:100670001092C6021092E8028385682B89E094E00C
:100680000E94FA02D091E802D13208F092C00E9492
:10069000E3016B017C018091BF02811165C082E0A2
:1006A0008093BF0281E08093BE028FEF8093BD02F2
:1006B0001092BC02D093BB02A7ECB2E0EBE9F2E0EF
:1006C00080E0D81385C010929A0280919A02CC0FD4
:1006D000C82BC0939A0280919902813009F07CC0A6
:1006E000109299020E94E3016B017C0180919A02B1
:1006F0008093BB008091C1029091C202A091C3027D
:10070000B091C402892B8A2B8B2B99F00E94E301B4
:100710000091C1021091C2022091C3023091C40223
:100720006C197D098E099F090617170728073907D5
:10073000E0F18091BC0083FDD9CF85EC8093BC00B3
:100740000E94E3016B017C018091BF02823009F4B9
:1007500045C08091BD028F3F61F18091BD02803222
:1007600041F18091BD0225C08091C1029091C202E9
:10077000A091C302B091C402892B8A2B8B2B09F460
:100780008ACF0E94E3010091C1021091C202209120
:10079000C3023091C4026C197D098E099F090617A6
:1007A00017072807390708F076CF8091C0020E940A
:1007B00080021092C6021092E8021092C502DF91E8
:1007C000CF911F910F91FF90EF90DF90CF90089500
:1007D0009D9191938F5F75CF85EEB0CF8091C102CF
:1007E0009091C202A091C302B091C402892B8A2BBE
:1007F0008B2B09F4A9CF0E94E3010091C102109153
:10080000C2022091C3023091C4026C197D098E0985
:100810009F09061717072807390708F095CFC5CF96
:1008200090E080E008950F931F93CF938C01C62F23
:100830000E9429036C2F6460C8010E9429036C2F59
:100840006B7FC8010E94290383EC90E00197F1F7C8
:10085000CF911F910F9108950F931F93CF93DF9323
:100860008C01D62FC42F607F642B0E94130480E17B
:10087000D89FB00111246C2BC801DF91CF911F913B
:100880000F910C941304CF93DF93CDB7DEB7289765
:100890000FB6F894DEBF0FBECDBF98E0E7E0F1E001
:1008A000DE01119601900D929A95E1F790911D0449
:1008B000961708F46FEF262F30E0220F331F41E028
:1008C00050E04C0F5D1F240F351FF9016081680F48
:1008D000606840E085E194E028960FB6F894DEBFAA
:1008E0000FBECDBFDF91CF910C942C0441E00E944C
:1008F0002C0481E090E00895FB0101900020E9F7CD
:100900003197AF01461B570BDC01ED91FC91028042
:10091000F381E02D09948F929F92AF92BF92EF9254
:10092000FF920F931F93CF93DF93CDB7DEB7A197BD
:100930000FB6F894DEBF0FBECDBF7C01FA01CB012C
:1009400019A2223008F42AE08E010F5D1F4F822E7B
:10095000912CB12CA12CBF01A50194010E94BC1CBB
:10096000F901CA016A300CF5605DD8016E938D0102
:10097000232B242B252B79F790E080E0109721F092
:10098000BD01C7010E947C04A1960FB6F894DEBF9A
:100990000FBECDBFDF91CF911F910F91FF90EF90D0
:1009A000BF90AF909F908F900895695CDECFCF93FA
:1009B000DF93482F50E070E060E02AE08CE693E09F
:1009C0000E948B04EC016FE371E08CE693E00E94DF
:1009D0007C048C0F9D1FDF91CF910895CF93DF93FF
:1009E000BC018CE693E00E947C04EC016FE371E0B3
:1009F0008CE693E00E947C048C0F9D1FDF91CF91C9
:100A0000089585ED8093BC008091C1029091C2024F
:100A1000A091C302B091C4020796A11DB11D23E0AD
:100A2000B695A795979587952A95D1F72091BC0003
:100A300024FD03C01092BF0208954091C10250915D
:100A4000C2026091C3027091C402452B462B472B12
:100A500069F30097A105B10541F025E32A95F1F767
:100A600000000197A109B109E1CF8091C0020C9467
:100A70008002CF93DF9300D000D0CDB7DEB71982CC
:100A80001A821B821C824FEF5FEFBE016F5F7F4FA8
:100A900080912602909127020E94AC1228EB3EE141
:100AA00045E650E469817A818B819C810E94451CD6
:100AB00061E018160CF060E08CE00E9497018091D4
:100AC0002402909125020E94CE10E0911E02F09126
:100AD0001F020788F08DE02DC12CD12C7601819169
:100AE000853AB9F062E471E08CE693E00E947C0400
:100AF0008C2D0E94D70485E691E00E94EE0440E030
:100B000070E060E080912402909125020E94810FA4
:100B1000BACF8FEFC81AD80AE80AF80AE0CFCF9305
:100B2000DF9300D000D0CDB7DEB719821A821B82C6
:100B30001C824FEF5FEFBE016F5F7F4F80912202FB
:100B4000909123020E94AC1260E080E00E94430476
:100B500069E671E085E194E00E947C0461E080E058
:100B60000E94430463E771E085E194E00E947C0405
:100B700061E080E00E944304C980DA80EB80FC8061
:100B8000A7019601C701B6010E94B71C64E871E095
:100B900081111AC046015701E894B7F82FEF3FEFD3
:100BA0004FE75FE7C501B4010E94B71C811145C042
:100BB0002FEF3FEF4FE75FE7C501B4010E94ED1A49
:100BC0001816DCF568E871E085E194E00E947C0489
:100BD00061E08FE00E94430460E971E085E194E008
:100BE0000E947C0480912402909125020E94CE10E4
:100BF000E0911E02F0911F020788F08DE02DC12CBC
:100C0000D12C76018191853A09F497C062E971E0AF
:100C10008CE693E00E947C048C2D0E94D70485E62C
:100C200091E00E94EE0440E070E060E080912402D8
:100C3000909125020E94810F7CCF2FEF3FEF4FE76D
:100C40005FE4C701B6010E94451C18161CF46CE84D
:100C500071E0BACF2FEF3FEF4FE75FECC701B6016E
:100C60000E94ED1A87FDF3CF20E030E0A901C70113
:100C7000B6010E94ED1A87FF0AC041E06DE285E1EE
:100C800094E00E942C04F7FAF094F7F8F0942AE02C
:100C900037ED43EA5BE3C701B6010E94811A4B01BD
:100CA0005C010E94641B6B017C010E94931B9B01F1
:100CB000AC01C501B4010E94801A4B015C012AE01D
:100CC000B701A60185E194E00E948B0441E06EE249
:100CD00085E194E00E942C0420E030E040E251E401
:100CE000C501B4010E944A1C4B015C010E94641BB7
:100CF0006B01F12CE12C2AE0B701A60185E194E01B
:100D00000E948B04C701B6010E94931B9B01AC019A
:100D1000C501B4010E94801A20E030E040E251E4B5
:100D20000E944A1C0E94641BAB0170E060E02AE054
:100D300085E194E00E948B044BCF8FEFC81AD80A4C
:100D4000E80AF80A5FCFCF93DF9300D000D0CDB789
:100D5000DEB719821A821B821C8210E410937C0079
:100D600080917A00806480937A0080917A0086FD79
:100D7000FCCF8091780060917900762F682F072E44
:100D8000000C880B990B0E94951B20E030EC4FE77C
:100D900054E40E94F21A20E030E040EA50E40E945D
:100DA0004A1C69837A838B839C8342E0BE016F5F18
:100DB0007F4F80912202909123020E94810F42E096
:100DC000BE016F5F7F4F80912602909127020E94A3
:100DD000810F0E94170B60E08EE390E00E945A0C96
:100DE0000E94B90D811102C00E94FB0C8091240267
:100DF000909125020E94CE10E0911E02F0911F02F8
:100E00000788F08DE02DC12CD12C76018191853A97
:100E1000B9F065EB71E08CE693E00E947C048C2DC8
:100E20000E94D70485E691E00E94EE0440E070E065
:100E300060E080912402909125020E94810F8ECF64
:100E40008FEFC81AD80AE80AF80AE0CF0F931F9369
:100E5000CF93DF93E0917C03F0917D0382E0808368
:100E6000E0917803F09179031082E0917A03F09198
:100E70007B038FEC808310928403E0918003F091D8
:100E8000810386E08083E0917E03F0917F0380817F
:100E900080618083E0917E03F0917F038081886090
:100EA0008083E0917E03F0917F038081806880835E
:100EB000E0917E03F0917F0380818F7D808310928B
:100EC000500210924F021092C6021092E8020E9445
:100ED000620281EA92E0909373028093720282EA46
:100EE00092E0909377028093760210921A04809198
:100EF0001F04823018F098E090931A0480931D0428
:100F000062E370E080E090E00E94080260912004BB
:100F100085E194E00E94290368EE73E080E090E0B0
:100F20000E94080260E385E194E00E941304CBE490
:100F3000D6E4CE010197F1F760E385E194E00E94E9
:100F400013042197F1F760E385E194E00E94130414
:100F500083E592E00197F1F760E285E194E00E9479
:100F6000130460911A04606240E085E194E00E94FD
:100F70002C0484E080931B0440E06CE085E194E065
:100F80000E942C0440E061E085E194E00E942C0482
:100F9000CBE3DFE1CE010197F1F782E080931C04FF
:100FA00040E066E085E194E00E942C0440E062E0CD
:100FB00085E194E00E942C04CE010197F1F788E0CE
:100FC0008093200460E085E194E00E94290340E0E2
:100FD00061E085E194E00E942C042197F1F7ECE9AF
:100FE000F0E02491E8E8F0E08491882399F090E023
:100FF000880F991FFC01E859FF4FA591B491FC019E
:10100000EE58FF4F859194918FB7F894EC91E22BB5
:10101000EC938FBF60E08CE00E94970164E081E078
:101020000E94DF17909323028093220264E081E004
:101030000E94DF17909327028093260260E081E0F0
:101040000E94DF17EC01009751F01D821C8219826B
:1010500018821E8240E070E060E00E94810FD09311
:101060002502C0932402CD2B29F48BED91E00E9440
:10107000EE04FFCF10E000E023E040E850E061E044
:1010800072E083EA96E00E94B21622E04CE950E05A
:1010900068E072E08FE895E00E94B21621E040E837
:1010A00050E06CE072E089E395E00E94B216DF91B7
:1010B000CF911F910F9108951F920F920FB60F922B
:1010C00011242F933F934F935F936F937F938F934D
:1010D0009F93AF93BF93EF93FF938CE693E00E94AF
:1010E0000801FF91EF91BF91AF919F918F917F91F7
:1010F0006F915F914F913F912F910F900FBE0F9085
:101100001F9018951F920F920FB60F9211242F93D4
:101110008F939F93EF93FF93E0917C03F0917D0376
:101120008081E0918203F091830382FD1BC0908156
:10113000809185038F5F8F7320918603821741F022
:10114000E0918503F0E0E459FC4F958F809385038F
:10115000FF91EF919F918F912F910F900FBE0F9064
:101160001F9018958081F4CF1F920F920FB60F92A7
:1011700011242F933F938F939F93AF93BF938091AD
:10118000EA029091EB02A091EC02B091ED02309155
:10119000E90223E0230F2D3758F50196A11DB11D5B
:1011A0002093E9028093EA029093EB02A093EC0271
:1011B000B093ED028091EE029091EF02A091F002C7
:1011C000B091F1020196A11DB11D8093EE029093A2
:1011D000EF02A093F002B093F102BF91AF919F9103
:1011E0008F913F912F910F900FBE0F901F901895E8
:1011F00026E8230F0296A11DB11DD2CF1F920F9298
:101200000FB60F9211242F933F934F935F936F93D9
:101210007F938F939F93AF93BF93EF93FF938091AF
:10122000B900887F803609F44AC0F0F5883209F4A5
:10123000A7C018F5803109F49BC0B8F4882309F4DD
:10124000F9C0883009F494C0FF91EF91BF91AF913C
:101250009F918F917F916F915F914F913F912F91CE
:101260000F900FBE0F901F901895883109F488C019
:10127000803251F78093BD0214C0803409F49DC0C0
:1012800040F48033B9F38833F9F68093BD0285ECDE
:10129000B0C0803509F485C0883509F496C088341B
:1012A00099F60E940105D0CF883909F48CC038F531
:1012B000883729F050F4883611F0803729F683E01A
:1012C0008093BF021092980257C0883809F47BC0FF
:1012D000803919F0803809F0B7CF809198028032B8
:1012E00008F071C0E091980281E08E0F809398021F
:1012F0008091BB00F0E0E858FD4F80833DC0803B0B
:1013000039F0E0F4803A09F479C0883A09F09CCFCA
:1013100084E08093BF021092750210927402E091F3
:101320007202F091730209958091740281110FC0CD
:1013300081E0809374021092520209C0803C09F44B
:10134000A6CF883C09F4A3CF883B09F07DCFE0917C
:10135000750281E08E0F80937502F0E0EE5AFD4F2A
:1013600080818093BB00909175028091740229C0A6
:1013700080919A028093BB0085EC8093BC0064CF7F
:101380009091BC028091BB02981758F5E091BC0285
:1013900081E08E0F8093BC02F0E0E556FD4F808126
:1013A000E9CFE091BC0281E08E0F8093BC02809176
:1013B000BB00F0E0E556FD4F80839091BC02809128
:1013C000BB029817C8F285E8D8CFE091BC0281E053
:1013D0008E0F8093BC028091BB00F0E0E556FD4F7C
:1013E00080838091BE0281115CCF81E0809399025D
:1013F00084EA8093BC001092BF0226CF85EC8093D4
:10140000BC001092BF0280919802803230F4E091CB
:101410009802F0E0E858FD4F10826091980270E069
:10142000E0917602F091770288E792E009951092B8
:1014300098020ACF1092BD0234CFE0911203F091CE
:1014400013038081811107C08FEF9FEF90930D03ED
:1014500080930C030895E0911203F091130305802B
:10146000F681E02D80819181F1CFFC01DB010FB687
:10147000F8940F9240914403509145032D913C9173
:1014800011972F3F320711F18181928160914603BC
:101490007081761749F04817590730F01D921C9259
:1014A00081E00F900FBE0895481B590B4217530758
:1014B000A8F7241B350B2D933C9380914603808322
:1014C00080914403909145039283818380E0E9CF2A
:1014D000CF93DF93DC011596ED91FC910680F781A7
:1014E000E02DA489B5898685978520893189EC010D
:1014F0003D832C83C089D1899B838A83CF010C963D
:1015000011962D913C9112972817390721F41296C4
:10151000DC93CE931197158A148A2C9121502C9329
:1015200020912B02211157C0A285B385848195811A
:1015300026813781EC013D832C83C681D7819B8333
:101540008A83CF01029611962D913C91129728170C
:10155000390721F41296DC93CE93119713861286E5
:101560002C9121502C93C68920916B032C1710F4D9
:10157000C0936B0329E02C9FE0011124C95BDC4F71
:101580000980DA81C02DD583C4834C815D81578366
:101590004683AC81BD8113969C938E9312979D8355
:1015A0008C83A689A29FD0011124A95BBC4FB3876D
:1015B000A2878C918F5F8C93A0911E02B0911F0225
:1015C000968956968C91891730F581E080932A028E
:1015D000DF91CF910895A0912703B0912803B78799
:1015E000A68714962D913C911597318B208B1496DC
:1015F000CD91DC9115979B838A8315969C938E934E
:10160000149786E293E0958B848B809126038F5FFD
:1016100080932603D1CF80E0DBCF0FB6F8940F92F2
:1016200080914403909145030F900FBE08958091DF
:101630002B028F5F80932B0208950FB6F8940F92C0
:10164000FC01928D0F900FBE81E0911180E0089512
:10165000EF92FF920F931F93CF93DF93EC010FB69E
:10166000F8940F921E8D7C0181E1E80EF11C01E0DF
:101670001116D4F08FEF8E8F0F900FBE0FB6F89427
:101680000F921D8D7E0188E0E80EF11C01E011161D
:10169000B4F08FEF8D8F0F900FBEDF91CF911F9120
:1016A0000F91FF90EF9008958989882319F3C7015E
:1016B0000E94680A811100932A021150D9CF8885AF
:1016C000882339F3C7010E94680A811100932A0216
:1016D0001150DDCFCF93DF93FC01A085B1858281CE
:1016E000938124813581EC013D832C83C481D58194
:1016F0009B838A8311968D919C9112978E179F07D9
:1017000021F41296DC93CE931197118610868C915A
:1017100081508C938C91DF91CF9108950F931F93FB
:10172000CF93DF938C01FB0180819181D8011396C7
:101730008F3F9807F1F4E801AF81B88512968D913B
:101740009C91139793838283EC01FD83EC83B58393
:10175000A4831396FC93EE93129711870087F801E8
:1017600080818F5F8083DF91CF911F910F910895CA
:10177000D90112962D913C911397E9014881598125
:1017800084179507A8F7DACFFC01738362839187EA
:1017900080874617570790F0421B530B8485958529
:1017A00048175907C8F4BF016E5F7F4F8091F2025E
:1017B0009091F3020E948E0B80E008954217530728
:1017C00018F46217730740F4BF016E5F7F4F80917A
:1017D000F4029091F502EECF81E00895EF92FF922E
:1017E0000F931F93CF93DF93EC018B017A016C85EC
:1017F0007D85600F711F9801A701CE010E94C40B67
:10180000811107C0DF91CF911F910F91FF90EF9051
:1018100008958C859D85080F191FE889F989CE01E7
:101820000995E5CFEF92FF920F931F93CF93DF932C
:101830008C017B01E091F402F091F5020580F681C4
:10184000E02DC681D781CE0102960E946A0B8A895B
:1018500082FF0FC0A701B801CE010E94EE0BE889FC
:10186000F989CE01DF91CF911F910F91FF90EF90F9
:1018700009948E7F8A8BF3CFE091F402F091F50208
:10188000808181110DC08091F2029091F3029093BA
:10189000F5028093F402F093F302E093F2020895CC
:1018A0000580F681E02D6FEF7FEF808191810E94AE
:1018B000120CE2CFFF920F931F93CF93DF93EC01B3
:1018C000F62E009144031091450380911E029091E1
:1018D0001F0202960E946A0BCF3FDC07E9F5FF204A
:1018E000D9F1E0911503F0911603A0911E02B09179
:1018F0001F021596FC93EE931497A0911E02B091CF
:101900001F028481958117969C938E9316978091E0
:101910001E0290911F02A481B581029613969C939A
:101920008E93129780911E0290911F0202969583CA
:101930008483E0911E02F0911F0284E193E093877B
:101940008287809114038F5F80931403DF91CF917E
:101950001F910F91FF900895C00FD11FE0911E02BB
:10196000F0911F02D383C28360911E0270911F0207
:10197000C017D10768F480911003909111036E5F36
:101980007F4FDF91CF911F910F91FF900C948E0BA1
:1019900080911203909113036E5F7F4F0E948E0B14
:1019A00080910C0390910D03C817D90778F6D09356
:1019B0000D03C0930C03CACFCF93DF93EB0160916B
:1019C0001E0270911F02645F7F4F0E948E0B61E0C8
:1019D000CE01DF91CF910C945A0CFC0103969283B7
:1019E00081832FEF3FEF3483238396838583908712
:1019F0008783108208950F920FB6F8940F921F926A
:101A000011242F923F924F925F926F927F928F920A
:101A10009F92AF92BF92CF92DF92EF92FF920F937D
:101A20001F932F933F934F935F936F937F938F9366
:101A30009F93AF93BF93CF93DF93EF93FF93A091C7
:101A40001E02B0911F020DB60D920EB60D9280913E
:101A50002B02882321F081E080932A025FC010923C
:101A60002A02A0911E02B0911F02E0911E02F09185
:101A70001F022D913C918789908D82179307A8F0C2
:101A800080911E0290911F0280911E0290911F0270
:101A9000259A2D9A2FEF87EA91E6215080409040B9
:101AA000E1F700C000001D9AF5CF20916B0389E09B
:101AB00001C02150422F50E0849FF001859FF00D1E
:101AC0001124E95BFC4F9081992399F3A181B281A4
:101AD00012960D90BC91A02DB283A183289FC001C6
:101AE0001124865B9C4FA817B90729F412968D9193
:101AF0009C919283818389E0849FF001859FF00D02
:101B00001124E95BFC4F0180F281E02D86819781F1
:101B100090931F0280931E0220936B03A0911E02DC
:101B2000B0911F02CD91CDBFDD91DEBFFF91EF914E
:101B3000DF91CF91BF91AF919F918F917F916F91E5
:101B40005F914F913F912F911F910F91FF90EF90D7
:101B5000DF90CF90BF90AF909F908F907F906F90CD
:101B60005F904F903F902F901F900F900FBE0F905F
:101B700008958F929F92BF92CF92DF92EF92FF9241
:101B80000F931F93CF93DF930FB6F8940F9280912A
:101B90002B02815080932B0280912B02882379F0B5
:101BA00080E00F900FBEDF91CF911F910F91FF90BA
:101BB000EF90DF90CF90BF909F908F90089580918D
:101BC0004303882369F3E0902B03F0902C03F0E0AB
:101BD000E0E039E041E08091260381115EC0EF2B07
:101BE00011F00E941D0AE0902802F0902902E114F1
:101BF000F10409F47DC189E0D82ECC24C3940FEF01
:101C00001FEF80912B02811161C1C0914403D091DB
:101C100045034E018FEF881A980A909245038092EF
:101C2000440381149104B9F4809112039091130339
:101C3000209110033091110330931303209312036A
:101C40009093110380931003809146038F5F8093DC
:101C500046030E941D0A80910C0390910D03B12C44
:101C60008816990608F026C1E0911E02F0911F0225
:101C7000E689DE9EF0011124E95BFC4F8081823011
:101C800010F0BB24B39480912A02811103C0BB20C1
:101C900009F425C1C0922A0222C1D7011696ED91FE
:101CA000FC91A489B5896685778580899189EB0146
:101CB0009D838C8380899189EC017B836A83BF013A
:101CC000645F7F4F11960D911C91129706171707AD
:101CD00021F412969C938E931197158A148A8C91F5
:101CE00081508C93A285B3858481958166817781AB
:101CF000EC017D836C8366817781EB019B838A8312
:101D0000CF01029611960D911C9112970817190791
:101D100021F412967C936E931197138612862C9160
:101D200021502C93A68920916B032A1710F4A093BD
:101D30006B033A9FD0011124A95BBC4F11960D9003
:101D4000BC91A02DB583A48314966D917C911597B9
:101D50007783668314966D917C911597EB019B8335
:101D60008A8315969C938E9314979689939FD0019E
:101D70001124A95BBC4FB387A2878C918F5F8C9392
:101D8000A0911E02B0911F0256968C91981708F4EC
:101D900022CF40932A021FCFE0911203F091130348
:101DA0000580F681E02D0680F781E02D8281938108
:101DB0008816990628F490930D0380930C0354CF52
:101DC000C285D3858481958126813781DC01159672
:101DD0003C932E93149726813781D90113969C93B7
:101DE0008E931297CF01029649815A81481759075D
:101DF00011F43A832983138612862881215028837F
:101E0000A489B5891097F9F02685378540895189CD
:101E1000E9015D834C8340895189EA013B832A8330
:101E200011966D917C9112979F01245F3F4F62172D
:101E3000730721F412965C934E931197158A148AB6
:101E40002C9121502C93A68920916B032A1710F412
:101E5000A0936B03DA9ED0011124A95BBC4F1196AD
:101E60000D90BC91A02DB583A48314962D913C9127
:101E700015973783268314962D913C911597E90188
:101E80009B838A8315969C938E93149796899D9D28
:101E9000D0011124A95BBC4FB387A2878C918F5FBF
:101EA0008C93E0911E02F0911F028689981710F022
:101EB000BB24B394E0911203F0911303808181114C
:101EC0006BCF10930D0300930C03CECE80912802AC
:101ED0009091290201969093290280932802D1E0E3
:101EE000ED1AF10809F08DCE109229021092280205
:101EF00080912A02882309F453CE0E94FB0C81E0D2
:101F000050CEAF92BF92CF92DF92EF92FF920F939B
:101F10001F93CF93DF9300D000D01F92CDB7DEB7D1
:101F20008C015B01F42E1D821C8280E0680198E028
:101F3000C90ED11C0FB6F8940F92D8015A962C9165
:101F40005A975B969C91291718F0B2E0FB12CEC00D
:101F5000F801D28C448D41118BC080819181892BF5
:101F600009F0A0C0E480F580E114F10439F580E0C7
:101F7000F80115821482D394D8015A96DC925A97AC
:101F800051969C91992321F0C80141960E94680ABC
:101F900081110E94FB0C0F900FBE81E00F900F90FB
:101FA0000F900F900F90DF91CF911F910F91FF90A5
:101FB000EF90DF90CF90BF90AF900895D7019296A9
:101FC0008C919297815092968C93929756962C91E1
:101FD000569791969C91291751F28111C8CF5701BC
:101FE000B2E0AB0EB11CC5010E946A0BF70181A1E2
:101FF000868B482F50E024E030E0241B350B3587DA
:10200000248790916B03981710F480936B0389E0F9
:10201000849FD001859FB00D1124A95BBC4F119600
:102020000D90BC91A02DF701B583A48314962D913A
:102030003C911597378326831496ED91FC91159763
:10204000B382A2821596BC92AE921497D70156968F
:10205000EC915697E89FF0011124E95BFC4F1B9629
:10206000FC93EE931A9780818F5F808381E080CF0D
:1020700050E0B501F11018C0828193810E94E41CE8
:10208000F801848D22813381820F932F911D9383D8
:102090008283248135818217930720F0808191818A
:1020A0009383828380E067CF868197810E94E41CBE
:1020B000F801848D90E09195819591092681378171
:1020C000280F391F37832683408151812417350714
:1020D00030F424813581820F931F97838683F2E049
:1020E000FF12E0CFDD20F1F2DA94DCCF2C813D81CC
:1020F000232B21F40F900FBE80E050CF811109C037
:1021000080914603898380914403909145039B838A
:102110008A830F900FBE0E94170B0FB6F8940F9290
:10212000F801858D8F3F09F4158ED8015E968C914C
:102130005E978F3F11F45E961C920F900FBEBE010A
:102140006C5F7F4FCE0101960E94350A811120C03D
:102150000FB6F8940F92F801928D838D0F900FBEF9
:10216000981310C06C817D81C6010E94DC0CC801EF
:102170000E94280B0E94B90D811102C00E94FB0C25
:1021800081E0D8CEC8010E94280B0E94B90DF8CF7B
:10219000C8010E94280B0E94B90DAECF7F928F928A
:1021A0009F92AF92BF92CF92DF92EF92FF920F93E6
:1021B0001F93CF93DF9300D000D01F92CDB7DEB72F
:1021C0008C018FEF9FEF9D838C83D12C90E0580181
:1021D00021E1A20EB11C89E0782E24E0822E912C00
:1021E0000FB6F8940F92D8015A968C915A9788237B
:1021F00009F440C081505A968C935A978D919C91C6
:10220000892BA1F480911E0290911F02892B39F035
:10221000E0911E02F0911F0282A18F5F82A3809144
:102220001E0290911F02F80195838483D8011896AD
:102230008C91882339F0C80108960E94680A8111A0
:102240000E94FB0C0F900FBEDD24D3948D2D0F90B8
:102250000F900F900F900F90DF91CF911F910F91E2
:10226000FF90EF90DF90CF90BF90AF909F908F90B6
:102270007F9008952C813D81232B21F40F900FBE78
:10228000D12CE4CF911109C08091460389838091BC
:102290004403909145039B838A830F900FBE0E9455
:1022A000170B0FB6F8940F92F801858D8F3F09F444
:1022B000158ED8015E968C915E978F3F11F45E96D5
:1022C0001C920F900FBEBE016C5F7F4FCE01019636
:1022D0000E94350A8111AEC0C8010E941D0B8823DF
:1022E00009F4A2C0F80180819181892B09F076C0A0
:1022F0000FB6F8940F92E480F580E114F10409F42C
:1023000091C0F7018689E0911E02F0911F02968923
:10231000891708F07BC0D7011C962D913C911D9721
:1023200037FD0CC0E0911E02F0911F0296899401C6
:10233000291B31091D963C932E931C97879DC00144
:102340001124895B9C4FF7012285338528173907B3
:1023500009F054C06701F2E0CF0ED11CC6010E9403
:102360006A0BE0911E02F0911F02E689D701569692
:10237000EC9380916B038E1710F4E0936B037E9EB9
:10238000F0011124E95BFC4F0180F281E02DD701BF
:102390001596FC93EE9314978481958117969C93E0
:1023A0008E931697A481B5811396DC92CE921297E4
:1023B000D582C482D7015696EC915697E79DF001DD
:1023C0001124E95BFC4F1B96FC93EE931A978081D6
:1023D0008F5F8083DD24D3940F900FBE6C817D814D
:1023E000C5010E94DC0CC8010E94280B0E94B90D97
:1023F000811102C00E94FB0C91E0F2CEE0911E021E
:10240000F0911F028689F701868BE4CFE0911E02CE
:10241000F0911F02DD24D394D70191969C91868977
:102420009817D0F2D12CD8CFC8010E94280B0E9457
:10243000B90DE2CFC8010E94280B0E94B90DC80156
:102440000E941D0B8823C1F2DD2009F4FFCE0FB6D8
:10245000F8940F92F8018189882309F47BC00688DB
:10246000F789E02D908184E0891BD80114960D91A5
:102470001C910115110509F401CFF80191A19817DC
:1024800008F4982FD80156968C915697981709F40E
:10249000F5CE92962C919297213009F0EFCE569678
:1024A0009C9356971C962D913C911D9737FD08C023
:1024B00024E030E0291B31091D963C932E931C9794
:1024C000B9E08B9FC0011124895B9C4FF8012285E4
:1024D00033852817390709F0D1CE7801F2E0EF0EE5
:1024E000F11CC7010E946A0BF801A68980916B0359
:1024F0008A1710F4A0936B0389E08A9FD0011124FE
:10250000A95BBC4F11960D90BC91A02DF801B5832D
:10251000A48314962D913C911597378326831496A6
:10252000ED91FC911597F382E2821596FC92EE9262
:102530001497D8015696EC915697E89FF001112414
:10254000E95BFC4F1B96FC93EE931A9780818F5F9B
:10255000808394CE80E089CFAF92BF92CF92DF92FA
:10256000FF920F931F93CF93DF9300D000D01F9261
:10257000CDB7DEB78C016B015D834C8380E05801E1
:1025800091E1A90EB11C0FB6F8940F92F801F28CEC
:10259000FF20C1F1448D4423B1F050E08681978142
:1025A000840F951F97838683248135818217930733
:1025B00020F08081918197838683F80166817781FD
:1025C000C6010E94E41CFA94F801F28E80858823EB
:1025D00039F0C80108960E94680A81110E94FB0C1C
:1025E0000F900FBE81E00F900F900F900F900F9003
:1025F000DF91CF911F910F91FF90DF90CF90BF900F
:10260000AF9008952C813D81232B21F40F900FBEB4
:1026100080E0E9CF811109C08091460389838091D0
:102620004403909145039B838A830F900FBE0E94C1
:10263000170B0FB6F8940F92F801858D8F3F09F4B0
:10264000158EF801868D8F3F09F4168E0F900FBE00
:10265000BE016C5F7F4FCE0101960E94350A811149
:102660001BC0C8010E941D0B882381F06C817D81F5
:10267000C5010E94DC0CC8010E94280B0E94B90D04
:10268000811102C00E94FB0C81E07DCFC8010E9435
:10269000280B0E94B90DF8CFC8010E94280B0E9498
:1026A000B90DC8010E941D0B882371F3B1CF0F92A1
:1026B0000FB6F8940F921F9211242F923F924F92CF
:1026C0005F926F927F928F929F92AF92BF92CF92C2
:1026D000DF92EF92FF920F931F932F933F934F93AD
:1026E0005F936F937F938F939F93AF93BF93CF939A
:1026F000DF93EF93FF93A0911E02B0911F020DB6DE
:102700000D920EB60D9213BE80912B028111F9C06D
:1027100080914403909145030196909345038093E3
:102720004403009781F520911203309113034091E7
:1027300010035091110350931303409312033093ED
:10274000110320931003209146032F5F209346032B
:10275000E0911203F09113032081211107C02FEFA4
:102760003FEF30930D0320930C030DC0E091120353
:10277000F09113030580F681E02D208131813093A3
:102780000D0320930C0320910C0330910D0382174D
:10279000930710F420E0A1C020E039E0D32EE091AF
:1027A0001203F09113033081311107C08FEF9FEFB7
:1027B00090930D0380930C0390C0E0911203F0916D
:1027C00013030580F681E02D0680F781E02D42811C
:1027D00053818417950728F450930D0340930C03FD
:1027E0007CC0A285B3854481558166817781EA01E9
:1027F0007D836C8366817781EB015B834A83AF01C4
:102800004E5F5F4F11960D911C911297041715079B
:1028100021F412967C936E931197138612863C9145
:1028200031503C93A489B5891097F9F06685778576
:1028300000891189EB011D830C8300891189E8014E
:102840007B836A831196ED90FC901297BF01645FC1
:102850007F4FE616F70621F412961C930E931197FC
:10286000158A148A3C9131503C93A68930916B03B0
:102870003A1710F4A0936B03DA9ED0011124A95BE0
:10288000BC4F11960D90BC91A02DB583A4831496D6
:102890006D917C9115977783668314966D917C91E9
:1028A0001597EB015B834A8315965C934E931497BF
:1028B00046894D9DD0011124A95BBC4FB387A287E7
:1028C0003C913F5F3C93E0911E02F0911F023689DC
:1028D000431708F464CF21E062CFE0911E02F0912B
:1028E0001F02E689D9E0ED9FF0011124E95BFC4F5E
:1028F0008081823008F021E080912A0281110EC08F
:102900000AC0809128029091290201969093290291
:10291000809328026AC0222309F467C080912B02A9
:10292000882321F081E080932A025FC010922A025E
:10293000A0911E02B0911F02E0911E02F0911F02B1
:102940002D913C918789908D82179307A8F08091F3
:102950001E0290911F0280911E0290911F02259AE3
:102960002D9A2FEF87EA91E6215080409040E1F7C1
:1029700000C000001D9AF5CF20916B0389E001C0D3
:102980002150422F50E0849FF001859FF00D1124CB
:10299000E95BFC4F9081992399F3A181B281129652
:1029A0000D90BC91A02DB283A183289FC00111245A
:1029B000865B9C4FA817B90729F412968D919C91BC
:1029C0009283818389E0849FF001859FF00D11241B
:1029D000E95BFC4F0180F281E02D86819781909325
:1029E0001F0280931E0220936B03A0911E02B091E0
:1029F0001F02CD91CDBFDD91DEBFFF91EF91DF9141
:102A0000CF91BF91AF919F918F917F916F915F9186
:102A10004F913F912F911F910F91FF90EF90DF9079
:102A2000CF90BF90AF909F908F907F906F905F906E
:102A30004F903F902F901F900F900FBE0F900895D2
:102A4000CF93DF93009751F0EC010E94170BCE015A
:102A50000E94F719DF91CF910C94B90DDF91CF91BE
:102A60000895CF93DF9300D000D01F92CDB7DEB78B
:102A7000E091F402F091F5021081F12CE12C112388
:102A800029F00580F681E02DE080F1800E94170B8F
:102A90000E940D0B6C0180912D0290912E02C816A0
:102AA000D90608F04CC00E943C0CD0922E02C09275
:102AB0002D020E94B90D50E040E0BE016F5F7F4FD4
:102AC00080910A0390910B030E94AC12882381F23B
:102AD000898187FDF0CF0C811D81D8011A968D91D7
:102AE0009C91892B21F0C80102960E946A0B0E94DA
:102AF0000D0B7C0180912D0290912E02E816F906B3
:102B000010F40E943C0CF0922E02E0922D02E9811A
:102B1000E150E93080F60E2E000CFF0BEA56FA4E1B
:102B2000D80152968C9152970C94DE1C19161916E6
:102B30005D1645165716191619165D164516D092CC
:102B40002E02C0922D02112351F0CE14DF0470F03A
:102B50000E94B90DB601C7010E94120CACCFE091E2
:102B6000F202F091F302808161E0811160E0009156
:102B70000A0310910B030FB6F8940F92D8015D96DB
:102B80008C915D978F3F11F45D961C92F801868DB4
:102B90008F3F09F4168E0F900FBED8015A968C9174
:102BA0005A9781113CC05296ED91FC91A0911E0262
:102BB000B0911F021F96FC93EE931E97A0911E02E8
:102BC000B0911F028481958151969C938E9350976A
:102BD00080911E0290911F02A481B5810C961396DC
:102BE0009C938E93129780911E0290911F020C96D7
:102BF00095838483E0911E02F0911F02C8014196E3
:102C0000958B848BF80181898F5F818BC7018C192B
:102C10009D09662311F08FEF9FEF0E945A0CC801A7
:102C20000E94280B0E94B90D811145CF0E94FB0C18
:102C300042CF8160F801828B2A813B816485758552
:102C4000620F731FA701C8010E94C40B882309F4F7
:102C500032CFD80152968C91529782FF12C06A816E
:102C60007B811C968D919C91680F791FA701C801EB
:102C70000E94EE0BD8015096ED91FC91C801099588
:102C80001ACF8E7FF801828BF5CF816052968C939C
:102C900052976A817B811D967C936E931C976E0D73
:102CA0007F1D9701A701C8010E94C40B04CF81FDBD
:102CB00004C0C8010E942015FECE8E7FF801828BD1
:102CC000FACE00E010E080912C0281110CC08091BE
:102CD0004703823010F00E94FB0C0115110599F397
:102CE0000E94FB00F0CF0FB6F8940F92E091220300
:102CF000F0912303C681D781CE0102960E946A0B10
:102D00008091430381508093430380912C02815032
:102D100080932C020F900FBE8F89988D0E942015F2
:102D2000CE010E942015CFCFCF93DF93EC010E94FC
:102D3000170BCE010E945B19EC010E94B90D209780
:102D400069F4259A2D9A2FEF80E792E02150804078
:102D50009040E1F700C000001D9AF5CFCE01DF9151
:102D6000CF9108957F928F929F92AF92BF92CF9210
:102D7000DF92EF92FF920F931F93CF93DF93982EE2
:102D8000A92E762E872E7A01B22ECA010E949416A1
:102D90006C01892B09F4F2C088E290E00E9494163D
:102DA000EC01892B09F4E7C0D88ECF8AA70165EA28
:102DB00070E0C6010E94ED1C81E0E81AF108EF897D
:102DC000F88DEE0DFF1D672D782DCE0149969B01E4
:102DD000285F3F4FDB014D91BD01DC014D93CD01DB
:102DE000AB0141505109DA014C91442319F06217AB
:102DF000730781F718A2BE8AB9A21AA21B861A8687
:102E00001D8A1C8AD987C88784E090E08B199109B4
:102E10009D878C87DB8BCA8B84E09E012D5D3F4FA5
:102E2000D9011D928A95E9F71FA29082DF011197BF
:102E3000AC9211971C92119780E88C9311971C9279
:102E400057971C9211971C92B397F983E883011549
:102E5000110519F0F801D183C0830FB6F8940F92D1
:102E6000809143038F5F8093430380911E02909172
:102E70001F02892B09F091C0D0931F02C0931E023C
:102E800080914303813081F587E493E00E94ED0C4B
:102E900080E593E00E94ED0C89E593E00E94ED0C43
:102EA00082E693E00E94ED0C88E393E00E94ED0C33
:102EB0008FE293E00E94ED0C86E293E00E94ED0C1D
:102EC0008DE193E00E94ED0C84E193E00E94ED0C13
:102ED00088E393E090931303809312038FE293E0CF
:102EE0009093110380931003809141038F5F80932F
:102EF0004103AE8980916B038A1710F4A0936B0392
:102F000029E02A9FD0011124A95BBC4F11960D9096
:102F1000BC91A02DBD83AC8314968D919C91159787
:102F20009F838E831496ED91FC911597CE010296A6
:102F30009383828315969C938E931497EE89E29FD8
:102F4000F0011124E95BFC4FFB87EA8780818F5FEA
:102F500080830F900FBE80914203882351F0E0914F
:102F60001E02F0911F0296898E89981710F40E9414
:102F7000FB0C81E004C0C6010E9420158FEFDF9199
:102F8000CF911F910F91FF90EF90DF90CF90BF9066
:102F9000AF909F908F907F90089580914203811110
:102FA000A3CFE0911E02F0911F0296898E898917A6
:102FB00008F49ACFD0931F02C0931E0295CF0F93AF
:102FC0001F93CF93DF93082F162F869FC0011124E4
:102FD0004F960E949416EC01009779F1111133C0BD
:102FE000998388830B8F1C8F0FB6F8940F9288817A
:102FF00099812B8D4C8DBC01249F600D711D112476
:103000007D836C831A8E9B838A832150330B429F6E
:10301000B001439F700D1124860F971F9F838E83ED
:103020008FEF8D8F8E8FCE0108960E94ED0CCE0112
:1030300041960E94ED0C0F900FBECE01DF91CF9113
:103040001F910F9108954F9699838883CBCF0E944B
:1030500057131895ECE6F3E01382128288EE93E0A2
:10306000A0E0B0E084839583A683B78323E131E0B9
:103070003183208325EC30E03587248724EC30E051
:103080003787268720EC30E0318B208B21EC30E035
:10309000338B228B22EC30E0358B248B26EC30E016
:1030A000378B268B118E128E138E148EE9E0F4E08E
:1030B0001382128284839583A683B78385E291E08D
:1030C00091838083E5E1F4E01382128287E391E04B
:1030D0009183808387E2848380E1818782E0828795
:1030E00013860895789484B5826084BD84B5816028
:1030F00084BD85B5826085BD85B5816085BD8091C3
:103100006E00816080936E0010928100809181003A
:103110008260809381008091810081608093810032
:10312000809180008160809380008091B1008460F4
:103130008093B1008091B00081608093B000809155
:103140007A00846080937A0080917A008260809314
:103150007A0080917A00816080937A0080917A0071
:10316000806880937A001092C1002091050130910F
:1031700006018FEF98E0821B930B909302018093DE
:1031800001010E9426070EE013E020E040EC50E031
:1031900060E172E081E696E10E94B216813009F0AA
:1031A0007FC00FB6F8940F9280910A0390910B03A1
:1031B000892BE1F48FEF92E00E94ED0C86EF92E014
:1031C0000E94ED0C8FEF92E09093F5028093F40251
:1031D00086EF92E09093F3028093F20265E08AE03A
:1031E0000E94DF1790930B0380930A030F900FBE8A
:1031F00080910A0390910B03892B09F451C008E0D8
:1032000013E023E045E550E065E172E081E395E1FC
:103210000E94B216813009F043C0F8942FEF3FEFBF
:1032200030930D0320930C038093420310924503C7
:1032300010924403A89588E190EC0FB6F894A895F5
:10324000809360000FBE90936000A0911E02B09129
:103250001F02CD91CDBFDD91DEBFFF91EF91DF91D8
:10326000CF91BF91AF919F918F917F916F915F911E
:103270004F913F912F911F910F91FF90EF90DF9011
:10328000CF90BF90AF909F908F907F906F905F9006
:103290004F903F902F901F900F900FBE0F9008956A
:1032A000809100010E942607C0E0D0E02097F1F352
:1032B0000E94FB00FBCF0F931F93CF93DF938230CD
:1032C000910510F482E090E0E0912304F091240451
:1032D00030E020E0B0E0A0E0309799F4211531050E
:1032E00009F44AC0281B390B24303105D8F58A81EE
:1032F0009B816115710589F1FB0193838283FE0136
:1033000011C0408151810281138148175907E0F0B3
:103310004817590799F4109761F012960C93129779
:1033200013961C933296CF01DF91CF911F910F918D
:1033300008950093230410932404F4CF211531053C
:1033400051F04217530738F0A901DB019A01BD0182
:10335000DF01F801C1CFEF01F9CF909324048093EE
:103360002304CDCFFE01E20FF31F819391932250EE
:10337000310939832883D7CF209121043091220449
:10338000232B41F420910301309104013093220456
:103390002093210420910101309102012115310572
:1033A00041F42DB73EB74091050150910601241B11
:1033B000350BE0912104F0912204E217F307A0F409
:1033C0002E1B3F0B2817390778F0AC014E5F5F4F7B
:1033D0002417350748F04E0F5F1F50932204409387
:1033E0002104819391939FCFF0E0E0E09CCFCF93B5
:1033F000DF930097E9F0FC01329713821282A091CB
:103400002304B0912404ED0130E020E01097A1F4F2
:1034100020813181820F931F209121043091220459
:103420002817390709F061C0F0932204E0932104C2
:10343000DF91CF910895EA01CE17DF07E8F54A81C1
:103440005B819E0141155105B1F7E901FB83EA83D8
:1034500049915991C40FD51FEC17FD0761F4808184
:1034600091810296840F951FE90199838883828157
:1034700093819B838A83F0E0E0E012968D919C918A
:1034800013970097B9F52D913C911197CD010296B4
:10349000820F931F209121043091220428173907AD
:1034A00039F6309751F51092240410922304B0930A
:1034B0002204A0932104BCCFD383C28340815181D5
:1034C000840F951FC817D90761F44E5F5F4F88813D
:1034D0009981480F591F518340838A819B8193832F
:1034E00082832115310509F0B0CFF0932404E093D5
:1034F00023049ECFFD01DC01C0CF13821282D7CFFF
:103500005058BB27AA270E94981A0C940B1C0E94A3
:10351000FD1B38F00E94041C20F039F49F3F19F481
:1035200026F40C94FA1B0EF4E095E7FB0C94F41BC4
:10353000E92F0E941C1C58F3BA176207730784070F
:10354000950720F079F4A6F50C943E1C0EF4E09556
:103550000B2EBA2FA02D0B01B90190010C01CA014D
:10356000A0011124FF27591B99F0593F50F4503EF8
:1035700068F11A16F040A22F232F342F4427585FEA
:10358000F3CF469537952795A795F0405395C9F702
:103590007EF41F16BA0B620B730B840BBAF09150BA
:1035A000A1F0FF0FBB1F661F771F881FC2F70EC059
:1035B000BA0F621F731F841F48F48795779567952C
:1035C000B795F7959E3F08F0B0CF9395880F08F018
:1035D0009927EE0F9795879508950E94D01B08F4C0
:1035E00081E008950E94061B0C940B1C0E94041C91
:1035F00058F00E94FD1B40F029F45F3F29F00C9425
:10360000F41B51110C943F1C0C94FA1B0E941C1CBF
:1036100068F39923B1F3552391F3951B550BBB2701
:10362000AA2762177307840738F09F5F5F4F220F46
:10363000331F441FAA1FA9F335D00E2E3AF0E0E83D
:1036400032D091505040E695001CCAF72BD0FE2F87
:1036500029D0660F771F881FBB1F2617370748071B
:10366000AB07B0E809F0BB0B802DBF01FF279358D3
:103670005F4F3AF09E3F510578F00C94F41B0C9488
:103680003F1C5F3FE4F3983ED4F3869577956795AA
:10369000B795F7959F5FC9F7880F911D9695879508
:1036A00097F90895E1E0660F771F881FBB1F621727
:1036B00073078407BA0720F0621B730B840BBA0BE5
:1036C000EE1F88F7E09508950E94241C88F09F570C
:1036D00098F0B92F9927B751B0F0E1F0660F771F36
:1036E000881F991F1AF0BA95C9F714C0B13091F02C
:1036F0000E943E1CB1E008950C943E1C672F782F69
:103700008827B85F39F0B93FCCF3869577956795F0
:10371000B395D9F73EF490958095709561957F4F5C
:103720008F4F9F4F0895E89409C097FB3EF4909502
:103730008095709561957F4F8F4F9F4F9923A9F08A
:10374000F92F96E9BB279395F69587957795679519
:10375000B795F111F8CFFAF4BB0F11F460FF1BC05D
:103760006F5F7F4F8F4F9F4F16C0882311F096E9F0
:1037700011C0772321F09EE8872F762F05C066239E
:1037800071F096E8862F70E060E02AF09A95660F57
:10379000771F881FDAF7880F9695879597F9089510
:1037A000990F0008550FAA0BE0E8FEEF1616170652
:1037B000E807F907C0F012161306E407F50798F0BA
:1037C000621B730B840B950B39F40A2661F0232BD3
:1037D000242B252B21F408950A2609F4A140A6954F
:1037E0008FEF811D811D089597F99F6780E870E034
:1037F00060E008959FEF80EC089500240A94161667
:10380000170618060906089500240A9412161306CE
:10381000140605060895092E0394000C11F488235C
:1038200052F0BB0F40F4BF2B11F460FF04C06F5F78
:103830007F4F8F4F9F4F089557FD9058440F551F4E
:1038400059F05F3F71F04795880F97FB991F61F022
:103850009F3F79F087950895121613061406551F99
:10386000F2CF4695F1DF08C0161617061806991F05
:10387000F1CF86957105610508940895E894BB27FA
:1038800066277727CB0197F908950E94D01B08F48B
:103890008FEF08950E945D1C0C940B1C0E94FD1B71
:1038A00038F00E94041C20F0952311F00C94F41BB6
:1038B0000C94FA1B11240C943F1C0E941C1C70F3E6
:1038C000959FC1F3950F50E0551F629FF001729FC5
:1038D000BB27F00DB11D639FAA27F00DB11DAA1FD4
:1038E000649F6627B00DA11D661F829F2227B00D21
:1038F000A11D621F739FB00DA11D621F839FA00DAC
:10390000611D221F749F3327A00D611D231F849FFB
:10391000600D211D822F762F6A2F11249F57504052
:103920009AF0F1F088234AF0EE0FFF1FBB1F661FCD
:10393000771F881F91505040A9F79E3F510580F096
:103940000C94F41B0C943F1C5F3FE4F3983ED4F3BB
:10395000869577956795B795F795E7959F5FC1F73A
:10396000FE2B880F911D9695879597F908950E94D3
:10397000D01B880B990B0895A1E21A2EAA1BBB1B22
:10398000FD010DC0AA1FBB1FEE1FFF1FA217B3072B
:10399000E407F50720F0A21BB30BE40BF50B661F41
:1039A000771F881F991F1A9469F760957095809505
:1039B00090959B01AC01BD01CF010895EE0FFF1F53
:1039C0000590F491E02D0994FB01DC0102C0019007
:1039D0000D9241505040D8F70895DC0101C06D931D
:1039E00041505040E0F70895F894FFCF03000025C0
:1039F0000480000000400014005400000000002A71
:103A0000018700B4007701E500C300D70000000083
:103A100000FA02CD021004A302C602B302A40200FF
:103A20000000007604870010043A020D0A00746159
:103A3000736B5F6C65642068696768207761746583
:103A400072206D61726B2028776F726473293A203F
:103A5000002D2D2D00566F6C746167653A20002093
:103A60002020202020202020202020202020200076
:103A70006E616E00696E66006F7666005600746156
:103A8000736B5F6C63642068696768207761746535
:103A900072206D61726B2028776F726473293A20EF
:103AA000007461736B5F73656E736F722068696712
:103AB00068207761746572206D61726B2028776F62
:103AC000726473293A20004572726F3A206E616FFA
:103AD000206520706F73736976656C20637269610D
:103AE00072206F2073656D61666F726F0073656E13
:103AF000736F72004C4344004C45440049444C45AC
:103B000000546D72205376630000FFFFFFFFFFFF3C
:103B1000FFFFFFFFFFFFFFFFFFFFFFFFFFFFFFFFB5
:103B2000FFFFFFFFFFFFFFFFFFFFFFFFFFFFFFFFA5
:103B3000FFFFFFFFFFFFFFFFFFFFFFFFFFFFFFFF95
:103B4000FFFFFFFFFFFFFFFFFFFFFFFFFFFFFFFF85
:107800000C94343C0C94513C0C94513C0C94513CE1
:107810000C94513C0C94513C0C94513C0C94513CB4
:107820000C94513C0C94513C0C94513C0C94513CA4
:107830000C94513C0C94513C0C94513C0C94513C94
:107840000C94513C0C94513C0C94513C0C94513C84
:107850000C94513C0C94513C0C94513C0C94513C74
:107860000C94513C0C94513C11241FBECFEFD8E036
:10787000DEBFCDBF11E0A0E0B1E0ECE9FFE702C060
:1078800005900D92A230B107D9F712E0A2E0B1E065
:1078900001C01D92AD30B107E1F70E942D3D0C945F
:1078A000CC3F0C94003C982F959595959595959582
:1078B000905D8F708A307CF0282F295A8091C0000B
:1078C00085FFFCCF9093C6008091C00085FFFCCF60
:1078D0002093C6000895282F205DF0CF982F809127
:1078E000C00085FFFCCF9093C6000895EF92FF92F1
:1078F0000F931F93EE24FF2487018091C00087FD22
:1079000017C00894E11CF11C011D111D81E4E8164B
:1079100082E4F8068FE0080780E0180770F3E09132
:107920000401F091050109958091C00087FFE9CF1E
:107930008091C6001F910F91FF90EF9008950E94D3
:10794000763C982F8091C00085FFFCCF9093C600B5
:1079500091362CF490330CF09053892F089597555D
:10796000892F08951F930E949F3C182F0E949F3CCF
:107970001295107F810F1F9108951F93182F882350
:1079800021F00E94763C1150E1F71F9108951F935A
:10799000182F0E94763C803249F0809103018F5F5E
:1079A000809303018530C1F01F9108958091C0003C
:1079B00085FFFCCF84E18093C6008091C00085FFE5
:1079C000FCCF1093C6008091C00085FFFCCF80E102
:1079D0008093C6001F910895E0910401F091050184
:1079E00009951F9108950E94763C803241F0809164
:1079F00003018F5F80930301853081F008958091AA
:107A0000C00085FFFCCF84E18093C6008091C00058
:107A100085FFFCCF80E18093C6000895E0910401CA
:107A2000F09105010995089540E951E08823A1F0FE
:107A30002D9A28EE33E0FA013197F1F721503040CA
:107A4000D1F72D9828EE33E0FA013197F1F7215064
:107A50003040D1F7815061F708953F924F925F9285
:107A60006F927F928F929F92AF92BF92CF92DF924E
:107A7000EF92FF920F931F93CF93DF93000080E16B
:107A80008093C4001092C50088E18093C10086E015
:107A90008093C2005098589A259A81E00E94143D24
:107AA00024E1F22E9EE1E92E85E9D82E0FE0C02ECA
:107AB00010E1B12EAA24A394B1E49B2EA6E58A2E50
:107AC000F2E57F2EE0E26E2E79E4572E63E5462E36
:107AD00050E5352E0E94763C8033B1F18133B9F107
:107AE000803409F46FC0813409F476C0823409F41B
:107AF00085C0853409F488C0803531F1823521F1A3
:107B0000813511F1853509F485C0863509F48DC0BC
:107B1000843609F496C0843709F403C1853709F423
:107B200072C1863709F466C0809103018F5F80932C
:107B30000301853079F6E0910401F0910501099582
:107B40000E94763C803351F60E94F33CC3CF0E94E2
:107B5000763C803249F78091C00085FFFCCFF092DF
:107B6000C6008091C00085FFFCCF9092C600809136
:107B7000C00085FFFCCF8092C6008091C00085FFC9
:107B8000FCCF7092C6008091C00085FFFCCF609250
:107B9000C6008091C00085FFFCCF5092C600809146
:107BA000C00085FFFCCF4092C6008091C00085FFD9
:107BB000FCCF3092C6008091C00085FFFCCFB09210
:107BC000C60088CF0E94763C863808F4BDCF0E945C
:107BD000763C0E94F33C7ECF0E94763C803809F4CC
:107BE0009CC0813809F40BC1823809F43CC1883942
:107BF00009F48FC080E00E94C73C6CCF84E10E94F2
:107C0000BD3C0E94F33C66CF85E00E94BD3C0E94D3
:107C1000F33C60CF0E94763C809306010E94763C44
:107C2000809307010E94F33C55CF0E94763C80333D
:107C300009F41DC183E00E94BD3C80E00E94C73C66
:107C400049CF0E94763C809309020E94763C809343
:107C5000080280910C028E7F80930C020E94763C79
:107C6000853409F415C18091080290910902892B8D
:107C700089F000E010E00E94763CF801E85FFE4FDA
:107C800080830F5F1F4F80910802909109020817AF
:107C9000190788F30E94763C803209F045CF809125
:107CA0000C0280FF01C16091060170910701660F0F
:107CB000771F7093070160930601A0910802B091AD
:107CC00009021097C9F0E8E0F1E09B01AD014E0F09
:107CD0005F1FF999FECF32BD21BD819180BDFA9A17
:107CE000F99A2F5F3F4FE417F50799F76A0F7B1F4B
:107CF00070930701609306018091C00085FFFCCF5F
:107D0000F092C6008091C00085FFFCCFB092C60003
:107D1000E1CE83E00E94C73CDDCE82E00E94C73CFA
:107D2000D9CE0E94763C809309020E94763C8093D3
:107D300008028091060190910701880F991F909386
:107D40000701809306010E94763C853409F4A6C0A1
:107D500080910C028E7F80930C020E94763C8032D0
:107D600009F0B8CE8091C00085FFFCCFF092C6002C
:107D7000609108027091090261157105B9F140E046
:107D800050E080910C02A82FA170B82FB27011C0E2
:107D9000BB2309F45CC0E0910601F0910701319624
:107DA000F0930701E09306014F5F5F4F46175707B7
:107DB000E8F4AA2369F3F999FECF209106013091E6
:107DC000070132BD21BDF89A90B58091C00085FFB2
:107DD000FCCF9093C6002F5F3F4F30930701209355
:107DE00006014F5F5F4F4617570718F38091C00099
:107DF00085FDE5CE8091C00085FFF8CFE0CE81E023
:107E00000E94C73C67CE0E94763C803209F08CCE3F
:107E10008091C00085FFFCCFF092C6008091C00029
:107E200085FFFCCFE092C6008091C00085FFFCCFAB
:107E3000D092C6008091C00085FFFCCFC092C600E2
:107E40008091C00085FFFCCFB092C60043CEE09188
:107E50000601F091070194918091C00085FFFCCF4D
:107E60009093C6009CCF80E10E94C73C33CE0E9415
:107E7000763C0E94763C182F0E94763C112309F430
:107E800083C0113009F484C08FE00E94C73C22CE29
:107E900080910C02816080930C02E5CE80910C02EF
:107EA000816080930C0259CF809107018823880F4D
:107EB000880B8A2180930B02809106019091070123
:107EC000880F991F90930701809306018091080203
:107ED00080FF09C080910802909109020196909359
:107EE000090280930802F894F999FECF1127E091D6
:107EF0000601F0910701C8E0D1E08091080290915D
:107F00000902103091F40091570001700130D9F34B
:107F100003E000935700E89500915700017001308D
:107F2000D9F301E100935700E89509901990009169
:107F3000570001700130D9F301E000935700E89534
:107F40001395103498F011270091570001700130FB
:107F5000D9F305E000935700E895009157000170B0
:107F60000130D9F301E100935700E895329602976A
:107F700009F0C7CF103011F00296E5CF112480919F
:107F8000C00085FFB9CEBCCE8EE10E94C73CA2CD19
:107F900085E90E94C73C9ECDF894FFCF8000FFFF8B
:107FA000FFFFFFFFFFFFFFFFFFFFFFFFFFFFFFFFE1
:107FB000FFFFFFFFFFFFFFFFFFFFFFFFFFFFFFFFD1
:107FC000FFFFFFFFFFFFFFFFFFFFFFFFFFFFFFFFC1
:107FD000FFFFFFFFFFFFFFFFFFFFFFFFFFFFFFFFB1
:02000004008179
:00000001FF
