:020000040000FA
:10000000FE2B00308A000408840A82070034023480
:100010000434403480345434653473347434653477
:10002000203445344534503452344F344D34203428
:10003000453458345434003454346534733474348F
:10004000613472342034283431342F34303429343C
:1000500020343F3400345034723465347334733494
:1000600069346F346E34653420345234533454342C
:100070000034543465347334743465342034543467
:10008000653463346C34613464346F340034543414
:10009000653473347434653420344C34453444341A
:1000A0007334003454346534733474346534203418
:1000B0004C3443344434003420342034203420344D
:1000C00020344534523452344F34003420342034F8
:1000D0002034203420344F344B34003446346934D7
:1000E0006D3400344F346B340034FF3FFF3FFF3F2B
:1000F000FF3FFF3FFF3FFF3FFF3FFF3FFF3FFF3F10
:10010000FF3FFF3FFF3FFF3FFF3FFF3FFF3FFF3FFF
:10011000FF3FFF3FFF3FFF3F0000000000000000E7
:100120000800831605128312851505160800831230
:10013000851505168C20831205128C200800831269
:10014000851505128C20831205168C200800831259
:100150008F008E010F1CB0280C088D000D088E0733
:1001600003108C0D03108F0C0F08031DAA280E0816
:1001700008008312950094011408150784000120DB
:10018000003A031908001408150784000120E42030
:1001900001308312930013089407BC288312920045
:1001A0000514120819218312861103308C000030C7
:1001B0008D003B218312051003308C0000308D0030
:1001C0003B218312051408008312920005141208C3
:1001D00019218312861503308C0000308D003B21DD
:1001E0008312051003308C0000308D003B218312F8
:1001F00005140800831212089300130895001108D3
:100200009300130896009720A030BF218312150891
:10021000BF2183121608BF219720A130BF210130D2
:10022000F82183129300130894009F20831214086E
:10023000080083128D0006128E0108300E0203188A
:1002400008000D088C000E03FF3A073E013E2A29E4
:1002500003108C0CFF3E031D28290C1C322983122D
:1002600086153429831286110616061201308C0079
:100270000C088E071D2983128F0190010D081002B2
:10028000031D44290C080F02031808009101C8300F
:1002900011020318592900000000000000000000AE
:1002A000013083128E000E089107C8301102031C22
:1002B0004B2901308F070318900A003090073E2920
:1002C00083120510861114308C0000308D003B2104
:1002D000831205143030CE20053083128C0000309C
:1002E0008D003B213030CE20013083128C00003055
:1002F0008D003B213830CE200830CE200F30CE206C
:100300000130CE203830CE208030CE20080083123D
:1003100019089A009B011A089F001B08A0001808E2
:100320009A001A089C0017089A001A089D009E015E
:100330009720A030BF2183121C08BF2183121D0803
:10034000BF2183121F08BF219F20013083129A0012
:100350001A089E071808920017089100FA208312C5
:100360009A009B0120081B06031DB8291F081A06C6
:10037000031908000A301E02031808009829831286
:100380008D0085118C2083128E0108300E02031817
:10039000EA290D088C000E03FF3A073E013ED229E0
:1003A00003108C0CFF3E031DD0290C1CDA2983128C
:1003B0000516DC298312051285158C208312851100
:1003C0008C20013083128C000C088E0708300E023E
:1003D000031CC929831605168C20831285158C20D1
:1003E0008312851183160512831205168C200800CE
:1003F00083128E008F0185118C20831605168312BF
:1004000005169001083010020318262A85158C2045
:1004100000308312051A01308C001003FF3A073EAA
:10042000013E142A03108C0DFF3E031D122A0C08F6
:100430008D000D088F0485118C20013083128C00F3
:100440000C08900708301002031C062A83160512B8
:1004500083120E0803192E2A05122F2A05168C2046
:10046000831285158C20831285118C2083120F082E
:100470000800831296019701990105089400140859
:100480009800AA2A9A0104301A0203189E2A1A0810
:10049000013E84000120940014088504861F622A0E
:1004A00014308C0000308D003B218312861F622A9D
:1004B000861B582A0330940014088C001A08A720C1
:1004C000013E892A061F762A14308C0000308D00E8
:1004D0003B218312061F762A061B6C2A03309400E8
:1004E00014088C001A08A720023E892A861E8E2A2C
:1004F00014308C0000308D003B218312861E8E2A22
:10050000861A802A0330940014088C001A08A72049
:10051000033E83129500150899009E2A1A08013E91
:1005200084000120FF3A94001408850501309400EE
:1005300014089A0704301A02031C472A05308C005D
:1005400000308D003B210530831296070318970A6F
:100550000030970713081702031DB02A120816026D
:10056000031CB62A12081304031DB92A190803191B
:10057000422A1908031DC02AFF309400140899006C
:100580000B3019060319990118088500190808008D
:10059000303083168500E7308600FE3083128500F8
:1005A0008601602191200130CE208030CE20831240
:1005B000A301103023020318E92A2308413EE42056
:1005C00001308312A1002108A30710302302031C6D
:1005D000DD2AC030CE208312A3011030230203187D
:1005E000FD2A2308613EE42001308312A100210886
:1005F000A30710302302031CF12AC8308C000030FE
:100600008D003B210130CE208330CE204C30B920EC
:1006100020308312A1002108A30080302302031898
:10062000292B23080F39031D172BC030CE2083122E
:100630002308E420323083128C0000308D003B21EF
:1006400001308312A1002108A30780302302031C7C
:10065000112B64308C0000308D003B210130CE2006
:100660008330CE204C30B920C730CE206C30B9203A
:10067000F43083128C0001308D003B210130CE20FC
:100680008130CE204130B9208312A30104302302EF
:1006900003187C2B64308C0000308D003B218312CA
:1006A0000230850664308C0000308D003B218312BF
:1006B0000430850664308C0000308D003B214030D2
:1006C0008312A1002108850664308C0000308D0063
:1006D0003B2180308312A1002108850664308C0004
:1006E00000308D003B2101308312A1002108A307B7
:1006F00004302302031C4A2B0130CE208230CE204E
:100700003330B920C130CE208312A3010E30230232
:100710000318972BB83092000B3093003922303EEB
:10072000E42001308312A1002108A307862B0130A9
:10073000CE208030CE200530B920C030CE201630FB
:10074000B92000308312920093003922013A031D30
:10075000F32B0A308312910000309200FA208312AA
:10076000A1002108A2002208E4200A308312970089
:1007700000309800A530A1002108990087210A3097
:1007800083129700003098005A30A1002108990088
:1007900087210A308312910000309200FA208312E0
:1007A000A1002108A3000A30970000309800220819
:1007B000A1002108990087210130CE208030CE2071
:1007C0000530B920C030CE205A3083122306031DD5
:1007D000EB2B6030EC2B5630B920E83083128C00C4
:1007E00003308D003B210130CE208430CE20683094
:1007F000B920C130CE202530B920FD2B8301C82A75
:10400000FF3FFF3FFF3FFF3FFF3FFF3FFF3FFF3FC0
:02400E00FAFFB7
:10420000FF00FF00FF00FF00FF00FF00FF00FF00B6
:10421000FF00FF00FF00FF00FF00FF00FF00FF00A6
:10422000FF00FF00FF00FF00FF00FF00FF00FF0096
:10423000FF00FF00FF00FF00FF00FF00FF00FF0086
:10424000FF00FF00FF00FF00FF00FF00FF00FF0076
:10425000FF00FF00FF00FF00FF00FF00FF00FF0066
:10426000FF00FF00FF00FF00FF00FF00FF00FF0056
:10427000FF00FF00FF00FF00FF00FF00FF00FF0046
:00000001FF
