:020000040000FA
:100000003528FF3FFF3FFF3FA000030EA1000B1D5F
:100010001D280B1106308100A80A1030280603198C
:10002000A8010F30220603191B2822082802031CEE
:100030001B2805101D2805141D28210E8300A00E65
:10004000200E090022080F398207EE342834CD34FF
:100050006D342B346734E7342C34EF346F34AF34E1
:10006000E334C634E934C7348734831207309F0041
:100070008316063085000030860081308100A03074
:100080008B00831285018601A3010030A200063097
:1000900081007228A401A6011430A500A7008518CC
:1000A0005828A40B4F28A50B4F28231C6428592837
:1000B000231005196228A60B5928A70B5928A31C41
:1000C0006B284A28A3104A2823142208003A03194F
:1000D0004A28A2037228A31422080F3A03194A28B7
:1000E000A20A7228222086004A28FF3FFF3FFF3FD6
:1000F000FF3FFF3FFF3FFF3FFF3FFF3FFF3FFF3F10
:10010000FF3FFF3FFF3FFF3FFF3FFF3FFF3FFF3FFF
:10011000FF3FFF3FFF3FFF3FFF3FFF3FFF3FFF3FEF
:10012000FF3FFF3FFF3FFF3FFF3FFF3FFF3FFF3FDF
:02400E00613F10
:10420000FF00FF00FF00FF00FF00FF00FF00FF00B6
:10421000FF00FF00FF00FF00FF00FF00FF00FF00A6
:10422000FF00FF00FF00FF00FF00FF00FF00FF0096
:10423000FF00FF00FF00FF00FF00FF00FF00FF0086
:10424000FF00FF00FF00FF00FF00FF00FF00FF0076
:10425000FF00FF00FF00FF00FF00FF00FF00FF0066
:10426000FF00FF00FF00FF00FF00FF00FF00FF0056
:10427000FF00FF00FF00FF00FF00FF00FF00FF0046
:10428000FF00FF00FF00FF00FF00FF00FF00FF0036
:10429000FF00FF00FF00FF00FF00FF00FF00FF0026
:1042A000FF00FF00FF00FF00FF00FF00FF00FF0016
:1042B000FF00FF00FF00FF00FF00FF00FF00FF0006
:1042C000FF00FF00FF00FF00FF00FF00FF00FF00F6
:1042D000FF00FF00FF00FF00FF00FF00FF00FF00E6
:1042E000FF00FF00FF00FF00FF00FF00FF00FF00D6
:1042F000FF00FF00FF00FF00FF00FF00FF00FF00C6
:00000001FF
